:100000000CC300000C9465310C9496310C94C731EC
:100010000C94F8310C9429320C945A320C948B3293
:100020000C94BC322BC3000029C3000027C300007E
:1000300025C300000C94063121C300001FC300003B
:100040001DC300001BC3000019C3000017C300003C
:100050000C94642613C3000011C300000C94ED320D
:100060000DC300000C94CD2B0C94032C07C300008F
:1000700005C3000003C3000001C30000FFC200006D
:10008000FDC20000FBC20000F9C20000F7C2000080
:100090000C94622C0C94982CF1C200000C946C27E8
:1000A000EDC20000EBC20000E9C20000E7C20000A0
:1000B000E5C20000E3C20000E1C20000DFC20000B0
:1000C000DDC20000DBC20000D9C200000C94F72C96
:1000D0000C942D2DD3C200000C948C2D0C94C22DA9
:1000E000CDC200001D04210430043F044C04590417
:1000F0006804C304810493043C343F342E34323406
:1001000038347634433447344D34513455345B34C9
:100110005F346334763469346D347134446F6E65A2
:100120002E00496E697469616C697A696E67205343
:100130006F6C656E6F6964732E2E2E00446F6E6552
:100140002E00496E697469616C697A696E67204531
:100150006E636F646572732E2E2E00446F6E652E73
:1001600000496E697469616C697A696E67204C43F5
:1001700044732E2E2E00446F6E652E00496E6974F6
:1001800069616C697A696E6720424B2055492E2E51
:100190002E00446F6E652E00496E697469616C694A
:1001A0007A696E6720484C542055492E2E2E004403
:1001B0006F6E652E00496E697469616C697A696E4B
:1001C00067204D41494E2055492E2E2E00446F6E1A
:1001D000652E00496E697469616C697A696E672081
:1001E0004D4C542055492E2E2E00456E636F64658C
:1001F0007220436C69636B2E00456E636F64657299
:100200002052656C65617365642E204E6F204163DA
:1002100074696F6E00456E636F6465722048656C2B
:10022000642E204E6F20416374696F6E00456E63CB
:100230006F64657220507265737365642E204E6F13
:1002400020416374696F6E0020204D656E752049F2
:1002500074656D3A00202052656472617700202039
:100260004D656E75204974656D3A002020526564B5
:100270007261770020204552522120556E6B6E6FBF
:10028000776E204D656E75204974656D20547970C8
:100290006500456E636F6465722044656372656DC9
:1002A000656E7400456E636F64657220496E63729B
:1002B000656D656E7400456E636F64657220436C96
:1002C00069636B00456E636F64657220436C69639C
:1002D0006B0020627974657320667265652E00205C
:1002E0006D732029202D2000206672616D657320BA
:1002F0002F200020486572747A20280052756E6E97
:10030000696E6720617420003D3D3D3D3D3D3D3DB2
:100310003D3D3D3D3D3D3D3D3D3D3D3D3D3D3D004A
:100320002D4D41494E2D50524F4752414D2D000009
:10033000467265652042797465733A20004672659D
:10034000652042797465733A20002D494E4954491D
:10035000414C495A494E472D000020205665727382
:10036000696F6E3A20002A2A2A2A2A2A2A2A2A2A49
:100370002A2A2A2A2A2A2A2A2A2A2A2A2A2A2A2ADD
:100380002A2A2A2A2A2A2A2A2A2A2A00202050729D
:100390006F6A656374204E61727768616C20457383
:1003A00074642E203230313520202020202020205F
:1003B00020002A2A2A2A2A2A2A2A2A2A2A2A2A2AD1
:1003C0002A2A2A2A2A2A2A2A2A2A2A2A2A2A2A2A8D
:1003D0002A2A2A2A2A2A2A000200000A0B02090CC9
:1003E0000D0E0807030401000000000000000000DB
:1003F00000000000000000000000000000000000FD
:1004000000000000001211100000000000000000B9
:1004100000000000000000000000000000000001DB
:100420000210202008081020401020408002010205
:1004300001080402010102040810204080804020CD
:100440001008040201800402018040201008040208
:100450000108040201010204081020408001020486
:100460000810204080050505050705080808080252
:100470000202020A0A08080404040401010101013D
:100480000101010303030303030303040707070C2C
:100490000C0C0C0C0C0C0C020202020606060606E2
:1004A0000606060B0B0B0B0B0B0B0B00002000239F
:1004B00000260029002C002F00320000010000035C
:1004C000010601090100002200250028002B002E52
:1004D000003100340002010000050108010B010099
:1004E000002100240027002A002D003000330001E5
:1004F000010000040107010A0100407A10F35A00CC
:10050000A0724E18090010A5D4E80000E87648173C
:100510000000E40B54020000CA9A3B000000E1F521
:1005200005000080969800000040420F000000A0E7
:100530008601000000102700000000E80300000012
:10054000006400000000000A00000000000100003C
:100550000000002C76D888DC674F0823DFC1DFAEAF
:1005600059E1B1B796E5E3E453C63AE65199769678
:10057000E8E6C28426EB898C9B62ED407C6FFCEF41
:10058000BC9C9F40F2BAA56FA5F490055A2AF75C6F
:10059000936B6CF9676DC11BFCE0E40D47FEF52021
:1005A000E6B500D0ED902E030094357705008084E9
:1005B0001E080000204E0A000000C80C33333333FD
:1005C0000F986E12831141EF8D2114893BE6551669
:1005D000CFFEE6DB18D1844B381BF77C1D901DA4A1
:1005E000BBE424203284725E228100C9F124ECA194
:1005F000E53D270013084F0D6A0F41112B14F82118
:1006000068296B29352CCA2C5F2DF42D612EC50B62
:10061000C40EE5108813A615462211241FBECFEF85
:10062000D1E2DEBFCDBF00E00CBF17E0A0E0B2E03A
:10063000EAEFFDE700E00BBF02C007900D92A4397E
:10064000B107D9F728E1A4E9B7E001C01D92A43FA2
:10065000B207E1F712E0C7E0D3E000E006C021975F
:100660000109802FFE010E949439CA3FD10780E022
:100670000807A9F70E946D2E0C94EC3EC1CCCF93D5
:10068000DF93EC0109960E940A35CE010396DF91B3
:10069000CF910C940A35CF93DF93EC018A818823A4
:1006A00011F0823029F488810E94E234988B8F8780
:1006B0008F859889DF91CF9108950F931F93CF93E2
:1006C000DF93EC018B018A81813021F061E0888128
:1006D0000E947734188B0F8761E088810E947734FD
:1006E0006F858881DF91CF911F910F910C94B33466
:1006F0006F927F928F929F92AF92BF92CF92DF9232
:10070000EF92FF920F931F93CF93DF931F92CDB77A
:10071000DEB73C015B0149018FEF9FEFF30191834D
:10072000808312826301F3E0CF0ED11C6DE874E088
:10073000C60149830E947135730189E0E80EF11CFE
:1007400062E974E0C7010E947135F301B182A082B1
:1007500049814283B401C6010E948535B801C701B1
:100760000F90DF91CF911F910F91FF90EF90DF904D
:10077000CF90BF90AF909F908F907F906F900C9490
:1007800085350895CF93DF93EC0168E974E00E940A
:100790007135CE01DF91CF91089580E008950895DD
:1007A0000C947B2E29EA34E0FC01318320831282F1
:1007B000089580E008950895CF93DF93EC0187EBCF
:1007C00094E099838883CE0140960E940A35CE0139
:1007D0000A960E940A35CE01DF91CF91E0CFCF93E8
:1007E000DF93EC01E9DFCE01DF91CF910C947B2EFA
:1007F000EF92FF920F931F93CF93DF93CDB7DEB7A6
:1008000061970FB6F894DEBF0FBECDBF7C018B01A0
:1008100065E877E00E947135D8011396EC918E2F30
:1008200090E0FC013197EA30F10508F0ACC0882770
:10083000EE58FF4F8F4F0C949439F8016085718505
:100840006EC0D8011896ED91FC91199740815181A5
:100850006281738122E0CE0101960E94613646C01A
:10086000D8011896ED91FC911997408151816281D0
:10087000738122E0CE0101960E948F3637C0D801E5
:100880001896ED91FC911997608171814AE0CE0133
:1008900001960E94B7352AC0D8011896ED91FC91B7
:1008A0001997608171814AE0CE0101960E94E1357D
:1008B0001DC0D8011896ED91FC9119974081518186
:1008C000628173812AE0CE0101960E940B360EC030
:1008D000D8011896ED91FC91199740815181628160
:1008E00073812AE0CE0101960E943636BE016F5F09
:1008F0007F4FC7010E948535CE0101960E940A35BF
:1009000042C0D8011896ED91FC9119978081B801E9
:10091000882319F0665F7F4F02C0605F7F4FC70179
:100920000E94853530C0F80100851185D8018D9170
:100930009C9111979A83898312968C918B83B8012D
:100940006D5F7F4FCE0104960E949A35B801675FB4
:100950007F4FCE010A960E949A35F80187859089CB
:10096000998B888BCE01019696DEBE01892B19F0FA
:100970006C5F7F4F02C0665F7F4FC7010E94853565
:10098000CE0101967CDEC70161960FB6F894DEBFFA
:100990000FBECDBFDF91CF911F910F91FF90EF90D0
:1009A0000895EF92FF920F931F93CF93DF93EC0183
:1009B0007B01F8DE87EB94E0998388831B828FEFBD
:1009C0009FEFDC018C839D83AE83BF8319861886DD
:1009D00065E877E0CE010A960E94713565E877E018
:1009E000CE0140960E94713581E08B838A8386E038
:1009F00090E00E94772E8C01B7010E947135198713
:100A00000887DF91CF911F910F91FF90EF9008958C
:100A10000F931F93CF93DF93EC018B01C3DE87EB22
:100A200094E0998388831B828FEF9FEFDC018C8396
:100A30009D83AE83BF831986188665E877E0CE0173
:100A40000A960E94713565E877E0CE0140960E94D3
:100A5000713582E08B8381E08A8319870887DF9173
:100A6000CF911F910F9108958F929F92AF92BF9255
:100A7000CF92DF92EF92FF920F931F93CF93DF936A
:100A8000EC016B014A0159018DDE87EB94E09983FB
:100A900088831B828FEF9FEFDC018C839D83AE8365
:100AA000BF83198618867E018AE0E80EF11C65E88E
:100AB00077E0C7010E9471358E01005F1F4F65E826
:100AC00077E0C8010E94713589E08B83B401C701CA
:100AD0000E948535B501C8010E94853581E08A8371
:100AE000D986C886DF91CF911F910F91FF90EF902B
:100AF000DF90CF90BF90AF909F908F9008950F930D
:100B00001F93CF93DF93EC018B014CDE87EB94E0D6
:100B1000998388831B828FEF9FEFDC018C839D83F9
:100B2000AE83BF831986188665E877E0CE010A9602
:100B30000E94713565E877E0CE0140960E947135DC
:100B40008AE08B8381E08A8319870887DF91CF91C0
:100B50001F910F91089581E00895CF93DF93EC01E9
:100B60006D5F7F4F0E949A35CE01DF91CF9108953E
:100B7000FC01CB012185211104C0628573850C9491
:100B8000641D213021F4628573850C94821D0895C3
:100B9000CF93DF93EC0185EC94E099838883CE01B9
:100BA00003960E940A35CE01DF91CF91F8CDCF9305
:100BB000DF93EC01EDDFCE01DF91CF910C947B2E22
:100BC000CF92DF92EF92FF920F931F93CF93DF9319
:100BD000EC016B017A01E6DD85EC94E09983888372
:100BE0008E010D5F1F4F65E877E0C8010E947135E7
:100BF00019861B861A86B601C8010E94853582E0D7
:100C00008A831986FB86EA86DF91CF911F910F9127
:100C1000FF90EF90DF90CF900895CF92DF92EF9208
:100C2000FF920F931F93CF93DF93EC016B017A0137
:100C3000B9DD85EC94E0998388838E010D5F1F4FA9
:100C400065E877E0C8010E94713519861B861A860F
:100C5000B601C8010E94853582E08A8381E08987D8
:100C6000FB86EA86DF91CF911F910F91FF90EF9065
:100C7000DF90CF90089581E00895CF93DF93EC014A
:100C800083ED94E099838883CE0140960E940A35D3
:100C9000CE010A960E940A35CE0103960E940A35BB
:100CA000CE01DF91CF917BCDCF93DF93EC01E5DFD8
:100CB000CE01DF91CF910C947B2ECF93DF93EC018B
:100CC0006D5F7F4F0E949A35CE01DF91CF910895DD
:100CD000CF93DF93EC01FB018185882329F08130DC
:100CE00059F4665F7F4F05C0FB01608D718D6D5FAC
:100CF0007F4FCE010E949A35CE01DF91CF910895AA
:100D0000CF93DF93EC01FB018185882329F08130AB
:100D100059F4605F7F4F05C0FB01608D718D675F87
:100D20007F4FCE010E949A35CE01DF91CF91089579
:100D3000FC018185882341F0813049F40688F789D8
:100D4000E02D808190E00895808D918DA4CC089550
:100D5000CF93DF93FC019185992349F09130B1F451
:100D60000688F789E02D8081982790830FC0C08D79
:100D7000D18DCE0190DC892B19F060E070E002C0CB
:100D800061E070E0CE01DF91CF9197CCDF91CF9100
:100D90000895DECFCF92DF92EF92FF920F931F93D1
:100DA000CF93DF93EC016B017A01FCDC83ED94E0DF
:100DB000998388838E010D5F1F4F65E877E0C80136
:100DC0000E94713581E089876DE874E0CE010A9652
:100DD0000E94713562E974E0CE0140960E9471353F
:100DE0001F8A1E8A198E188E83E08A83B601C80175
:100DF0000E9485351986F98EE88EDF91CF911F917B
:100E00000F91FF90EF90DF90CF9008958BE999E0DC
:100E10000E94E4228EE499E00E94E42281EA98E0B4
:100E20000E94E42284EF97E00C94E4222F923F92F8
:100E30004F925F926F927F928F929F92AF92BF92EA
:100E4000CF92DF92EF92FF920F931F93CF93DF9396
:100E500000D01F92CDB7DEB79A8389834A015B0128
:100E6000FC012281338144815581C501B4010E9476
:100E7000A537E981FA81181624F5EE5DFE4FC08092
:100E8000D180F1E0CF1AD1088601000F111F000FA9
:100E9000111F89819A81080F191FF801228133815E
:100EA00044815581C501B4010E94F43887FF08C010
:100EB000E980FA80F2E0EF0EF11C00E010E015C0CE
:100EC000F801EE56FF4F60817181828193816BC082
:100ED000F70121913191419151917F01C501B401F7
:100EE0000E94F43887FF08C08301C80101963C01C5
:100EF0000C151D056CF30BC0F70120813181428177
:100F00005381C501B4010E94A53787FFEDCF000FC3
:100F1000111F000F111FE981FA81E00FF11FC2803C
:100F2000D380E480F580EE56FF4F208031804280F0
:100F30005380A7019601C501B4010E9440374B01BF
:100F40005C01660C771C660C771C89819A81680E9F
:100F5000791EF301EE56FF4FA2019101608171816C
:100F6000828193810E94403769837A838B839C833B
:100F7000A7019601F30162817381848195810E94AA
:100F800040379B01AC0169817A818B819C810E94F1
:100F9000A9379B01AC01C501B4010E94F838A20138
:100FA00091010E9441370F900F900F900F90DF91A9
:100FB000CF911F910F91FF90EF90DF90CF90BF9056
:100FC000AF909F908F907F906F905F904F903F90E9
:100FD0002F900895EF920F93CF93DF93EC01E12CC4
:100FE0000E948F221A8E198E1C8E1B8E1E8E1D8EB5
:100FF00018A21F8E1AA219A21CA21BA21EA21DA219
:1010000018A61FA219A61AA61BA61CA61DA61EA6D8
:101010001FA618AA1AAA19AA1CAA1BAADF91CF9167
:101020000F91EF9008954F925F926F927F928F92FF
:10103000AF92CF92EF920F931F93CF93DF93CDB7E1
:10104000DEB72C970FB6F894DEBF0FBECDBF6DEDA7
:1010500074E0CE0107960E94713560EE74E0CE0117
:1010600001960E9471358E01095F1F4F9E012F5F0F
:101070003F4F41E061E370E084E29CE039DBCE0168
:1010800001960E940A35C8010E940A356DED74E090
:10109000C8010E94713560EE74E0CE0101960E9495
:1010A00071359E012F5F3F4F41E060E370E083E1C7
:1010B0009CE01EDBCE0101960E940A35C8010E9409
:1010C0000A356DED74E0C8010E94713560EE74E080
:1010D000CE0101960E9471359E012F5F3F4F41E086
:1010E0006FE270E082E09CE003DBCE0101960E949B
:1010F0000A35C8010E940A356DED74E0C8010E94EE
:10110000713560EE74E0CE0101960E9471359E014A
:101110002F5F3F4F41E06EE270E081EF9BE0E8DA45
:10112000CE0101960E940A35C8010E940A356DED74
:1011300074E0C8010E94713560EE74E0CE01019642
:101140000E9471359E012F5F3F4F41E06DE270E0DC
:1011500080EE9BE0CDDACE0101960E940A35C801EF
:101160000E940A356DED74E0C8010E94713560EE91
:1011700074E0CE0101960E9471359E012F5F3F4FB2
:1011800041E06CE270E08FEC9BE0B2DACE010196B8
:101190000E940A35C8010E940A356DED74E0C8014D
:1011A0000E94713560EE74E0CE0101960E947135A7
:1011B0009E012F5F3F4F41E06BE270E08EEB9BE0C2
:1011C00097DACE0101960E940A35C8010E940A35BD
:1011D0006DED74E0C8010E94713560EE74E0CE01DF
:1011E00001960E9471359E012F5F3F4F41E06AE2F8
:1011F00070E08DEA9BE07CDACE0101960E940A3510
:10120000C8010E940A356DED74E0C8010E94713575
:1012100060EE74E0CE0101960E9471359E012F5F51
:101220003F4F41E068E270E08CE99BE061DACE017B
:1012300001960E940A35C8010E940A356DED74E0DE
:10124000C8010E94713560EE74E0CE0101960E94E3
:1012500071359E012F5F3F4F41E069E270E08BE8FE
:101260009BE046DACE0101960E940A35C8010E9431
:101270000A356DED74E0C8010E94713560EE74E0CE
:10128000CE0101960E9471359E012F5F3F4F41E0D4
:1012900066E270E08AE79BE02BDACE0101960E94BD
:1012A0000A35C8010E940A356DED74E0C8010E943C
:1012B000713560EE74E0CE0101960E9471359E0199
:1012C0002F5F3F4F41E067E270E089E69BE010DA74
:1012D000CE0101960E940A35C8010E940A356DEDC3
:1012E00074E0C8010E94713560EE74E0CE01019691
:1012F0000E9471359E012F5F3F4F41E064E270E034
:1013000088E59BE0F5D9CE0101960E940A35C80117
:101310000E940A356DED74E0C8010E94713560EEDF
:1013200074E0CE0101960E9471359E012F5F3F4F00
:1013300041E065E270E087E49BE0DAD9CE010196F6
:101340000E940A35C8010E940A356DED74E0C8019B
:101350000E94713560EE74E0CE0101960E947135F5
:101360009E012F5F3F4F41E063E270E086E39BE028
:10137000BFD9CE0101960E940A35C8010E940A35E4
:101380006DED74E0C8010E94713560EE74E0CE012D
:1013900001960E9471359E012F5F3F4F41E062E24E
:1013A00070E085E29BE0A4D9CE0101960E940A3547
:1013B000C8010E940A3588E096E09093E90980937D
:1013C000E80984E290E090930B0B80930A0BA4E76A
:1013D000B5E044EE54E080E090E004968439910555
:1013E000D9F04D905D906D907D909C012851364FC5
:1013F000F90132974082518262827382FA014190F0
:10140000519061907190AF01F901E257FF4F408216
:10141000518262827382E1CF87E0882E96E0A92E06
:1014200025E0C22E34E0E32E00E021E042E069E254
:1014300080ED99E00E94982504E021E24FE160E20E
:101440008BE999E0C7DD00E021E042E067E283E854
:1014500099E00E94982504E02EE14CE16DE18EE4D4
:1014600099E0B8DD809112029091130290934109A6
:1014700080934009412C512C4AEF642E44E4742E91
:1014800040923409509235096092360970923709BA
:10149000409238095092390960923A0970923B099A
:1014A00020E030E048EC52E420933C0930933D09C1
:1014B00040933E0950933F0920E030E040EA50E479
:1014C0002093300930933109409332095093330906
:1014D00020E030E04CE452E420932C0930932D09B5
:1014E00040932E0950932F09909317098093160962
:1014F00040920A0950920B0960920C0970920D09F2
:1015000040920E0950920F096092100970921109D1
:1015100080E090E0A8ECB2E4809312099093130964
:10152000A0931409B093150920E030E040EA50E49C
:10153000209306093093070940930809509309093D
:1015400080E090E0ACE4B2E4809302099093030958
:10155000A0930409B093050900E021E042E065E2B0
:1015600086ED98E00E94982504E02BE149E16AE1CC
:1015700081EA98E02FDD80911202909113029093FE
:10158000940880939308409287085092880860924C
:10159000890870928A0840928B0850928C08609259
:1015A0008D0870928E0820E030E048EC52E42093E1
:1015B0008F0830939008409391085093920820E050
:1015C00030E040EA50E4209383083093840840934D
:1015D00085085093860820E030E04CE452E42093E4
:1015E0007F0830938008409381085093820890933D
:1015F0006A088093690840925D0850925E08609284
:101600005F08709260084092610850926208609290
:1016100063087092640880E090E0A8ECB2E48093E4
:10162000650890936608A0936708B093680820E067
:1016300030E040EA50E42093590830935A08409330
:101640005B0850935C0880E090E0ACE4B2E48093E7
:10165000550890935608A0935708B093580800E097
:1016600021E042E063E289E298E00E94982504E0EC
:1016700028E146E167E184EF97E0ACDC809112025B
:10168000909113029093E7078093E6074092DA0760
:101690005092DB076092DC077092DD074092DE0714
:1016A0005092DF076092E0077092E10720E030E09F
:1016B00048EC52E42093E2073093E3074093E407B9
:1016C0005093E50720E030E040EA50E42093D6074D
:1016D0003093D7074093D8075093D90720E030E0E4
:1016E0004CE452E42093D2073093D3074093D407BD
:1016F0005093D5079093BD078093BC074092B007E5
:101700005092B1076092B2077092B3074092B4074B
:101710005092B5076092B6077092B70780E090E0EC
:10172000A8ECB2E48093B8079093B907A093BA07E6
:10173000B093BB0720E030E040EA50E42093AC07D0
:101740003093AD074093AE075093AF0780E090E031
:10175000ACE4B2E48093A8079093A907A093AA07EA
:10176000B093AB072C960FB6F894DEBF0FBECDBF7B
:10177000DF91CF911F910F91EF90CF90AF908F900D
:101780007F906F905F904F90089584EF97E00E9454
:10179000021681EA98E00E9402168EE499E00E9407
:1017A00002168BE999E00E94021685E29BE00E94F6
:1017B0003F0386E39BE00E943F0387E49BE00E9497
:1017C0003F0388E59BE00E943F0389E69BE00E947F
:1017D0003F038AE79BE00E943F038BE89BE00E9467
:1017E0003F038CE99BE00E943F038DEA9BE00E944F
:1017F0003F038EEB9BE00E943F038FEC9BE00E9437
:101800003F0380EE9BE00E943F0381EF9BE00E943C
:101810003F0382E09CE00E943F0383E19CE00E9442
:101820003F0384E29CE00C943F0361E671E086E5AF
:1018300096E10E94A72E40E063E080ED99E00E94CF
:10184000102561E080ED99E00E94232520E044E02E
:1018500064E180ED99E00E94122640E063E083E8B5
:1018600099E00E94102561E083E899E00E94232519
:1018700020E044E064E183E899E00E94122640E021
:1018800063E086ED98E00E94102561E086ED98E027
:101890000E94232520E044E064E186ED98E00E9468
:1018A000122640E063E089E298E00E94102561E0A2
:1018B00089E298E00E94232520E044E064E189E287
:1018C00098E00E9412266BE571E086E596E10E94A1
:1018D000E52E62E471E086E596E10E94A72EE1E83C
:1018E000F0E080E180831092800081E08093811598
:1018F00020E43FE1309383152093821530938700D5
:101900002093860091E1908326E037E030938015A4
:1019100020937F1580936F006EE479E080914110F1
:10192000909142100E94B01C63E879E080914110D0
:10193000909142100E94E41C61EA78E080915F146B
:10194000909160140E94B01C66ED78E080915F1465
:10195000909160140E94E41C64EF77E080913D0E4A
:1019600090913E0E0E94B01C69E278E080913D0E9D
:1019700090913E0E0E94E41C6CE371E086E596E1D6
:101980000E94E52E62E271E086E596E10E94A72EB4
:1019900061E070E084E29CE00E945D0361E070E041
:1019A00083E19CE00E945D036CE171E086E596E1D5
:1019B0000E94E52E0E943C2690933A0C8093390CAD
:1019C000BC01990F880B990B0E9444389B01AC0114
:1019D00060E070E08AEF95E40E94403720E030E05C
:1019E00048EC52E40E94F83820E030E04AEF55E439
:1019F0000E94A9376093350C7093360C8093370C96
:101A00009093380C08956CE771E086E596E10E94AA
:101A1000A72E42E050E066E172E085E39EE00E947E
:101A200096164AE050E06AE172E087E19EE00E948B
:101A30003E1941E050E064E172E083E59CE00E94E1
:101A400096164BE050E063E872E08DEE9DE00E9458
:101A50003E194BE050E06CE472E081E69DE00E94AC
:101A60003E1964EF77E080913D0E90913E0E0E940A
:101A7000B01C69E278E080913D0E90913E0E0E948C
:101A8000E41C65E37EE080913D0E90913E0E0E9445
:101A9000641D66E771E086E596E10C94E52E8F9271
:101AA0009F92AF92BF92FF920F931F93CF93DF93BA
:101AB00000D000D0CDB7DEB780E190E00E94772E55
:101AC0008C010E94A61C10933E0E00933D0EE5E390
:101AD000FEE0138212820FEF1FEF1583048316823C
:101AE00017826AE076E0CE0101960E94713545E3E7
:101AF0005EE0BE016F5F7F4F89E29EE061D8CE015C
:101B000001960E940A35E7E1FEE084EF882E9924D1
:101B10009394A12CB12C80829182A282B3821186EF
:101B2000108613870287FF24F394F48615861686A1
:101B30001786108A118A63E776E0CE0101960E942B
:101B4000713547E15EE0BE016F5F7F4F8BE09EE045
:101B500064D8CE0101960E940A356AE076E0CE0193
:101B600001960E94713547E15EE0BE016F5F7F4FD5
:101B70008FEF9DE052D8CE0101960E940A35EDEE1E
:101B8000FDE080829182A282B38211861086138743
:101B90000287F486158616861786108A118A6FE0EA
:101BA00076E0CE0101960E9471354DEE5DE0BE01FA
:101BB0006F5F7F4F81EE9DE030D8CE0101960E948D
:101BC0000A356AEC77E08BEC9DE00E9408056EEC2C
:101BD00077E085EB9DE00E94080568EE77E08FE9ED
:101BE0009DE00E9408056CEE77E089E89DE00E9488
:101BF000080560EF77E083E79DE00E940805E1E6D5
:101C0000FDE080829182A282B382118610861387C2
:101C10000287F486158616861786108A118A63E174
:101C200076E0CE0101960E94713541E65DE0BE018D
:101C30006F5F7F4F85E59DE00E940D06CE01019606
:101C40000E940A3560EA77E08FE39DE00E94080574
:101C500064EA77E089E29DE00E9408056EEB77E098
:101C600083E19DE00E94080562EC77E08DEF9CE047
:101C70000E94080566EC77E087EE9CE00E9408056C
:101C8000A0900802B090090267E176E0CE010196CB
:101C90000E947135A501BE016F5F7F4F8DEC9CE006
:101CA00079D8CE0101960E940A35609108027091A0
:101CB000090287EB9CE00E947F05A0900602B0908D
:101CC00007026EE176E0CE0101960E947135A50112
:101CD000BE016F5F7F4F8DE99CE05CD8CE0101961D
:101CE0000E940A35609106027091070287E89CE025
:101CF0000E947F0560EF77E081E79CE00E94080585
:101D000066EC77E08BE59CE00E940805E3E5FCE0EB
:101D100013821282158304831682178265E276E0AD
:101D2000CE0101960E94713543E55CE0BE016F5F14
:101D30007F4F87E49CE00E94E005CE0101960E945F
:101D40000A356AE076E0CE0101960E94713543E5DE
:101D50005CE0BE016F5F7F4F8BE39CE00E94E0057B
:101D6000CE0101960E940A3526960FB6F894DEBF82
:101D70000FBECDBFDF91CF911F910F91FF90BF900C
:101D8000AF909F908F9008958BE39CE00E94C805D0
:101D900087E49CE00E94C8058BE59CE00E94DC0380
:101DA00081E79CE00E94DC0387E89CE00E94DC0362
:101DB0008DE99CE00E943D0687EB9CE00E94DC03DD
:101DC0008DEC9CE00E943D0687EE9CE00E94DC03C7
:101DD0008DEF9CE00E94DC0383E19DE00E94DC0328
:101DE00089E29DE00E94DC038FE39DE00E94DC031A
:101DF00085E59DE00E94C80583E79DE00E94DC0325
:101E000089E89DE00E94DC038FE99DE00E94DC03ED
:101E100085EB9DE00E94DC038BEC9DE00E94DC03DF
:101E200081EE9DE00E94C8058FEF9DE00E94C805ED
:101E30008BE09EE00E94C80589E29EE00C94C805F4
:101E400068E971E086E596E10E94A72E42E050E045
:101E50006CEB72E089E390E169D74AE050E060EC16
:101E600072E08BE190E10E943E1941E050E06AEBA4
:101E700072E087E59EE05AD74BE050E069E273E0FC
:101E800081EF9FE00E943E194BE050E062EF72E06C
:101E900085E69FE00E943E196EE479E08091411052
:101EA000909142100E94B01C63E879E0809141104B
:101EB000909142100E94E41C69E370E1809141100E
:101EC000909142100E94641D62E971E086E596E1FE
:101ED0000C94E52E8F929F92AF92BF92FF920F9338
:101EE0001F93CF93DF9300D000D0CDB7DEB780E152
:101EF00090E00E94772E8C010E94A61C1093421045
:101F000000934110E9E3F0E1138212820FEF1FEF1B
:101F100015830483168217826AE076E0CE0101966B
:101F20000E94713549E350E1BE016F5F7F4F8DE242
:101F300090E10E94E005CE0101960E940A35EBE196
:101F4000F0E184EF882E99249394A12CB12C808207
:101F50009182A282B3821186108613870287FF24A2
:101F6000F394F486158616861786108A118A63E71D
:101F700076E0CE0101960E9471354BE150E1BE0141
:101F80006F5F7F4F8FE090E10E940D06CE010196BA
:101F90000E940A356AE076E0CE0101960E94713512
:101FA0004BE150E1BE016F5F7F4F83E090E10E9403
:101FB0000D06CE0101960E940A35E1EFFFE0808216
:101FC0009182A282B3821186108613870287F486DB
:101FD000158616861786108A118A6FE076E0CE0184
:101FE00001960E94713541EF5FE0BE016F5F7F4F48
:101FF00085EE9FE00E940D06CE0101960E940A35F3
:1020000064E279E08FEC9FE00E94080568E279E0E5
:1020100089EB9FE00E94080562E479E083EA9FE093
:102020000E94080566E479E08DE89FE00E940805BB
:102030006AE479E087E79FE00E940805E5E6FFE0B3
:1020400080829182A282B3821186108613870287D2
:10205000F486158616861786108A118A63E176E063
:10206000CE0101960E94713545E65FE0BE016F5FCB
:102070007F4F89E59FE00E940D06CE0101960E94E8
:102080000A356AEF78E083E49FE00E9408056EEF6E
:1020900078E08DE29FE00E94080568E179E087E141
:1020A0009FE00E9408056CE179E081E09FE00E94DA
:1020B000080560E279E08BEE9EE00E940805A090A2
:1020C0001002B090110267E176E0CE0101960E9405
:1020D0007135A501BE016F5F7F4F81ED9EE00E94CB
:1020E000CA06CE0101960E940A35609110027091D5
:1020F00011028BEB9EE00E947F05A0900E02B09033
:102100000F026EE176E0CE0101960E947135A501C5
:10211000BE016F5F7F4F81EA9EE00E94CA06CE013A
:1021200001960E940A3560910E0270910F028BE8B1
:102130009EE00E947F056AE479E085E79EE00E94C8
:10214000080560E279E08FE59EE00E940805E7E57A
:10215000FEE013821282158304831682178265E2E1
:1021600076E0CE0101960E94713547E55EE0BE0142
:102170006F5F7F4F8BE49EE00E94E005CE010196E9
:102180000E940A356AE076E0CE0101960E94713520
:1021900047E55EE0BE016F5F7F4F8FE39EE00E94E8
:1021A000E005CE0101960E940A3526960FB6F894F6
:1021B000DEBF0FBECDBFDF91CF911F910F91FF907A
:1021C000BF90AF909F908F9008958FE39EE00E9404
:1021D000C8058BE49EE00E94C8058FE59EE00E9442
:1021E000DC0385E79EE00E94DC038BE89EE00E9412
:1021F000DC0381EA9EE00E943D068BEB9EE00E949C
:10220000DC0381ED9EE00E943D068BEE9EE00E9485
:10221000DC0381E09FE00E94DC0387E19FE00E94F5
:10222000DC038DE29FE00E94DC0383E49FE00E94D8
:10223000DC0389E59FE00E94C80587E79FE00E94D4
:10224000DC038DE89FE00E94DC0383EA9FE00E94AC
:10225000DC0389EB9FE00E94DC038FEC9FE00E948F
:10226000DC0385EE9FE00E94C80583E090E10E94B8
:10227000C8058FE090E10E94C8058DE290E10C94C2
:10228000C8058F929F92AF92BF92FF920F931F93B8
:10229000CF93DF93CDB7DEB72C970FB6F894DEBFA0
:1022A0000FBECDBF80E190E00E94772E8C010E948E
:1022B000A61C10935C1200935B12E3E5F2E113821B
:1022C00012820FEF1FEF15830483168217826AE0D4
:1022D00076E0CE0101960E94713543E552E1BE01E0
:1022E0006F5F7F4F87E492E10E94E005CE01019687
:1022F0000E940A35EFE3F2E1138212821583048310
:102300001682178261E376E0CE0101960E94713554
:102310004FE352E1BE016F5F7F4F83E392E10E9482
:10232000E005CE0101960E940A3568E376E0CE0111
:1023300001960E94713549E65BE0BE016F5F7F4FF9
:1023400089E192E10E94CA06CE0101960E940A35F7
:1023500060E476E0CE0101960E94713548E55BE0CD
:10236000BE016F5F7F4F8FEF91E10E94CA06CE01E1
:1023700001960E940A35E7EFF1E11382128215837C
:1023800004831682178268E476E0CE0101960E94EB
:10239000713547EF51E1BE016F5F7F4F8BEE91E1E9
:1023A0000E94E005CE0101960E940A3565E576E0BF
:1023B000CE0101960E9471354CE95BE0BE016F5F72
:1023C0007F4F81ED91E10E94CA06CE0101960E94E5
:1023D0000A356EE576E0CE0101960E9471354BE834
:1023E0005BE0BE016F5F7F4F87EB91E10E94CA0601
:1023F000CE0101960E940A3567E676E0CE0101968D
:102400000E9471354AE75BE0BE016F5F7F4F8DE947
:1024100091E10E94CA06CE0101960E940A35EBE8BE
:10242000F1E184EF882E99249394A12CB12C808221
:102430009182A282B3821186108613870287FF24BD
:10244000F394F486158616861786108A118A60E73B
:1024500076E0CE0101960E9471354BE851E1BE0154
:102460006F5F7F4F8FE791E10E940D06CE010196CD
:102470000E940A3560EE74E0CE0107960E94713525
:102480006DED74E0CE0101960E9471359E01295FC9
:102490003F4FAE014F5F5F4F60E27BE089E691E125
:1024A0000E943405CE0101960E940A35CE0107969E
:1024B0000E940A3560EE74E0CE0107960E947135E5
:1024C0006DED74E0CE0101960E9471359E01295F89
:1024D0003F4FAE014F5F5F4F6BE17BE083E591E1E2
:1024E0000E943405CE0101960E940A35CE0107965E
:1024F0000E940A3560EE74E0CE0107960E947135A5
:102500006DED74E0CE0101960E9471359E01295F48
:102510003F4FAE014F5F5F4F66E17BE08DE391E19E
:102520000E943405CE0101960E940A35CE0107961D
:102530000E940A356BE776E087E291E10E94D104C0
:1025400061E27BE081E191E10E9408056CE17BE0C2
:102550008BEF90E10E94080567E17BE085EE90E15A
:102560000E940805E3EDF0E180829182A282B382AD
:102570001186108613870287F486158616861786BD
:10258000108A118A6EE776E0CE0101960E947135BD
:1025900043ED50E1BE016F5F7F4F87EC90E10E94F9
:1025A0000D06CE0101960E940A356BE876E081EBBC
:1025B00090E10E94D10460EE74E0CE0107960E9483
:1025C00071356DED74E0CE0101960E9471359E016A
:1025D000295F3F4FAE014F5F5F4F61E17BE08BE9C9
:1025E00090E10E943405CE0101960E940A35CE0189
:1025F00007960E940A3562E976E085E890E10E943C
:10260000D10460EE74E0CE0107960E9471356DED45
:1026100074E0CE0101960E9471359E01295F3F4F03
:10262000AE014F5F5F4F6CE07BE08FE690E10E9470
:102630003405CE0101960E940A35CE0107960E940C
:102640000A3562E17BE089E590E10E9408056DE0D2
:102650007BE083E490E10E9408052C960FB6F89485
:10266000DEBF0FBECDBFDF91CF911F910F91FF90C5
:10267000BF90AF909F908F90089565EB71E086E5D5
:1026800096E10E94A72E86E596E10E94012B44E088
:1026900050E060E673E083E592E148D343E050E028
:1026A0006EED73E08FE392E141D344E050E066EDDC
:1026B00073E087EF91E13AD34DE050E065E973E0D4
:1026C0008BE891E1DBD549E050E068E673E083ED0B
:1026D00090E1D4D56BE979E080915B1290915C1226
:1026E0000E94B01C60ED79E080915B1290915C12C9
:1026F0000E94E41C63E572E180915B1290915C1290
:102700000E94641D6FEA71E086E596E10C94E52E67
:1027100083E490E10E94DC0389E590E10E94DC0300
:102720008FE690E10E94DC0385E890E10E94DC03E3
:102730008BE990E10E94DC0381EB90E10E94DC03D5
:1027400087EC90E10E94C80585EE90E10E94DC03D1
:102750008BEF90E10E94DC0381E191E10E94DC03B8
:1027600087E291E10E94DC038DE391E10E94DC03AA
:1027700083E591E10E94DC0389E691E10E94DC039C
:102780008FE791E10E94C8058DE991E10E943D0625
:1027900087EB91E10E943D0681ED91E10E943D06AB
:1027A0008BEE91E10E94C8058FEF91E10E943D06FA
:1027B00089E192E10E943D0683E392E10E94C8050F
:1027C00087E492E10C94C80563ED71E086E596E13B
:1027D0000E94A72E42E050E066EE73E087E594E1A8
:1027E000A5D24AE050E06AEE73E089E394E146D571
:1027F00041E050E064EE73E085E792E197D24BE070
:1028000050E063E574E08FE094E138D54BE050E0B0
:102810006CE174E083E893E131D561EA78E080917E
:102820005F14909160140E94B01C66ED78E0809176
:102830005F14909160140E94E41C67E574E180913C
:102840005F14909160140E94641D6DEC71E086E548
:1028500096E10C94E52E8F929F92AF92BF92FF92D9
:102860000F931F93CF93DF9300D000D0CDB7DEB787
:1028700080E190E00E94772E8C010E94A61C1093AC
:10288000601400935F14E7E5F4E1138212820FEF06
:102890001FEF15830483168217826AE076E0CE016B
:1028A00001960E94713547E554E1BE016F5F7F4F8D
:1028B0008BE494E10E94E005CE0101960E940A3566
:1028C000E9E3F4E184EF882E99249394A12CB12CB0
:1028D00080829182A282B38211861086138702873A
:1028E000FF24F394F486158616861786108A118ABB
:1028F00063E776E0CE0101960E94713549E354E129
:10290000BE016F5F7F4F8DE294E10E940D06CE0104
:1029100001960E940A356AE076E0CE0101960E9497
:10292000713549E354E1BE016F5F7F4F81E294E16D
:102930000E940D06CE0101960E940A35EFE0F4E1F7
:1029400080829182A282B3821186108613870287C9
:10295000F486158616861786108A118A6FE076E04F
:10296000CE0101960E9471354FE054E1BE016F5FC8
:102970007F4F83E094E10E940D06CE0101960E94F4
:102980000A3567E778E08DEE93E10E9408056BE772
:1029900078E087ED93E10E94080565E978E081EC35
:1029A00093E10E94080569E978E08BEA93E10E94CF
:1029B00008056DE978E085E993E10E940805E3E800
:1029C000F3E180829182A282B382118610861387FE
:1029D0000287F486158616861786108A118A63E1A7
:1029E00076E0CE0101960E94713543E853E1BE01C5
:1029F0006F5F7F4F87E793E10E940D06CE0101963E
:102A00000E940A356DE478E081E693E10E940805B2
:102A100061E578E08BE493E10E9408056BE678E0DD
:102A200085E393E10E9408056FE678E08FE193E18A
:102A30000E94080563E778E089E093E10E940805B9
:102A4000A0900C02B0900D0267E176E0CE010196F5
:102A50000E947135A501BE016F5F7F4F8FEE92E13D
:102A60000E94CA06CE0101960E940A3560910C02AE
:102A700070910D0289ED92E10E947F05A0900A02FB
:102A8000B0900B026EE176E0CE0101960E947135A6
:102A9000A501BE016F5F7F4F8FEB92E10E94CA06D6
:102AA000CE0101960E940A3560910A0270910B02D4
:102AB00089EA92E10E947F056DE978E083E992E17D
:102AC0000E94080563E778E08DE792E10E9408051F
:102AD000E5E7F2E1138212821583048316821782DE
:102AE00065E276E0CE0101960E94713545E752E13C
:102AF000BE016F5F7F4F89E692E10E94E005CE0143
:102B000001960E940A356AE076E0CE0101960E94A5
:102B1000713545E752E1BE016F5F7F4F8DE592E170
:102B20000E94E005CE0101960E940A3526960FB656
:102B3000F894DEBF0FBECDBFDF91CF911F910F91F3
:102B4000FF90BF90AF909F908F9008958DE592E198
:102B50000E94C80589E692E10E94C8058DE792E1CE
:102B60000E94DC0383E992E10E94DC0389EA92E19E
:102B70000E94DC038FEB92E10E943D0689ED92E119
:102B80000E94DC038FEE92E10E943D0689E093E112
:102B90000E94DC038FE193E10E94DC0385E393E173
:102BA0000E94DC038BE493E10E94DC0381E693E165
:102BB0000E94DC0387E793E10E94C80585E993E161
:102BC0000E94DC038BEA93E10E94DC0381EC93E139
:102BD0000E94DC0387ED93E10E94DC038DEE93E11C
:102BE0000E94DC0383E094E10E94C80581E294E145
:102BF0000E94C8058DE294E10E94C8058BE494E12F
:102C00000C94C8050895CF93DF93EC010E94A6238E
:102C10002BA93CA9820F931F9CAB8BAB29A93AA986
:102C20002817390784F4E9A1FAA12BA13CA1309718
:102C300011F420FF29C09AAB89ABC90195958795FE
:102C40004F89588D12C082179307F4F4EDA1FEA1AD
:102C50002FA138A5309711F420FF16C09AAB89AB8D
:102C60004F89588DC9019595879520FF0AC0DA01D3
:102C7000A80FB91F2D913C91E20FF31F0190F08135
:102C8000E02D840F951F1995CE010E94DE23882325
:102C900009F449C08430B9F040F4823089F08330BF
:102CA00009F041C065E172E010C08530C1F08630A6
:102CB000D1F54F8D58A12F89388DED8DFE8D1FC018
:102CC0006DE272E002C069EF71E086E596E10E9474
:102CD000E52E86E596E1DF91CF910C94012B6AEE0B
:102CE00071E086E596E10E94E52E86E596E10E9478
:102CF000012B4B8D5C8D2F89388DE98DFA8DCA01A2
:102D00009595879540FF0AC0D901A80FB91F4D912D
:102D10005C91E40FF51F0190F081E02D820F931F6D
:102D2000DF91CF911994DF91CF910895CF92DF92E7
:102D3000EF92FF920F931F93CF93DF93EC016A0101
:102D4000688379835B834A838FEF9FEF9D838C83B6
:102D50007B0100E010E00C151D0599F0D7018D9165
:102D60009D917D01DC01ED91FC910190F081E02DC0
:102D70001995882319F01D830C8303C00F5F1F4F23
:102D8000EACFDF91CF911F910F91FF90EF90DF90ED
:102D9000CF90089521E0FC012783089508951F93A3
:102DA000CF93DF93EC012C813D81C901019797FD01
:102DB00003C09D838C8302C01D821C8211E01E8390
:102DC000EC81FD81CF0164E070E00E945F390397E0
:102DD00051F4E217F3073CF46BE672E086E596E106
:102DE0000E94E52E1F836EE572E086E596E10E9463
:102DF000A72E6C817D814AE050E086E596E1DF9167
:102E0000CF911F910C94A92F1F93CF93DF93EC01C7
:102E10002C813D81A9014F5F5F4F5D834C838A8187
:102E20009B814817590718F001979D838C8311E007
:102E30001E838C819D81AC0143705527452B51F435
:102E4000281739073CF465E572E086E596E10E94B3
:102E5000E52E1F8368E472E086E596E10E94A72EC6
:102E60006C817D814AE050E086E596E1DF91CF916B
:102E70001F910C94A92FCF93DF93CA01009739F5C6
:102E8000EB01888599850E945B2440E060E088859D
:102E900099850E94612469E976E0888599850E9478
:102EA000F52E41E060E0888599850E94612460EA02
:102EB00076E0888599850E94F52E68EB7BE080E0BE
:102EC00090E00E946833CE01DF91CF9181C5DA0195
:102ED000ED91FC910280F381E02DDF91CF91199467
:102EE0000F931F93CF93DF93EC018B01CA010E94D4
:102EF000A806C8016DD581E08F838E83DF91CF91C5
:102F00001F910F910895DC011496ED91FC91159796
:102F1000EE0FFF1F2D913C91E20FF31F4081518175
:102F2000FA012281223019F0233011F00895A3CF45
:102F3000D7CF0F931F93CF93DF930115110571F036
:102F4000E901C9010E946124B8016D5F7F4FCE0184
:102F5000DF91CF911F910F910C94CA2EDF91CF91E9
:102F60001F910F910895AF92BF92CF92DF92EF928F
:102F7000FF920F931F93CF93DF93CDB7DEB7A69742
:102F80000FB6F894DEBF0FBECDBF0115110509F4D1
:102F900093C07901D42EC62EF80182818B8383EDF4
:102FA00094E09A838983B8016D5F7F4FCE010496C8
:102FB0000E949A35F80181858A87B801665F7F4F44
:102FC000CE010B960E949A35B801605F7F4FCE010B
:102FD00041960E949A35F80186899789988F8F8B40
:102FE000808D918D9A8F898F4D2D6C2DC7010E94F8
:102FF0006124BE016C5F7F4FC7010E94CA2EBE01D3
:103000006F5F7F4FCE0181960E946806ADA0BEA083
:10301000BE016F5F7F4FCE014B960E9480068F8D61
:1030200098A103E110E08A159B059CF40A191B097D
:10303000C02E4D2D602FC7010E946124053111055E
:10304000DCF468EB76E0C7010E94D82E0F5F1F4FBB
:10305000F5CF081B190BC02E4D2D602FC7010E9404
:1030600061240531110544F468EB76E0C7010E9444
:10307000D82E0F5F1F4FF5CF4D2D6C2DC7010E942D
:103080006124CE0101960E949806BE01019719F4B1
:103090006F5D7F4F02C0655E7F4FC7010E94CA2EE1
:1030A000CE014B960E940A35CE0181960E940A35C8
:1030B000CE0101960E943D06A6960FB6F894DEBF9B
:1030C0000FBECDBFDF91CF911F910F91FF90EF9079
:1030D000DF90CF90BF90AF9008956F927F928F92C4
:1030E0009F92AF92BF92CF92DF92EF92FF920F9397
:1030F0001F93CF93DF93EC01FB01C084D184C60101
:103100000E945B241F828C819D8163E070E00E949D
:103110005F394B015B01E12CF12C3B01F4E06F0EB8
:10312000711C2A813B81C3012615370508F4C901AA
:10313000A816B90608F03EC04E2D60E0C6010E94F8
:1031400061248C819D81A816B90619F46AEB76E09A
:1031500002C068EB76E0C6010E94D82EF701E80DA8
:10316000F91DEE0FFF1F88819981E80FF91F00817B
:103170001181F8018281823049F0833071F4960127
:10318000A70161E070E0CE01EEDE0DC09601A7015F
:1031900061E070E0CE01CDDE06C064E772E086E556
:1031A00096E10E94E52EFFEFEF1AFF0A8FEFA81AB3
:1031B000B80AB7CFDF91CF911F910F91FF90EF9099
:1031C000DF90CF90BF90AF909F908F907F906F9047
:1031D0000895AF92BF92CF92DF92EF92FF920F933A
:1031E0001F93CF93DF93EC01FB01E084F1848F8187
:1031F000882311F0CE0171DF8F81811108C08E818B
:10320000811105C08F81882371F11F822CC08C81B0
:103210009D8163E070E00E945F396B018B015B016F
:10322000F4E0AF0EB11C2A813B81C5012A153B0594
:1032300008F4C9010817190728F7402F4C1960E056
:10324000C7010E9461248C819D810817190719F418
:103250006AEB76E002C068EB76E0C7010E94D82EE8
:103260000F5F1F4FE0CFDF91CF911F910F91FF9024
:10327000EF90DF90CF90BF90AF900895CF92DF9204
:10328000EF92FF920F931F93CF93DF938C016A010C
:10329000DC0114966C93149715967C9315971996E8
:1032A0005C934E9318978FEF9FEF1B969C938E9392
:1032B0001A97EB01E12CF12CEC14FD04A1F08B81A9
:1032C0009C81DC01ED91FC910190F081E02D19953C
:1032D0002596882321F0F801F386E28604C0FFEFEB
:1032E000EF1AFF0AE9CFDF91CF911F910F91FF9065
:1032F000EF90DF90CF9008954F925F926F927F9200
:103300008F929F92AF92BF92CF92DF92EF92FF92F5
:103310000F931F93CF93DF93CDB7DEB72C970FB6E4
:10332000F894DEBF0FBECDBF6C01DB011896ED90A7
:10333000FC9019970E943733F6010685178520897E
:1033400031894B015C01801A910AA20AB30A0081FB
:1033500011812281338180169106A206B30680F482
:10336000D6011D961C921D971C968C91882309F4FA
:1033700059C1F6011486812C912CA12CB12CA1C02D
:10338000F60166877787808B918B812C912CA12CFD
:10339000B12C612C712CD60118968D919C911997A6
:1033A00068167906ECF6D60114960D911C911597C6
:1033B000080D191DF80163817481DB01ED91FC9109
:1033C0000480F581E02DCE0107961995F801228140
:1033D00030E08B859C8528173907A0F440E050E049
:1033E000BE01695F7F4FCE0101960E94FC36BE018F
:1033F0006F5F7F4FCE0107960E948535CE01019603
:103400000E940A35D60116966D917C9117976A0D28
:103410007B1DCE0101960E949A350E943733F6013A
:103420008585811174C0BE016F5F7F4FCE01079605
:103430000E94EC36882309F46AC018C0F601868120
:103440009781BE01695F7F4F8A0D9B1D0E94853564
:10345000D80111964C9111976C91C7010E9461247B
:10346000BE01695F7F4FC7010E94CA2ECE0101963F
:103470000E940A35CE0107960E940A35BFEF6B1AEB
:103480007B0AE6E0AE0EB11CF5E08F0E911C83CFF7
:10349000D60114960D911C911597080D191DF80170
:1034A00083819481DC01ED91FC910190F081E02D0C
:1034B000199581110FC0FFEFAF1ABF0A85E0880E82
:1034C000911CD60118968D919C911997A816B90652
:1034D000FCF2A8C0F60182859385A816B90659F4B6
:1034E000D80111964C9111976C91C7010E946124EB
:1034F0006AEB76E008C0F80141816081C7010E9453
:10350000612468EB76E0C7010E94D82ED4CFD801A1
:103510001396ED91FC9114978281823041F5F80168
:1035200060816F5F4181C7010E946124412C512C51
:103530008D819E814816590648F468EB76E0C701F4
:103540000E94D82EFFEF4F1A5F0AF2CFD6011696CF
:103550008D919C911797BE01695F7F4F8A0D9B1DCE
:103560000E948535F80160816F5F418176CF83309D
:1035700041F5D8016C916F5F11964C91C7010E9483
:103580006124412C512C8D819E814816590648F4A6
:1035900068EB76E0C7010E94D82EBFEF4B1A5B0A9A
:1035A000F2CFF60186819781BE01695F7F4F8A0D58
:1035B0009B1D0E948535D8016C916F5F11964C91CF
:1035C0004CCF8130C9F4D80111964C9111976C9170
:1035D000C7010E946124412C512C8D819E81481687
:1035E000590608F02BCF68EB76E0C7010E94D82E71
:1035F000BFEF4B1A5B0AF1CFF80141816081C7012F
:103600000E946124412C512C8D819E8148165906BF
:1036100090F668EB76E0C7010E94D82EFFEF4F1AB4
:103620005F0AF2CF2C960FB6F894DEBF0FBECDBF67
:10363000DF91CF911F910F91FF90EF90DF90CF908E
:10364000BF90AF909F908F907F906F905F904F90C2
:103650000895CF92DF92EF92FF920F931F93CF9333
:10366000DF93EC018A859B858C010150110925E0CF
:10367000289F7001299FF00C1124C12CD12C17FD1B
:103680001BC0EC81FD81EC0DFD1DEE0DFF1D35977E
:1036900083819481DC01ED91FC910190F081E02D1A
:1036A0001995B5E0CB1AD108882319F01B870A8732
:1036B00003C001501109E3CF81E08C87DF91CF91E6
:1036C0001F910F91FF90EF90DF90CF900895CF92D0
:1036D000DF92EF92FF920F931F93CF93DF93EC0152
:1036E0008A859B858C010F5F1F4F25E0289F600115
:1036F000299FD00C1124E12CF12C8885998508177D
:103700001907D4F4EC81FD81EE0DFF1DEC0DFD1DBC
:1037100080859185DC01ED91FC910190F081E02D97
:103720001995B5E0EB0EF11C882319F01B870A8769
:1037300003C00F5F1F4FE1CF81E08C87DF91CF91F6
:103740001F910F91FF90EF90DF90CF900895AF926F
:10375000BF92CF92DF92EF92FF920F931F93CF937E
:10376000DF93EC01FB01808591850E945B24E88456
:10377000F984F1E4EF16F5E1FF0640F426E02E9D12
:10378000C0012F9D900D1124029602C08FEF9FEF74
:103790000E94792EFC01E192F1928F015F01C12C10
:1037A000D12CCE14DF0461F065E877E0C5010E94FA
:1037B0007135F6E0AF0EB11C8FEFC81AD80AF1CF01
:1037C0001F830E83E12CF12C00E010E088859985A1
:1037D0000817190774F48E819F8161EC76E08E0DD5
:1037E0009F1D0E94A2350F5F1F4FE6E0EE0EF11CF9
:1037F000EDCF81E08D878C87DF91CF911F910F9165
:10380000FF90EF90DF90CF90BF90AF9008950F930F
:103810001F93CF93DF93EC01FB01808591850E947C
:103820005B240E811F8101151105E1F0F80132972B
:103830008081918126E0289FE001299FD00D1124ED
:10384000C00FD11FC017D10729F02697CE010E94C3
:103850000A35F8CFCE010297DF91CF911F910F91DA
:103860000C947D2EDF91CF911F910F910895DC0173
:103870001A964D915C911B9757FD15C0E5E0E49FAA
:103880009001E59F300D11241496ED91FC91159750
:10389000E20FF31F83819481DC01ED91FC910280A2
:1038A000F381E02D1994089566EB72E086E596E1C8
:1038B0000C94E52ECF93DF93EC0164EA72E086E589
:1038C00096E10E94E52E88819981009709F09CDAA3
:1038D0008A819B81009719F0DF91CF91F8CEDF911B
:1038E000CF910895CF93DF93EC0162E972E086E512
:1038F00096E10E94E52E88819981009709F04FDAC0
:103900008A819B81009719F0DF91CF91A2CEDF9140
:10391000CF910895CF93DF93EC0164EC72E086E5DC
:1039200096E10E94E52E88819981009721F0BE01E1
:10393000DF91CF91E8CA8A819B81009721F0BE0177
:10394000DF91CF9194CFDF91CF910895FC01118247
:1039500010821382128215821482178216820895B1
:10396000FC01DB017387628758969C938E9357976F
:103970008AE89CE15A969C938E9359975C961C9288
:103980001E925B97A285B38584E59CE15E969C932D
:103990008E935D9790961C921E925F97A285B38539
:1039A0008AE59CE192969C938E93919794961C92B3
:1039B0001E9293970284F385E02D82E79CE196A303
:1039C00085A310A617A20895FC017187608708954A
:1039D0000F931F93CF93DF93EC018A819B81892BF7
:1039E00071F00E9437336C877D878E879F87BE0179
:1039F0008A819B81DF91CF911F910F917DCC88812E
:103A00009981892B71F00E9437336C877D878E876F
:103A10009F87BE0188819981DF91CF911F910F917E
:103A2000D8CB0E9437330C851D852E853F85DC0160
:103A3000CB01801B910BA20BB30B893B9B40A105D3
:103A4000B105C8F00E9437336C877D878E879F87CA
:103A50008885998530D76CEB76E0888599850E94BA
:103A6000F52E63EC76E088859985DF91CF911F91E3
:103A70000F910C94F52EDF91CF911F910F91089526
:103A8000CF93DF93EC0188819981009751F0BE01BB
:103A900085D9BE01888199817DD9BE0188819981AE
:103AA00098DB8A819B81009761F0BE01B0DEBE0188
:103AB0008A819B814CDEBE018A819B81DF91CF91FF
:103AC0001BCCDF91CF9108950F931F93CF93DF937A
:103AD000EC018B0188819981009711F0BE015ED9BC
:103AE0008A819B81009711F0BE0191DE19830883C2
:103AF000BE01C8014FD91B821A82DF91CF911F915D
:103B00000F9108950F931F93CF93DF93EC018B01D7
:103B100088819981009711F0BE0140D98A819B81EB
:103B2000009711F0BE0173DE198218821B830A838D
:103B3000BE01C801DF91CF911F910F9108CE2F9246
:103B40003F924F925F926F927F928F929F92AF922D
:103B5000BF92CF92DF92EF92FF920F931F93CF937A
:103B6000DF93CDB7DEB728970FB6F894DEBF0FBE50
:103B7000CDBF1C014A015B0128013901DC010D9315
:103B80001D932D933C931397FC01448355836683C7
:103B90007783C084D184E284F3842FE632E143E862
:103BA0005AE3C701B6010E94F438181644F08FE6B4
:103BB000C82E82E1D82E83E8E82E8AE3F82EA701EA
:103BC0009601C301B2010E94A937A50194010E9488
:103BD000A9376B017C01D10150968D909D90AD90DD
:103BE000BC90539758964D905D906D907C905B97EC
:103BF00054968D919D910D90BC91A02D89839A83AF
:103C0000AB83BC83A3019201BC01CD010E9441376B
:103C10006D837E838F839887A3019201C501B401D0
:103C20000E94F8382B013C012D813E814F8158853F
:103C3000C501B4010E94F8389B01AC01C701B6016F
:103C40000E94F8389B01AC01C301B2010E944137C8
:103C50004B015C012D813E814F815885C701B60122
:103C60000E94F8389B01AC0169817A818B819C812B
:103C70000E9440376B017C012FE632E143E85AE3B2
:103C80000E94F43818161CF4B601C70104C06FE690
:103C900072E183E89AE39B01AC01C501B4010E9483
:103CA000A937F10124853585468557850E9440371F
:103CB000AB01BC01D1015E964D935D936D937C93F6
:103CC00091975C968D919C915D97DC01ED91FC91B3
:103CD0000190F081E02D19956B017C01F10162A347
:103CE00073A384A395A320E030E040E151E40E9457
:103CF000F83820E030E040EA50E40E94A93720E0A4
:103D000030E040E052E40E944137D10196966D9335
:103D10007D938D939C939997C701B60128960FB612
:103D2000F894DEBF0FBECDBFDF91CF911F910F91F1
:103D3000FF90EF90DF90CF90BF90AF909F908F90CB
:103D40007F906F905F904F903F902F90089580E408
:103D50000E94FD33BC01990F880B990B0E944438D7
:103D600020E030EC4FE754E40E94A93720E030E037
:103D700040EA50E40E94F8386093120B7093130BE2
:103D80008093140B9093150B20E030E040E250E458
:103D90000E94F438181624F481E08093110B02C0BD
:103DA0001092110B81E40E94FD33BC01990F880B26
:103DB000990B0E94443820E030EC4FE754E40E9415
:103DC000A93720E030E040EA50E40E94F8386093E0
:103DD0000D0B70930E0B80930F0B9093100B20E044
:103DE00030E040E250E40E94F438181624F481E0F8
:103DF00080930C0B02C010920C0B82E40E94FD33E6
:103E0000BC01990F880B990B0E94443820E030ECDC
:103E10004FE754E40E94A93720E030E04AEF53E432
:103E20000E94F8386093210B7093220B8093230B30
:103E30009093240B20E030E040E85EE30E94F438E9
:103E4000181624F481E08093200B02C01092200BFE
:103E500083E40E94FD33BC01990F880B990B0E94EB
:103E6000443820E030EC4FE754E40E94A93720E0CA
:103E700030E04AEF53E40E94F83860931C0B7093D3
:103E80001D0B80931E0B90931F0B20E030E040E849
:103E90005EE30E94F438181624F481E080931B0B33
:103EA00002C010921B0B84E40E94FD33BC01990FE9
:103EB000880B990B0E94443820E030EC4FE754E423
:103EC0000E94A93720E030E04AEF53E40E94F8381E
:103ED0006093170B7093180B8093190B90931A0B28
:103EE00020E030E040E85EE30E94F438181624F445
:103EF00081E08093160B02C01092160B8BE999E0BB
:103F00000E94031681EA98E00E9403168EE499E06D
:103F10000E94031684EF97E00E94031686E30E9436
:103F2000FD33BC01990F880B990B0E94443820E0A7
:103F300030EC4FE754E40E94A93720E030E040EA3B
:103F400050E40E94F8386093F6087093F708809365
:103F5000F8089093F90887E30E94FD33BC01990F9C
:103F6000880B990B0E94443820E030EC4FE754E472
:103F70000E94A93720E030E040EA50E40E94F8387F
:103F80006093F2087093F3088093F4089093F50817
:103F900088E30E94FD33BC01990F880B990B0E94A6
:103FA000443820E030EC4FE754E40E94A93720E089
:103FB00030E040EA50E40E94F8386093EE087093D5
:103FC000EF088093F0089093F10886E30E94FD3398
:103FD000BC01990F880B990B0E94443820E030EC0B
:103FE0004FE754E40E94A93720E030E040EA50E473
:103FF0000E94F8386093490870934A0880934B08F0
:1040000090934C0889E30E94FD33BC01990F880B03
:10401000990B0E94443820E030EC4FE754E40E94B2
:10402000A93720E030E040EA50E40E94F83860937D
:1040300045087093460880934708909348088AE3A0
:104040000E94FD33BC01990F880B990B0E944438E4
:1040500020E030EC4FE754E40E94A93720E030E044
:1040600040EA50E40E94F838609341087093420897
:1040700080934308909344088BE30E94FD33BC0176
:10408000990F880B990B0E94443820E030EC4FE7E1
:1040900054E40E94A93720E030E040EA50E40E9456
:1040A000F83860939C0770939D0780939E079093C8
:1040B0009F078CE30E94FD33BC01990F880B990B7D
:1040C0000E94443820E030EC4FE754E40E94A937C6
:1040D00020E030E040EA50E40E94F838609398070E
:1040E0007093990780939A0790939B078DE30E94A2
:1040F000FD33BC01990F880B990B0E94443820E0D6
:1041000030EC4FE754E40E94A93720E030E040EA69
:1041100050E40E94F8386093940770939507809359
:1041200096079093970708950F931F930091F208B5
:104130001091F3082091F4083091F5084091F608A9
:104140005091F7086091F8087091F90884E299E0BD
:10415000F6DC0091EE081091EF082091F008309104
:10416000F1084091F6085091F7086091F8087091B5
:10417000F9088AEF98E0E3DC0091450810914608C1
:1041800020914708309148084091490850914A08C9
:1041900060914B0870914C0887E798E0D0DC009163
:1041A0004108109142082091430830914408409101
:1041B000490850914A0860914B0870914C088DE471
:1041C00098E0BDDC009198071091990720919A071B
:1041D00030919B0740919C0750919D0760919E07ED
:1041E00070919F078AEC97E0AADC009194071091E8
:1041F0009507209196073091970740919C07509121
:104200009D0760919E0770919F0780EA97E097DC79
:104210001F910F91089580915B1290915C12D8DBF1
:104220008091411090914210D3DB80915F14909166
:104230006014CEDB80913D0E90913E0EC9CB1CD513
:1042400090933A0C8093390C60E47FE10E945F39CF
:10425000072E000C880B990B0E94443820E030E0B8
:1042600048EC52E40E94F8386093350C7093360C99
:104270008093370C9093380C08958F929F92AF9251
:10428000BF92CF92DF92EF92FF92CF93DF93EC0138
:104290008C819D8101969D838C830E943733688336
:1042A00079838A839B83CE0152DDCE013DDFCE012F
:1042B000B2DFCE01C4DF8E819F81A885B985BC01A4
:1042C000CD016F5F7F4F8F4F9F4F6E837F838887B6
:1042D0009987C880D980EA80FB808A849B84AC84DB
:1042E000BD84C818D908EA08FB0829EBC2162BE0E0
:1042F000D206E104F10408F470C00E9444384B0176
:104300005C01C701B6010E94423820E030E04AE774
:1043100054E40E94A9379B01AC01C501B4010E947D
:10432000A9376B017C016CEF72E086E596E10E9493
:10433000A72E22E030E0B701A60186E596E10E94B3
:10434000A73063EF72E086E596E10E94A72E4E81CA
:104350005F81688579852AE030E086E596E10E94F4
:104360005C2F68EE72E086E596E10E94A72E4881F8
:1043700059816A817B818A859B85AC85BD85481B77
:10438000590B6A0B7B0B2AE030E086E596E10E9430
:10439000BE2F6FED72E086E596E10E94A72E6CD4E9
:1043A0004AE050E0BC0186E596E10E94A32F62ED51
:1043B00072E086E596E10E94E52E86E596E10E9490
:1043C000012B88819981AA81BB818A879B87AC87D1
:1043D000BD871E821F8218861986DF91CF91FF90BC
:1043E000EF90DF90CF90BF90AF909F908F90089507
:1043F00065ED76E089E695E10E94D1046AED76E00C
:1044000083E595E10E94D1046FED76E08DE395E1BF
:104410000E94D10467E176E087E295E10E94D10431
:104420006EE176E081E195E10E94D1046FE076E0F3
:104430008BEF94E10E94D10463E176E085EE94E194
:104440000E94D1046BE776E08FEC94E10E94D104E6
:1044500063EE76E089EB94E10E94D10467EE76E0AA
:1044600083EA94E10E94D1046BEE76E08DE894E15A
:104470000E94D1046EEE76E087E794E10E94D104B9
:1044800062EF76E081E694E10C94D10481E694E158
:104490000E94DC0387E794E10E94DC038DE894E14D
:1044A0000E94DC0383EA94E10E94DC0389EB94E13F
:1044B0000E94DC038FEC94E10E94DC0385EE94E122
:1044C0000E94DC038BEF94E10E94DC0381E195E123
:1044D0000E94DC0387E295E10E94DC038DE395E115
:1044E0000E94DC0383E595E10E94DC0389E695E107
:1044F0000C94DC036115710579F0FB01019000203B
:10450000E9F73197AF01461B570BDC01ED91FC91A8
:104510000280F381E02D199480E090E00895EF92FD
:104520000F931F93CF93DF93EC01862F688349830A
:104530002A83EB821D821C821F821E8208871A86B4
:10454000198691E09B871C869D879E871F86198A06
:10455000188A1A8A1B8A1C8A1D8A1E8AEE2011F06C
:1045600010E001C012E087FD03C0612F0E94773484
:10457000898187FD03C0612F0E9477348A8187FD7E
:1045800003C0612F0E94773488810E94E2342B811E
:1045900030E08217930721F483E090E09F838E83BD
:1045A00089810E94E2342B8130E08217930731F435
:1045B0008E819F8121E082279F838E83DF91CF911F
:1045C0001F910F91EF900895CF92DF92EF92FF929B
:1045D0000F931F93CF93DF93EC010E9437336B014E
:1045E0007C01888187FD4AC09B85992361F02985DC
:1045F0003A85225031093A87298729853A8537FF3C
:1046000002C01A8619860E94E2342B8130E082179C
:10461000930711F413E001C010E089810E94E23495
:104620002B8130E08217930711F481E018278E81E7
:104630009F81811B80FF12C0212F110F330B3F83FD
:104640002E832C813D818270082E000C990B0197DE
:10465000820F931F9D838C8381E001C080E09B8546
:10466000992361F0882351F089859A85883E9B4083
:1046700028F489859A8549969A8789878A811816A8
:1046800034F081115AC09F85992309F456C04B8993
:104690005C896D897E8997018601041B150B260BA9
:1046A000370B0A3011052105310508F446C0CB8AC5
:1046B000DC8AED8AFE8A0E94E2342B8130E0821788
:1046C000930769F4888999890196998B888B893732
:1046D000910528F08E85882311F083E08C878A81EC
:1046E0000E94E2343B8121E0232730E082179307C8
:1046F000D9F4888999890297A8F08C85833011F4C0
:1047000084E006C08A89823030F0883258F486E02E
:104710008C871A8A07C08D85811102C081E001C093
:1047200088E28A8B198A188A8A89882331F0815015
:104730008A8B811102C085E08C87DF91CF911F9118
:104740000F91FF90EF90DF90CF900895FC01F894C7
:10475000248135818085823021F4C90181709927B7
:1047600005C0843031F4C90183709927958384830F
:1047700002C01582148278948085843029F435959E
:1047800027953595279504C0823011F435952795E6
:104790008385882329F081859285892F992702C0F6
:1047A00080E090E037FF03C0809590950895232B1B
:1047B00011F00196089580E090E00895FC01848551
:1047C0009485933011F0811114860895FC011282B2
:1047D0008FEF8183108213820895FC0183818823E7
:1047E00031F0611103C08FEF818308951182089524
:1047F000CF93DF93EC016A8382EF95E134D541E0FA
:104800006A8182EF95E144D591E0811101C090E089
:104810009B8382EF95E196D488838B8190E0DF9132
:10482000CF910895CF93DF93FC012381222399F048
:10483000EC018181809568236083628182EF95E13C
:1048400029D5688182EF95E1D0D482EF95E13ED5FC
:10485000282F30E002C020E030E081E090E0232B00
:1048600011F080E090E0DF91CF91089508950895D0
:10487000DC01ED91FC910284F385E02D41E0199576
:1048800081E090E00895FC01138212822AEF36E065
:10489000318320830895DC01ED91FC910084F18542
:1048A000E02D6FEF1994DC01ED91FC910284F3850A
:1048B000E02D40E0199461E0F6DF80ED97E00C9484
:1048C0008D33CF93DF93CDB7DEB728970FB6F8942B
:1048D000DEBF0FBECDBFFC011D8280E48E8394E15C
:1048E0009F8394E5988719828A8380E18B8380E592
:1048F0008C838781481710F04FEF480F908550E068
:10490000DE01A40FB51F903129F4843019F41196FB
:104910009C9102C015969C91690F6068CF01289602
:104920000FB6F894DEBF0FBECDBFDF91CF91BBCFE6
:10493000FC016581262F246025836C60B4CFCF9362
:10494000DF93EC01423018F08C8188608C834F83B8
:104950006887222329F0413019F48C8184608C838C
:1049600064E670E080E090E00E9468336C8164FD52
:1049700031C0E881F9810284F385E02D42E063E0F3
:10498000CE01199584E991E10E948D33E881F98186
:104990000284F385E02D42E063E0CE01199584E9BD
:1049A00091E10E948D33E881F9810284F385E02D45
:1049B00042E063E0CE01199586E990E00E948D33D4
:1049C000E881F9810284F385E02D42E062E0CE01C6
:1049D000199513C06062CE0166DF84E991E10E94FF
:1049E0008D336C816062CE015EDF86E990E00E94CB
:1049F0008D336C816062CE0156DF6C816062CE01C6
:104A000052DF84E08D83CE0193DFCE0154DF82E05C
:104A10008E8366E0CE0147DFCE01DF91CF913BCFA1
:104A200021E001C0220F6A95EAF7DC011B962C9366
:104A30001B9719964C931997ED91FC910084F18581
:104A4000E02D60E01994FC018385882389F091852D
:104A5000911103C0611105C006C0913021F46111AC
:104A600002C0848701C014866485CF010D96DACE1A
:104A700008950F931F93CF93DF938C01EC012D9634
:104A8000FC016285CE01B4DE019759F461E0CE01EC
:104A9000A4DEF801148260E0CE01C4DE81E090E083
:104AA00002C080E090E0DF91CF911F910F910895B7
:104AB0008F92AF92CF92EF920F93CF93DF93CDB7B8
:104AC000DEB7FC01628713861486118681E0982F79
:104AD00001C0990F4A95EAF7918B982F01C0990F61
:104AE0002A95EAF7928B982F01C0990F0A95EAF759
:104AF000938B982F01C0990FEA94EAF7948B982F23
:104B000001C0990FCA94EAF7958B982F01C0990FAD
:104B1000AA94EAF7968B01C0880F8A94EAF7878BEC
:104B2000DF91CF910F91EF90CF90AF908F9008953C
:104B30006F927F928F92AF92CF92EF920F93CF931B
:104B4000DF9300D0CDB7DEB73C012B834A83698366
:104B50009ADE8AE097E0F30191838083C3010D968A
:104B600035DE2B814A816981C301A2DF0F900F904E
:104B70000F90DF91CF910F91EF90CF90AF908F90EA
:104B80007F906F900895FF920F931F93CF93DF93C1
:104B9000EC01F62E8C01035F1F4F9989692BC80128
:104BA00041DE998990956F2D6923C801DF91CF91DE
:104BB0001F910F91FF9036CE362FFC01749624E0A2
:104BC00060E030FF02C05081652B36952150319650
:104BD0002111F7CF413011F4FC014389FC012485F8
:104BE000622B642BD0CF0F931F93CF93DF93062FAD
:104BF0000F70423019F440E0602F0FC0142F262FA1
:104C0000EC0130E0B90184E0759567958A95E1F78C
:104C1000CE01D2DF412F602FCE01DF91CF911F91C6
:104C20000F91CACF0F931F93CF93DF9300D0CDB7CF
:104C3000DEB78C012B834A8369831BDF2B814A817A
:104C40006981C8010F900F900F90DF91CF911F9154
:104C50000F9175CEE091F218F091F31880E090E09A
:104C6000309749F0029620813181820F931F028094
:104C7000F381E02DF5CF08950F931F93CF93DF932A
:104C80001F921F92CDB7DEB78091F0189091F11866
:104C90008E010F5F1F4F009729F4045F18411A839C
:104CA000098309C0081B190B1A830983D3DF800FFE
:104CB000911F9A83898389819A810F900F90DF9148
:104CC000CF911F910F9108951F920F920FB60F92DF
:104CD00011240BB60F922F933F934F935F936F93D3
:104CE0007F938F939F93AF93BF93EF93FF93E09145
:104CF0007F15F09180151995FF91EF91BF91AF91BC
:104D00009F918F917F916F915F914F913F912F91E3
:104D10000F900BBE0F900FBE0F901F901895109222
:104D2000F11581E08093EF151092EE1561E084E1BA
:104D30000E94B33461E085E10E94B334E9EBF0E016
:104D400080818E7F808380818D7F808388E48093C3
:104D5000B80085E48093BC000895413208F03FC05C
:104D60009091F1159111FCCF91E09093F115209362
:104D7000EF152FEF209384151092C915240F20935F
:104D8000C8159093F0159091F015880F892B80939A
:104D9000F0158091EE15813041F41092EE1580915E
:104DA000F0158093BB0085EC01C085EE8093BC00BC
:104DB0008091F1158130E1F38091C915841710F4C9
:104DC0004091C9152AEC35E1FB01D9018A2F821BDC
:104DD000841718F48D918193F9CF842F089580E082
:104DE00008950F93413208F046C09091F11591114A
:104DF000FCCF32E03093F1150093EF153FEF309385
:104E000084151092C9154093C815FB016AEC75E131
:104E1000DB013A2F361B341718F431913D93F9CF4B
:104E20001092F0153091F015880F832B8093F015B8
:104E30008091EE15813041F41092EE158091F015BD
:104E40008093BB0085EC01C085EE8093BC002223DB
:104E500021F08091F1158230D1F3809184158F3F3C
:104E600079F080918415803241F0809184158033EF
:104E700031F094E005C091E003C092E001C093E0FE
:104E8000892F0F910895613298F42091F115243003
:104E900089F46093A615FC0128EA35E1D9018A2F2F
:104EA000821B861718F481918D93F9CF80E00895C5
:104EB00081E0089582E0089585ED8093BC008091A3
:104EC000BC0084FDFCCF1092F115089585EC809311
:104ED000BC001092F11508951F920F920FB60F9219
:104EE00011240BB60F922F933F934F935F936F93C1
:104EF0007F938F939F93AF93BF93EF93FF93809193
:104F0000B900887F803609F49CC068F5883209F4BE
:104F10005BC090F4803109F454C038F4882309F45C
:104F2000F3C0883009F44DC0F2C0883109F44CC098
:104F3000803209F45DC0EBC0803409F468C048F4E5
:104F4000803309F455C0883309F0E1C0809384159B
:104F5000A7C0803509F44FC0883509F45DC0883496
:104F600009F0D5C0D3C0883909F4C4C0A8F4883783
:104F700009F467C038F4883609F463C0803709F44F
:104F800060C0C5C0883809F4B5C0803909F45FC075
:104F9000803809F0BCC05BC0803B09F483C038F4A2
:104FA000803A09F466C0883A09F47CC0B0C0803CFD
:104FB00009F4A4C0883C09F4A1C0883B09F487C067
:104FC000A6C08091F01510C09091C9158091C815A8
:104FD000981770F5E091C91581E08E0F8093C9157F
:104FE000F0E0E653FA4E80818093BB0085EC83C0ED
:104FF000809384158BC0E091C91581E08E0F80935A
:10500000C9158091BB00F0E0E653FA4E8083909181
:10501000C9158091C8156BC0E091C91581E08E0F4C
:105020008093C9158091BB00F0E0E653FA4E80836F
:105030008091EF1581116AC081E08093EE1584EABA
:105040005EC083E08093F11510928515CFCF8091DB
:105050008515803208F04EC0E091851581E08E0FF5
:10506000809385158091BB00F0E0EA57FA4E80836B
:10507000BDCF80918515803230F4E0918515F0E048
:10508000EA57FA4E108218DF6091851570E0E091C2
:10509000EA15F091EB1586E895E1199510928515C2
:1050A00015DF35C084E08093F1151092A71510929A
:1050B000A615E091EC15F091ED1519958091A615C6
:1050C000811105C081E08093A6151092A815E0918A
:1050D000A71581E08E0F8093A715F0E0E855FA4EF2
:1050E00080818093BB009091A7158091A615981799
:1050F00008F47CCF85E88093BC0009C085EC8093E0
:10510000BC001092F11503C010928415D5DEFF91FA
:10511000EF91BF91AF919F918F917F916F915F912F
:105120004F913F912F910F900BBE0F900FBE0F909C
:105130001F9018958091221690E020912316821BD3
:10514000910908959091231680912216981750F492
:10515000E92FF0E0EC5DF94E208130E09F5F909305
:10516000231602C02FEF3FEFC9010895E0912316E7
:1051700080912216E81730F4F0E0EC5DF94E808162
:1051800090E008958FEF9FEF08950895CF92DF92FA
:10519000EF92FF920F931F93CF93DF937C01262F03
:1051A000972F8A018091FE15882391F0C62FD72F63
:1051B0006E01C40ED51ECC15DD0569F06991D701CD
:1051C000ED91FC910190F081E02DC7011995F3CF8D
:1051D000642F822F58DEC801DF91CF911F910F916C
:1051E000FF90EF90DF90CF900895CF93DF931F92C1
:1051F000CDB7DEB769832091FE152223D1F020912F
:10520000FF15203240F021E030E0FC01338322839F
:1052100080E090E014C080910016E82FF0E0EF5F8E
:10522000F94E998190838F5F809300168093FF15CC
:1052300004C061E0CE01019626DE81E090E00F908F
:10524000DF91CF910895FC011382128288EE93E0E2
:10525000A0E0B0E084839583A683B7838AE197E0DA
:105260009183808308951092231610922216109233
:1052700000161092FF1553CD862F413208F040E200
:1052800064E276E16ADD1092231680932216089577
:1052900021E0F2CF81E08093FE15609321161092F9
:1052A00000161092FF1508950F93062F21E04091EC
:1052B000FF1561E076E18091211693DD10920016D2
:1052C0001092FF151092FE150F91089561E0ECCF3A
:1052D00082EF95E1B8CFE4E4F6E110821182128208
:1052E0001382168217821086118612861386148600
:1052F0001586089580E00E94FA3326E040E052ECE3
:1053000061E070E086E596E1E3D162EB73E086E56B
:1053100096E15BD56CE873E086E596E156D566E6E6
:1053200073E086E596E151D56AE573E086E596E19E
:105330000ED522E030E04DEC5CEC6CEC7DE386E5D4
:1053400096E106D769E573E086E596E13ED56AE425
:1053500073E086E596E139D56DE373E086E596E185
:10536000F6D48ADC4AE050E0BC0186E596E1F1D54E
:1053700086E596E146D10E94150C0E943D130E94DD
:10538000200F0E94E4130E94030D0E9437336093A4
:10539000521670935316809354169093551680EDC1
:1053A00099E089DA41E063E080ED99E08ADA66E22B
:1053B00077E080ED99E0FCD422E030E04DEC5CEC4D
:1053C0006CEC7DE380ED99E0C2D642E062E080EDD6
:1053D00099E077DA60E377E080ED99E0E9D483E85B
:1053E00099E069DA41E062E083E899E06ADA61E431
:1053F00077E083E899E0DCD486ED98E05CDA41E080
:1054000062E086ED98E05DDA61E577E086ED98E0B0
:10541000CFD489E298E04FDA41E062E089E298E097
:1054200050DA61E677E089E298E0C2D460E373E0A5
:1054300086E596E18CD420DC4AE050E0BC0186E5AC
:1054400096E187C50F931F9380918A04882309F4FE
:1054500046C06FE273E086E596E1B7D460E273E0A0
:1054600086E596E1B2D40E9437330091521610912E
:1054700053162091541630915516DC01CB01801B38
:10548000910BA20BB30B883B9B40A105B10538F4EF
:1054900064EF71E080E090E00E946833E4CF68E060
:1054A00073E086E596E191D486E596E1AAD08091F5
:1054B0005B1290915C120E94401D8091411090916E
:1054C00042100E94401D80915F14909160140E94D0
:1054D000401D80913D0E90913E0E0E94401D109205
:1054E0008A0484E496E11F910F910C943D210E945F
:1054F000E03BFC01918D228D892F90E0805C9F4FD5
:10550000821B91098F7399270895FC01918D828DDB
:10551000981731F0828DE80FF11D858D90E0089588
:105520008FEF9FEF0895FC01918D828D981761F0A8
:10553000828DDF01A80FB11D5D968C91928D9F5FCA
:105540009F73928F90E008958FEF9FEF08958CE204
:105550009CE2892B39F080E090E0892B19F07CD116
:10556000811122C081EC9CE2892B39F080E090E02F
:10557000892B19F006D281111AC086E59DE2892B8C
:1055800039F080E090E0892B19F090D2811112C09F
:105590008BEE9DE2892B99F080E090E0892B79F0E9
:1055A0001AD381110AC008950E940000DBCF0E9427
:1055B0000000E3CF0E940000EBCF0C9400000895A0
:1055C000FC01848DDF01A80FB11DA35ABF4F2C91A0
:1055D000848D90E001968F739927848FA689B7896F
:1055E0002C93A089B1898C9180648C93938D848D48
:1055F000981306C00288F389E02D80818F7D808317
:105600000895CF93DF93EC01888D8823C1F0EA8958
:10561000FB89808185FD05C0A889B9898C9186FDAB
:105620000EC00FB607FCF5CF808185FFF2CFA889A9
:10563000B9898C9185FFEDCFCE01C2DFE8CFDF9134
:10564000CF910895EF92FF920F931F93CF93DF9323
:10565000EC0181E0888F9B8D8C8D981305C0E889C3
:10566000F989808185FD23C0F62E0B8D10E00F5F38
:105670001F4F0F731127E02E8C8DE8120BC00FB651
:1056800007FCFACFE889F989808185FFF5CFCE0143
:1056900097DFF2CF8B8DFE01E80FF11DE35AFF4F2C
:1056A000F0820B8FEA89FB898081806207C0EE89D6
:1056B000FF896083E889F98980818064808381E043
:1056C00090E0DF91CF911F910F91FF90EF9008959F
:1056D000CF92DF92EF92FF921F93CF93DF93EC0173
:1056E0006A017B01122FE889F98982E080834115E4
:1056F000514E61057105B1F060E079E08DE390E015
:10570000A70196010E947239DA01C9010197A10926
:10571000B109B695A79597958795AC01411580E19C
:105720005807A8F0E889F989108260E874E88EE1EA
:1057300090E0A70196010E947239BA01A901415077
:105740005109610971097695679557954795EC85DB
:10575000FD855083EE85FF854083188EEC89FD8999
:105760001083EA89FB89808180618083EA89FB89D3
:10577000808188608083EA89FB898081806880835A
:10578000EA89FB8980818F7D8083DF91CF911F9192
:10579000FF90EF90DF90CF9008951F920F920FB679
:1057A0000F9211240BB60F922F938F939F93EF9329
:1057B000FF93E0916616F09167168081E0916C1678
:1057C000F0916D1682FD12C0908180916F168F5FEF
:1057D0008F7320917016821751F0E0916F16F0E0F0
:1057E000EA5AF94E958F80936F1601C08081FF9120
:1057F000EF919F918F912F910F900BBE0F900FBE45
:105800000F901F9018951F920F920FB60F921124B0
:105810000BB60F922F933F934F935F936F937F93AA
:105820008F939F93AF93BF93EF93FF9386E596E19A
:10583000C7DEFF91EF91BF91AF919F918F917F91C3
:105840006F915F914F913F912F910F900BBE0F90F1
:105850000FBE0F901F90189586E596E14ADE21E075
:10586000892B09F420E0822F0895E6E5F6E1138202
:10587000128288EE93E0A0E0B0E084839583A68353
:10588000B78381E797E09183808385EC90E09587EB
:10589000848784EC90E09787868780EC90E0918BFA
:1058A000808B81EC90E0938B828B82EC90E0958BE7
:1058B000848B86EC90E0978B868B118E128E138EE4
:1058C000148E08951F920F920FB60F9211240BB6EB
:1058D0000F922F938F939F93EF93FF93E091031772
:1058E000F09104178081E0910917F0910A1782FD69
:1058F00012C0908180910C178F5F8F7320910D17CC
:10590000821751F0E0910C17F0E0ED50F94E958FB1
:1059100080930C1701C08081FF91EF919F918F912F
:105920002F910F900BBE0F900FBE0F901F901895E8
:105930001F920F920FB60F9211240BB60F922F9356
:105940003F934F935F936F937F938F939F93AF9307
:10595000BF93EF93FF9383EF96E132DEFF91EF91D8
:10596000BF91AF919F918F917F916F915F914F9177
:105970003F912F910F900BBE0F900FBE0F901F9075
:10598000189583EF96E1B5DD21E0892B09F420E03D
:10599000822F0895E3EFF6E11382128288EE93E0FE
:1059A000A0E0B0E084839583A683B78381E797E086
:1059B000918380838DEC90E0958784878CEC90E0D8
:1059C0009787868788EC90E0918B808B89EC90E0BC
:1059D000938B828B8AEC90E0958B848B8EEC90E09D
:1059E000978B868B118E128E138E148E08951F92B4
:1059F0000F920FB60F9211240BB60F922F938F9325
:105A00009F93EF93FF93E091A017F091A1178081EE
:105A1000E091A617F091A71782FD12C090818091A6
:105A2000A9178F5F8F732091AA17821751F0E09109
:105A3000A917F0E0E057F84E958F8093A91701C0A1
:105A40008081FF91EF919F918F912F910F900BBECD
:105A50000F900FBE0F901F9018951F920F920FB6C8
:105A60000F9211240BB60F922F933F934F935F9396
:105A70006F937F938F939F93AF93BF93EF93FF9316
:105A800080E997E19DDDFF91EF91BF91AF919F91EB
:105A90008F917F916F915F914F913F912F910F90D7
:105AA0000BBE0F900FBE0F901F90189580E997E1E5
:105AB00020DD21E0892B09F420E0822F0895E0E920
:105AC000F7E11382128288EE93E0A0E0B0E08483D5
:105AD0009583A683B78381E797E09183808385EDE3
