:1000000006C200000C9470330C94A1330C94D233CC
:100010000C9403340C9434340C9465340C9496345E
:100020000C94C73425C2000023C2000021C2000086
:100030001FC200000C9411331BC2000019C2000043
:1000400017C2000015C2000013C2000011C2000058
:100050000C944C280DC200000BC200000C94F83424
:1000600007C200000C948C2D0C94C82D01C2000016
:10007000FFC10000FDC10000FBC10000F9C100008C
:10008000F7C10000F5C10000F3C10000F1C100009C
:100090000C94272E0C94632EEBC100000C94702955
:1000A000E7C10000E5C10000E3C10000E1C10000BC
:1000B000DFC10000DDC10000DBC10000D9C10000CC
:1000C000D7C10000D5C10000D3C100000C94C22EDE
:1000D0000C94FE2ECDC100000C945D2F0C94992F32
:1000E000C7C10000121FDA1EE91EA21EAF1EBC1EF1
:1000F000CB1EF81E051F891F511F601F191F261FC9
:10010000331F421F6F1F7C1F901FD11F782A7B2A2D
:100110007B2A7B2A7B2A7B2A7B2A7B2A92297B2AA1
:100120007B2A7B2A7B2A7B2A7B2A7B2A92297B2A91
:100130007B2A7B2A7B2A7B2A7B2A7B2A9A297B2A79
:100140007B2A7B2A7B2A7B2A7B2A7B2ABF297B2A44
:100150007B2A7B2A7B2A7B2A7B2A7B2A9A297B2A59
:100160007B2A7B2A7B2A7B2A7B2A7B2AC4297B2A1F
:100170007B2A7B2A7B2A7B2A7B2A7B2AC9297B2A0A
:100180007B2A7B2A7B2A7B2A7B2A7B2ADA297B2AE9
:100190007B2A7B2A7B2A7B2A7B2A7B2A032A7B2AAF
:1001A0007B2A7B2A7B2A7B2A7B2A7B2ACE297B2AD5
:1001B0007B2A7B2A7B2A7B2A7B2A7B2AE8297B2AAB
:1001C0007B2A7B2A7B2A7B2A7B2A7B2A052A7B2A7D
:1001D0007B2A7B2A7B2A7B2A7B2A7B2A052A7B2A6D
:1001E0007B2A7B2A7B2A7B2A7B2A7B2A052A7B2A5D
:1001F0007B2A7B2A7B2A7B2A7B2A7B2A052A7B2A4D
:100200007B2A7B2A7B2A7B2A7B2A7B2A0E2A7B2A33
:100210007B2A7B2A7B2A7B2A7B2A7B2A3F2A7B2AF2
:100220007B2A7B2A7B2A7B2A7B2A7B2A0E2A7B2A13
:100230007B2A7B2A7B2A7B2A7B2A7B2A3F2A7B2AD2
:100240007B2A7B2A7B2A7B2A7B2A7B2A262A7B2ADB
:100250007B2A7B2A7B2A7B2A7B2A7B2A432A7B2AAE
:100260007B2A7B2A7B2A7B2A7B2A7B2A432A7B2A9E
:100270007B2A7B2A7B2A7B2A7B2A7B2A582A7B2A79
:100280007B2A7B2A7B2A7B2A7B2A7B2A722A7B2A4F
:100290007B2A7B2A7B2A7B2A7B2A7B2A722A4C3662
:1002A00050363A3640364636953654365A366036EB
:1002B00066366C36723678367E36953684368A36B1
:1002C00090364261636B00416C61726D20546573BE
:1002D00074000200000A0B02090C0D0E080703044B
:1002E000010000000000000000000000000000000D
:1002F00000000000000000000000000000000012EC
:1003000011100000000000000000000000000000CC
:10031000000000000000000000010210202008087A
:100320001020401020408002010201080402010157
:100330000204081020408080402010080402018040
:100340000402018040201008040201080402010197
:10035000020408102040800102040810204080059B
:10036000050505070508080808020202020A0A082E
:100370000804040404010101010101010103030354
:100380000303030303040707070C0C0C0C0C0C0CF1
:100390000C0202020206060606060606060B0B0BF8
:1003A0000B0B0B0B0B000020002300260029002C58
:1003B000002F0032000001000003010601090100C6
:1003C000002200250028002B002E003100340002FE
:1003D000010000050108010B010000210024002795
:1003E000002A002D00300033000101000004010745
:1003F000010A0100ED025108240EE910E211612BFF
:100400001C2CFA2D952E302FCB2F3830000C1124B8
:100410001FBECFEFD1E2DEBFCDBF00E00CBF16E0C4
:10042000A0E0B2E0E8E2FAE700E00BBF02C007900C
:100430000D92AE36B107D9F72DE0AEE6B6E001C0B9
:100440001D92A634B207E1F711E0C6E0D2E000E069
:1004500006C021970109802FFE010E94B23ACA3FCF
:10046000D10780E00807A9F70E9444300C94033DAF
:10047000C7CDCF92DF92EF92FF920F931F93CF934E
:10048000DF93CDB7DEB76E970FB6F894DEBF0FBE21
:10049000CDBF00916E0610916F060C5F1F4F69E093
:1004A00072E0CE0149960E949937B801CE01499673
:1004B0000E94363861E075E00E944738BC0188EA46
:1004C0009AE00E948130CE0149960E942D376091BA
:1004D00070067091710680916E0690916F060E9471
:1004E000732062E776E080916E0690916F060E941D
:1004F000A9206CE172E0CE0143960E9499378DE10C
:1005000090E00E944E308C01BE016D5E7F4F0E94D4
:10051000F313CE0143960E942D3769E272E0CE01BB
:100520000D960E9499378EE290E00E944E306C0149
:10053000BE01635F7F4F0E944B1ACE010D960E9451
:100540002D3769E272E0CE0107960E94993789E063
:1005500090E00E944E307C01A601BE01695F7F4F92
:1005600059D4B701C8010E942114CE0107960E94F8
:100570002D3762E372E0CE0101960E94993789E03F
:1005800090E00E944E307C01A801BE016F5F7F4F5A
:1005900023D4B701C8010E942114CE0101960E9404
:1005A0002D37B80180916E0690916F060E94FC2055
:1005B00068E372E088EA9AE00E94CA306E960FB64D
:1005C000F894DEBF0FBECDBFDF91CF911F910F9189
:1005D000FF90EF90DF90CF9008950F931F93CF93EC
:1005E000DF9300D000D0CDB7DEB76EE372E0CE016E
:1005F00001960E94993786E190E00E944E308C016E
:10060000BE016F5F7F4F0E94502010936F060093D2
:100610006E06CE0101960E942D3726960FB6F894ED
:10062000DEBF0FBECDBFDF91CF911F910F91089517
:10063000FC01828193810895CF93DF93EC0107C081
:10064000E881F9810684F785E02DCE011995E881CE
:10065000F9810190F081E02DCE0119951816190647
:100660007CF3DF91CF910895EF92FF920F931F9348
:10067000CF93DF93FC0122813381121613060CF510
:10068000EC0122303105ACF00480F581E02DE280F0
:10069000F38000811181CF010E945130FD82EC82F4
:1006A0008A819B8101979B838A831C86802F912F4F
:1006B0000AC00190F081E02D0484F585E02D1995A4
:1006C00002C080E090E0DF91CF911F910F91FF90E9
:1006D000EF9008950F931F93CF93DF93EC018B015D
:1006E0008A819B81892B41F4E881F9810480F5811D
:1006F000E02DCE01199518C084E090E00E944E30A4
:10070000FC0111821082138212828C819D8193835D
:10071000828311830083FD83EC838A819B81019610
:100720009B838A831C8681E0DF91CF911F910F917B
:1007300008950F931F93CF93DF93EC018B0184E017
:1007400090E00E944E30FC011382128211830083DC
:100750002C813D81232B39F0EE81FF8193838283AD
:100760009F838E8304C09D838C839F838E838A8125
:100770009B8101969B838A831C8681E0DF91CF91C8
:100780001F910F910895CF92EF92FF920F931F93B5
:10079000FC01118612861386148685E492E0948B00
:1007A000838B108E178A128E118E168A158A148EDC
:1007B000138E168E158E178E768765872787308B5A
:1007C000418B528BE082F18202831383C4821F919A
:1007D0000F91FF90EF90CF900895CF93DF93EC01AE
:1007E00085E492E09C8B8B8B8F89988D009759F0D4
:1007F000FC0122813381388F2F8B0E9451308F89E9
:10080000988D0097A9F7DF91CF910895DC01149698
:10081000ED91FC9115971C968C911C97882361F0A3
:100820001A962D913C911B976217730744F0189606
:10083000ED91FC91199705C020E030E002C020E066
:1008400030E02617370764F4309751F00280F381C7
:10085000E02D2F5F3F4F2617370714F43097B1F77D
:100860002617370779F481E01C968C931C971B960A
:100870003C932E931A971996FC93EE9318978E2F0C
:100880009F2F089580E090E00895C0DF009721F049
:10089000FC0180819181089580E090E008954F925D
:1008A0005F926F927F928F929F92AF92BF92EF92E0
:1008B000FF920F931F93CF93DF93EC018C818111F3
:1008C00020C08D850E940A36BC01990F880B990BB8
:1008D0000E9462394B015C0120E030EC4FE754E4A8
:1008E0006F85788989899A890E94C7389B01AC01F4
:1008F000C501B4010E94163A6D837E838F83988769
:10090000A3C08D850E940A367E0123E1E20EF11C10
:10091000BC01C7010EDF0E94423509851A852B856F
:100920003C85DC01CB01801B910BA20BB30B088132
:1009300019812A813B81081719072A073B0708F00C
:1009400083C08C81813009F055C08D899E8918162D
:1009500019060CF047C000E010E0812C912C5401E6
:10096000B801C70192DFBC01990F880B990B0E9457
:1009700062392B013C0120E030EC4FE754E46F85F5
:10098000788989899A890E94C7389B01AC01C30183
:10099000B2010E94163A2B013C01288139814A811B
:1009A0005B8161E070E080E090E00E94903ACA01D3
:1009B000B9010E9460399B01AC01C301B2010E94E0
:1009C000163A9B01AC01C501B4010E945F384B018E
:1009D0005C010F5F1F4F8D899E89081719070CF462
:1009E000BFCF03C0812C912C54018D829E82AF8297
:1009F000B88628C0823031F56D897E89772314F45A
:100A00006F5F7F4F75956795C7013FDFBC01990FF9
:100A1000880B990B0E9462394B015C0120E030EC9D
:100A20004FE754E46F85788989899A890E94C7388D
:100A30009B01AC01C501B4010E94163A6D837E830F
:100A40008F839887C701F8DDDF91CF911F910F91B8
:100A5000FF90EF90BF90AF909F908F907F906F909E
:100A60005F904F900895EF92FF920F931F93CF9353
:100A7000DF93FC01628173811616170674F5EC0191
:100A8000148662307105CCF062507109BFDE7C01C2
:100A9000FC0182819381FC01008111810E9451300F
:100AA000F70113821282FF82EE828A819B81019775
:100AB0009B838A83802F912F12C084819581FC01B2
:100AC000008111810E9451301D821C821F821E8272
:100AD0001B821A82802F912F02C080E090E0DF916C
:100AE000CF911F910F91FF90EF9008950F931F9357
:100AF000CF93DF937723DCF1DC0112962D913C91AB
:100B0000139762177307B4F5EC016115710539F499
:100B1000E881F9810684F785E02D19952DC02150D3
:100B200031092617370739F4E881F9810484F585FE
:100B3000E02D199521C06150710968DEDC01129623
:100B4000ED91FC91139700811181228133811396DD
:100B50003C932E931297CF010E9451308A819B8142
:100B600001979B838A831C86802F912F05C080E08C
:100B700090E002C080E090E0DF91CF911F910F9153
:100B80000895CF93DF9377236CF0FC0122813381AA
:100B9000621773074CF4EA0139DEFC01D183C0838C
:100BA00081E003C080E001C080E0DF91CF91089533
:100BB000CF92DF92EF92FF920F931F93CF93DF9329
:100BC000EC018B016A018A819B81681779074CF0DF
:100BD000E881F9810480F581E02DBA01CE011995F3
:100BE0002DC0672B49F4E881F9810680F781E02D5B
:100BF000BA01CE01199522C084E090E00E944E30E7
:100C00007C01FC011182108213821282B8016150B2
:100C10007109CE01FBDDF701D182C082FC01228186
:100C20003381F70133832283FC01F382E2828A81DC
:100C30009B8101969B838A831C8681E0DF91CF9103
:100C40001F910F91FF90EF90DF90CF900895CF9379
:100C5000DF93EC0109960E942D37CE0103960E9486
:100C60002D37DF91CF910895CF93DF93EC018A81E7
:100C7000882319F0823039F00BC088810E94053733
:100C8000988B8F8705C088810E940537988B8F8746
:100C90008F859889DF91CF9108950F931F93CF93FC
:100CA000DF93EC018B018A81813021F061E0888142
:100CB0000E949636188B0F8761E088810E949636D5
:100CC0006F8588810E94D536DF91CF911F910F915A
:100CD00008957F928F929F92AF92BF92CF92DF92B0
:100CE000EF92FF920F931F93CF93DF93EC015B0181
:100CF000742E690148018FEF9FEF998388831A82D0
:100D00007E0183E0E80EF11C69E572E0C7010E94F4
:100D100099378E01075F1F4F6EE572E0C8010E9490
:100D20009937B982A8827A82B601C7010E94CB376F
:100D3000B401C8010E94CB37DF91CF911F910F9171
:100D4000FF90EF90DF90CF90BF90AF909F908F90EB
:100D50007F9008951F93CF93DF93EC01162F188295
:100D60008FEF9FEFDC0189839A83AB83BC831E8264
:100D70001D8261E676E0CE0107960E94993788E0F1
:100D8000888381E090E00E944E309E838D83FC0139
:100D90001083DF91CF911F9108950F931F93CF93ED
:100DA000DF93EC018B0118828FEF9FEFDC018983C9
:100DB0009A83AB83BC831E821D8261E676E0CE01FE
:100DC00007960E9499378AE088831E830D83DF91FE
:100DD000CF911F910F910895EF92FF920F931F9360
:100DE000CF93DF93EC017B018A0161E676E00E94FC
:100DF00099371E8218861F82B701CE010E94CB3719
:100E00001E8218870F83DF91CF911F910F91FF9062
:100E1000EF900895EF92FF920F931F93CF93DF937C
:100E2000EC017B018A0161E676E00E9499371E821F
:100E300018861F82B701CE010E94CB3781E08E83D6
:100E400018870F83DF91CF911F910F91FF90EF9043
:100E50000895FC019B019681911106C06781708500
:100E6000C9010C94FC200895913029F467817085A4
:100E7000C9010C9402210895CF93DF93EC010D96E4
:100E80000E942D37CE0107960E942D37CE010E9479
:100E90002D37DF91CF910895CF93DF93EC01FB01C4
:100EA0008681813069F018F0823081F015C0FB0135
:100EB000668977896D5F7F4FCE010E94E0370CC055
:100EC000695F7F4FCE010E94E03706C0695F7F4FA8
:100ED000CE010E94E03700C0CE01DF91CF9108958E
:100EE000CF93DF93EC01FB018681813069F018F02C
:100EF000823081F015C0FB0166897789675F7F4F7B
:100F0000CE010E94E0370CC0635F7F4FCE010E948C
:100F1000E03706C0635F7F4FCE010E94E03700C01C
:100F2000CE01DF91CF910895DC0116962C912130EE
:100F300051F018F0223059F014C0FC0186899789CD
:100F400093DE9C010FC0FC01238930E00BC0DC0163
:100F50005496ED91FC915597208153962C9330E057
:100F600001C00895822F932F0895CF93DF93FC0142
:100F700086818130A1F018F08230B1F01FC0C6899F
:100F8000D789CE0171DE892B29F060E070E0CE01B7
:100F900084DE14C061E070E0CE017FDE0FC0938973
:100FA00081E08927838B0AC0A489B589938981E070
:100FB00089278C93A489B5898C91838BDF91CF91FC
:100FC0000895EF92FF920F931F93CF93DF93EC015D
:100FD0007B018A0161E676E00E94993781E08E8389
:100FE00069E572E0CE0107960E9499376EE572E0DE
:100FF000CE010D960E9499371B8A1D8A1C8A1F8A72
:101000001E8AB701CE010E94CB371E821F8B0E8B2A
:10101000DF91CF911F910F91FF90EF9008958091F4
:10102000C0069091C1060E94FD248091A606909171
:10103000A7060E94FD2480918A0690918B060E944B
:10104000FD2480917006909171060C94FD24089502
:10105000EF920F93CF93DF93EC01E12C0E94B72422
:10106000198A188A1B8A1A8A1D8A1C8A1F8A1E8A54
:10107000198E188E1B8E1A8E1D8E1C8E1F8E1E8E24
:1010800018A219A21AA21BA21CA21DA21EA21FA274
:1010900019A618A61BA61AA6DF91CF910F91EF9063
:1010A00008956F927F928F929F92AF92BF92CF924C
:1010B000DF92EF92FF920F931F93CF93DF93CDB701
:1010C000DEB7CC5CD1090FB6F894DEBF0FBECDBF42
:1010D00064E672E0CE0101960E94993767E672E0FD
:1010E000CE0107960E9499378E010F5F1F4F9E0118
:1010F000295F3F4F41E061E370E08FEB99E0E9DD6C
:10110000CE0107960E942D37C8010E942D3764E654
:1011100072E0CE010D960E94993767E672E0CE012B
:1011200043960E949937045F1F4F9E012D5E3F4FEB
:1011300041E060E370E08EEA99E0CBDDCE014396BA
:101140000E942D37C8010E942D3764E672E0CE015F
:1011500049960E94993767E672E0CE014F960E9449
:101160009937045F1F4F9E01215E3F4F41E06FE2C0
:1011700070E08DE999E0ADDDCE014F960E942D37EC
:10118000C8010E942D3764E672E0CE0185960E9468
:10119000993767E672E0CE018B960E949937045F1B
:1011A0001F4F9E01255D3F4F41E06EE270E08CE8ED
:1011B00099E08FDDCE018B960E942D37C8010E94E9
:1011C0002D3764E672E0CE01C1960E94993767E63A
:1011D00072E0CE01C7960E949937045F1F4F9E01AF
:1011E000295C3F4F41E06DE270E08BE799E071DDF3
:1011F000CE01C7960E942D37C8010E942D3764E6A4
:1012000072E0CE01CD960E94993767E672E0CE017A
:101210008D5B9F4F0E949937045F1F4F9E012D5B8E
:101220003F4F41E06CE270E08AE699E052DDCE018A
:101230008D5B9F4F0E942D37C8010E942D3764E6B9
:1012400072E0CE01875B9F4F0E94993767E672E09C
:10125000CE01815B9F4F0E949937045F1F4F9E0113
:10126000215B3F4F41E06BE270E089E599E031DDC1
:10127000CE01815B9F4F0E942D37C8010E942D3700
:1012800064E672E0CE018B5A9F4F0E94993767E661
:1012900072E0CE01855A9F4F0E949937045F1F4F1D
:1012A0009E01255A3F4F41E06AE270E088E499E0F0
:1012B00010DDCE01855A9F4F0E942D37C8010E9434
:1012C0002D3764E672E0CE018F599F4F0E94993707
:1012D00067E672E0CE0189599F4F0E949937045FFB
:1012E0001F4F9E0129593F4F41E069E270E087E3BB
:1012F00099E0EFDCCE0189599F4F0E942D37C8013C
:101300000E942D3764E672E0CE0183599F4F0E9400
:10131000993767E672E0CE018D589F4F0E9499374A
:10132000045F1F4F9E012D583F4F41E068E270E07F
:1013300086E299E0CEDCCE018D589F4F0E942D377A
:10134000C8010E942D3764E672E0CE0187589F4F96
:101350000E94993767E672E0CE0181589F4F0E9444
:101360009937045F1F4F9E0121583F4F41E067E2CC
:1013700070E085E199E0ADDCCE0181589F4F0E947D
:101380002D37C8010E942D3764E672E0CE018B57DD
:101390009F4F0E94993767E672E0CE0185579F4FB5
:1013A0000E949937045F1F4F9E0125573F4F41E030
:1013B00066E270E084E099E08CDCCE0185579F4FB7
:1013C0000E942D37C8010E942D3764E672E0CE01DD
:1013D0008F569F4F0E94993767E672E0CE0189567B
:1013E0009F4F0E949937045F1F4F9E0129563F4F20
:1013F00041E065E270E083EF98E06BDCCE01895656
:101400009F4F0E942D37C8010E942D3764E672E07D
:10141000CE0183569F4F0E94993767E672E0CE0156
:101420008D559F4F0E949937045F1F4F9E012D5588
:101430003F4F41E064E270E082EE98E04ADCCE018A
:101440008D559F4F0E942D37C8010E942D3764E6AD
:1014500072E0CE0187559F4F0E94993767E672E090
:10146000CE0181559F4F0E949937045F1F4F9E0107
:1014700021553F4F41E063E270E081ED98E029DCC7
:10148000CE0181559F4F0E942D37C8010E942D37F4
:1014900064E672E0CE018B549F4F0E94993767E655
:1014A00072E0CE0185549F4F0E949937045F1F4F11
:1014B0009E0125543F4F41E063E270E080EC98E0EC
:1014C00008DCCE0185549F4F0E942D37C8010E9431
:1014D0002D376894CC24C1F814EFE12EFF24F39447
:1014E00000E010E020E030E040EA50E466E370E025
:1014F00080EA98E048D920E030E040EA50E467E331
:1015000070E080E898E03FD920E030E040EA50E425
:1015100068E370E080E698E036D920E030E040EA09
:1015200050E469E370E080E498E02DD920E030E0F9
:1015300040EA50E46AE370E080E298E024D920E0D9
:1015400030E040EA50E46BE370E080E098E01BD9C3
:1015500020E030E040EA50E46CE370E080EE97E099
:1015600012D920E030E040EA50E46DE370E080EC16
:1015700097E009D920E030E040EA50E46EE370E003
:1015800080EA97E000D920E030E040EA50E46FE3E1
:1015900070E080E897E0F7D820E030E040EA50E4DF
:1015A00060E470E080E697E0EED820E030E040EACA
:1015B00050E461E470E080E497E0E5D820E030E0BA
:1015C00040EA50E462E470E080E297E0DCD820E09A
:1015D00030E040EA50E463E470E080E097E0D3D884
:1015E00020E030E040EA50E464E470E080EE96E011
:1015F000CAD824EA32E044E353E064E270E08AEDC2
:1016000096E00E9423220F2EF7E08F2EF02D0F2E52
:10161000F6E0AF2EF02D0F2EF5E0CF2EF02D6894D2
:10162000EE24E2F800E021E042E067E282EC96E09E
:101630000E946A278CE290E00E944E307C0104E018
:1016400028E146E167E104DDF092C106E092C006C0
:101650006894EE24E2F800E021E042E066E288EAE5
:1016600096E00E946A278CE290E00E944E307C0156
:1016700004E02BE149E16AE1EBDCF092A706E0929D
:10168000A6066BE672E0CE018F539F4F0E949937FA
:1016900086E0EAEDF6E0DE01A953BF4F01900D921E
:1016A0008A95E1F788E390E00E944E303C0180E4A7
:1016B0008F9380EA8F931F921F9282E48F939CE412
:1016C0009F931F921F928F9388EC8F931F921F926C
:1016D00084E48F938AEF8F931F921F920F2E812C99
:1016E000912CFAEFAF2EF4E4BF2EF02DC953DF4F4B
:1016F000C880C75CD040C853DF4FD880C85CD0409A
:10170000C753DF4FE880C95CD040C653DF4FF88035
:10171000CA5CD040C553DF4F0881CB5CD040C45376
:10172000DF4F1881CC5CD0402AE330E046E350E044
:10173000BE016F537F4FC3010E9418237092A5060C
:101740006092A406CE018F539F4F0E942D370F2E1B
:10175000F7E08F2EF02D0F2EF6E0AF2EF02D0F2E8E
:10176000F5E0CF2EF02D6894EE24E2F800E021E0C1
:1017700042E065E28CE896E00E946A278CE290E005
:101780000E944E307C0104E02EE14CE16DE160DC12
:10179000F0928B06E0928A066894EE24E2F800E06C
:1017A00021E042E063E282E796E00E946A278CE251
:1017B00090E00E944E307C0104E021E24FE160E2C3
:1017C00047DCF0927106E09270060FB6F894DEBF27
:1017D0000FBECDBFC453DF4F0FB6F894DEBF0FBEB0
:1017E000CDBFDF91CF911F910F91FF90EF90DF90D0
:1017F000CF90BF90AF909F908F907F906F90089503
:1018000080EE96E00E94ED0380E097E00E94ED03F9
:1018100080E297E00E94ED0380E497E00E94ED03F0
:1018200080E697E00E94ED0380E897E00E94ED03D8
:1018300080EA97E00E94ED0380EC97E00E94ED03C0
:1018400080EE97E00E94ED0380E098E00E94ED03B7
:1018500080E298E00E94ED0380E498E00E94ED03AE
:1018600080E698E00E94ED0380E898E00E94ED0396
:1018700080EA98E00E94ED0380EC98E0E8D981EDE1
:1018800098E0E5D982EE98E0E2D983EF98E0DFD9DD
:1018900084E099E0DCD985E199E0D9D986E299E044
:1018A000D6D987E399E0D3D988E499E0D0D989E5FE
:1018B00099E0CDD98AE699E0CAD98BE799E0C7D9F2
:1018C0008CE899E0C4D98DE999E0C1D98EEA99E014
:1018D000BED98FEB99E0BBC9089566E772E088EA4C
:1018E0009AE00E94903040E063E082EC96E00E9433
:1018F000402761E082EC96E00E94542720E044E01B
:1019000064E182EC96E00E94372840E063E088EAD8
:1019100096E00E94402761E088EA96E00E94542702
:1019200020E044E064E188EA96E00E94372840E045
:1019300063E08CE896E00E94402761E08CE896E046
:101940000E94542720E044E064E18CE896E00E9485
:10195000372840E063E082E796E00E94402761E09C
:1019600082E796E00E94542720E044E064E182E7A9
:1019700096E00E94372868E372E088EA9AE00E94C5
:10198000CA306BE872E088EA9AE00E949030E1E8A1
:10199000F0E080E180831092800091E09093DF0975
:1019A00020E43FE13093E1092093E0093093870080
:1019B000209386008091DF09806180832FE038E0EA
:1019C0003093DE092093DD0990936F006091A606A5
:1019D0007091A7068091D0099091D1090E9473203F
:1019E00068EA76E08091D0099091D1090E94A920FF
:1019F00060918A0670918B068091D4099091D509E7
:101A00000E9473206CE876E08091D4099091D5090A
:101A10000E94A920609170067091710680916E06F7
:101A200090916F060E94732062E776E080916E06C7
:101A300090916F060E94A92061E070E08FEB99E021
:101A40002CD961E070E08EEA99E027D961E070E07E
:101A50008DE999E022D961E070E08CE899E01DD928
:101A600061E070E08BE799E018D961E070E08AE608
:101A700099E013D961E070E089E599E00ED961E061
:101A800070E088E499E009D961E070E087E399E0CB
:101A900004D961E070E086E299E0FFD861E070E08F
:101AA00085E199E0FAD861E070E084E099E0F5D84A
:101AB00061E070E083EF98E0F0D861E070E082EEE2
:101AC00098E0EBD861E070E081ED98E0E6D861E065
:101AD00070E080EC98E0E1D868E372E088EA9AE090
:101AE0000C94CA300895CF92DF92EF92FF920F9339
:101AF0001F93CF93DF93CDB7DEB76E970FB6F894F1
:101B0000DEBF0FBECDBF0091D0091091D1090C5F8F
:101B10001F4F69E072E0CE0149960E949937B801E3
:101B2000CE0149960E94363861E075E00E94473840
:101B3000BC0188EA9AE00E948130CE0149960E9459
:101B40002D376091A6067091A7068091D0099091DB
:101B5000D1090E94732068EA76E08091D0099091C3
:101B6000D1090E94A92064EC73E0CE0143960E9443
:101B700099378DE190E00E944E308C01BE016D5E80
:101B80007F4F31D6CE0143960E942D3769E272E035
:101B9000CE010D960E9499378EE290E00E944E3061
:101BA0006C01BE01635F7F4F0E944B1ACE010D9600
:101BB0000E942D3769E272E0CE0107960E949937A4
:101BC00089E090E00E944E307C01A601BE01695F71
:101BD0007F4F20D9B701C80134D6CE0107960E94A5
:101BE0002D3762E372E0CE0101960E94993789E0B9
:101BF00090E00E944E307C01A801BE016F5F7F4FD4
:101C0000EBD8B701C8011DD6CE0101960E942D3731
:101C1000B8018091D0099091D1090E94FC2068E31D
:101C200072E088EA9AE00E94CA306E960FB6F89485
:101C3000DEBF0FBECDBFDF91CF911F910F91FF90FF
:101C4000EF90DF90CF9008950F931F93CF93DF9382
:101C500000D000D0CDB7DEB762ED73E0CE010196C3
:101C60000E94993786E190E00E944E308C01BE01BF
:101C70006F5F7F4F0E9450201093D1090093D009CD
:101C8000CE0101960E942D3726960FB6F894DEBF3E
:101C90000FBECDBFDF91CF911F910F9108956F922D
:101CA0007F928F929F92AF92BF92CF92DF92EF92EC
:101CB000FF920F931F93CF93DF93CDB7DEB7CE572D
:101CC000D1090FB6F894DEBF0FBECDBF0091D20987
:101CD0001091D3090C5F1F4F69E072E0CE01875865
:101CE0009F4F0E949937B801CE0187589F4F0E949D
:101CF000363861E075E00E944738BC0188EA9AE016
:101D00000E948130CE0187589F4F0E942D3766ED8B
:101D100073E0CE018D589F4F0E9499378DE190E07E
:101D20000E944E308C01BE016D587F4F5CD5CE01B4
:101D30008D589F4F0E942D376091C0067091C1064B
:101D40008091D2099091D3090E94732062EC76E0D1
:101D50008091D2099091D3090E94A920B801809165
:101D6000D2099091D3090E94FC2067EC72E0CE0169
:101D700083599F4F0E94FF378DE190E00E944E30C3
:101D80007C01BE0163597F4F2ED5CE0183599F4FF1
:101D90000E942D3762EC72E0CE0189599F4F0E945C
:101DA000FF3789E090E00E944E306C01A801BE012F
:101DB00069597F4F11D8B601C70143D5CE01895962
:101DC0009F4F0E942D376BED73E0CE018F599F4FCF
:101DD0000E9499378EE290E00E944E306C01BE0165
:101DE0006F597F4F0E944B1ACE018F599F4F0E940F
:101DF0002D378DE090E00E944E307C0161E00E9422
:101E0000AA06970140E060E0C6010E94D81A8DE062
:101E100090E00E944E307C0165EA78E00E94CD0699
:101E2000970140E064E0C6010E94D81A8DE090E07E
:101E30000E944E307C0161E00E94AA06970141E0B9
:101E400060E0C6010E94D81A8DE090E00E944E30FA
:101E50007C0165E878E00E94CD06970141E064E0EE
:101E6000C6010E94D81A8DE090E00E944E307C019D
:101E700061E00E94AA06970142E060E0C6010E946C
:101E8000D81A8DE090E00E944E307C0165E678E043
:101E90000E94CD06970142E064E0C6010E94D81A74
:101EA00067EE73E0CE01855A9F4F0E9499378DE10E
:101EB00090E00E944E307C01BE01655A7F4F93D462
:101EC000CE01855A9F4F0E942D376AEE73E0CE01F6
:101ED0008B5A9F4F0E94993788E190E00E944E30C4
:101EE0005C014CE859E0BE016B5A7F4F6AD8B501DE
:101EF000C701D7D4CE018B5A9F4F0E942D3763EF75
:101F000073E0CE01815B9F4F0E94993788E190E09A
:101F10000E944E305C014BE759E0BE01615B7F4F90
:101F200050D8B501C701BDD4CE01815B9F4F0E943F
:101F30002D376CEF73E0CE01875B9F4F0E9499377E
:101F400088E190E00E944E305C014AE659E0BE0113
:101F5000675B7F4F36D8B501C701A3D4CE01875B3D
:101F60009F4F0E942D3765E074E0CE018D5B9F4F3F
:101F70000E9499378DE190E00E944E305C01BE01D5
:101F80006D5B7F4F30D4CE018D5B9F4F0E942D370C
:101F900068E174E0CE01CD960E94993789E090E027
:101FA0000E944E304C01A801BE01635C7F4F0E942D
:101FB000EC06940143E060E0C6010E94971ACE014E
:101FC000CD960E942D376DE174E0CE01C7960E9438
:101FD000993789E090E00E944E304C01A601BE0185
:101FE000695C7F4F0E940A07B401C5012AD4CE0163
:101FF000C7960E942D3768E174E0CE01C1960E9419
:10200000993789E090E00E944E306C01A801BE0132
:102010006F5C7F4F0E94EC06B601C50112D4CE0161
:10202000C1960E942D376CE274E0CE018B960E941F
:1020300099378EE290E00E944E304C01BE01655D02
:102040007F4F0E944B1ACE018B960E942D3763E37F
:1020500074E0CE0185960E9499378DE190E00E9450
:102060004E306C01BE016B5D7F4FBDD3CE018596B6
:102070000E942D3768E174E0CE014F960E94993797
:1020800089E090E00E944E303C01A601BE01615EF5
:102090007F4F0E94EC06930143E060E0C4010E9480
:1020A000971ACE014F960E942D376CE274E0CE0154
:1020B00049960E94993789E090E00E944E303C0199
:1020C000A401BE01675E7F4F0E940A07B301C601EB
:1020D000B8D3CE0149960E942D3768E174E0CE0155
:1020E00043960E94993789E090E00E944E304C015F
:1020F000A801BE016D5E7F4F0E94EC06B401C601CF
:10210000A0D3CE0143960E942D3763E474E0CE0144
:102110000D960E94993789E090E00E944E304C0164
:10212000A501BE01635F7F4F0E94EC06B401C801A8
:1021300088D3CE010D960E942D3763E374E0CE0163
:1021400007960E94993789E090E00E944E305C012A
:10215000A601BE01695F7F4F0E94EC06B501C80170
:1021600070D3CE0107960E942D3763E574E0CE014F
:1021700001960E94993789E090E00E944E306C01F0
:10218000A701BE016F5F7F4F0E94EC06B601C80138
:1021900058D3CE0101960E942D3768E372E088EA99
:1021A0009AE00E94CA30C258DF4F0FB6F894DEBFE3
:1021B0000FBECDBFDF91CF911F910F91FF90EF9098
:1021C000DF90CF90BF90AF909F908F907F906F9057
:1021D00008950F931F93CF93DF9300D000D0CDB716
:1021E000DEB762E674E0CE0101960E94993786E17F
:1021F00090E00E944E308C01BE016F5F7F4F0E94C5
:1022000050201093D3090093D209CE0101960E9469
:102210002D3726960FB6F894DEBF0FBECDBFDF91E7
:10222000CF911F910F910895CF92DF92EF92FF927D
:102230000F931F93CF93DF93CDB7DEB7A4970FB65D
:10224000F894DEBF0FBECDBF0091D4091091D5091F
:102250000C5F1F4F69E072E0CE014F960E949937E4
:10226000B801CE014F960E94363861E075E00E94B9
:102270004738BC0188EA9AE00E948130CE014F962F
:102280000E942D3760918A0670918B068091D40947
:102290009091D5090E9473206CE876E08091D40972
:1022A0009091D5090E94A92067E674E0CE01499675
:1022B0000E9499378DE190E00E944E308C01BE0162
:1022C000675E7F4F90D2CE0149960E942D3769E21A
:1022D00072E0CE0143960E9499378EE290E00E9410
:1022E0004E307C01BE016D5E7F4F0E944B1ACE01C5
:1022F00043960E942D3768E174E0CE010D960E944E
:10230000993789E090E00E944E306C01A801BE012F
:10231000635F7F4F0E94EC06960143E060E0C701D7
:102320000E94971ACE010D960E942D3769E272E045
:10233000CE0107960E94993789E090E00E944E30C6
:102340006C01A701BE01695F7F4F0E940A07B601B9
:10235000C80177D2CE0107960E942D3762E372E062
:10236000CE0101960E94993789E090E00E944E309C
:102370007C01A801BE016F5F7F4F0E94EC06B70190
:10238000C8015FD2CE0101960E942D37B80180911D
:10239000D4099091D5090E94FC2068E372E088EA94
:1023A0009AE00E94CA30A4960FB6F894DEBF0FBE22
:1023B000CDBFDF91CF911F910F91FF90EF90DF90F4
:1023C000CF9008950F931F93CF93DF9300D000D049
:1023D000CDB7DEB765E774E0CE0101960E9499376C
:1023E00086E190E00E944E308C01BE016F5F7F4F0E
:1023F0000E9450201093D5090093D409CE01019674
:102400000E942D3726960FB6F894DEBF0FBECDBFC3
:10241000DF91CF911F910F910895CF93DF93EC013E
:102420000E94C7252AA53BA5820F931F9BA78AA7B9
:1024300028A539A5281739071CF5E88DF98D30979F
:1024400019F42A8D20FF41C099A788A78A8D9B8DFA
:1024500080FF0EC0AE85BF859C0135952795A20FE4
:10246000B31F2D913C91E20FF31F0190F081E02DFD
:10247000959587952E853F85820F931F199525C0C9
:102480008217930714F5EC8DFD8D309719F42E8D7E
:1024900020FF1BC099A788A78E8D9F8D80FF0EC03F
:1024A000AE85BF859C0135952795A20FB31F2D9151
:1024B0003C91E20FF31F0190F081E02D95958795F7
:1024C0002E853F85820F931F1995CE010E9402260B
:1024D000882309F454C0853019F0863071F14FC05B
:1024E00088899989892B19F48A8980FF48C069E70E
:1024F00074E088EA9AE00E94CA308A899B8980FD4C
:1025000003C0E889F98911C0EE85FF859C013595E6
:102510002795E20FF31F0190F081E02D288939897A
:10252000E20FF31F0190F081E02D959587952E85A0
:102530003F85820F931F199522C0EC89FD89309742
:1025400029F48E899F8980FD05C019C08E899F89D5
:1025500080FF0EC0AE85BF859C0135952795A20FE3
:10256000B31F2D913C91E20FF31F0190F081E02DFC
:10257000959587952E853F85820F931F1995DF913D
:10258000CF910895FC018281938108950F931F9349
:10259000CF93DF9300D01F921F92CDB7DEB78C018F
:1025A0000DC0D801ED91FC910684F785E02DB801AE
:1025B000CE0101961995CE010196FCD4D801ED917A
:1025C000FC910190F081E02DC801199518161906AB
:1025D00044F30F900F900F900F900F90DF91CF91D9
:1025E0001F910F910895AF92BF92CF92DF92EF9219
:1025F000FF920F931F93CF93DF9300D01F921F92F0
:10260000CDB7DEB76C018B01DB0112968D919C91E9
:102610001397181619061CF0C601C5D438C00297C6
:1026200074F1FB01E480F580D7011596AD90BC9064
:10263000169785E0F701DE01119601900D928A95BB
:10264000E1F7E114F10429F0C701B4D4C7010E94F5
:102650005130F801B582A4822281338121503109A1
:1026600033832283148685E0FE013196D6010190E2
:102670000D928A95E1F7CE0101969CD408C0DB014A
:10268000ED91FC910484F585E02DC6011995C601F4
:102690000F900F900F900F900F90DF91CF911F919F
:1026A0000F91FF90EF90DF90CF90BF90AF90089583
:1026B000CF92DF92EF92FF920F931F93CF93DF930E
:1026C00000D01F921F92CDB7DEB78C016B01DC01E9
:1026D00012968D919C911397892BB9F4ED91FC91F1
:1026E0002481358195E0FB01DE01119601900D9268
:1026F0009A95E1F7BE016F5F7F4FC801F901199507
:10270000182FCE01019656D424C087E090E00E9495
:102710004E307C0187E0D7011D928A95E9F7C70109
:1027200042D4F80184819581D70116969C938E93AB
:10273000159785E0F60101900D928A95E1F7F80171
:10274000F582E48282819381019693838283148649
:1027500011E0812F0F900F900F900F900F90DF914D
:10276000CF911F910F91FF90EF90DF90CF90089540
:10277000EF92FF920F931F93CF93DF93EC017B01B6
:1027800087E090E00E944E308C0187E0F8011192C2
:102790008A95E9F7C80107D485E0F701D8010190CF
:1027A0000D928A95E1F7F801168215828C819D8140
:1027B000892B39F0EE81FF81168305831F830E83F9
:1027C00004C01D830C831F830E838A819B81019625
:1027D0009B838A831C8681E0DF91CF911F910F91AB
:1027E000FF90EF9008950F931F93CF93DF93EC0129
:1027F0008B0161E676E00E94993783EA94E09F833B
:102800008E831B861A861D861C86198618861F864F
:102810001E86198A188A1A8A1C8A1B8A1E8A1D8A91
:10282000188E1F8A1A8E198E81E090E09C8F8B8FF4
:10283000B801CE010E94CB37DF91CF911F910F914C
:1028400008950F931F93CF93DF93CDB7DEB72A97E9
:102850000FB6F894DEBF0FBECDBF8C01CE01069639
:1028600092D395E0FE013696DE01119601900D920D
:102870009A95E1F7BE016F5F7F4FC801069678DF3A
:10288000CE01019697D3CE01069694D32A960FB621
:10289000F894DEBF0FBECDBFDF91CF911F910F9196
:1028A00008950F931F93CF93DF93CDB7DEB72A9789
:1028B0000FB6F894DEBF0FBECDBF8C01CE010696D9
:1028C0006AD395E0FE013696DE01119601900D92D5
:1028D0009A95E1F7BE016F5F7F4FC801069648DF0A
:1028E000CE01019667D3CE01069664D32A960FB621
:1028F000F894DEBF0FBECDBFDF91CF911F910F9136
:102900000895CF93DF93EC01898D9A8D01971AF08A
:102910009A8F898F02C01A8E198EBE0188EA9AE0BA
:102920000E94813069E874E088EA9AE00E94903061
:10293000698D7A8D4AE050E088EA9AE00E948C31F5
:1029400081E090E09C8F8B8FDF91CF910895CF93A2
:10295000DF93EC01898D9A8D01969A8F898F288556
:1029600039858217930724F0215031093A8F298F36
:10297000BE0188EA9AE00E94813069E874E088EA42
:102980009AE00E949030698D7A8D4AE050E088EAA2
:102990009AE00E948C3181E090E09C8F8B8FDF91D8
:1029A000CF910895DC011496ED91FC9115971C963A
:1029B0008C911C97882361F01A962D913C911B975E
:1029C0006217730744F01896ED91FC91199705C0B2
:1029D00020E030E002C020E030E02617370764F442
:1029E000309751F00580F681E02D2F5F3F4F26177D
:1029F000370714F43097B1F72617370779F481E0D9
:102A00001C968C931C971B963C932E931A971996A1
:102A1000FC93EE9318978E2F9F2F089580E090E0FF
:102A20000895CF93DF93EC01CB01BA01BBDF009790
:102A300041F025E0FC01DE0101900D922A95E1F7BD
:102A400002C0CE01B0D2CE01DF91CF9108952F9276
:102A50003F924F925F926F927F928F929F92AF922E
:102A6000BF92CF92DF92EF92FF920F931F93CF937B
:102A7000DF9300D01F921F92CDB7DEB7FB01068512
:102A80001785FC01238D348D2130310509F093C069
:102A90003B017C01502E412E802F912F0E948126D8
:102AA00040E060E0802F912F0E9488266BE974E05F
:102AB000802F912F0E949030B701802F912F0E947C
:102AC0008130F701848195814397C1F000E010E0E7
:102AD0000F2EF3E1CF2ED12CF02D6BE974E0852D74
:102AE000942D0E9490300F5F1F4FF70184819581D4
:102AF0009601281B390B0217130778F3F701818D14
:102B0000928D63E070E00E947D3A8B014701F6E010
:102B10008F0E911C5B0123E0A20EB11CF7012085F2
:102B20003185C5012A153B050CF4C90108171907A1
:102B30000CF03EC0CC24C394D12C2A2C3B2C4C2D21
:102B400060E0852D942D0E948826F701818D928D5D
:102B50008017910739F46DE974E0852D942D0E945A
:102B6000903006C066ED75E0852D942D0E94903062
:102B7000A801B401CE01019654DF9301A60161E0E2
:102B800070E0CE01019617D2CE01019613D2FFEF6D
:102B9000CF1ADF0A0F5F1F4FF70120853185822D85
:102BA000932D2A153B050CF4C901081719073CF2AF
:102BB000F701148E138E0F900F900F900F900F90BF
:102BC000DF91CF911F910F91FF90EF90DF90CF9009
:102BD000BF90AF909F908F907F906F905F904F903D
:102BE0003F902F900895EF92FF920F931F93CF93F2
:102BF000DF9300D01F921F92CDB7DEB78C017B010F
:102C0000FC01418D528DBC016A5F7F4FCE01019660
:102C100008DFB701CE010196BFD2CE010196CAD11D
:102C200081E090E0F801948F838F0F900F900F90C8
:102C30000F900F90DF91CF911F910F91FF90EF9028
:102C40000895AF92BF92CF92DF92EF92FF920F93CF
:102C50001F93CF93DF9300D01F921F92CDB7DEB7A3
:102C60007C018B01FB01628173811616170614F03B
:102C70009AD159C0F8011486623071057CF1625016
:102C80007109C8018FDE5C01FC01C580D68085E03A
:102C9000F601DE01119601900D928A95E1F7C114BB
:102CA000D10429F0C60186D1C6010E945130F50138
:102CB00016821582F801B782A682828193810197DC
:102CC0009383828385E0FE013196D70101900D92B6
:102CD0008A95E1F7CE0101966DD125C0F801C48037
:102CE000D58085E0F601DE01119601900D928A955E
:102CF000E1F7C114D10429F0C6015CD1C6010E94DC
:102D00005130F801158214821782168213821282C2
:102D100085E0FE013196D70101900D928A95E1F789
:102D2000CE01019647D1C7010F900F900F900F90E1
:102D30000F90DF91CF911F910F91FF90EF90DF9057
:102D4000CF90BF90AF900895CF92DF92EF92FF9215
:102D50000F931F93CF93DF9300D01F921F92CDB795
:102D6000DEB77C018B01552344F0DB0112962D91D7
:102D70003C911397421753071CF0C70114D14FC061
:102D80004115510541F4DB01ED91FC910684F78575
:102D9000E02D199544C0215031092417350741F41D
:102DA000DB01ED91FC910484F585E02D199537C088
:102DB000BA0161507109C801F5DDFC01C580D680FA
:102DC00025E0F601DE01119601900D922A95E1F7BA
:102DD000D60115962D913C911697FC0136832583DB
:102DE000C114D10429F0C601E5D0C6010E945130BA
:102DF000D80112968D919C911397019713969C93ED
:102E00008E9312971C961C9285E0FE013196D70195
:102E100001900D928A95E1F7CE010196CBD0C701C2
:102E20000F900F900F900F900F90DF91CF911F9107
:102E30000F91FF90EF90DF90CF900895CF93DF93A5
:102E400077238CF0FC0122813381621773076CF4C5
:102E5000EA01A8DDDC0195E0FE0101900D929A9552
:102E6000E1F781E003C080E001C080E0DF91CF9115
:102E70000895AF92BF92CF92DF92EF92FF920F939D
:102E80001F93CF93DF93CDB7DEB72A970FB6F89491
:102E9000DEBF0FBECDBF8C017B015A01DC01129653
:102EA0008D919C91139768177907BCF0ED91FC9177
:102EB0002481358195E0FA01DE01169601900D928C
:102EC0009A95E1F7BE016A5F7F4FC801F901199534
:102ED000182FCE0106966ED044C0672BC1F4D801DE
:102EE000ED91FC912681378195E0FA01DE01119682
:102EF00001900D929A95E1F7BE016F5F7F4FC80177
:102F0000F9011995182FCE01019654D02AC087E0F7
:102F100090E00E944E306C0187E0D6011D928A95A8
:102F2000E9F7C60140D0B70161507109C8013ADD27
:102F300025E0F501D60101900D922A95E1F7FC01FB
:102F400025813681D60116963C932E931597D6820D
:102F5000C582F801828193810196938382831486CE
:102F600011E0812F2A960FB6F894DEBF0FBECDBFB9
:102F7000DF91CF911F910F91FF90EF90DF90CF9055
:102F8000BF90AF900895FC01148213827283618315
:102F900081E080830895FC0112821182748363832F
:102FA00082E080830895FC011082128211821482D3
:102FB0001382089508958F929F92AF92BF92CF92FD
:102FC000DF92EF92FF920F931F93CF93DF93CDB7D2
:102FD000DEB7A4970FB6F894DEBF0FBECDBF8C014D
:102FE000A62EC42EF901E684F784FC01808181308D
:102FF00009F4AFC0823009F0BCC00381148101150F
:10300000110509F4B6C0B801CE0101960E94E0375F
:10301000F80186818F83B801695F7F4FCE010896E2
:103020000E94E037B801635F7F4FCE010E960E9489
:10303000E037F80183898C8B848995899E8B8D8BF1
:1030400086899789988F8F8BDE2CBF2C4C2D6A2D0B
:103050008E2D9F2D0E948826BE016F5F7F4F8E2D83
:103060009F2D0E948130BE016F5F7F4FCE014F9632
:103070000E944C078BA09CA0BE016F5F7F4FCE01CA
:1030800049960E9470078D8D9E8D8815990504F5CF
:1030900003E110E008191909A02E4C2D602F8E2D88
:1030A0009F2D0E948826053111055CF466ED75E0C0
:1030B0008D2D9B2D0E9490300F5F1F4F0531110504
:1030C000A9F74C2D6A2D8E2D9F2D0E9488261FC09A
:1030D00003E110E0081B190BA02E4C2D602F8E2D44
:1030E0009F2D0E948826053111055CF466ED75E080
:1030F0008D2D9B2D0E9490300F5F1F4F05311105C4
:10310000A9F74C2D6A2D8E2D9F2D0E948826CE0169
:1031100001960E949407019741F4BE01615E7F4FC2
:103120008E2D9F2D0E94813007C0BE01675E7F4FAC
:103130008E2D9F2D0E948130CE0149960E942D3701
:10314000CE014F960E942D37CE0101960E943C077A
:1031500010C0F80181819281892B59F08E2D9F2D0D
:103160000E948826F801618172818E2D9F2D0E9418
:103170008130A4960FB6F894DEBF0FBECDBFDF91AD
:10318000CF911F910F91FF90EF90DF90CF90BF9064
:10319000AF909F908F900895CF93DF93EB01FC0148
:1031A0002081213019F0223011F129C0FC018181E8
:1031B00092810097C9F48E859F850E94812667EBD6
:1031C00074E08E859F850E94CA306EEB74E08E8518
:1031D0009F850E94CA3068EB7BE080E090E00E940F
:1031E0007435CE01BAD723C00E94290720C0FC0144
:1031F000838194810E94B507CE01AFD718C08E8518
:103200009F850E94812666ED74E08E859F850E94D1
:10321000CA306EED74E08E859F850E94CA3068EBDF
:103220007BE080E090E00E947435CE0196D7DF917C
:10323000CF910895FC018281938108950F931F938C
:10324000CF93DF9300D000D0CDB7DEB78C010DC097
:10325000D801ED91FC910684F785E02DB801CE01EF
:1032600001961995CE01019618D5D801ED91FC91E2
:103270000190F081E02DC80119951816190644F344
:1032800026960FB6F894DEBF0FBECDBFDF91CF916B
:103290001F910F910895AF92BF92CF92DF92EF925C
:1032A000FF920F931F93CF93DF9300D000D0CDB741
:1032B000DEB76C018B01DB0112968D919C91139707
:1032C000181619061CF0C601E1D438C0029774F133
:1032D000FB01E480F580D7011696AD90BC9017975E
:1032E00086E0F701DE01119601900D928A95E1F7D3
:1032F000E114F10429F0C701D0D4C7010E94513074
:10330000F801B582A48222813381215031093383AF
:103310002283148686E0FE013196D60101900D923B
:103320008A95E1F7CE010196B8D408C0DB01ED9192
:10333000FC910484F585E02DC6011995C6012696F9
:103340000FB6F894DEBF0FBECDBFDF91CF911F91B6
:103350000F91FF90EF90DF90CF90BF90AF900895C6
:10336000CF92DF92EF92FF920F931F93CF93DF9351
:1033700000D000D0CDB7DEB78C016B01DC01129616
:103380008D919C911397892BB9F4ED91FC91248137
:10339000358196E0FB01DE01119601900D929A9520
:1033A000E1F7BE016F5F7F4FC801F9011995182F32
:1033B000CE01019672D424C088E090E00E944E3085
:1033C0007C0188E0D7011D928A95E9F7C7015ED498
:1033D000F80184819581D70117969C938E93169757
:1033E00086E0F60101900D928A95E1F7F801F582E9
:1033F000E48282819381019693838283148611E013
:10340000812F26960FB6F894DEBF0FBECDBFDF9199
:10341000CF911F910F91FF90EF90DF90CF90089583
:10342000EF92FF920F931F93CF93DF93EC017B01F9
:1034300088E090E00E944E308C0188E0F801119203
:103440008A95E9F7C80122D486E0F701D8010190F6
:103450000D928A95E1F7F801178216828C819D8181
:10346000892B39F0EE81FF81178306831F830E833A
:1034700004C01D830C831F830E838A819B81019668
:103480009B838A831C8681E0DF91CF911F910F91EE
:10349000FF90EF900895EF92FF920F931F93CF93B9
:1034A000DF93EC017B0188EE93E0FE018193919321
:1034B0008F0161E676E0CF010E94993789E095E0BF
:1034C000998788871D861C861F861E861B861A86FE
:1034D000198A188A1B8A1A8A1C8A85E492E09E8BB4
:1034E0008D8B1A8E198E1C8E1B8E188E1F8A1E8E27
:1034F0001D8E18A21F8E19A21BA21AA21DA21CA209
:103500001EA21FA218A619A68FEF9FEF9BA78AA73E
:1035100081E090E09DA78CA7B701C8010E94CB373E
:10352000DF91CF911F910F91FF90EF9008950F932E
:103530001F93CF93DF93CDB7DEB72C970FB6F894D8
:10354000DEBF0FBECDBF8C01CE010796CDD386E086
:10355000FE013796DE01119601900D928A95E1F7F2
:10356000BE016F5F7F4FC80108965ADFCE010196FA
:1035700094D361E070E0C80145960E949903F80178
:1035800082A593A5019631F4F8018789908D019762
:1035900093A782A7CE01079680D32C960FB6F894F6
:1035A000DEBF0FBECDBFDF91CF911F910F91089568
:1035B0000F931F93CF93DF93CDB7DEB72C970FB642
:1035C000F894DEBF0FBECDBF8C0181E0232B09F440
:1035D00080E0282FCE01079661D386E0FE01379662
:1035E000DE01119601900D928A95E1F7BE016F5FA1
:1035F0007F4FC801089614DFCE0101964ED360E0DC
:1036000070E0C80145960E949903CE01079645D304
:103610002C960FB6F894DEBF0FBECDBFDF91CF91D1
:103620001F910F910895DC011496ED91FC9115976F
:103630001C968C911C97882361F01A962D913C91D1
:103640001B976217730744F01896ED91FC91199738
:1036500005C020E030E002C020E030E02617370748
:1036600064F4309751F00680F781E02D2F5F3F4FD3
:103670002617370714F43097B1F72617370779F470
:1036800081E01C968C931C971B963C932E931A9763
:103690001996FC93EE9318978E2F9F2F089580E034
:1036A00090E00895CF93DF93EC01CB01BA01BBDF2B
:1036B000009741F026E0FC01DE0101900D922A9571
:1036C000E1F702C0CE01E2D2CE01DF91CF910895A1
:1036D0005F926F927F928F929F92AF92BF92CF92A2
:1036E000DF92EF92FF920F931F93CF93DF93CDB7AB
:1036F000DEB762970FB6F894DEBF0FBECDBF7C0178
:103700008B010E944235F70186A097A0A0A4B1A426
:10371000AB01BC01481959096A097B098081918173
:10372000092E000CAA0BBB0B84179507A607B70739
:1037300008F062C00E944235F70166A377A380A714
:1037400091A7F80196848784792C682C892D982D6F
:103750000E9481266701F8E0CF0ED11CF701828517
:103760009385181619060CF047C000E010E0A80178
:10377000B601CE010D9696DF41E0692D782DCE0180
:103780000D96BBD2CE010D9688D26AEF74E088EA1E
:103790009AE00E949030F7012789308D12161306A7
:1037A00014F5A2A4B3A4A016B106E9F4A501B601CC
:1037B000CE01079677DF5884A501B601CE010196A8
:1037C00071DF452D6981872D962D0E948826CE01B7
:1037D000019663D2CE01079660D26DE974E0872D21
:1037E000962D0E9490300F5F1F4FF7012285338581
:1037F000021713070CF4BBCF62960FB6F894DEBF26
:103800000FBECDBFDF91CF911F910F91FF90EF9031
:10381000DF90CF90BF90AF909F908F907F906F90F0
:103820005F900895EF92FF920F931F93CF93DF93D2
:1038300000D000D0CDB7DEB78C017B01FC0142A5E2
:1038400053A5BC01685F7F4FCE0101962BDFB70106
:10385000CE010196C9D3CE0101961FD281E090E03E
:10386000F80195A784A726960FB6F894DEBF0FBE81
:10387000CDBFDF91CF911F910F91FF90EF900895F1
:10388000AF92BF92CF92DF92EF92FF920F931F936E
:10389000CF93DF9300D000D0CDB7DEB77C018B0192
:1038A000FB01628173811616170614F0EFD159C01F
:1038B000F8011486623071057CF162507109C8010B
:1038C000B2DE5C01FC01C680D78086E0F601DE0135
:1038D000119601900D928A95E1F7C114D10429F057
:1038E000C601DBD1C6010E945130F5011782168254
:1038F000F801B782A68282819381019793838283A4
:1039000086E0FE013196D70101900D928A95E1F78C
:10391000CE010196C2D125C0F801C480D58086E0D1
:10392000F601DE01119601900D928A95E1F7C1141E
:10393000D10429F0C601B1D1C6010E945130F8016D
:1039400015821482178216821382128286E0FE018B
:103950003196D70101900D928A95E1F7CE0101963B
:103960009CD1C70126960FB6F894DEBF0FBECDBF1F
:10397000DF91CF911F910F91FF90EF90DF90CF904B
:10398000BF90AF900895CF92DF92EF92FF920F9386
:103990001F93CF93DF9300D000D0CDB7DEB77C016B
:1039A0008B01552344F0DB0112962D913C91139726
:1039B000421753071CF0C70169D14FC0411551058B
:1039C00041F4DB01ED91FC910684F785E02D19951A
:1039D00044C0215031092417350741F4DB01ED9132
:1039E000FC910484F585E02D199537C0BA0161502A
:1039F0007109C80118DEFC01C680D78026E0F601F7
:103A0000DE01119601900D922A95E1F7D6011696E6
:103A10002D913C911797FC0137832683C114D10463
:103A200029F0C6013AD1C6010E945130D801129640
:103A30008D919C911397019713969C938E93129757
:103A40001C961C9286E0FE013196D70101900D92E2
:103A50008A95E1F7CE01019620D1C70126960FB6CF
:103A6000F894DEBF0FBECDBFDF91CF911F910F91B4
:103A7000FF90EF90DF90CF900895CF93DF9377235F
:103A80008CF0FC0122813381621773076CF4EA0128
:103A9000CADDDC0196E0FE0101900D929A95E1F7F6
:103AA00081E003C080E001C080E0DF91CF91089504
:103AB000AF92BF92CF92DF92EF92FF920F931F933C
:103AC000CF93DF93CDB7DEB72C970FB6F894DEBF58
:103AD0000FBECDBF8C017B015A01DC0112968D9186
:103AE0009C91139768177907BCF0ED91FC912481A4
:103AF000358196E0FA01DE01179601900D929A95B4
:103B0000E1F7BE01695F7F4FC801F9011995182FD0
:103B1000CE010796C2D044C0672BC1F4D801ED9105
:103B2000FC912681378196E0FA01DE011196019021
:103B30000D929A95E1F7BE016F5F7F4FC801F901C1
:103B40001995182FCE010196A8D02AC088E090E0E0
:103B50000E944E306C0188E0D6011D928A95E9F7EB
:103B6000C60194D0B70161507109C8015CDD26E03F
:103B7000F501D60101900D922A95E1F7FC0126810D
:103B80003781D60117963C932E931697D782C6821B
:103B9000F80182819381019693838283148611E0D8
:103BA000812F2C960FB6F894DEBF0FBECDBFDF91EC
:103BB000CF911F910F91FF90EF90DF90CF90BF902A
:103BC000AF900895CF92DF92EF92FF920F931F93E1
:103BD000CF93DF9300D000D0CDB7DEB77C01FC01DE
:103BE00002A513A51123FCF06C01F5E1CF0ED11C49
:103BF000FC018789908D019708171907A4F4B80173
:103C0000C6010E944504019721F4F70113A702A7FA
:103C10000AC00F5F1F4FF7012789308D21503109EE
:103C20000217130764F3B7016E5F7F4FCE01019651
:103C30000E94E03769E874E0CE0101960E9447389F
:103C4000BC0188EA9AE00E94BA30CE0101960E9437
:103C50002D37F70162A573A54AE050E088EA9AE0A3
:103C60000E948C3181E090E0F70195A784A7269609
:103C70000FB6F894DEBF0FBECDBFDF91CF911F917D
:103C80000F91FF90EF90DF90CF900895FC0110828C
:103C9000118284E18283158208950895FF920F9323
:103CA0001F93CF93DF931F921F92CDB7DEB78C0186
:103CB000F22EFC0115826083418387E0828381E0DC
:103CC00090E00E944E30FC01F082CE010196F80196
:103CD0009483838381E085830F900F90DF91CF9150
:103CE0001F910F91FF900895FC011582608341831D
:103CF00083E18283348323830895EF92FF920F93AD
:103D00001F93CF93DF93CDB7DEB768970FB6F894C4
:103D1000DEBF0FBECDBF8C017B01DC0111964C9143
:103D200011976C91C701F4D7F801428150E04431FA
:103D3000510508F04CC1FA018827EE58FF4F8F4F0C
:103D40000C94B23AD8011396ED91FC9114976081CE
:103D500071814AE050E0C7010E94853138C1D80125
:103D60001396ED91FC911497608171814AE050E0C7
:103D7000C7010E94B6312BC1D8011396ED91FC9179
:103D8000149740815181628173812AE030E0C7013C
:103D90000E944D311CC1D8011396ED91FC911497EE
:103DA00040815181628173812AE030E0C7010E9425
:103DB000A1310DC1D8011396ED91FC91149740816A
:103DC00051816281738122E030E0C7010E94B032EC
:103DD000FEC0D8011396ED91FC911497408151815A
:103DE0006281738122E030E0C7010E94B032EFC0EF
:103DF000D8011396ED91FC911497608170E04AE030
:103E000050E0C7010E948531E2C0D8011396ED91C0
:103E1000FC911497608170E04AE050E0C7010E9475
:103E20008531D5C0F80163817481C7010E9481305A
:103E3000CEC0D8011396ED91FC91149760817181E9
:103E40004AE050E0C7010E948531C1C0D8011396F5
:103E5000ED91FC911497608171814AE050E0C701B7
:103E60000E94B631B4C0D8011396ED91FC9114971D
:103E700040815181628173812AE030E0C7010E9454
:103E80004D31A5C0D8011396ED91FC911497408156
:103E90005181628173812AE030E0C7010E94A13123
:103EA00096C0D8011396ED91FC91149740815181F1
:103EB0006281738122E030E0C7010E94B03287C086
:103EC000D8011396ED91FC91149740815181628144
:103ED000738122E030E0C7010E94B03278C0D8017F
:103EE0001396ED91FC911497608170E04AE050E0E8
:103EF000C7010E9485316BC0D8011396ED91FC91EA
:103F00001497608170E04AE050E0C7010E9485315B
:103F10005EC0F80163817481C7010E94813057C07F
:103F2000D80113960D911C91149766ED75E0CE01A2
:103F300007960E949937B801CE0107960E9436383D
:103F40006CED74E00E944738BC01C7010E948130CB
:103F5000CE0107960E942D37B801CE0143960E94EC
:103F60004C07B801CE010D960E947007C8010E944F
:103F70009407892B39F0BE016D5E7F4FC7010E9407
:103F8000813006C0BE01635F7F4FC7010E94813050
:103F9000CE010D960E942D37CE0143960E942D37FB
:103FA00016C0F8010381148166ED75E0CE0101961B
:103FB0000E949937B801CE0101960E943638BC01A3
:103FC000C7010E948130CE0101960E942D3768966C
:103FD0000FB6F894DEBF0FBECDBFDF91CF911F911A
:103FE0000F91FF90EF900895CF93DF93EB01FC01C9
:103FF0002281223119F0233149F00EC0FC01838166
:1040000094810E94B507CE01A8D01DC0FC01838118
:1040100094810E94290717C08E859F8572D666ED10
:1040200074E08E859F850E94CA306EED74E08E85A7
:104030009F850E94CA3068EB7BE080E090E00E94A0
:104040007435CE018AD0DF91CF9108950895BC01D7
:10405000FC0180819181009719F00C94F31508956B
:10406000FB0182819381009709F0DCCB0895CF9307
:10407000DF93EC0188819981009711F00E94A714C9
:104080008A819B81009709F09DDDDF91CF91089592
:10409000FC0180819181009711F00C9481140895A6
:1040A000EF92FF920F931F93CF93DF93EC017B016D
:1040B000198218821B821A828C010C5F1F4F61E6E5
:1040C00076E0C8010E9499371B861A861D861C86D9
:1040D000B701C8010E94CB37DF91CF911F910F919B
:1040E000FF90EF900895FC01718B608BDB011F96B0
:1040F0009C938E931E97A089B18987E290E2519696
:104100009C938E93509753961C921E925297A0891F
:10411000B18986E290E255969C938E935497579678
:104120001C921E925697A089B18987E390E2599616
:104130009C938E9358975B961C921E925A97008878
:10414000F189E02D88E490E2958F848F178E168E8A
:104150000895FC017787668708950F931F93CF9387
:10416000DF93EC018A819B81892B59F00E944235B3
:104170006A8B7B8B8C8B9D8BBE018A819B81A8DA9D
:1041800036C088819981892B61F00E9442356A8B03
:104190007B8B8C8B9D8BBE01888199810E9427151A
:1041A00026C00E9442350A891B892C893D89DC0181
:1041B000CB01801B910BA20BB30B893B9B40A1054C
:1041C000B105A8F00E9442356A8B7B8B8C8B9D8B4E
:1041D0008E859F8596D56DE175E08E859F850E94C1
:1041E000CA3064E275E08E859F850E94CA30DF91F7
:1041F000CF911F910F910895FC0171836083138209
:1042000012820895FC0111821082738362830895E3
:104210008091C0069091C1060E940D1280918A067D
:1042200090918B060E940D128091A6069091A70690
:104230000E940D1280917006909171060E940D12DD
:1042400080EA98E00E944F0480E898E00E944F04C2
:1042500080E698E00E944F0480E498E00E944F04BA
:1042600080E298E00E944F0480E098E00E944F04B2
:1042700080EE97E00E944F0480EC97E00E944F048C
:1042800080EA97E00E944F0480E897E00E944F0484
:1042900080E697E00E944F0480E497E00E944F047C
:1042A00080E297E00E944F0480E097E00E944F0474
:1042B00080EE96E00C944F0408958091A4069091AE
:1042C000A50633C208958091D2099091D30945DFA4
:1042D0008091D4099091D50940DF8091D0099091C7
:1042E000D1093BDF80916E0690916F0636CF08951D
:1042F0008F929F92AF92BF92CF92DF92EF92FF92F6
:104300000F931F93CF93DF93EC018C819D810196D6
:104310009D838C830E944235688379838A839B8343
:10432000CE0176DFCE01C9DFCE01CDDF8E819F8148
:10433000A885B985BC01CD016F5F7F4F8F4F9F4F1F
:104340006E837F8388879987C880D980EA80FB80C5
:104350000A851B852C853D85C01AD10AE20AF30A1D
:1043600029EBC2162BE0D206E104F10408F45EC08A
:104370000E9462394B015C01C701B6010E9460399D
:1043800020E030E04AE754E40E94C7389B01AC01CA
:10439000C501B4010E94C7386B017C0166E375E07A
:1043A00088EA9AE00E94903022E030E0B701A6014E
:1043B00088EA9AE00E94B03262E475E088EA9AE006
:1043C0000E9490304E815F81688579852AE030E0D7
:1043D00088EA9AE00E944D316BE475E088EA9AE041
:1043E0000E949030488159816A817B818A859B85B2
:1043F000AC85BD85481B590B6A0B7B0B2AE030E06E
:1044000088EA9AE00E94A13166E575E088EA9AE0C0
:104410000E94CA3088819981AA81BB818A879B8743
:10442000AC87BD871E821F8218861986DF91CF91C7
:104430001F910F91FF90EF90DF90CF90BF90AF90C2
:104440009F908F900895FC0175836483518340830E
:104450003383228308952F923F924F925F926F92FF
:104460007F928F929F92AF92BF92CF92DF92EF9204
:10447000FF920F931F93CF93DF9300D01F92CDB77E
:10448000DEB73C014A015B01DC010D911C919A01F0
:10449000AB01F80160817181828193810E94123A9F
:1044A000882354F0D3011296ED91FC91139760810B
:1044B000718182819381A5C0F301C480D58076018A
:1044C000F1E0EF1AF0ECFF0AEE0CFF1CEE0CFF1C03
:1044D000F801EE0DFF1D2081318142815381C5011C
:1044E000B4010E94123A88234CF421E0C21AD10888
:1044F0001C141D0484F0E12CF12C2DC0D301129664
:104500008D919C9113978E0D9F1DFC01608171818F
:104510008281938176C02801E12CF12CD2012D916A
:104520003D914D915D912D01C501B4010E94123A5A
:1045300088235CF0F2012081318142815381C501E1
:10454000B4010E94C338882334F0FFEFEF1AFF0A4A
:10455000EC14FD041CF3C701880F991F880F991FE5
:10456000F801E80FF91FC080D180E280F380D30109
:1045700012960D90BC91A02DBA83A9831C01B4E0C2
:104580002B0E311CE981FA81E80FF91F4080518020
:1045900062807380A7019601C501B4010E945E3854
:1045A0004B015C01E981FA81E20DF31DA301920147
:1045B00060817181828193810E945E3869837A83F0
:1045C0008B839C83F801E20DF31DA70196016081A6
:1045D0007181828193810E945E389B01AC01698167
:1045E0007A818B819C810E94C7389B01AC01C501F7
:1045F000B4010E94163A9B01AC01C301B2010E94B2
:104600005F380F900F900F900F90DF91CF911F9117
:104610000F91FF90EF90DF90CF90BF90AF909F9061
:104620008F907F906F905F904F903F902F90089564
:104630002F923F924F925F926F927F928F929F92B2
:10464000AF92BF92CF92DF92EF92FF920F931F93A0
:10465000CF93DF93CDB7DEB728970FB6F894DEBFC0
:104660000FBECDBF3C0178876F831A012901C98233
:10467000DA82EB82FC820D831E83FC011482158298
:10468000168217828C01085F1F4F61E676E0C80131
:104690000E9499376F817885C8010E94CB37CE017F
:1046A0000196F30193A782A7868E978EA0A2B1A24E
:1046B0008E8D9F8DA8A1B9A182A393A3A4A3B5A316
:1046C0008AA19BA1ACA1BDA186A397A3A0A7B1A7D6
:1046D0008AA59BA5ACA5BDA5828F938FA48FB58F0E
:1046E0008EA19FA1A8A5B9A5868B978BA08FB18F0E
:1046F000338222825182408228960FB6F894DEBF20
:104700000FBECDBFDF91CF911F910F91FF90EF9022
:10471000DF90CF90BF90AF909F908F907F906F90E1
:104720005F904F903F902F9008954F925F926F92BD
:104730007F928F929F92AF92BF92CF92DF92EF9231
:10474000FF920F931F93CF93DF93CDB7DEB72897D8
:104750000FB6F894DEBF0FBECDBF8C01FC01828185
:104760000E940A36BC01990F880B990B0E9462398E
:1047700020E030E040EA50E40E94163A20E030ECBD
:104780004FE754E40E94C738F801628B738B848B27
:10479000958B80810E940A36BC01990F880B990B7A
:1047A0000E94623920E030E040EA50E40E94163A6C
:1047B00020E030EC4FE754E40E94C7384B015C0125
:1047C000F80166877787808B918BC688D788E08CC5
:1047D000F18C2FE632E143E85AE36C2D7D2D8E2DCE
:1047E0009F2D0E94123A18162CF47C2D6D2D9E2DB3
:1047F0008F2D04C07FE662E193E88AE3272F362FEE
:10480000492F582FC501B4010E94C738F8012289E9
:104810003389448955890E94C73869837A838B8399
:104820009C83F801868C978CA0A0B1A046A057A0CD
:1048300060A471A4C2A0D3A0E4A0F5A0A701960132
:10484000C301B2010E945F386D837E838F83988796
:10485000A3019201C501B4010E94163A2B013C014B
:104860002D813E814F815885C501B4010E94163AC1
:1048700029813A814B815C810E94163A9B01AC01EF
:10488000C301B2010E945F384B015C012D813E8162
:104890004F81588569817A818B819C810E94163A6B
:1048A0009B01AC01C701B6010E945E38F801228D60
:1048B000338D448D558D0E945E38C62ED72EE82E3E
:1048C000F92E2AE037ED43E25CE30E94123A181613
:1048D0002CF47C2D6D2D9E2D8F2D04C07AE067ED7C
:1048E00093E28CE3272F362F492F582FC501B401AF
:1048F0000E94C738AB01BC01F80144A755A766A7C1
:1049000077A782A593A5A7DDF80160AB71AB82AB59
:1049100093AB20E030E040E151E40E94163A20E001
:1049200030E040EA50E40E94C73820E030E040E048
:1049300052E40E945F38F80164AB75AB86AB97AB6D
:1049400028960FB6F894DEBF0FBECDBFDF91CF9192
:104950001F910F91FF90EF90DF90CF90BF90AF909D
:104960009F908F907F906F905F904F900895EF92FF
:104970000F931F93CF93DF93EC01862F68834983B6
:104980002A83EB821D821C821F821E8208871A8660
:1049900019861B8691E09C879D87EE2011F010E020
:1049A00001C012E0612F0E949636612F89810E941A
:1049B0009636612F8A810E94963688810E9405373B
:1049C0002B8130E08217930721F483E090E09F83EE
:1049D0008E8389810E9405372B8130E082179307EF
:1049E00031F48E819F8121E082279F838E83DF9126
:1049F000CF911F910F91EF900895CF92DF92EF9298
:104A0000FF920F931F93CF93DF93EC010E944235E7
:104A10006B017C018D85882359F089859A850297E1
:104A20009A87898789859A85992314F41A86198625
:104A300088810E9405372B8130E08217930711F49B
:104A400013E001C010E089810E9405372B8130E01E
:104A50008217930711F481E018278E819F81811BB3
:104A600080FF1DC0212F110F330B3F832E832C811C
:104A70003D818270082E000C990B0197820F931FC5
:104A80009D838C838D85882351F089859A85883E06
:104A90009B4028F489859A8549969A8789878A81D7
:104AA000882309F46BC04091D9095091DA096091CB
:104AB000DB097091DC0997018601041B150B260B9D
:104AC000370B0A3011052105310508F457C0C09293
:104AD000D909D092DA09E092DB09F092DC090E9450
:104AE00005372B8130E08217930771F48091D70945
:104AF0009091D80901969093D8098093D709893766
:104B0000910510F083E08B878A810E9405373B81F5
:104B100021E0232730E08217930729F58091D709F8
:104B20009091D809892BD9F08B85833029F484E0C2
:104B30008B871092D60913C08091D609823038F045
:104B40008C3368F486E08B871092D60908C08C8578
:104B5000811102C081E001C08CE38093D6091092DC
:104B6000D8091092D7098091D609882339F082504C
:104B70008093D609811102C085E08B87DF91CF91A8
:104B80001F910F91FF90EF90DF90CF900895FC015F
:104B9000F894248135818085823031F4C901817097
:104BA0009927958384830AC0843031F4C9018370C6
:104BB00099279583848302C0158214827894808516
:104BC000843029F4359527953595279504C0823092
:104BD00011F4359527958585882329F0818592855F
:104BE000892F992702C080E090E033231CF4809540
:104BF000909508951216130614F40196089580E016
:104C000090E00895FC0183859385933009F0138625
:104C10000895FC0112828FEF818310821382089520
:104C2000FC012381222339F0611103C02FEF21837E
:104C30000895FC0111820895CF93DF93EC016A83FC
:104C400080E59AE006D541E06A8180E59AE017D5D3
:104C500091E0811101C090E09B8380E59AE066D4E9
:104C600088838B8190E0DF91CF910895CF93DF937C
:104C7000FC012381222399F0EC0181818095682336
:104C80006083628180E59AE0FDD4688180E59AE0E6
:104C9000A0D480E59AE012D5282F30E002C020E0B1
:104CA00030E081E090E0232B11F080E090E0DF9194
:104CB000CF91089508950895DC01ED91FC9102844F
:104CC000F385E02D41E0199581E090E00895FC0125
:104CD0001382128220E635E0318320830895DC01BF
:104CE000ED91FC910084F185E02D6FEF1995089509
:104CF000DC01ED91FC910284F385E02D40E01995F3
:104D0000089561E0F5DF80ED97E00C949D350895FE
:104D1000CF93DF93CDB7DEB728970FB6F894DEBFF9
:104D20000FBECDBFFC011D8280E48E8394E19F8382
:104D300094E5988719828A8380E18B8380E58C8350
:104D40008781481710F04FEF480F9085903161F43C
:104D5000843051F4DE01A40FB11D11968C91680FBF
:104D60006068CF01C5DF09C0DE01A40FB11D159633
:104D70009C91690F6068CF01BBDF28960FB6F8944D
:104D8000DEBF0FBECDBFDF91CF910895FC016581DD
:104D9000262F246025836C60ABCF0895CF93DF93DB
:104DA000EC01423018F08C8188608C834F836887D7
:104DB000222329F0413019F48C8184608C8364E6CD
:104DC00070E080E090E00E9474356C8164FD31C039
:104DD000E881F9810284F385E02D42E063E0CE01B1
:104DE000199584E991E10E949D35E881F981028459
:104DF000F385E02D42E063E0CE01199584E991E16D
:104E00000E949D35E881F9810284F385E02D42E01E
:104E100063E0CE01199586E990E00E949D35E88116
:104E2000F9810284F385E02D42E062E0CE0119951C
:104E300013C06062CE015CDF84E991E10E949D3580
:104E40006C816062CE0154DF86E990E00E949D355E
:104E50006C816062CE014CDF6C816062CE0148DF04
:104E600084E08D83CE0192DFCE014BDF82E08E8322
:104E700066E0CE013DDFCE0132DFDF91CF910895B4
:104E800021E001C0220F6A95EAF7DC011B962C9302
:104E90001B9719964C931997ED91FC910084F1851D
:104EA000E02D60E019950895FC018385882389F041
:104EB0009185911103C0611105C006C0913021F4A4
:104EC000611102C0848701C014866485CF010D96EC
:104ED000CDCE08956F927F928F92AF92CF92DF9254
:104EE000EF92FF920F931F93CF93DF93CDB7DEB76F
:104EF0003C01D62EF42E122FEADE80E795E0F30176
:104F000091838083C3010D9684DEF301D2861386DC
:104F10001486118681E0982F01C0990FFA94EAF760
:104F2000918B982F01C0990F1A95EAF7928B982FC1
:104F300001C0990F0A95EAF7938B982F01C0990F3A
:104F4000EA94EAF7948B982F01C0990FCA94EAF774
:104F5000958B982F01C0990FAA94EAF7968B01C000
:104F6000880F8A94EAF7878BDF91CF911F910F9179
:104F7000FF90EF90DF90CF90AF908F907F906F90E9
:104F800008950F931F93CF93DF93EC018C01035F80
:104F90001F4F6A85C80150DE019751F461E0C801D6
:104FA0003FDE1C8260E0C80161DE81E090E002C06B
:104FB00080E090E0DF91CF911F910F910895FF92D3
:104FC0000F931F93CF93DF93EC01F62E8C01035FB9
:104FD0001F4F9989692BC80149DE998990956F2DDA
:104FE0006923C80143DEDF91CF911F910F91FF909C
:104FF0000895DC01FC0174969C01285E3F4F90E00F
:1050000060FF02C08081982B66953196E217F30706
:10501000B9F7413019F453964C9153971C966C9103
:105020001C97692B642BCD01CACF08950F931F9352
:10503000CF93DF938C01C62FD42F423021F46F70B1
:1050400040E0D7DF0FC070E075956795759567955F
:105050007595679575956795CCDF6C2F6F704D2FA3
:10506000C801C7DFDF91CF911F910F910895FF9283
:105070000F931F93CF93DF93EC01162F042FF22E83
:1050800080DF2F2D402F612FCE0188DEDF91CF9161
:105090001F910F91FF9008951F920F920FB60F92DC
:1050A00011240BB60F922F933F934F935F936F93FF
:1050B0007F938F939F93AF93BF93EF93FF93E09171
:1050C000DD09F091DE091995FF91EF91BF91AF9144
:1050D0009F918F917F916F915F914F913F912F9110
:1050E0000F900BBE0F900FBE0F901F90189510924F
:1050F0004F0A81E080934D0A10924C0A61E084E1EE
:105100000E94D53661E085E10E94D536E9EBF0E0FA
:1051100080818E7F808380818D7F808388E48093EF
:10512000B80085E48093BC000895413208F046C081
:1051300090914F0A9111FCCF31E030934F0A2093A8
:105140004D0A2FEF2093E2091092270A240F209393
:10515000260A30934E0A20914E0A880F822B8093A4
:105160004E0A80914C0A813051F410924C0A809181
:105170004E0A8093BB0085EC8093BC0003C085EE93
:105180008093BC0080914F0A8130E1F38091270A1F
:10519000841710F44091270A442389F0A8E2BAE06A
:1051A000FB018FEF840F90E00196680F791F8D91BE
:1051B0008193E617F707D9F7942F01C090E0892F64
:1051C00008950F93413208F051C030914F0A3111C8
:1051D000FCCF92E090934F0A00934D0A9FEF90937B
:1051E000E2091092270A4093260A442371F0FB013A
:1051F000A8E2BAE0415050E04F5F5F4F640F751F67
:1052000091919D93E617F707D9F710924E0A909166
:105210004E0A880F892B80934E0A80914C0A813068
:1052200051F410924C0A80914E0A8093BB0085EC99
:105230008093BC0003C085EE8093BC00222341F024
:1052400080914F0A823021F480914F0A8230E1F33D
:105250008091E2098F3F79F08091E209803241F03C
:105260008091E209803331F034E005C031E003C0C1
:1052700032E001C033E0832F0F9108956132C8F40A
:1052800020914F0A2430B9F46093040A6623A9F0F0
:10529000FC01A6E0BAE06150262F30E02F5F3F4FBF
:1052A000280F391F91919D93E217F307D9F780E0FA
:1052B000089581E0089582E0089580E0089585EDE5
:1052C0008093BC00ECEBF0E0808184FDFDCF109278
:1052D0004F0A089585EC8093BC0010924F0A089500
:1052E0001F920F920FB60F9211240BB60F922F93AD
:1052F0003F934F935F936F937F938F939F93AF935E
:10530000BF93EF93FF938091B900887F90E0893C31
:10531000910508F0F0C0FC018827EA57FF4F8F4F36
:105320000C94B23A80914E0A8093BB0085EC809336
:10533000BC00E1C09091270A8091260A981780F45A
:10534000E091270A81E08E0F8093270AF0E0E85D64
:10535000F54F80818093BB0085EC8093BC00CBC06F
:1053600080914D0A882311F0AADFC5C081E08093A7
:105370004C0A84EA8093BC0010924F0ABCC080E2C1
:105380008093E2099CDFB7C080E38093E20997DF56
:10539000B2C088E38093E2099DDFADC0E091270AA7
:1053A00081E08E0F8093270A8091BB00F0E0E85DDA
:1053B000F54F80839091270A8091260A981720F450
:1053C00085EC8093BC0097C085E88093BC0093C0B7
:1053D000E091270A81E08E0F8093270A8091BB001D
:1053E000F0E0E85DF54F808380914D0A882311F04D
:1053F00066DF81C081E080934C0A84EA8093BC0020
:1054000010924F0A78C05BDF76C083E080934F0A2A
:105410001092E30985EC8093BC006DC08091E30994
:10542000803280F4E091E30981E08E0F8093E309FC
:105430008091BB00F0E0EC51F64F808385EC8093C7
:10544000BC0059C085E88093BC0055C08091E30939
:10545000803230F4E091E309F0E0EC51F64F108235
:105460002EDF6091E30970E0E091480AF091490A6B
:1054700084EE99E019951092E3092CDF3CC085E891
:105480008093BC0038C084E080934F0A1092050AD4
:105490001092040AE0914A0AF0914B0A1995809102
:1054A000040A811105C081E08093040A1092060A63
:1054B000E091050A81E08E0F8093050AF0E0EA5F33
:1054C000F54F80818093BB009091050A8091040A7A
:1054D000981720F485EC8093BC000DC085E880937C
:1054E000BC0009C085EC8093BC0010924F0A03C039
:1054F0001092E209E4DEFF91EF91BF91AF919F918D
:105500008F917F916F915F914F913F912F910F906C
:105510000BBE0F900FBE0F901F9018958091800AC0
:1055200090E02091810A821B910908959091810A4F
:105530008091800A981750F4E92FF0E0EE57F54F6C
:10554000208130E09F5F9093810A02C02FEF3FEFF0
:10555000C9010895E091810A8091800AE81730F42A
:10556000F0E0EE57F54F808190E008958FEF9FEFC8
:1055700008950895CF92DF92EF92FF920F931F93B9
:10558000CF93DF938C01CB016A0120915C0A222327
:10559000A1F04115510599F0EB017B01E40EF51ED8
:1055A0006991D801ED91FC910190F081E02DC80145
:1055B0001995CE15DF05A1F702C0642F5FDEC60185
:1055C000DF91CF911F910F91FF90EF90DF90CF90DF
:1055D0000895CF93DF931F92CDB7DEB7FC016983A7
:1055E00090915C0A9923D9F090915D0A903238F03D
:1055F00081E090E09383828380E090E016C0809108
:105600005E0AE82FF0E0E15AF54F998190838F5FB1
:1056100080935E0A80935D0A81E090E006C061E0BD
:10562000CE0101962BDE81E090E00F90DF91CF91CB
:105630000895FC011382128288EE93E0A0E0B0E0AE
:1056400084839583A683B78380E895E091838083E4
:1056500008951092810A1092800A10925E0A1092A8
:105660005D0A45CD0895862F413208F040E262E898
:105670007AE05BDD1092810A8093800A089521E030
:10568000F2CF089581E080935C0A60937F0A1092C4
:105690005E0A10925D0A08950F93062F21E0409153
:1056A0005D0A6FE57AE080917F0A8BDD10925E0AD9
:1056B00010925D0A10925C0A0F91089561E0ECCFA0
:1056C000089580E59AE0B5CF089526E040E855E2D8
:1056D00060E070E088EA9AE0B6D16CE875E088EAAC
:1056E0009AE058D562EB75E088EA9AE053D56CE809
:1056F00075E088EA9AE04ED568ED75E088EA9AE0B0
:105700000FD522E030E04DEC5CEC6CEC7DE388EAF8
:105710009AE028D761E676E088EA9AE03BD564EE25
:1057200075E088EA9AE036D50E946D0C0E944235F9
:105730006093A40A7093A50A8093A60A9093A70A7F
:1057400041E063E082EC96E0E3DA63EF75E082EC3F
:1057500096E0E6D422E030E04DEC5CEC6CEC7DE3CE
:1057600082EC96E0FDD642E062E082EC96E0D0DA90
:105770006DEF75E082EC96E0D3D441E062E088EA18
:1057800096E0C6DA6EE076E088EA96E0C9D441E0B9
:1057900062E08CE896E0BCDA6EE176E08CE896E0B8
:1057A000BFD441E062E082E796E0B2DA6EE276E0F2
:1057B00082E796E0B5D40E944F0E0E94730D0E94BE
:1057C00014110E94390268EB7BE080E090E00C94B9
:1057D000743508950F931F9380910602882329F052
:1057E0006AE376E088EA9AE0D5D41092060206C011
:1057F00064EF71E080E090E00E9474350E944235D1
:105800000091A40A1091A50A2091A60A3091A70A36
:10581000DC01CB01801B910BA20BB30B883B9B409F
:10582000A105B10528F38091A20A9091A30A0E94D4
:1058300078211F910F9108958EE090E02FD42EE0F3
:10584000FC0111922A95E9F79093A30A8093A20A8A
:1058500008950E94DF3CFC01918D228D892F90E0FC
:10586000805C9F4F821B91098F7399270895FC01DB
:10587000918D828D981731F0828DE80FF11D858D05
:1058800090E008958FEF9FEF0895FC01918D828D38
:10589000981761F0828DDF01A80FB11D5D968C9184
:1058A000928D9F5F9F73928F90E008958FEF9FEF8F
:1058B000089581EF9DE2892B41F080E090E0892BF3
:1058C00021F08FD181110E9400008CE89EE2892B8B
:1058D00041F080E090E0892B21F01ED281110E94DE
:1058E000000087E29FE2892B41F080E090E0892B65
:1058F00021F0ADD281110E94000082EC9FE2892B41
:1059000041F080E090E0892B21F03CD381110E948E
:1059100000000895FC01848DDF01A80FB11DA35A7A
:10592000BF4F8C91248D30E02F5F3F4F2F73307825
:10593000332334F421503109206C3F6F2F5F3F4FE8
:10594000248FA689B7898C93A089B1898C918064B2
:105950008C93938D848D981306C00288F389E02D73
:1059600080818F7D80830895CF93DF93EC01888DB4
:1059700081110EC017C00FB607FC0CC0908195FFB7
:1059800009C0A889B9898C9185FF04C0CE01C2DF06
:10599000EA89FB89908195FDEECFA889B9898C9120
:1059A00086FFE9CFDF91CF9108950F931F93CF9397
:1059B000DF93FC0181E0808F938D848D981321C04B
:1059C000A089B1898C9185FD2EC01BC00FB607FC44
:1059D00007C0E889F989808185FF02C0CE019ADF7E
:1059E0009C8D091799F38B8DFE01E80FF11DE35A89
:1059F000FF4F10830B8FEA89FB898081806280834F
:105A00001BC0238D30E02F5F3F4F2F73307833233F
:105A100034F421503109206C3F6F2F5F3F4F162F18
:105A2000EF01022FDDCFA689B7896C930088F18939
:105A3000E02D80818064808381E090E0DF91CF91D0
:105A40001F910F910895BF92CF92DF92EF92FF9234
:105A50000F931F93CF93DF93EC016A017B01B22E6A
:105A6000E889F98982E080834115514E610571050D
:105A7000B1F060E079E08DE390E0A70196010E942B
:105A8000903A89019A01015011092109310936958D
:105A9000279517950795011580E11807A8F0E88963
:105AA000F989108260E874E88EE190E0A701960120
:105AB0000E94903ADA01C9010197A109B109B6958E
:105AC000A795979587958C01EC85FD851083EE85CC
:105AD000FF850083188EEC89FD89B082EA89FB89F5
