S016000050726F6A6563744E61727768616C2E737265636A
S1130000E4C100000C945F120C9490120C94C11281
S11300100C94F2120C9423130C9454130C94851323
S11300200C94B61303C2000001C20000FFC100001B
S1130030FDC100000C940012F9C10000F7C10000DA
S1130040F5C10000F3C10000F1C10000EFC10000E0
S1130050EDC10000EBC10000E9C100000C94E713FE
S1130060E5C100000C94FD0D0C94390EDFC10000B5
S1130070DDC10000DBC10000D9C10000D7C1000010
S1130080D5C10000D3C10000D1C10000CFC1000020
S11300900C94980E0C94D40EC9C100000C94730AED
S11300A0C5C10000C3C10000C1C10000BFC1000040
S11300B0BDC10000BBC10000B9C10000B7C1000050
S11300C0B5C10000B3C10000B1C100000C94330FEE
S11300D00C946F0FABC100000C94CE0F0C940A105B
S11300E0A5C100007B0B7E0B7E0B7E0B7E0B7E0B73
S11300F07E0B7E0B950A7E0B7E0B7E0B7E0B7E0B9E
S11301007E0B7E0B950A7E0B7E0B7E0B7E0B7E0B8D
S11301107E0B7E0B9D0A7E0B7E0B7E0B7E0B7E0B75
S11301207E0B7E0BC20A7E0B7E0B7E0B7E0B7E0B40
S11301307E0B7E0B9D0A7E0B7E0B7E0B7E0B7E0B55
S11301407E0B7E0BC70A7E0B7E0B7E0B7E0B7E0B1B
S11301507E0B7E0BCC0A7E0B7E0B7E0B7E0B7E0B06
S11301607E0B7E0BDD0A7E0B7E0B7E0B7E0B7E0BE5
S11301707E0B7E0B060B7E0B7E0B7E0B7E0B7E0BAB
S11301807E0B7E0BD10A7E0B7E0B7E0B7E0B7E0BD1
S11301907E0B7E0BEB0A7E0B7E0B7E0B7E0B7E0BA7
S11301A07E0B7E0B080B7E0B7E0B7E0B7E0B7E0B79
S11301B07E0B7E0B080B7E0B7E0B7E0B7E0B7E0B69
S11301C07E0B7E0B080B7E0B7E0B7E0B7E0B7E0B59
S11301D07E0B7E0B080B7E0B7E0B7E0B7E0B7E0B49
S11301E07E0B7E0B110B7E0B7E0B7E0B7E0B7E0B30
S11301F07E0B7E0B420B7E0B7E0B7E0B7E0B7E0BEF
S11302007E0B7E0B110B7E0B7E0B7E0B7E0B7E0B0F
S11302107E0B7E0B420B7E0B7E0B7E0B7E0B7E0BCE
S11302207E0B7E0B290B7E0B7E0B7E0B7E0B7E0BD7
S11302307E0B7E0B460B7E0B7E0B7E0B7E0B7E0BAA
S11302407E0B7E0B460B7E0B7E0B7E0B7E0B7E0B9A
S11302507E0B7E0B5B0B7E0B7E0B7E0B7E0B7E0B75
S11302607E0B7E0B750B7E0B7E0B7E0B7E0B7E0B4B
S11302707E0B7E0B750B0B150F15F914FF1405156A
S11302805415131519151F1525152B15311537156B
S11302903D155415431549154F150200000A0B026C
S11302A0090C0D0E08070304010000000000000003
S11302B0000000000000000000000000000000003A
S11302C000000000000000121110000000000000F7
S11302D0000000000000000000000000000000001A
S11302E00001021020200808102040102040800245
S11302F00102010804020101020408102040808068
S113030040201008040201800402018040201008EB
S113031004020108040201010204081020408001C3
S11303200204081020408005050505070508080893
S113033008020202020A0A08080404040401010172
S1130340010101010103030303030303030407077A
S1130350070C0C0C0C0C0C0C0C0202020206060618
S113036006060606060B0B0B0B0B0B0B0B000020F3
S1130370002300260029002C002F00320000010079
S11303800003010601090100002200250028002BBA
S1130390002E003100340002010000050108010BA9
S11303A00100002100240027002A002D0030003322
S11303B00001010000040107010A01001702640C96
S11303C06B0E060FA10F3C10A91011241FBECFEF16
S11303D0D1E2DEBFCDBF00E00CBF13E0A0E0B2E08D
S11303E0E0EEF1E300E00BBF02C007900D92A830ED
S11303F0B107D9F726E0A8E0B3E001C01D92A43804
S1130400B207E1F711E0C5EED1E000E006C02197A4
S11304100109802FFE010E94C116CE3DD10780E064
S11304200807A9F70E94B5100C94EE18E9CDCF92F5
S1130430DF92EF920F931F93CF93DF9300D000D0FE
S1130440CDB7DEB767E28CE093E0A6D68EE090E00D
S11304500E94BF106C01E12C01E028E147E166E154
S1130460F4D4D0920B03C0920A0367E072E0CE0189
S113047001960E94581680E190E00E94BF108C0102
S113048020910A0330910B034CE053E0BE016F5FEF
S11304907F4F0BD41093090300930803CE010196F8
S11304A00E94EC1526960FB6F894DEBF0FBECDBFA2
S11304B0DF91CF911F910F91EF90DF90CF9008952E
S11304C0FC018281938108950F931F93CF93DF934F
S11304D0CDB7DEB727970FB6F894DEBF0FBECDBFFA
S11304E08C010DC0D801ED91FC910684F785E02DB7
S11304F0B801CE0101961995CE010196D3D3D80146
S1130500ED91FC910190F081E02DC8011995181628
S1130510190644F327960FB6F894DEBF0FBECDBF7D
S1130520DF91CF911F910F910895CF92DF92EF92B7
S1130530FF920F931F93CF93DF93CDB7DEB7279727
S11305400FB6F894DEBF0FBECDBF8C016B01DC018A
S113055012968D919C911397892BB1F4ED91FC9196
S1130560E480F580CE0101960E948116F601868111
S11305708F83BE016F5F7F4FC801F7011995182F54
S1130580CE0101968FD327C089E090E00E94BF106E
S11305907C0189E0D7011D928A95E9F7C7015CD3F4
S11305A0F80184819581D70118969C938E931797AF
S11305B0B601C7010E946C16F6018681D701169612
S11305C08C93F801F582E48282819381019693836E
S11305D08283148611E0812F27960FB6F894DEBF2C
S11305E00FBECDBFDF91CF911F910F91FF90EF9080
S11305F0DF90CF900895EF92FF920F931F93CF93C4
S1130600DF938C017B0189E090E00E94BF10EC0134
S113061089E0DE011D928A95E9F7CE011DD3B70169
S1130620CE010E946C16F70186818E8318861F8284
S1130630D80114968D919C911597892B59F0169693
S1130640ED91FC911797D087C7831796DC93CE93CF
S1130650169705C0F801D583C483D783C683D80110
S113066012968D919C911397019613969C938E9359
S113067012971C961C9281E0DF91CF911F910F91EC
S1130680FF90EF900895AF92BF92CF92DF92EF92D6
S1130690FF920F931F93CF93DF93CDB7DEB72797C6
S11306A00FB6F894DEBF0FBECDBF7C018B01DB011A
S11306B012968D919C911397181619061CF0C70178
S11306C0CBD23EC00297A4F1FB01C480D580D601F1
S11306D01796AD90BC901897B601CE0101960E9472
S11306E08116F60186818F83D8011496CD90DC9013
S11306F01597C114D10429F0C601D4D2C6010E94B1
S1130700C110F801B582A4828281938101979383F9
S113071082831486BE016F5F7F4FC7010E948116DA
S11307208F81D70116968C93CE010196BBD208C057
S1130730DB01ED91FC910484F585E02DC701199549
S1130740C70127960FB6F894DEBF0FBECDBFDF9169
S1130750CF911F910F91FF90EF90DF90CF90BF90BA
S1130760AF900895EF92FF920F931F93CF93DF936F
S1130770CDB7DEB72C970FB6F894DEBF0FBECDBF52
S11307808C017B016AEF72E00E94581684E392E0C8
S1130790F80197838683138612861586148611863C
S11307A0108617861686118A108A128A168A158A66
S11307B0B701C8010E946C16F801148A138A6BE011
S11307C072E0CE0107960E945816BE01695F7F4F02
S11307D0CE0101960E94811687E090E00E94BF102E
S11307E07C01BE016F5F7F4F48D2F801F08EE78A2B
S11307F0CE0101960E94EC15CE0107960E94EC15DD
S11308002C960FB6F894DEBF0FBECDBFDF91CF910B
S11308101F910F91FF90EF900895DC011496ED91D4
S1130820FC9115971C968C911C97882361F01A965D
S11308302D913C911B976217730744F01896ED9124
S1130840FC91199705C020E030E002C020E030E0C0
S11308502617370764F4309751F00780F085E02DB0
S11308602F5F3F4F2617370714F43097B1F7261739
S1130870370779F481E01C968C931C971B963C9364
S11308802E931A971996FC93EE9318978E2F9F2FF9
S1130890089580E090E008950F931F93CF93DF9322
S11308A0EC01CB01BA01B9DF8C01009741F0BC0126
S11308B0CE010E948116F80186818E8302C0CE018A
S11308C0CBD1CE01DF91CF911F910F910895AF92BB
S11308D0BF92CF92DF92EF92FF920F931F93CF9329
S11308E0DF93CDB7DEB727970FB6F894DEBF0FBE00
S11308F0CDBF7C018B01FB01628173811616170643
S113090014F0AAD161C0F8011486623071059CF11B
S113091062507109C80181DF6C01FC01A780B084B9
S1130920B501CE0101960E948116F50186818F835F
S1130930F601A780B084A114B10429F0C501B2D195
S1130940C5010E94C110F60110861782F801D782F2
S1130950C68282819381019793838283BE016F5FF4
S11309607F4FC7010E9481168F81F7018683CE01D4
S1130970019698D129C0F801C480D580B601CE0172
S113098001960E948116F60186818F83F801C48046
S1130990D580C114D10429F0C60184D1C6010E94B6
S11309A0C110F801158214821782168213821282F2
S11309B0BE016F5F7F4FC7010E9481168F81F701CF
S11309C08683CE0101966ED1C70127960FB6F8949F
S11309D0DEBF0FBECDBFDF91CF911F910F91FF906E
S11309E0EF90DF90CF90BF90AF900895AF92BF92F9
S11309F0CF92DF92EF92FF920F931F93CF93DF93E7
S1130A00CDB7DEB727970FB6F894DEBF0FBECDBFC4
S1130A107C018B01552344F0DB0112968D919C914E
S1130A201397481759071CF0C70116D152C0411536
S1130A30510549F4DB01ED91FC910684F785E02D25
S1130A40C701199546C001978417950749F4DB013E
S1130A50ED91FC910484F585E02DC701199539C009
S1130A60BA0161507109C801D8DE5C01FC01C7807C
S1130A70D084B601CE0101960E948116D601169645
S1130A808C918F83D5011796ED91FC9118978781EE
S1130A90908518969C938E931797C114D10429F0CE
S1130AA0C60100D1C6010E94C110F8018281938160
S1130AB00197938382831486BE016F5F7F4FC701C2
S1130AC00E9481168F81D70116968C93CE010196D0
S1130AD0E9D0C70127960FB6F894DEBF0FBECDBF8D
S1130AE0DF91CF911F910F91FF90EF90DF90CF9006
S1130AF0BF90AF9008950F931F93CF93DF93772305
S1130B008CF0FC0122813381621773076CF4EA01D3
S1130B1084DE8C01BE010E946C168E81F8018683EE
S1130B2081E003C080E001C080E0DF91CF911F919C
S1130B300F910895AF92BF92CF92DF92EF92FF92FE
S1130B400F931F93CF93DF93CDB7DEB72E970FB6D6
S1130B50F894DEBF0FBECDBF8C017B015A01DC01CE
S1130B6012968D919C91139768177907BCF0ED91BB
S1130B70FC91E480F580BA01CE0108960E948116AA
S1130B80F50186818E87BE01685F7F4FC801F7013A
S1130B901995182FCE01089685D04CC0672BC1F447
S1130BA0D801ED91FC91E680F780BA01CE0101965F
S1130BB00E948116F50186818F83BE016F5F7F4F8E
S1130BC0C801F7011995182FCE0101966BD032C0D8
S1130BD089E090E00E94BF106C0189E0D6011D926B
S1130BE08A95E9F7C60138D0B70161507109C80187
S1130BF014DE7C01B501C6010E946C16F5018681E4
S1130C00D60116968C931697F701878190851896CE
S1130C109C938E931797D086C782D80112968D9194
S1130C209C911397019613969C938E9312971C96FE
S1130C301C9211E0812F2E960FB6F894DEBF0FBEE2
S1130C40CDBFDF91CF911F910F91FF90EF90DF9077
S1130C50CF90BF90AF900895CF93DF93EC016AEFEC
S1130C6072E00E94581681E08E8368E472E0CE013F
S1130C700E948A16DF91CF9108950F931F93CF930B
S1130C80DF93EC018B016AEF72E00E94581681E059
S1130C908E83B801CE010E946C16DF91CF911F9113
S1130CA00F9108950C94EC1508958F929F92AF9232
S1130CB0BF92CF92DF92EF92FF920F931F93CF9345
S1130CC0DF93CDB7DEB7AD970FB6F894DEBF0FBE96
S1130CD0CDBF8C014B015A0169017C0182E0E80E11
S1130CE0F11C6AEF72E0C7010E945816F8011186E0
S1130CF0108613861286B401C7010E946C16F8018F
S1130D00B586A486D786C6866BE672E0CE01889641
S1130D100E94581689E190E00E94BF107C01BE0138
S1130D20685D7F4F1FDDF801F182E082CE01889675
S1130D300E94EC1565E772E0CE0182960E94581677
S1130D4087E090E00E94BF107C01BE016E5D7F4F82
S1130D5094DFCE0182960E94EC15B701CE014B962A
S1130D600E948116F701868189A3F801808191810F
S1130D70BE01655E7F4F06963EDCCE014B9692DF48
S1130D806DE772E0CE0145960E94581687E090E028
S1130D900E94BF107C01BE016B5E7F4F6EDFCE01EF
S1130DA045960E94EC15B701CE010E960E9481165D
S1130DB0F70186818C8BF80180819181BE01625F8D
S1130DC07F4F069618DCCE010E966CDF66E872E063
S1130DD0CE0108960E94581687E090E00E94BF104A
S1130DE07C01BE01685F7F4F48DFCE0108960E94F8
S1130DF0EC15B701CE0101960E948116F701868198
S1130E008F83F80180819181BE016F5F7F4F0696C9
S1130E10F2DBCE01019646DF62E972E086EE93E0F2
S1130E200E941A11AD960FB6F894DEBF0FBECDBF67
S1130E30DF91CF911F910F91FF90EF90DF90CF90B2
S1130E40BF90AF909F908F900895EF920F931F9350
S1130E50CF93DF93EC01862F688349832A83EB8247
S1130E601D821C821F821E8208871A8619861B8691
S1130E7091E09C879D87EE2011F010E001C012E004
S1130E80612F0E945515612F89810E945515612F8C
S1130E908A810E94551588810E94C4152B8130E0F7
S1130EA08217930721F483E090E09F838E838981E6
S1130EB00E94C4152B8130E08217930731F48E8190
S1130EC09F8121E082279F838E83DF91CF911F91A1
S1130ED00F91EF900895FC0112828FEF81831082AD
S1130EE013820895FC012381222339F0611103C088
S1130EF02FEF21830895FC0111820895CF93DF938E
S1130F00EC016A8382E993E0A7D441E06A8182E933
S1130F1093E0B8D491E0811101C090E09B8382E911
S1130F2093E007D488838B8190E0DF91CF9108957B
S1130F30CF93DF93FC012381222399F0EC0181817B
S1130F40809568236083628182E993E09ED46881FE
S1130F5082E993E041D482E993E0B3D4282F30E0CE
S1130F6002C020E030E081E090E0232B11F080E02B
S1130F7090E0DF91CF91089508950895DC01ED91FB
S1130F80FC910284F385E02D41E0199581E090E025
S1130F900895FC011382128220EA32E03183208317
S1130FA00895DC01ED91FC910084F185E02D6FEF53
S1130FB019950895DC01ED91FC910284F385E02DEF
S1130FC040E01995089561E0F5DF80ED97E00C9419
S1130FD080140895CF93DF93CDB7DEB728970FB66B
S1130FE0F894DEBF0FBECDBFFC011D8280E48E836A
S1130FF094E19F8394E5988719828A8380E18B83A7
S113100080E58C838781481710F04FEF480F908557
S1131010903161F4843051F4DE01A40FB11D1196B6
S11310208C91680F6068CF01C5DF09C0DE01A40F91
S1131030B11D15969C91690F6068CF01BBDF28969E
S11310400FB6F894DEBF0FBECDBFDF91CF910895E8
S1131050FC016581262F246025836C60ABCF089545
S1131060CF93DF93EC01423018F08C8188608C833D
S11310704F836887222329F0413019F48C818460DE
S11310808C8364E670E080E090E00E9457146C81E9
S113109064FD31C0E881F9810284F385E02D42E0EA
S11310A063E0CE01199584E991E10E948014E881FE
S11310B0F9810284F385E02D42E063E0CE011995C5
S11310C084E991E10E948014E881F9810284F38526
S11310D0E02D42E063E0CE01199586E990E00E949C
S11310E08014E881F9810284F385E02D42E062E016
S11310F0CE01199513C06062CE015CDF84E991E1F1
S11311000E9480146C816062CE0154DF86E990E015
S11311100E9480146C816062CE014CDF6C8160623D
S1131120CE0148DF84E08D83CE0192DFCE014BDF18
S113113082E08E8366E0CE013DDFCE0132DFDF91B7
S1131140CF91089521E001C0220F6A95EAF7DC01EE
S11311501B962C931B9719964C931997ED91FC9120
S11311600084F185E02D60E019950895FC018385E4
S1131170882389F09185911103C0611105C006C0CF
S1131180913021F4611102C0848701C01486648502
S1131190CF010D96CDCE08951F93CF93DF93EC012D
S11311A0162FF7DE80EB92E099838883CE010D96AB
S11311B092DE1A871B861C86198680E4898B80E25E
S11311C08A8B80E18B8B81E08C8B82E08D8B84E039
S11311D08E8B88E08F8BDF91CF911F9108950F93B1
S11311E01F93CF93DF93EC018C01035F1F4F6A853C
S11311F0C80184DE019751F461E0C80173DE1C82EA
S113120060E0C80195DE81E090E002C080E090E0FB
S1131210DF91CF911F910F910895FF920F931F9328
S1131220CF93DF93EC01F62E8C01035F1F4F998956
S1131230692BC8017DDE998990956F2D6923C801BA
S113124077DEDF91CF911F910F91FF900895DC011C
S1131250FC0174969C01285E3F4F90E060FF02C041
S11312608081982B66953196E217F307B9F74130E0
S113127019F453964C9153971C966C911C97692BB7
S1131280642BCD01CACF08950F931F93CF93DF939F
S11312908C01C62FD42F423021F46F7040E0D7DF89
S11312A00FC070E075956795759567957595679509
S11312B075956795CCDF6C2F6F704D2FC801C7DF14
S11312C0DF91CF911F910F910895FF920F931F9378
S11312D0CF93DF93EC01162F042FF22E80DF2F2DF6
S11312E0402F612FCE01BCDEDF91CF911F910F9172
S11312F0FF9008951092910381E080938F031092E0
S11313008E0361E084E10E94941561E085E10E940E
S11313109415E9EBF0E080818E7F808380818D7F5E
S1131320808388E48093B80085E48093BC000895AA
S1131330413208F046C0909191039111FCCF31E005
S11313403093910320938F032FEF20932403109263
S11313506903240F20936803309390032091900332
S1131360880F822B8093900380918E03813051F4F7
S113137010928E03809190038093BB0085EC809340
S1131380BC0003C085EE8093BC0080919103813042
S1131390E1F380916903841710F4409169034423B5
S11313A089F0AAE6B3E0FB018FEF840F90E0019689
S11313B0680F791F8D918193E617F707D9F7942F5A
S11313C001C090E0892F08950F93413208F051C075
S11313D0309191033111FCCF92E0909391030093EB
S11313E08F039FEF90932403109269034093680343
S11313F0442371F0FB01AAE6B3E0415050E04F5F93
S11314005F4F640F751F91919D93E617F707D9F706
S11314101092900390919003880F892B80939003EE
S113142080918E03813051F410928E038091900349
S11314308093BB0085EC8093BC0003C085EE809351
S1131440BC00222341F080919103823021F48091E9
S113145091038230E1F3809124038F3F79F08091EE
S11314602403803241F080912403803331F034E04E
S113147005C031E003C032E001C033E0832F0F9197
S113148008956132C8F4209191032430B9F4609333
S113149046036623A9F0FC01A8E4B3E06150262FBB
S11314A030E02F5F3F4F280F391F91919D93E21732
S11314B0F307D9F780E0089581E0089582E0089564
S11314C080E0089585ED8093BC00ECEBF0E0808132
S11314D084FDFDCF10929103089585EC8093BC00A8
S11314E01092910308951F920F920FB60F92112438
S11314F00BB60F922F933F934F935F936F937F930A
S11315008F939F93AF93BF93EF93FF938091B90011
S1131510887F90E0893C910508F0F0C0FC018827A1
S1131520EE58FF4F8F4F0C94C11680919003809317
S1131530BB0085EC8093BC00E1C09091690380916D
S11315406803981780F4E091690381E08E0F80931B
S11315506903F0E0E659FC4F80818093BB0085EC81
S11315608093BC00CBC080918F03882311F0AADF45
S1131570C5C081E080938E0384EA8093BC001092FE
S11315809103BCC080E2809324039CDFB7C080E356
S11315908093240397DFB2C088E3809324039DDF04
S11315A0ADC0E091690381E08E0F8093690380915F
S11315B0BB00F0E0E659FC4F808390916903809171
S11315C06803981720F485EC8093BC0097C085E8E5
S11315D08093BC0093C0E091690381E08E0F8093F7
S11315E069038091BB00F0E0E659FC4F8083809151
S11315F08F03882311F066DF81C081E080938E031E
S113160084EA8093BC001092910378C05BDF76C0BB
S113161083E0809391031092250385EC8093BC00B2
S11316206DC080912503803280F4E091250381E030
S11316308E0F809325038091BB00F0E0EA5DFC4FA0
S1131640808385EC8093BC0059C085E88093BC00FE
S113165055C080912503803230F4E0912503F0E0F9
S1131660EA5DFC4F10822EDF6091250370E0E0916B
S11316708A03F0918B0386E293E019951092250377
S11316802CDF3CC085E88093BC0038C084E08093A4
S113169091031092470310924603E0918C03F0915A
S11316A08D03199580914603811105C081E08093D3
S11316B0460310924803E091470381E08E0F809324
S11316C04703F0E0E85BFC4F80818093BB0090917E
S11316D0470380914603981720F485EC8093BC005F
S11316E00DC085E88093BC0009C085EC8093BC00E4
S11316F01092910303C010922403E4DEFF91EF9152
S1131700BF91AF919F918F917F916F915F914F9115
S11317103F912F910F900BBE0F900FBE0F901F9013
S113172018958091C20390E02091C303821B910914
S113173008959091C3038091C203981750F4E92F40
S1131740F0E0EC53FC4F208130E09F5F9093C303A3
S113175002C02FEF3FEFC9010895E091C3038091C8
S1131760C203E81730F4F0E0EC53FC4F808190E0C2
S113177008958FEF9FEF08950895CF92DF92EF922F
S1131780FF920F931F93CF93DF938C01CB016A01D8
S113179020919E032223A1F04115510599F0EB01FC
S11317A07B01E40EF51E6991D801ED91FC91019045
S11317B0F081E02DC8011995CE15DF05A1F702C00F
S11317C0642F5FDEC601DF91CF911F910F91FF90CF
S11317D0EF90DF90CF900895CF93DF931F92CDB712
S11317E0DEB7FC01698390919E039923D9F090910F
S11317F09F03903238F081E090E09383828380E00D
S113180090E016C08091A003E82FF0E0EF55FC4F64
S1131810998190838F5F8093A00380939F0381E0DD
S113182090E006C061E0CE0101962BDE81E090E0FD
S11318300F90DF91CF910895FC011382128288EEFC
S113184093E0A0E0B0E084839583A683B78380EC23
S113185092E09183808308951092C3031092C2038F
S11318601092A00310929F0345CD0895862F413214
S113187008F040E264EC73E05BDD1092C3038093F4
S1131880C203089521E0F2CF089581E080939E037E
S11318906093C1031092A00310929F0308950F93C5
S11318A0062F21E040919F0361EA73E08091C10318
S11318B08BDD1092A00310929F0310929E030F9150
S11318C0089561E0ECCF089582E993E0B5CF0895DF
S11318D0089526E040E855E260E070E086EE93E08B
S11318E023D182E090E04BD4FC01118210829093CA
S11318F0E5038093E40320E044E064E18CE093E0BA
S1131900E4DC61E08CE093E031DC40E060E08CE01A
S113191093E060DB6CEC72E08CE093E061D468EB04
S11319207BE080E090E0C3D76DED72E08CE093E063
S113193057C408950E94DA18FC01918D228D892FD5
S113194090E0805C9F4F821B91098F7399270895C3
S1131950FC01918D828D981731F0828DE80FF11D75
S1131960858D90E008958FEF9FEF0895FC01918D90
S1131970828D981761F0828DDF01A80FB11D5D96ED
S11319808C91928D9F5F9F73928F90E008958FEF5B
S11319909FEF089582E69EE0892B41F080E090E07D
S11319A0892B21F08FD181110E9400008DEF9EE0E0
S11319B0892B41F080E090E0892B21F01ED2811127
S11319C00E94000088E99FE0892B41F080E090E0CC
S11319D0892B21F0ADD281110E94000083E390E1B4
S11319E0892B41F080E090E0892B21F03CD38111D8
S11319F00E9400000895FC01848DDF01A80FB11D31
S1131A00A35ABF4F8C91248D30E02F5F3F4F2F732B
S1131A103078332334F421503109206C3F6F2F5F29
S1131A203F4F248FA689B7898C93A089B1898C9163
S1131A3080648C93938D848D981306C00288F389F7
S1131A40E02D80818F7D80830895CF93DF93EC0117
S1131A50888D81110EC017C00FB607FC0CC0908191
S1131A6095FF09C0A889B9898C9185FF04C0CE016E
S1131A70C2DFEA89FB89908195FDEECFA889B989F7
S1131A808C9186FFE9CFDF91CF9108950F931F9337
S1131A90CF93DF93FC0181E0808F938D848D981325
S1131AA021C0A089B1898C9185FD2EC01BC00FB6C1
S1131AB007FC07C0E889F989808185FF02C0CE014F
S1131AC09ADF9C8D091799F38B8DFE01E80FF11DA8
S1131AD0E35AFF4F10830B8FEA89FB898081806270
S1131AE080831BC0238D30E02F5F3F4F2F733078EE
S1131AF0332334F421503109206C3F6F2F5F3F4F63
S1131B00162FEF01022FDDCFA689B7896C930088C9
S1131B10F189E02D80818064808381E090E0DF9111
S1131B20CF911F910F910895BF92CF92DF92EF92C0
S1131B30FF920F931F93CF93DF93EC016A017B0114
S1131B40B22EE889F98982E080834115514E6105FE
S1131B507105B1F060E079E08DE390E0A7019601B2
S1131B600E949F1689019A01015011092109310926
S1131B703695279517950795011580E11807A8F064
S1131B80E889F989108260E874E88EE190E0A701A1
S1131B9096010E949F16DA01C9010197A109B109B2
S1131BA0B695A795979587958C01EC85FD8510834F
S1131BB0EE85FF850083188EEC89FD89B082EA8961
S1131BC0FB89808180618083EA89FB8980818860C8
S1131BD08083EA89FB89808180688083EA89FB8924
S1131BE080818F7D8083DF91CF911F910F91FF9032
S1131BF0EF90DF90CF90BF9008951F920F920FB691
S1131C000F9211240BB60F922F938F939F93AF9340
S1131C10BF93EF93FF93E091F603F091F703808174
S1131C2082FD14C0E6EEF3E0A689B7892C91818D7C
S1131C308F5F8F73928D891771F0DF01E18DF0E072
S1131C40EA51FC4F258F59968C9305C0E091FC0313
S1131C50F091FD038081FF91EF91BF91AF919F912E
S1131C608F912F910F900BBE0F900FBE0F901F906E
S1131C7018951F920F920FB60F9211240BB60F9264
S1131C802F933F934F935F936F937F938F939F9380
S1131C90AF93BF93EF93FF9386EE93E0ACDEFF9197
S1131CA0EF91BF91AF919F918F917F916F915F91D0
S1131CB04F913F912F910F900BBE0F900FBE0F903D
S1131CC01F90189586EE93E037DE21E0892B09F406
S1131CD020E0822F0895E6EEF3E01382128288EE6C
S1131CE093E0A0E0B0E084839583A683B78386EE77
S1131CF092E09183808385EC90E09587848784ECDF
S1131D0090E09787868780EC90E0918B808B81ECC4
S1131D1090E0938B828B82EC90E0958B848B86ECA5
S1131D2090E0978B868B118E128E138E148E0895ED
S1131D301F920F920FB60F9211240BB60F922F938E
S1131D408F939F93AF93BF93EF93FF93E09193048B
S1131D50F0919404808182FD14C0E3E8F4E0A68944
S1131D60B7892C91818D8F5F8F73928D891771F054
S1131D70DF01E18DF0E0ED57FB4F258F59968C93F1
S1131D8005C0E0919904F0919A048081FF91EF914C
S1131D90BF91AF919F918F912F910F900BBE0F9098
S1131DA00FBE0F901F9018951F920F920FB60F92AF
S1131DB011240BB60F922F933F934F935F936F931E
S1131DC07F938F939F93AF93BF93EF93FF9383E896
S1131DD094E011DEFF91EF91BF91AF919F918F91AC
S1131DE07F916F915F914F913F912F910F900BBE17
S1131DF00F900FBE0F901F90189583E894E09CDD20
S1131E0021E0892B09F420E0822F0895E3E8F4E02F
S1131E101382128288EE93E0A0E0B0E0848395837D
S1131E20A683B78386EE92E0918380838DEC90E065
S1131E30958784878CEC90E09787868788EC90E080
S1131E40918B808B89EC90E0938B828B8AEC90E071
S1131E50958B848B8EEC90E0978B868B118E128EF3
S1131E60138E148E08951F920F920FB60F921124A1
S1131E700BB60F922F938F939F93AF93BF93EF93D0
S1131E80FF93E0913005F0913105808182FD14C00B
S1131E90E0E2F5E0A689B7892C91818D8F5F8F737D
S1131EA0928D891771F0DF01E18DF0E0E05EFA4F69
S1131EB0258F59968C9305C0E0913605F09137052E
S1131EC08081FF91EF91BF91AF919F918F912F915D
S1131ED00F900BBE0F900FBE0F901F9018951F927E
S1131EE00F920FB60F9211240BB60F922F933F93BC
S1131EF04F935F936F937F938F939F93AF93BF930E
S1131F00EF93FF9380E295E076DDFF91EF91BF912F
S1131F10AF919F918F917F916F915F914F913F917D
S1131F202F910F900BBE0F900FBE0F901F9018951E
S1131F3080E295E001DD21E0892B09F420E0822F85
S1131F400895E0E2F5E01382128288EE93E0A0E0C7
S1131F50B0E084839583A683B78386EE92E0918371
S1131F60808385ED90E09587848784ED90E0978762
S1131F70868780ED90E0918B808B81ED90E0938B50
S1131F80828B82ED90E0958B848B86ED90E0978B2D
S1131F90868B118E128E138E148E08951F920F92BB
S1131FA00FB60F9211240BB60F922F938F939F931A
S1131FB0AF93BF93EF93FF93E091CD05F091CE05DE
S1131FC0808182FD14C0EDEBF5E0A689B7892C91E0
S1131FD0818D8F5F8F73928D891771F0DF01E18D91
S1131FE0F0E0E354FA4F258F59968C9305C0E091A5
S1131FF0D305F091D4058081FF91EF91BF91AF910A
S11320009F918F912F910F900BBE0F900FBE0F9049
S11320101F9018951F920F920FB60F9211240BB6B2
S11320200F922F933F934F935F936F937F938F936D
S11320309F93AF93BF93EF93FF938DEB95E0DBDC1E
S1132040FF91EF91BF91AF919F918F917F916F918C
S11320505F914F913F912F910F900BBE0F900FBE48
S11320600F901F9018958DEB95E066DC21E0892B8D
S113207009F420E0822F0895EDEBF5E0138212823B
S113208088EE93E0A0E0B0E084839583A683B783D1
S113209086EE92E09183808385E391E0958784873F
S11320A084E391E09787868780E391E0918B808B2E
S11320B081E391E0938B828B82E391E0958B848B17
S11320C086E391E0978B868B118E128E138E148E7D
S11320D0089508958F929F92AF92BF92CF92DF920C
S11320E0EF92FF920F931F93CF93DF935C017B01D9
S11320F04C0182E0880E911C6501E5E0CE0ED11CF6
S113210000E010E0F40161914F014AE050E0C701A2
S113211021D1EC016EE2C70179D08C0F9D1F080F0D
S1132120191F8C149D0471F74AE050E0F501658194
S1132130C70110D1800F911FDF91CF911F910F9193
S1132140FF90EF90DF90CF90BF90AF909F908F90D3
S11321500895EAE5F6E086EF92E0918380831282A7
S113216013821482158208950895D5D3FDDFB1DB5F
S1132170CAECDCE0ADDB2097E9F30CDCFBCF09C64D
S113218008959CC60895CF92DF92EF92FF920F9329
S11321901F93CF93DF9341155105B1F08C01E62EC7
S11321A0F72EEA01C12CD12CD7016D917D01D80104
S11321B0ED91FC910190F081E02DC8011995C80EB4
S11321C0D91E219789F702C0C12CD12CC601DF91F9
S11321D0CF911F910F91FF90EF90DF90CF900895D2
S11321E06115710581F0FB0101900020E9F7319739
S11321F0AF01461B570BDC01ED91FC910280F3818A
S1132200E02D1995089580E090E00895DC01ED91AA
S1132210FC910190F081E02D19950895DC01ED9178
S1132220FC910280F381E02D42E050E068EF72E01F
S1132230199508950F931F93CF93DF93EC01D0DF8B
S11322408C01CE01EBDF800F911FDF91CF911F91A5
S11322500F9108954F925F926F927F929F92AF92E7
S1132260BF92CF92DF92EF92FF920F931F93CF937F
S1132270DF93CDB7DEB7A1970FB6F894DEBF0FBEDC
S1132280CDBF5C016A017B01922E19A281E0821705
S113229020F00F2EFAE09F2EF02D8E010F5D1F4FC0
S11322A0492C512C612C712CC701B601A301920158
S11322B046D58C2D929E80191124015011098A3023
S11322C010F4805D01C0895CD8018C93C22ED32E9A
S11322D0E42EF52EC114D104E104F10429F701150B
S11322E0110591F0F80101900020E9F73197AF0151
S11322F0401B510BD501ED91FC910280F381E02D3F
S1132300B801C501199502C080E090E0A1960FB60E
S1132310F894DEBF0FBECDBFDF91CF911F910F9117
S1132320FF90EF90DF90CF90BF90AF909F907F9001
S11323306F905F904F9008952115310549F4DC01A9
S1132340ED91FC910190F081E02D642F1995089591
S113235081CF08959A01462F50E060E070E0ECCF01
S113236008958230A9F028F4882349F0813051F08F
S11323700895843021F1E8F0853039F10895109200
S11323806E000895EFE6F0E080818D7F80830895EC
S1132390E0E7F0E080818D7F808381E08093B0006E
S11323A0E1EBF0E08081887F846080831092B30049
S11323B00895E1E7F0E080818D7F80830895E2E76E
S11323C0F0E080818D7F80830895E3E7F0E08081F1
S11323D08D7F80830895CF93C82F809106028C133C
S11323E008C0EAE9F2E0E4918E2F9FEF9093060291
S11323F001C08FEFB6DF60E08C2F96D3CF910895A4
S11324001F920F920FB60F9211240BB60F922F93B7
S11324103F934F935F936F937F938F939F93AF9368
S1132420BF93EF93FF938091630690916406A0910C
S11324306506B0916606892B8A2B8B2B51F180910E
S11324406006E0916106F09162069081892780839D
S11324508091630690916406A0916506B09166062A
S1132460181619061A061B06BCF48091630690918F
S11324706406A0916506B09166060197A109B109A9
S11324808093630690936406A0936506B0936606F2
S113249003C0809106029FDFFF91EF91BF91AF913E
S11324A09F918F917F916F915F914F913F912F9168
S11324B00F900BBE0F900FBE0F901F9018951F9298
S11324C00F920FB60F9211240BB60F922F933F93D6
S11324D04F935F936F937F938F939F93AF93BF9328
S11324E0EF93FF9380916B0690916C06892B29F0F2
S11324F0E0916B06F0916C061995FF91EF91BF91F5
S1132500AF919F918F917F916F915F914F913F9187
S11325102F910F900BBE0F900FBE0F901F90189528
S11325201F920F920FB60F9211240BB60F922F9396
S11325303F934F935F936F937F938F939F93AF9347
S1132540BF93EF93FF9380916D0690916E06892B54
S113255029F0E0916D06F0916E061995FF91EF91C7
S1132560BF91AF919F918F917F916F915F914F91A7
S11325703F912F910F900BBE0F900FBE0F901F90A5
S113258018951F920F920FB60F9211240BB60F924B
S11325902F933F934F935F936F937F938F939F9367
S11325A0AF93BF93EF93FF9380916F069091700662
S11325B0892B29F0E0916F06F09170061995FF912F
S11325C0EF91BF91AF919F918F917F916F915F91A7
S11325D04F913F912F910F900BBE0F900FBE0F9014
S11325E01F9018951F920F920FB60F9211240BB6DD
S11325F00F922F933F934F935F936F937F938F9398
S11326009F93AF93BF93EF93FF9380917106909143
S11326107206892B29F0E0917106F09172061995E2
S1132620FF91EF91BF91AF919F918F917F916F91A6
S11326305F914F913F912F910F900BBE0F900FBE62
S11326400F901F9018951F920F920FB60F9211249E
S11326500BB60F922F933F934F935F936F937F9398
S11326608F939F93AF93BF93EF93FF9380916706EC
S113267090916806892B29F0E0916706F09168062D
S11326801995FF91EF91BF91AF919F918F917F9198
S11326906F915F914F913F912F910F900BBE0F90CF
S11326A00FBE0F901F9018951F920F920FB60F92A6
S11326B011240BB60F922F933F934F935F936F9315
S11326C07F938F939F93AF93BF93EF93FF938091E7
S11326D0690690916A06892B29F0E0916906F091C8
S11326E06A061995FF91EF91BF91AF919F918F91D8
S11326F07F916F915F914F913F912F910F900BBEFE
S11327000F900FBE0F901F9018951F920F920FB647
S11327100F9211240BB60F922F933F934F935F9315
S11327206F937F938F939F93AF93BF93EF93FF9395
S11327308091730690917406892B29F0E0917306B9
S1132740F09174061995FF91EF91BF91AF919F910C
S11327508F917F916F915F914F913F912F910F9046
S11327600BBE0F900FBE0F901F9018951F920F92E3
S11327700FB60F9211240BB60F922F933F934F93E2
S11327805F936F937F938F939F93AF93BF93EF93D5
S1132790FF938091750690917606892B29F0E0913C
S11327A07506F09176061995FF91EF91BF91AF915F
S11327B09F918F917F916F915F914F913F912F9155
S11327C00F900BBE0F900FBE0F901F9018951F9285
S11327D00F920FB60F9211242F933F938F939F93D1
S11327E0AF93BF938091780690917906A0917A0671
S11327F0B0917B063091770623E0230F2D3720F428
S11328000196A11DB11D05C026E8230F0296A11D46
S1132810B11D209377068093780690937906A09350
S11328207A06B0937B0680917C0690917D06A091F8
S11328307E06B0917F060196A11DB11D80937C0692
S113284090937D06A0937E06B0937F06BF91AF91CF
S11328509F918F913F912F910F900FBE0F901F90DA
S113286018953FB7F89480917C0690917D06A091CD
S11328707E06B0917F0626B5A89B05C02F3F19F0B0
S11328800196A11DB11D3FBFBA2FA92F982F8827EC
S1132890820F911DA11DB11DBC01CD01660F771FD3
S11328A0881F991F660F771F881F991F0895CF925D
S11328B0DF92EF92FF92CF93DF936B017C01D1DF24
S11328C0EB01C114D104E104F10499F002DCC9DF85
S11328D06C1B7D0B683E734038F081E0C81AD10848
S11328E0E108F108C851DC4FC114D104E104F1043A
S11328F069F7DF91CF91FF90EF90DF90CF9008952B
S11329008230910538F0880F991F880F991F059719
S11329100197F1F70895789484B5826084BD84B5F5
S1132920816084BD85B5826085BD85B5816085BDC6
S1132930EEE6F0E0808181608083E1E8F0E01082DF
S1132940808182608083808181608083E0E8F0E020
S1132950808181608083E1EBF0E08081846080830A
S1132960E0EBF0E0808181608083E1E9F0E0808148
S113297082608083808181608083E0E9F0E08081EF
S113298081608083E1EAF0E08081826080838081DD
S113299081608083E0EAF0E0808181608083E1E20D
S11329A0F1E0808182608083808181608083E0E2C5
S11329B0F1E0808181608083EAE7F0E080818460D7
S11329C08083808182608083808181608083808134
S11329D0806880831092C100089590E0FC013197D3
S11329E0E231F10508F060C08827E55CFE4F8F4FA7
S11329F0C8C1E0E8F0E080818F7780830895E0E843
S1132A00F0E080818F7D80830895E0E8F0E08081AC
S1132A10877F8083089584B58F7784BD089584B5B6
S1132A208F7D84BD0895E0EBF0E080818F77808313
S1132A300895E0EBF0E080818F7D80830895E0E9E4
S1132A40F0E080818F7780830895E0E9F0E0808171
S1132A508F7D80830895E0E9F0E08081877F808323
S1132A600895E0EAF0E080818F7780830895E0EABA
S1132A70F0E080818F7D80830895E0EAF0E080813A
S1132A80877F80830895E0E2F1E080818F778083FF
S1132A900895E0E2F1E080818F7D80830895E0E293
S1132AA0F1E08081877F80830895CF93DF9390E066
S1132AB0FC01EF51FD4F2491FC01E95DFC4F849131
S1132AC0882379F190E0880F991FFC01EF55FC4FA2
S1132AD0A591B491FC01E957FC4FC591D4916111C2
S1132AE00CC09FB7F8948C91E22FE0958E238C93C1
S1132AF02881E223E8839FBF14C0623061F49FB74A
S1132B00F8943C91822F809583238C93E881E22B67
S1132B10E8839FBF06C08FB7F894EC91E22BEC9347
S1132B208FBFDF91CF9108951F93CF93DF93282F09
S1132B3030E0F901E556FD4F8491F901EF51FD4F65
S1132B401491F901E95DFC4FC491CC23C9F0D62F4F
S1132B50811143DFEC2FF0E0EE0FFF1FE957FC4F2C
S1132B60A591B4918FB7F894D11106C09C91E12F2F
S1132B70E095E923EC9303C0EC91E12BEC938FBF38
S1132B80DF91CF911F910895CF93DF93282F30E0E9
S1132B90F901E556FD4F8491F901EF51FD4FD491B0
S1132BA0F901E95DFC4FC491CC2389F0811115DF53
S1132BB0EC2FF0E0EE0FFF1FE359FC4FA591B49109
S1132BC0EC91ED2381E090E021F480E002C080E00C
S1132BD090E0DF91CF910895FC01808191816EC1D5
S1132BE00895CF93DF93EC0188819981009709F0D0
S1132BF065D1198218821D821C821B821A82DF9180
S1132C00CF9108950F931F93CF93DF93EC018B0122
S1132C106F5F7F4F88819981E9D1009731F0998363
S1132C2088831B830A8381E001C080E0DF91CF9118
S1132C301F910F910895CF93DF93FC01208131817F
S1132C40232B29F0228133812617370768F4EC01FE
S1132C50D9DF882361F08C819D81892B39F4E88147
S1132C60F981108281E003C081E001C081E0DF913D
S1132C70CF910895EF92FF920F931F93CF93DF9319
S1132C80EC017B018A01BA01D6DF811103C0CE01B8
S1132C90A8DF06C01D830C83B7018881998197D270
S1132CA0CE01DF91CF911F910F91FF90EF90089586
S1132CB0FC01118210821382128215821482611522
S1132CC0710549F0FB0101900020E9F73197AF014C
S1132CD0461B570BCFCF0895CF93DF93EC01FB0135
S1132CE08617970751F0608171816115710521F094
S1132CF044815581BFDF01C074DFCE01DF91CF91E4
S1132D000895FC01118210821382128215821482AA
S1132D10E3CF0895CF93DF93EC016115710551F072
S1132D20FB0101900020E9F73197AF01461B570BD7
S1132D30A1DF01C056DFCE01DF91CF910895A1E25A
S1132D401A2EAA1BBB1BFD010DC0AA1FBB1FEE1F21
S1132D50FF1FA217B307E407F50720F0A21BB30B6C
S1132D60E40BF50B661F771F881F991F1A9469F7E8
S1132D7060957095809590959B01AC01BD01CF0144
S1132D800895EE0FFF1F881F8BBF0790F691E02D6B
S1132D901994CF93DF938230910510F482E090E090
S1132DA0E0918206F091830620E030E0C0E0D0E0BC
S1132DB0309711F14081518148175907C0F04817E5
S1132DC0590761F482819381209719F09B838A8348
S1132DD02BC0909383068093820626C0211531056B
S1132DE019F04217530718F49A01BE01DF01EF01ED
S1132DF00280F381E02DDCCF2115310509F1281B78
S1132E00390B2430310590F412968D919C911397CF
S1132E106115710521F0FB019383828304C09093B3
S1132E20830680938206FD01329644C0FD01E20FC1
S1132E30F31F81939193225031092D933C933AC00F
S1132E402091800630918106232B41F420910202C7
S1132E503091030230938106209380062091000272
S1132E60309101022115310541F42DB73EB740914F
S1132E70040250910502241B350BE0918006F09169
S1132E808106E217F307A0F42E1B3F0B281739071E
S1132E9078F0AC014E5F5F4F2417350748F04E0FB2
S1132EA05F1F50938106409380068193919302C0E3
S1132EB0E0E0F0E0CF01DF91CF9108950F931F93ED
S1132EC0CF93DF93009709F48CC0FC0132971382EF
S1132ED0128200918206109183060115110581F476
S1132EE020813181820F931F2091800630918106C9
S1132EF02817390779F5F0938106E093800671C0AD
S1132F00D80140E050E0AE17BF0750F412962D915F
S1132F103C911397AD012115310509F1D901F3CF86
S1132F209D01DA013383228360817181860F971FAB
S1132F308217930769F4EC0128813981260F371F22
S1132F402E5F3F4F318320838A819B8193838283C9
S1132F50452B29F4F0938306E093820642C013962E
S1132F60FC93EE931297ED01499159919E01240F20
S1132F70351FE217F30771F480819181840F951F47
S1132F80029611969C938E938281938113969C93BF
S1132F908E931297E0E0F0E0D80112968D919C9107
S1132FA01397009719F0F8018C01F6CF8D919C913D
S1132FB098012E5F3F4F820F931F2091800630911E
S1132FC081062817390769F4309729F4109283068B
S1132FD01092820602C0138212821093810600931B
S1132FE08006DF91CF911F910F9108956F927F9288
S1132FF08F929F92AF92BF92CF92DF92EF92FF9205
S11330000F931F93CF93DF93EC01009781F4CB01CF
S1133010DF91CF911F910F91FF90EF90DF90CF90B0
S1133020BF90AF909F908F907F906F90B2CEFC0135
S1133030E60FF71F9C0122503109E217F30708F449
S1133040A8C0D9010D911C91119706171707A8F074
S11330500530110508F49BC0C8010497861797072B
S113306008F495C002501109061B170B0193119324
S11330706D937C93CF0122DF8AC05B01A01AB10A51
S11330804C01800E911EA0918206B091830640E00F
S113309050E0E12CF12C109709F44AC0A815B905A9
S11330A0D1F56D907C901197630182E0C80ED11C1C
S11330B0CA14DB0480F1A3014A195B096A0182E0A6
S11330C0C80ED11C1296BC9012971396AC91B5E021
S11330D0CB16D10440F0B282A38351834083D9013B
S11330E06D937C930AC00E5F1F4FC301800F911F25
S11330F0F90191838083EB2DFA2FE114F10431F06F
S1133100D7011396FC93EE93129741C0F093830674
S1133110E09382063CC08D919C9111974817590702
S113312008F4AC017D0112960D90BC91A02DB3CF93
S1133130809180069091810688159905E1F44617DF
S11331405707C8F48091000290910102009741F45E
S11331508DB79EB74091040250910502841B950BD4
S1133160E817F907B0F4F0938106E0938006F901BB
S1133170718360830CC0CB010CDE7C01009749F0A5
S1133180A801BE011BD0CE0199DEC70104C0CE0147
S113319002C080E090E0DF91CF911F910F91FF90EA
S11331A0EF90DF90CF90BF90AF909F908F907F90E3
S11331B06F90089581E090E0F89410C0FB01DC0169
S11331C002C001900D9241505040D8F70895FB0180
S11331D0DC0101900D920020E1F70895F894FFCFEF
S11331E0000084062000FF484C54004578697400B0
S11331F04261636B0048657265003E3E2D002D3CC4
S11332003C004865726532003E00486572653400D2
S11332100000000060029A05FB0295027B05F6049B
S1133220670443034C0464025858580020200044A7
S11332306973706C617969674D656E75004D656E73
S113324075446973706C61796564004D61696E20C1
S11332504D656E75004D6F6E69746F7200536574C1
S113326074696E677300446961676E6F7374696330
S1133270730041646465644D656E75000000000070
S1133280BE07C3103008BC07BD079A0C000000003D
S1133290BE07C3106509A208B6084409000000006F
S11332A0EC0BBD0B910B990BAD0BBC0B50726F6A01
S11332B0656374204E61727768616C2E00484C54CB
S11332C02E0000000000460DC3109C0CB60CA80C88
S11332D0250D000000006A100D0A006E616E006981
S10B32E06E66006F76660000C3
S9030000FC
