:10000000D5C300000C94B0280C94E1280C9412295C
:100010000C9443290C9474290C94A5290C94D6298A
:100020000C94072AF4C30000F2C30000F0C30000E0
:10003000EEC300000C945128EAC30000E8C300009E
:10004000E6C30000E4C30000E2C30000E0C3000018
:100050000C94571DDCC30000DAC300000C94382A4E
:10006000D6C300000C94E8220C942423D0C30000D3
:10007000CEC30000CCC30000CAC30000C8C3000048
:10008000C6C30000C4C30000C2C30000C0C3000058
:100090000C9483230C94BF23BAC300000C947B1EE2
:1000A000B6C30000B4C30000B2C30000B0C3000078
:1000B000AEC30000ACC30000AAC30000A8C3000088
:1000C000A6C30000A4C30000A2C300000C941E2419
:1000D0000C945A249CC300000C94B9240C94F5246D
:1000E00096C30000B206B906D406EF0608071F073C
:1000F0003807510768076F078807A107B807CF07B8
:10010000E8070108831F861F861F861F861F861F1C
:10011000861F861F9D1E861F861F861F861F861FA1
:10012000861F861F9D1E861F861F861F861F861F91
:10013000861F861FA51E861F861F861F861F861F79
:10014000861F861FCA1E861F861F861F861F861F44
:10015000861F861FA51E861F861F861F861F861F59
:10016000861F861FCF1E861F861F861F861F861F1F
:10017000861F861FD41E861F861F861F861F861F0A
:10018000861F861FE51E861F861F861F861F861FE9
:10019000861F861F0E1F861F861F861F861F861FAF
:1001A000861F861FD91E861F861F861F861F861FD5
:1001B000861F861FF31E861F861F861F861F861FAB
:1001C000861F861F101F861F861F861F861F861F7D
:1001D000861F861F101F861F861F861F861F861F6D
:1001E000861F861F101F861F861F861F861F861F5D
:1001F000861F861F101F861F861F861F861F861F4D
:10020000861F861F191F861F861F861F861F861F33
:10021000861F861F4A1F861F861F861F861F861FF2
:10022000861F861F191F861F861F861F861F861F13
:10023000861F861F4A1F861F861F861F861F861FD2
:10024000861F861F311F861F861F861F861F861FDB
:10025000861F861F4E1F861F861F861F861F861FAE
:10026000861F861F4E1F861F861F861F861F861F9E
:10027000861F861F631F861F861F861F861F861F79
:10028000861F861F7D1F861F861F861F861F861F4F
:10029000861F861F7D1F8C2B902B7A2B802B862B05
:1002A000D52B942B9A2BA02BA62BAC2BB22BB82B97
:1002B000BE2BD52BC42BCA2BD02B000048C200006C
:1002C00020C20000F0C10000A0C1000020C1000059
:1002D0000000000020410000A0410000F0410000AB
:1002E0002042000048420000704200008C420000A2
:1002F000A0420000B4420000C8420000DC420000FE
:10030000F0420000024300000C43000016430000CE
:10031000204300002A430000344300003E43000015
:1003200048430000524300005C4300006643000065
:10033000704300007A4300008243000087430000BE
:100340008C430000914300009643B89EA0423D8A32
:10035000A842A470B042EC51B842142EC042000032
:10036000C842CDCCCF427B94D7420A57DF427B14A0
:10037000E742CDCCEE42E17AF642F628FE4266E64E
:100380000243C3B506438F820A433D4A0E43EC1134
:1003900012437BD415437B9419437B541D43CD0CEE
:1003A00021431FC52443E17A2843852B2C4329DCB4
:1003B0002F43AE873343A43037430AD73A435278AA
:1003C0003E439A194243C3B545435C4F494366E6F1
:1003D0004C43E17A5043CD0C544300000000000030
:1003E000000000000000000000000000000000000D
:1003F00000000000000000000000000000000000FD
:1004000000000000000000000000000000000000EC
:1004100000000000000000000000000000000000DC
:1004200000000000000000000000000000000000CC
:1004300000000000000000000000000000000000BC
:1004400000000000000000000000000000000000AC
:10045000000000000000000000000000000000009C
:10046000000000000000000000000000000000008C
:10047000000000000000000000000000000000007C
:10048000000000000000000000000000000000006C
:10049000000000000000000000000000000000005C
:1004A000000000000000000000000000000000004C
:1004B000000000000000000000000000000000003C
:1004C000000000000000000000000000000000002C
:1004D000000000000000000000000000000000001C
:1004E000000000000000000000000000000000000C
:1004F00000000000000000000000000000000000FC
:1005000000000000000000000000000000000000EB
:1005100000000000000000000000000000000000DB
:1005200000000000000000000000000000000000CB
:1005300000000000000000000000000000000000BB
:1005400000000000000000000000000000000000AB
:10055000000000000000000000000000000000009B
:10056000000000000000000000000000000000008B
:100570000200000A0B02090C0D0E0807030401001B
:10058000000000000000000000000000000000006B
:100590000000000000000000000000000012111028
:1005A000000000000000000000000000000000004B
:1005B00000000000000000010210202008081020A8
:1005C00040102040800201020108040201010204DF
:1005D000081020408080402010080402018004029E
:1005E00001804020100804020108040201010204F5
:1005F00008102040800102040810204080050505F5
:1006000005070508080808020202020A0A08080489
:1006100004040401010101010101010303030303B7
:10062000030303040707070C0C0C0C0C0C0C0C0246
:1006300002020206060606060606060B0B0B0B0B4D
:100640000B0B0B000020002300260029002C002F9C
:100650000032000001000003010601090100002230
:1006600000250028002B002E00310034000201007C
:1006700000050108010B0100002100240027002AC9
:10068000002D003000330001010000040107010AC1
:100690000100407A10F35A00A0724E18090010A50C
:1006A000D4E80000E87648170000E40B540200008C
:1006B000CA9A3B000000E1F5050000809698000012
:1006C0000040420F000000A086010000001027003B
:1006D000000000E803000000006400000000000AC1
:1006E00000000000000100000000002C76D888DC2B
:1006F000674F0823DFC1DFAE59E1B1B796E5E3E408
:1007000053C63AE651997696E8E6C28426EB898C80
:100710009B62ED407C6FFCEFBC9C9F40F2BAA56FE2
:10072000A5F490055A2AF75C936B6CF9676DC11BB1
:10073000FCE0E40D47FEF520E6B500D0ED902E0379
:1007400000943577050080841E080000204E0A00C2
:100750000000C80C333333330F986E12831141EF0E
:100760008D2114893BE65516CFFEE6DB18D1844B6C
:10077000381BF77C1D901DA4BBE424203284725EDC
:10078000228100C9F124ECA1E53D2700E209130F05
:100790004D0F2D100D126C20A6205623F1238C2412
:1007A000272594259D0D250FEC0F5D1111241FBEEB
:1007B000CFEFD1E2DEBFCDBF00E00CBF15E0A0E07F
:1007C000B2E0E4EBFBE600E00BBF02C007900D9245
:1007D000A432B107D9F72DE0A4E2B5E001C01D9223
:1007E000A330B207E1F713E0C2EDD3E000E006C0AA
:1007F00021970109802FFE010E947A30C63CD10763
:1008000080E00807A9F70E94A0250C94C935F8CB11
:10081000FC01828193810895CF93DF93EC0107C09F
:10082000E881F9810684F785E02DCE011995E881EC
:10083000F9810190F081E02DCE0119951816190665
:100840007CF3DF91CF910895EF92FF920F931F9366
:10085000CF93DF93FC0122813381121613060CF52E
:10086000EC0122303105ACF00480F581E02DE2800E
:10087000F38000811181CF010E94AD25FD82EC82C1
:100880008A819B8101979B838A831C86802F912F6D
:100890000AC00190F081E02D0484F585E02D1995C2
:1008A00002C080E090E0DF91CF911F910F91FF9007
:1008B000EF9008950F931F93CF93DF93EC018B017B
:1008C0008A819B81892B41F4E881F9810480F5813B
:1008D000E02DCE01199518C084E090E00E94AA2571
:1008E000FC0111821082138212828C819D8193837C
:1008F000828311830083FD83EC838A819B8101962F
:100900009B838A831C8681E0DF91CF911F910F9199
:1009100008950F931F93CF93DF93EC018B0184E035
:1009200090E00E94AA25FC011382128211830083A9
:100930002C813D81232B39F0EE81FF8193838283CB
:100940009F838E8304C09D838C839F838E838A8143
:100950009B8101969B838A831C8681E0DF91CF91E6
:100960001F910F910895DC011496ED91FC9115975C
:100970001C968C911C97882361F01A962D913C91BE
:100980001B976217730744F01896ED91FC91199725
:1009900005C020E030E002C020E030E02617370735
:1009A00064F4309751F00280F381E02D2F5F3F4FC8
:1009B0002617370714F43097B1F72617370779F45D
:1009C00081E01C968C931C971B963C932E931A9750
:1009D0001996FC93EE9318978E2F9F2F089580E021
:1009E00090E00895C0DF009721F0FC0180819181A3
:1009F000089580E090E00895EF92FF920F931F9387
:100A0000CF93DF93FC01628173811616170674F58C
:100A1000EC01148662307105CCF062507109A3DFDD
:100A20007C01FC0182819381FC01008111810E9483
:100A3000AD25F70113821282FF82EE828A819B81AB
:100A400001979B838A83802F912F12C08481958187
:100A5000FC01008111810E94AD251D821C821F8234
:100A60001E821B821A82802F912F02C080E090E0AC
:100A7000DF91CF911F910F91FF90EF9008950F9309
:100A80001F93CF93DF937723DCF1DC0112962D9136
:100A90003C91139762177307B4F5EC01611571056A
:100AA00039F4E881F9810684F785E02D19952DC088
:100AB000215031092617370739F4E881F981048478
:100AC000F585E02D199521C0615071094CDFDC01DD
:100AD0001296ED91FC91139700811181228133814F
:100AE00013963C932E931297CF010E94AD258A81D5
:100AF0009B8101979B838A831C86802F912F05C041
:100B000080E090E002C080E090E0DF91CF911F9103
:100B10000F910895CF93DF9377236CF0FC0122812E
:100B20003381621773074CF4EA011DDFFC01D183A6
:100B3000C08381E003C080E001C080E0DF91CF91FD
:100B40000895CF92DF92EF92FF920F931F93CF936E
:100B5000DF93EC018B016A018A819B816817790719
:100B60004CF0E881F9810480F581E02DBA01CE01D5
:100B700019952DC0672B49F4E881F9810680F7812A
:100B8000E02DBA01CE01199522C084E090E00E94C8
:100B9000AA257C01FC011182108213821282B80105
:100BA00061507109CE01DFDEF701D182C082FC0104
:100BB00022813381F70133832283FC01F382E282B5
:100BC0008A819B8101969B838A831C8681E0DF91C9
:100BD000CF911F910F91FF90EF90DF90CF900895EC
:100BE000CF93DF93EC0109960E946D2CCE01039602
:100BF0000E946D2CDF91CF910895CF93DF93EC018C
:100C00008A81882319F0823039F00BC088810E94D4
:100C1000452C988B8F8705C088810E94452C988B26
:100C20008F878F859889DF91CF9108950F931F93B8
:100C3000CF93DF93EC018B018A81813021F061E059
:100C400088810E94D62B188B0F8761E088810E94D3
:100C5000D62B6F8588810E94152CDF91CF911F9133
:100C60000F9108957F928F929F92AF92BF92CF92F1
:100C7000DF92EF92FF920F931F93CF93DF93EC01DC
:100C80005B01742E690148018FEF9FEF9983888380
:100C90001A827E0183E0E80EF11C65E272E0C70172
:100CA0000E94D92C8E01075F1F4F6AE272E0C801D3
:100CB0000E94D92CB982A8827A82B601C7010E940B
:100CC000ED2CB401C8010E94ED2CDF91CF911F9152
:100CD0000F91FF90EF90DF90CF90BF90AF909F90DB
:100CE0008F907F90089580E008950895CF93DF93CB
:100CF000EC0167E175E00E94D92CCE01DF91CF9124
:100D0000089524E332E0FC013183208312820895A8
:100D1000089580E008950895EF92FF920F931F9336
:100D2000CF93DF93CDB7DEB7C455D1090FB6F89492
:100D3000DEBF0FBECDBF7C018B0167E175E00E9475
:100D4000D92CD8011396EC914E2F50E0FA0131972F
:100D5000E031F10508F06BC18827EE58FF4F8F4F47
:100D60000C947A30F80160857185C7010E94ED2CE2
:100D70005EC1D8011896ED91FC911997408151817F
:100D80006281738122E0CE01815B9F4F0E94CA2D58
:100D9000BE01615B7F4FC7010E94ED2CCE01815BDC
:100DA0009F4F0E946D2C43C1D8011896ED91FC9184
:100DB0001997408151816281738122E0CE01875B66
:100DC0009F4F0E94F82DBE01675B7F4FC7010E94B5
:100DD000ED2CCE01875B9F4F0E946D2C28C1D8015E
:100DE0001896ED91FC911997608171814AE0CE01CE
:100DF0008D5B9F4F0E94202DBE016D5B7F4FC70111
:100E00000E94ED2CCE018D5B9F4F0E946D2C0FC177
:100E1000D8011896ED91FC911997608171814AE093
:100E2000CE01CD960E944A2DBE01635C7F4FC70163
:100E30000E94ED2CCE01CD960E946D2CF8C0D801F9
:100E40001896ED91FC9119974081518162817381CF
:100E50002AE0CE01C7960E94742DBE01695C7F4FC7
:100E6000C7010E94ED2CCE01C7960E946D2CDFC0F9
:100E7000D8011896ED91FC911997408151816281BA
:100E800073812AE0CE01C1960E949F2DBE016F5C46
:100E90007F4FC7010E94ED2CCE01C1960E946D2CA0
:100EA000C6C0D8011896ED91FC911997608170E049
:100EB0004AE0CE018B960E94202DBE01655D7F4FDA
:100EC000C7010E94ED2CCE018B960E946D2CAFC005
:100ED000F80160857185C7010E94ED2CA8C0D8017A
:100EE0001896ED91FC91199740815181628173812F
:100EF00022E0CE0185960E94CA2DBE016B5D7F4F18
:100F0000C7010E94ED2CCE0185960E946D2C8FC0EA
:100F1000D8011896ED91FC91199740815181628119
:100F2000738122E0CE014F960E94F82DBE01615ED2
:100F30007F4FC7010E94ED2CCE014F960E946D2C71
:100F400076C0D8011896ED91FC9119976081718156
:100F50004AE0CE0149960E94202DBE01675E7F4F78
:100F6000C7010E94ED2CCE0149960E946D2C5FC0F6
:100F7000D8011896ED91FC911997608171814AE032
:100F8000CE0143960E944A2DBE016D5E7F4FC70180
:100F90000E94ED2CCE0143960E946D2C48C0D801D2
:100FA0001896ED91FC91199740815181628173816E
:100FB0002AE0CE010D960E94742DBE01635F7F4F23
:100FC000C7010E94ED2CCE010D960E946D2C2FC002
:100FD000D8011896ED91FC91199740815181628159
:100FE00073812AE0CE0107960E949F2DBE01695FA2
:100FF0007F4FC7010E94ED2CCE0107960E946D2CF9
:1010000016C0D8011896ED91FC911997608170E097
:101010004AE0CE0101960E94202DBE016F5F7F4FF6
:10102000C7010E94ED2CCE0101960E946D2CC701D4
:10103000CC5ADF4F0FB6F894DEBF0FBECDBFDF91A5
:10104000CF911F910F91FF90EF9008952EE332E022
:10105000FC01318320835CCE08951F93CF93DF93EF
:10106000EC01162F4EDE8EE392E0998388838FEF9A
:101070009FEFDC018C839D83AE83BF831986188626
:1010800088E08B8381E090E00E94AA259987888779
:10109000FC011083DF91CF911F9108950F931F934F
:1010A000CF93DF93EC018B012CDE8EE392E09983EA
:1010B00088838FEF9FEFDC018C839D83AE83BF839A
:1010C0008AE08B8319870887DF91CF911F910F9159
:1010D000089581E00895CF93DF93EC016D5F7F4F1A
:1010E0000E94022DCE01DF91CF910895FC019B015A
:1010F0009185911106C062857385C9010C94C01752
:101100000895913029F462857385C9010C94CE1736
:101110000895CF92DF92EF92FF920F931F93CF9398
:10112000DF93EC016B017A01ECDD88E492E09983B6
:1011300088838E010D5F1F4F67E175E0C8010E9433
:10114000D92C19861B861A86B601C8010E94ED2C7F
:101150001986FB86EA86DF91CF911F910F91FF9050
:10116000EF90DF90CF900895CF92DF92EF92FF92B1
:101170000F931F93CF93DF93EC016B017A01C1DDD5
:1011800088E492E0998388838E010D5F1F4F67E1A9
:1011900075E0C8010E94D92C19861B861A86B601F3
:1011A000C8010E94ED2C81E08987FB86EA86DF91E9
:1011B000CF911F910F91FF90EF90DF90CF90089506
:1011C000CF93DF93EC0188E492E099838883CE018A
:1011D00003960E946D2CCE019BDDDF91CF91089587
:1011E000CF93DF93EC010D960E946D2CCE010796F4
:1011F0000E946D2CCE010E946D2CDF91CF9108953D
:10120000CF93DF93EC01FB018681882319F08130B5
:1012100051F00FC0FB01658976896D5F7F4FCE016C
:101220000E94022D06C0695F7F4FCE010E94022DF1
:1012300000C0CE01DF91CF910895CF93DF93EC01F1
:10124000FB018681882319F0813051F00FC0FB012A
:1012500065897689675F7F4FCE010E94022D06C0A7
:10126000635F7F4FCE010E94022D00C0CE01DF914F
:10127000CF910895DC0116962C91222319F021308C
:1012800039F00EC0FC0185899689B7DC9C0109C044
:10129000DC015396ED91FC915497208130E001C020
:1012A0000895822F932F0895CF93DF93DC01169634
:1012B0002C91222319F0213091F01AC0FC01C5892C
:1012C000D689CE019ADC892B29F060E070E0CE014E
:1012D000ADDC0EC061E070E0CE01A8DC09C0DC012D
:1012E0005396ED91FC915497908181E089278083FA
:1012F000DF91CF910895EF92FF920F931F93CF93B9
:10130000DF93EC017B018A0167E175E00E94D92C33
:1013100081E08E8365E272E0CE0107960E94D92CAF
:101320006AE272E0CE010D960E94D92C1C8A1B8ABB
:101330001E8A1D8AB701CE010E94ED2C1E821E8BD3
:101340000D8BDF91CF911F910F91FF90EF9008953A
:101350008CE197E00E940B1A88ED96E00E940B1A30
:1013600080E396E00E940B1A88E895E00C940B1A33
:101370000895EF920F93CF93DF93EC01E12C0E943D
:10138000C519198A188A1B8A1A8A1D8A1C8A1F8AFB
:101390001E8A198E188E1B8E1A8E1D8E1C8E1F8E05
:1013A0001E8E18A219A21AA21BA21CA21DA21EA266
:1013B0001FA219A618A61BA61AA6DF91CF910F91FE
:1013C000EF9008952F923F924F925F926F927F928B
:1013D0008F929F92AF92BF92CF92DF92EF92FF9245
:1013E0000F931F93CF93DF93CDB7DEB7C05CD109C6
:1013F0000FB6F894DEBF0FBECDBF6EE472E0CE0133
:1014000001960E94D92C61E572E0CE0107960E94F8
:10141000D92C8E010F5F1F4F9E01295F3F4F41E086
:1014200061E370E088E798E01DDCCE0107960E943A
:101430006D2CC8010E946D2C6EE472E0CE010D96F9
:101440000E94D92C61E572E0CE0143960E94D92C0E
:10145000045F1F4F9E012D5E3F4F41E060E370E04F
:1014600087E698E0FFDBCE0143960E946D2CC80111
:101470000E946D2C6EE472E0CE0149960E94D92C38
:1014800061E572E0CE014F960E94D92C045F1F4F98
:101490009E01215E3F4F41E06FE270E086E598E0FB
:1014A000E1DBCE014F960E946D2CC8010E946D2C8D
:1014B0006EE472E0CE0185960E94D92C61E572E05F
:1014C000CE018B960E94D92C045F1F4F9E01255D93
:1014D0003F4F41E06EE270E085E498E0C3DBCE016F
:1014E0008B960E946D2CC8010E946D2C6EE472E0F8
:1014F000CE01C1960E94D92C61E572E0CE01C7965B
:101500000E94D92C045F1F4F9E01295C3F4F41E090
:101510006DE270E084E398E0A5DBCE01C7960E94FF
:101520006D2CC8010E946D2C6EE472E0CE01CD9648
:101530000E94D92C61E572E0CE018D5B9F4F0E9425
:10154000D92C045F1F4F9E012D5B3F4F41E06CE2A1
:1015500070E083E298E086DBCE018D5B9F4F0E94B6
:101560006D2CC8010E946D2C6EE472E0CE01875B89
:101570009F4F0E94D92C61E572E0CE01815B9F4FA5
:101580000E94D92C045F1F4F9E01215B3F4F41E019
:101590006BE270E082E198E065DBCE01815B9F4FFA
:1015A0000E946D2CC8010E946D2C6EE472E0CE0189
:1015B0008B5A9F4F0E94D92C61E572E0CE01855A6B
:1015C0009F4F0E94D92C045F1F4F9E01255A3F4F09
:1015D00041E06AE270E081E098E044DBCE01855AA8
:1015E0009F4F0E946D2CC8010E946D2C6EE472E02A
:1015F000CE018F599F4F0E94D92C61E572E0CE0138
:1016000089599F4F0E94D92C045F1F4F9E01295971
:101610003F4F41E069E270E080EF97E023DBCE01CD
:1016200089599F4F0E946D2CC8010E946D2C6EE459
:1016300072E0CE0183599F4F0E94D92C61E572E080
:10164000CE018D589F4F0E94D92C045F1F4F9E01E1
:101650002D583F4F41E068E270E08FED97E002DBEC
:10166000CE018D589F4F0E946D2CC8010E946D2C99
:101670006EE472E0CE0187589F4F0E94D92C61E53D
:1016800072E0CE0181589F4F0E94D92C045F1F4FFA
:101690009E0121583F4F41E067E270E08EEC97E0F9
:1016A000E1DACE0181589F4F0E946D2CC8010E9443
:1016B0006D2C6EE472E0CE018B579F4F0E94D92CA7
:1016C00061E572E0CE0185579F4F0E94D92C045FDF
:1016D0001F4F9E0125573F4F41E066E270E08DEBC2
:1016E00097E0C0DACE0185579F4F0E946D2CC8014C
:1016F0000E946D2C6EE472E0CE018F569F4F0E94C7
:10170000D92C61E572E0CE0189569F4F0E94D92CF9
:10171000045F1F4F9E0129563F4F41E065E270E094
:101720008CEA97E09FDACE0189569F4F0E946D2C7C
:10173000C8010E946D2C6EE472E0CE0183569F4F6B
:101740000E94D92C61E572E0CE018D559F4F0E9419
:10175000D92C045F1F4F9E012D553F4F41E064E29D
:1017600070E08BE997E07EDACE018D559F4F0E94A5
:101770006D2CC8010E946D2C6EE472E0CE0187557D
:101780009F4F0E94D92C61E572E0CE0181559F4F99
:101790000E94D92C045F1F4F9E0121553F4F41E00D
:1017A00063E270E08AE897E05DDACE0181559F4FF1
:1017B0000E946D2CC8010E946D2C6EE472E0CE0177
:1017C0008B549F4F0E94D92C61E572E0CE01855465
:1017D0009F4F0E94D92C045F1F4F9E0125543F4FFD
:1017E00041E063E270E089E797E03CDACE0185549E
:1017F0009F4F0E946D2CC8010E946D2C2AEB32E095
:101800004AE453E064E270E08AED93E00E946D19CF
:101810000F2EF7E08F2EF02D0F2EF6E0AF2EF02DCD
:101820000F2EF5E0CF2EF02D6894EE24E2F800E0C4
:1018300021E042E067E288E497E00E94361C04E081
:1018400028E146E167E18CE197E093DD00E021E0EB
:1018500042E066E284E097E00E94361C04E02BE15F
:1018600049E16AE188ED96E084DD6894222426F857
:101870002F920F2EF0EA3F2EF02D3F921F921F92D3
:101880000F2EF2E49F2EF02D9F920F2EFCE44F2E90
:10189000F02D4F921F921F929F920F2EF8EC5F2E09
:1018A000F02D5F921F921F920F2EF4E46F2EF02DF9
:1018B0006F920F2EFAEF7F2EF02D7F921F921F92C4
:1018C0000F2EA12CB12CFAEFCF2EF4E4DF2EF02D49
:1018D000E090DA03F090DB030091DC031091DD036C
:1018E0002091DE033091DF0347E350E066E370E0D0
:1018F00086EA96E00E9475192F923F921F921F92DE
:101900009F924F921F921F929F925F921F921F92DF
:101910006F927F921F921F92E090DA03F090DB03A8
:101920000091DC031091DD032091DE033091DF0391
:1019300048E350E066E370E084E796E00E947519A2
:101940000FB6F894DEBF0FBECDBF0F2EF6E0AF2E60
:10195000F02D0F2EF5E0CF2EF02D6894EE24E2F856
:1019600000E021E042E065E28CE596E00E94361C52
:1019700004E02EE14CE16DE180E396E0FADC2F9289
:101980003F921F921F929F924F921F921F929F927F
:101990005F921F921F926F927F921F921F920F2E43
:1019A000A12CB12CFAEFCF2EF4E4DF2EF02DE09035
:1019B000DA03F090DB030091DC031091DD0320914A
:1019C000DE033091DF0349E350E066E370E08EEF21
:1019D00095E00E9475192F923F921F921F929F923D
:1019E0004F921F921F929F925F921F921F926F922F
:1019F0007F921F921F92E090DA03F090DB03009138
:101A0000DC031091DD032091DE033091DF034AE314
:101A100050E066E370E08CEC95E00E9475190FB61B
:101A2000F894DEBF0FBECDBF0F2EF6E0AF2EF02D27
:101A30000F2EF5E0CF2EF02D6894EE24E2F800E0B2
:101A400021E042E063E284EB95E00E94361C04E072
:101A500021E24FE160E288E895E08BDC2F923F9233
:101A60001F921F929F924F921F921F929F925F927E
:101A70001F921F926F927F921F921F920F2EA12C86
:101A8000B12CFAEFCF2EF4E4DF2EF02DE090DA0344
:101A9000F090DB030091DC031091DD032091DE0365
:101AA0003091DF034CE350E06BE370E086E595E0B6
:101AB0000E9475192F923F921F921F929F924F92F0
:101AC0001F921F929F925F921F921F926F927F921E
:101AD0001F921F92E090DA03F090DB030091DC0389
:101AE0001091DD032091DE033091DF034DE350E0E0
:101AF0006BE370E084E295E00E9475190FB6F894EC
:101B0000DEBF0FBECDBFC054DF4F0FB6F894DEBFAF
:101B10000FBECDBFDF91CF911F910F91FF90EF903E
:101B2000DF90CF90BF90AF909F908F907F906F90FD
:101B30005F904F903F902F90089588E895E07CD477
:101B400080E396E079D488ED96E076D48CE197E056
:101B500073D489E797E044D88AE897E041D88BE9C5
:101B600097E03ED88CEA97E03BD88DEB97E038D8E9
:101B70008EEC97E035D88FED97E032D880EF97E084
:101B80002FD881E098E02CD882E198E029D883E230
:101B900098E026D884E398E023D885E498E020D81C
:101BA00086E598E01DD887E698E01AD888E798E09F
:101BB00017C8089565E572E085E69AE00E9416264A
:101BC00085E69AE00E9410226EE572E085E69AE0D2
:101BD0000E94EC2585E69AE00E9410226EE572E0F4
:101BE00085E69AE00E94EC2585E69AE00E941022A4
:101BF00040E063E088E497E00E940C1C61E088E428
:101C000097E00E94201C20E044E064E188E497E033
:101C10000E94031D40E063E084E097E00E940C1CFA
:101C200061E084E097E00E94201C20E044E064E151
:101C300084E097E00E94031D40E063E08CE596E0BD
:101C40000E940C1C61E08CE596E00E94201C20E0C4
:101C500044E064E18CE596E00E94031D40E063E00F
:101C600084EB95E00E940C1C61E084EB95E00E94FF
:101C7000201C20E044E064E184EB95E00E94031D19
:101C800063E772E085E69AE00E94162669E772E053
:101C900085E69AE00E94EC2585E69AE00E941022F3
:101CA000E1E8F0E080E180831092800091E0909381
:101CB000900920E43FE130939209209391093093F9
:101CC000870020938600809190098061808328EAB4
:101CD00039E030938F0920938E0990936F0068ED5F
:101CE00076E080912B0990912C090E94131764E0F3
:101CF00077E080912B0990912C090E94491760E3AD
:101D000076E080918509909186090E9413176CE511
:101D100076E080918509909186090E94491768E8CC
:101D200075E08091B1089091B2080E94131764EB9E
:101D300075E08091B1089091B2080E94491763E75D
:101D400072E085E69AE00E94162662E972E085E676
:101D50009AE00E94162685E69AE00E94102261E031
:101D600070E088E798E00E94160661E070E087E680
:101D700098E00E94160663E772E085E69AE00E940A
:101D8000162685E69AE00E9410220E942E1D90934E
:101D90008E0880938D08BC01990F880B990B0E94C7
:101DA0002A2F9B01AC0160E070E08AEF95E40E946D
:101DB000262E20E030E048EC52E40E94DE2F20E0A6
:101DC00030E04AEF55E40E948F2E609389087093AB
:101DD0008A0880938B0890938C0808956AEA72E0D1
:101DE00085E69AE00E94EC2568E875E08091B108EC
:101DF0009091B2080E94131764EB75E08091B108CE
:101E00009091B2080E9449176FE878E08091B1087C
:101E10009091B2080E94C01763E772E085E69AE0ED
:101E20000C9416260895CF93DF9380E190E00E94F2
:101E3000AA25EC01EED7D093B208C093B1088FE881
:101E400098E099D3DF91CF9108958FE898E0BCC3D3
:101E5000089560EC72E085E69AE00E94EC2568ED5A
:101E600076E080912B0990912C09DDD764E077E032
:101E700080912B0990912C090E94491769E079E023
:101E800080912B0990912C090E94C01763E772E0A2
:101E900085E69AE00C94162608950F931F93CF932E
:101EA000DF93CDB7DEB7A4970FB6F894DEBF0FBEB1
:101EB000CDBF80E190E00E94AA258C01AAD71093A3
:101EC0002C0900932B0989E099E055D367ED72E066
:101ED000CE0101960E94D92C49E059E0BE016F5F06
:101EE0007F4F86E294E015D9CE0101960E946D2CB9
:101EF00083E099E050D763E473E0CE0107960E9437
:101F0000D92C43E059E0BE01695F7F4F8AE194E03C
:101F10002BD9CE0107960E946D2C009108021091DA
:101F200009026CED72E0CE010D960E94D92CA80139
:101F3000BE01635F7F4F83E094E0DDD9CE010D9653
:101F40000E946D2C009106021091070263EE72E070
:101F5000CE0143960E94D92CA801BE016D5E7F4F31
:101F60008CEE93E0C8D9CE0143960E946D2C81EE91
:101F700098E001D36AEE72E0CE0149960E94D92C16
:101F800041EE58E0BE01675E7F4F80EE93E0C1D81E
:101F9000CE0149960E946D2C8FEB98E0ECD263EF56
:101FA00072E0CE014F960E94D92C4FEB58E0BE0153
:101FB000615E7F4F83EB98E0ACD8CE014F960E94D4
:101FC0006D2CA4960FB6F894DEBF0FBECDBFDF9187
:101FD000CF911F910F91089583EB98E0F1D88FEB8B
:101FE00098E0F2D280EE93E0EBD881EE98E0ECD26C
:101FF0008CEE93E0F5D883E094E0F2D88AE194E0A7
:10200000DFD883E099E0D3D686E294E0D9D889E09E
:1020100099E0DAC208956FEF72E085E69AE00E94D7
:10202000EC256CE177E08091830990918409FBD6DF
:1020300068E477E080918309909184092AD761E66A
:1020400079E080918309909184099AD763E772E0DF
:1020500085E69AE00C94162608950F931F93CF936C
:10206000DF93CDB7DEB7E0970FB6F894DEBF0FBEB3
:10207000CDBF80E190E00E94AA258C01CAD61093C2
:1020800084090093830981E699E075D267E173E0E2
:10209000CE0101960E94D92C41E659E0BE016F5F46
:1020A0007F4F84E695E035D8CE0101960E946D2CD5
:1020B0008FE399E060D26CE173E0CE0107960E9455
:1020C000D92C4FE359E0BE01695F7F4F88E595E069
:1020D00020D8CE0107960E946D2C67E273E0CE01F6
:1020E0000D960E94D92C48E758E0BE01635F7F4FF0
:1020F00081E495E000D9CE010D960E946D2C63E33A
:1021000073E0CE0143960E94D92C47E658E0BE0109
:102110006D5E7F4F8AE295E0EED8CE0143960E9435
:102120006D2C89E399E037D66EE373E0CE014996D2
:102130000E94D92C49E359E0BE01675E7F4F8EE1D2
:1021400095E012D8CE0149960E946D2C67E173E0AC
:10215000CE014F960E94D92C49E359E0BE01615E41
:102160007F4F82E195E000D8CE014F960E946D2C02
:1021700083E399E010D66BE473E0CE0185960E946C
:10218000D92C43E359E0BE016B5D7F4F86E095E0BB
:102190000E94B408CE0185960E946D2C61E08CEF00
:1021A00094E00E942D086EEA76E082EF94E00E94AF
:1021B0004E0861E088EE94E00E942D0862EB76E024
:1021C0008EED94E00E944E0861E084ED94E00E9460
:1021D0002D086CEC76E08AEC94E00E944E0861E0F9
:1021E00080EC94E00E942D0860ED76E086EB94E0B0
:1021F0000E944E0861E08CEA94E00E942D0864ED94
:1022000076E082EA94E00E944E088DE299E0C3D520
:1022100062E573E0CE018B960E94D92C4DE259E025
:10222000BE01655D7F4F86E994E00E94B408CE014F
:102230008B960E946D2C61E08CE894E00E942D0842
:102240006CE776E082E894E00E944E0861E088E75F
:1022500094E00E942D0860E876E08EE694E00E940B
:102260004E0861E084E694E00E942D086AE976E079
:102270008AE594E00E944E0861E080E594E00E94C7
:102280002D086EE976E086E494E00E944E0861E055
:102290008CE394E00E942D0862EA76E082E394E009
:1022A0000E944E08E0960FB6F894DEBF0FBECDBF79
:1022B000DF91CF911F910F91089582E394E00E94E6
:1022C00026088CE394E00E94260886E494E00E94AD
:1022D000260880E594E00E9426088AE594E00E94A2
:1022E000260884E694E00E9426088EE694E00E9488
:1022F000260888E794E00E94260882E894E00E947D
:1023000026088CE894E00E94260886E994E00E9462
:10231000E0088DE299E04BD582EA94E00E9426081D
:102320008CEA94E00E94260886EB94E00E9426083E
:1023300080EC94E00E9426088AEC94E00E94260833
:1023400084ED94E00E9426088EED94E00E94260819
:1023500088EE94E00E94260882EF94E00E9426080E
:102360008CEF94E00E94260886E095E00E94E00849
:1023700083E399E01CD582E195E00E94E0088EE1BC
:1023800095E00E94E00889E399E011D58AE295E0A2
:102390000E94F00881E495E00E94F00888E595E04D
:1023A0000E94E0088FE399E00FD184E695E00E9457
:1023B000E00881E699E008C10895CF93DF9369E5CD
:1023C00073E085E69AE00E94EC2560E376E0809178
:1023D00085099091860927D56CE576E0809185097D
:1023E0009091860956D582E290E00E94AA25EC01E0
:1023F000C2D086E090E00E94AA25CDD4BE01809193
:10240000850990918609BCD563E772E085E69AE07C
:102410000E941626DF91CF910895CF93DF9380E13C
:1024200090E00E94AA25EC01F4D4D0938609C093D1
:102430008509DF91CF9108950895FC0182819381F0
:102440000895CF93DF93EC0107C0E881F9810684FA
:10245000F785E02DCE011995E881F9810190F08191
:10246000E02DCE011995181619067CF3DF91CF9156
:102470000895EF92FF921F93CF93DF93FC01228187
:10248000338112161306F4F4EC012230310594F076
:1024900084819581FC01E180F28010810E94AD254C
:1024A000FD82EC828A819B8101979B838A831C86B3
:1024B000812F09C00190F081E02D0484F585E02D85
:1024C000199501C080E0DF91CF911F91FF90EF90AF
:1024D00008951F93CF93DF93EC01162F8A819B8180
:1024E000892B41F4E881F9810480F581E02DCE014A
:1024F000199516C083E090E00E94AA25FC01108285
:10250000128211828C819D81928381831083FD834D
:10251000EC838A819B8101969B838A831C8681E060
:10252000DF91CF911F9108951F93CF93DF93EC011B
:10253000162F83E090E00E94AA25FC0112821182EE
:1025400010832C813D81232B39F0EE81FF81928312
:1025500081839F838E8304C09D838C839F838E831E
:102560008A819B8101969B838A831C8681E0DF910F
:10257000CF911F910895FC0185E993E091838083B9
:102580001582148217821682138212821186108697
:1025900013861286148681E192E096878587128AD7
:1025A000118A148A138A108A1786168A158A108E41
:1025B000178A118E138E128E158E148E178E168E0C
:1025C00081E080A311A20895CF93DF93EC0181E114
:1025D00092E09E878D8789899A89009759F0FC013E
:1025E000228133813A8B298B0E94AD2589899A8972
:1025F0000097A9F785E993E0998388838C819D8171
:10260000009759F0FC01218132813D832C830E9487
:10261000AD258C819D810097A9F7DF91CF91089519
:10262000EF92FF920F931F93CF93DF937C018B0167
:10263000FC01268D378DB90161507109778F668F46
:1026400077232CF4178E168E60E070E00CC01616FF
:1026500017064CF42250310923703327232B19F429
:1026600081E0F70180A34AE050E085E69AE00E940D
:10267000D126C4E0D0E040E060E0F801808591859B
:102680000E94541B61E774E0F801808591850E94E7
:10269000EC25219781F7F701468D578D43705078CF
:1026A000552334F4415051094C6F5F6F4F5F5F4FBA
:1026B00060E0F80180859185F7D760E773E0F80165
:1026C000808591850E94EC25DF91CF911F910F911C
:1026D000FF90EF900895EF92FF920F931F93CF9387
:1026E000DF937C018B01FC01868D978D0196978F7E
:1026F000868F278530898217930724F0215031096E
:10270000378F268FF701668D778D623071057CF0EB
:10271000CB01019783709078992324F401978C6FF3
:102720009F6F0196019719F481E0F70180A34AE0B9
:1027300050E085E69AE00E94D126C4E0D0E040E077
:1027400060E0F80180859185AFD761E774E0F8011A
:10275000808591850E94EC25219789F7F701468DA8
:10276000578D43705078552334F4415051094C6FC4
:102770005F6F4F5F5F4F60E0F8018085918594D770
:1027800060E773E0F801808591850E94EC25DF9178
:10279000CF911F910F91FF90EF900895CF93DF930A
:1027A000EB0141155105C1F48885998576D762E71B
:1027B00073E0888599850E94162669E773E088850D
:1027C00099850E94162668EB7BE080E090E00E94ED
:1027D000B42ACE0187D308C0DA01ED91FC910280C2
:1027E000F381E02DCA011995DF91CF9108950F93E0
:1027F0001F93CF93DF93EC018B01CA010E94540910
:10280000C80170D381E088A3DF91CF911F910F9110
:1028100008950F931F93CF93DF930115110549F08E
:10282000E901C90141D7B8016D5F7F4FCE010E9418
:10283000DD25DF91CF911F910F9108958F929F9287
:10284000BF92CF92DF92EF92FF920F931F93CF939D
:10285000DF93CDB7DEB7A3970FB6F894DEBF0FBEF8
:10286000CDBF0115110509F4A2C0D32EC22EB42E7E
:10287000962EB801CE0101960E94022DF8018681A4
:102880008F83B801695F7F4FCE0108960E94022DA9
:10289000B801635F7F4FCE010E960E94022DF801B2
:1028A000838994899D8B8C8B858996899F8B8E8B50
:1028B000FC2CED2C4B2D692D8C2D9D2DF5D6BE01BC
:1028C0006F5F7F4F8C2D9D2D0E94DD25BE016F5FB8
:1028D0007F4FCE014E960E9400098AA09BA0BE01A8
:1028E0006F5F7F4FCE0148960E941D098C8D9D8D94
:1028F00088159905F4F403E110E008191909902EE0
:102900004B2D602F8C2D9D2DCFD6053111055CF4FC
:1029100061E774E08F2D9E2D0E94EC250F5F1F4F05
:1029200005311105A9F74B2D692D8C2D9D2DBCD698
:102930001DC003E110E0081B190B902E4B2D602FDA
:102940008C2D9D2DB1D6053111055CF461E774E045
:102950008F2D9E2D0E94EC250F5F1F4F0531110515
:10296000A9F74B2D692D8C2D9D2D9ED6CE0101965C
:102970000E943A09019741F4BE01625E7F4F8C2D9F
:102980009D2D0E94DD2507C0BE01685E7F4F8C2D06
:102990009D2D0E94DD25CE0148960E946D2CCE0112
:1029A0004E960E946D2CCE0101960E94F008A396CF
:1029B0000FB6F894DEBF0FBECDBFDF91CF911F9150
:1029C0000F91FF90EF90DF90CF90BF909F908F90EE
:1029D0000895DC011496ED91FC9115971C968C914D
:1029E0001C97882361F01A962D913C911B976217D2
:1029F000730744F01896ED91FC91199705C020E0FB
:102A000030E002C020E030E02617370764F430974A
:102A100051F00180F281E02D2F5F3F4F26173707DD
:102A200014F43097B1F72617370779F481E01C9634
:102A30008C931C971B963C932E931A971996FC9394
:102A4000EE9318978E2F9F2F089580E090E00895C1
:102A5000C0DF009719F0FC018081089580E008959F
:102A6000EF92FF921F93CF93DF93FC0162817381FA
:102A70001616170654F5EC01148662307105BCF089
:102A800062507109A6DF7C01FC0181819281FC0109
:102A900010810E94AD25F70112821182FF82EE8221
:102AA0008A819B8101979B838A83812F0FC08481B8
:102AB0009581FC0110810E94AD251D821C821F8220
:102AC0001E821B821A82812F01C080E0DF91CF918C
:102AD0001F91FF90EF9008951F93CF93DF9377237B
:102AE000CCF1DC0112962D913C911397621773077C
:102AF0009CF5EC016115710539F4E881F9810684D2
:102B0000F785E02D199529C021503109261737077F
:102B100039F4E881F9810484F585E02D19951DC00B
:102B20006150710956DFDC011196ED91FC9112970D
:102B300010812181328112963C932E931197CF01FF
:102B40000E94AD258A819B8101979B838A831C8685
:102B5000812F03C080E001C080E0DF91CF911F9101
:102B60000895CF93772364F0FC01228133816217AB
:102B7000730744F4C42F2DDFFC01C08381E003C040
:102B800080E001C080E0CF910895DF92EF92FF9244
:102B90000F931F93CF93DF93EC018B01D42E8A8187
:102BA0009B81681779074CF0E881F9810480F581F1
:102BB000E02D642FCE0119952BC0672B49F4E881D5
:102BC000F9810680F781E02D642FCE01199520C090
:102BD00083E090E00E94AA257C01FC011082128211
:102BE0001182B80161507109CE01F3DEF701D08284
:102BF000FC0121813281F70132832183FC01F282C1
:102C0000E1828A819B8101969B838A831C8681E075
:102C1000DF91CF911F910F91FF90EF90DF9008957A
:102C20002F923F924F925F926F927F928F929F92DC
:102C3000AF92BF92CF92DF92EF92FF920F931F93CA
:102C4000CF93DF936C01FB0170846184FC0180A150
:102C5000882309F45FC0572C462C872D962D1DD54F
:102C600040E060E0872D962D1FD5F601868D978D6B
:102C700063E070E00E944530EB014601FDE08F0EFD
:102C8000911C5B0184E0A80EB11CF60127853089F8
:102C9000C5012A153B050CF4C901C817D907D4F59D
:102CA000E12CF12C2A2C3B2C4E2D60E0852D942D0F
:102CB000FBD4BE01C601CCDE813019F0823071F048
:102CC00019C0BE01C4010E94F2048C01272D362DCB
:102CD000A70161E070E0C6019CDD0CC0BE01C4012B
:102CE0000E94F2048C01272D362DA70161E070E0CF
:102CF000C601A4DDFFEFEF1AFF0A2196F601278532
:102D00003089822D932D2A153B050CF4C901C81773
:102D1000D90754F2F60110A2DF91CF911F910F91C4
:102D2000FF90EF90DF90CF90BF90AF909F908F90EB
:102D30007F906F905F904F903F902F900895FC018F
:102D400040A36ECF08950F931F93CF93DF93EC01B1
:102D50008B016E8D7F8D7CDE813019F0823061F0C9
:102D600015C06E8D7F8DCE010D960E94F204AC01D0
:102D7000B801CE0113DD0AC06E8D7F8DCE010D9698
:102D80000E94F204AC01B801CE0131DDDF91CF9198
:102D90001F910F910895FC01118210828FEF9FEF18
:102DA0009383828381E090E09583848308950895DE
:102DB00050E0FC01558344830895089508950895D3
:102DC0000895BC01FC0180819181009711F0BBCF77
:102DD0000895FB0182819381009709F0F0CF089557
:102DE000CF93DF93EC0188819981009711F0BE01A8
:102DF00072DC8A819B81009709F0E0DFDF91CF913F
:102E00000895FC0180819181009711F0BF0108CCE9
:102E10000895FC011182108213821282158214829D
:102E2000178216820895FC0173876287DB011F9663
:102E30009C938E931E97A285B38581EE96E1519661
:102E40009C938E93509753961C921E925297A285F4
:102E5000B38580EE96E155969C938E935497579642
:102E60001C921E925697A285B38580EF96E15996E3
:102E70009C938E9358975B961C921E925A9702844D
:102E8000F385E02D81E097E1958F848F178E168E64
:102E90000895FC01718760870895CF93DF93EC015B
:102EA0008A819B81892B61F00E94822A6C877D87B1
:102EB0008E879F8741E0BE018A819B8179DF0FC0A9
:102EC00088819981892B59F00E94822A6C877D879D
:102ED0008E879F8741E0BE018881998130DFDF9135
:102EE000CF9108950F931F93CF93DF93EC018A81C5
:102EF0009B81892B59F00E94822A6C877D878E875F
:102F00009F87BE018A819B8158DF35C08881998166
:102F1000892B59F00E94822A6C877D878E879F8734
:102F2000BE01888199817CDE26C00E94822A0C85A0
:102F30001D852E853F85DC01CB01801B910BA20BEB
:102F4000B30B893B9B40A105B105A8F00E94822AE2
:102F50006C877D878E879F87888599859ED369EA50
:102F600073E0888599850E94162660EB73E088855A
:102F700099850E941626DF91CF911F910F91089598
:102F8000CF93DF93EC01CB017983688341E0BE01ED
:102F9000D6DE1B821A82DF91CF910895FC01118247
:102FA000108273836283089580E40E944A2B6FEF3E
:102FB00073E00E944530072E000C880B990B0E948D
:102FC0002A2F20E030E040EA50E40E94DE2F609398
:102FD000660770936707809368079093690720E0FE
:102FE00030E040E250E40E94DA2F181624F481E029
:102FF0008093650702C01092650781E40E944A2B06
:103000006FEF73E00E944530072E000C880B990B80
:103010000E942A2F20E030E040EA50E40E94DE2F98
:1030200060936107709362078093630790936407CE
:1030300020E030E040E250E40E94DA2F181624F439
:1030400081E08093600702C01092600780E40E94D4
:103050004A2B6FEF73E00E944530072E000C880B5F
:10306000990B0E942A2F20E030E040EA50E40E94B1
:10307000DE2F6093750770937607809377079093A0
:10308000780720E030E040E250E40E94DA2F181682
:1030900024F481E08093740702C01092740780E4E6
:1030A0000E944A2B6FEF73E00E944530072E000C00
:1030B000880B990B0E942A2F20E030E040EA50E470
:1030C0000E94DE2F609370077093710780937207E0
:1030D0009093730720E030E040E250E40E94DA2F42
:1030E000181624F481E080936F0702C010926F07D6
:1030F00080E40E944A2B6FEF73E00E944530072E58
:10310000000C880B990B0E942A2F20E030E040EA47
:1031100050E40E94DE2F60936B0770936C078093DE
:103120006D0790936E0720E030E040E250E40E948B
:10313000DA2F181624F481E080936A07089510921C
:103140006A0708958BD490938E0880938D0860E46D
:103150007FE10E944530072E000C880B990B0E94DE
:103160002A2F20E030E048EC52E40E94DE2F6093EA
:10317000890870938A0880938B0890938C0808952F
:103180008F929F92AF92BF92CF92DF92EF92FF9277
:103190000F931F93CF93DF93EC018C819D81019658
:1031A0009D838C830E94822A688379838A839B8390
:1031B000CE01FADECE01C6DF8E819F81A885B9855A
:1031C000BC01CD016F5F7F4F8F4F9F4F6E837F8319
:1031D00088879987C880D980EA80FB800A851B850B
:1031E0002C853D85C01AD10AE20AF30A29EBC216E2
:1031F0002BE0D206E104F10408F462C00E942A2FF9
:103200004B015C01C701B6010E94282F20E030E08D
:103210004AE754E40E948F2E9B01AC01C501B40122
:103220000E948F2E6B017C0162EC73E085E69AE0D0
:103230000E94EC2522E030E0B701A60185E69AE085
:103240000E94F0276EEC73E085E69AE00E94EC2580
:103250004E815F81688579852AE030E085E69AE0D5
:103260000E94992667ED73E085E69AE00E94EC25BE
:10327000488159816A817B818A859B85AC85BD8522
:10328000481B590B6A0B7B0B2AE030E085E69AE07D
:103290000E94E62662EE73E085E69AE00E9416261A
:1032A00085E69AE00E94102288819981AA81BB81DB
:1032B0008A879B87AC87BD871E821F8218861986E6
:1032C000DF91CF911F910F91FF90EF90DF90CF9002
:1032D000BF90AF909F908F900895FC017583648399
:1032E00051834083338322830895AF92BF92CF925C
:1032F000DF92EF92FF920F931F93CF93DF9300D053
:1033000000D0CDB7DEB7FC01148215821682178279
:10331000CE01019695A384A3A08EB18EC28ED38ECA
:103320008C899D89AE89BF89848F958FA68FB78F31
:10333000888D998DAA8DBB8D80A391A3A2A3B3A3E1
:1033400088A199A1AAA1BBA1848B958BA68BB78BD1
:103350008C8D9D8DAE8DBF8D808B918BA28BB38B11
:10336000738362835183408326960FB6F894DEBF41
:103370000FBECDBFDF91CF911F910F91FF90EF90C6
:10338000DF90CF90BF90AF900895EF920F931F936F
:10339000CF93DF93EC01862F688349832A83EB82E6
:1033A0001D821C821F821E8208871A8619861B8630
:1033B00091E09C879D87EE2011F010E001C012E0A3
:1033C000612F0E94D62B612F89810E94D62B612FFD
:1033D0008A810E94D62B88810E94452C2B8130E067
:1033E0008217930721F483E090E09F838E83898185
:1033F0000E94452C2B8130E08217930731F48E8197
:103400009F8121E082279F838E83DF91CF911F913F
:103410000F91EF900895CF92DF92EF92FF920F936A
:103420001F93CF93DF93EC010E94822A6B017C01F2
:103430008D85882359F089859A8502979A8789878F
:1034400089859A85992314F41A86198688810E94A1
:10345000452C2B8130E08217930711F413E001C053
:1034600010E089810E94452C2B8130E08217930760
:1034700011F481E018278E819F81811B80FF1DC080
:10348000212F110F330B3F832E832C813D818270BE
:10349000082E000C990B0197820F931F9D838C833C
:1034A0008D85882351F089859A85883E9B4028F434
:1034B00089859A8549969A8789878A81882309F41C
:1034C0006BC040918A0950918B0960918C09709171
:1034D0008D0997018601041B150B260B370B0A304B
:1034E00011052105310508F457C0C0928A09D09210
:1034F0008B09E0928C09F0928D090E94452C2B815A
:1035000030E08217930771F48091880990918909BE
:10351000019690938909809388098937910510F065
:1035200083E08B878A810E94452C3B8121E0232701
:1035300030E08217930729F58091880990918909D5
:10354000892BD9F08B85833029F484E08B87109206
:10355000870913C080918709823038F08C3368F472
:1035600086E08B871092870908C08C85811102C084
:1035700081E001C08CE38093870910928909109241
:10358000880980918709882339F0825080938709C0
:10359000811102C085E08B87DF91CF911F910F9140
:1035A000FF90EF90DF90CF900895FC0112828FEF93
:1035B0008183108213820895FC012381222339F034
:1035C000611103C02FEF21830895FC01118208953A
:1035D000CF93DF93EC016A8381E09AE045D541E027
:1035E0006A8181E09AE056D591E0811101C090E0B6
:1035F0009B8381E09AE0A5D488838B8190E0DF9162
:10360000CF910895CF93DF93FC012381222399F07A
:10361000EC018181809568236083628181E09AE07A
:103620003CD5688181E09AE0DFD481E09AE051D511
:10363000282F30E002C020E030E081E090E0232B32
:1036400011F080E090E0DF91CF9108950895089502
:10365000DC01ED91FC910284F385E02D41E01995A8
:1036600081E090E00895FC01138212822CEE33E099
:10367000318320830895DC01ED91FC910084F18574
:10368000E02D6FEF19950895DC01ED91FC91028416
:10369000F385E02D40E01995089561E0F5DF80EDB8
:1036A00097E00C94DD2A0895CF93DF93CDB7DEB772
:1036B00028970FB6F894DEBF0FBECDBFFC011D8268
:1036C00080E48E8394E19F8394E5988719828A83AE
:1036D00080E18B8380E58C838781481710F04FEF62
:1036E000480F9085903161F4843051F4DE01A40FCD
:1036F000B11D11968C91680F6068CF01C5DF09C0BC
:10370000DE01A40FB11D15969C91690F6068CF0171
:10371000BBDF28960FB6F894DEBF0FBECDBFDF919A
:10372000CF910895FC016581262F246025836C606C
:10373000ABCF0895CF93DF93EC01423018F08C812A
:1037400088608C834F836887222329F0413019F4E5
:103750008C8184608C8364E670E080E090E00E945D
:10376000B42A6C8164FD31C0E881F9810284F3855B
:10377000E02D42E063E0CE01199584E991E10E94D9
:10378000DD2AE881F9810284F385E02D42E063E0DF
:10379000CE01199584E991E10E94DD2AE881F98141
:1037A0000284F385E02D42E063E0CE01199586E9BD
:1037B00090E00E94DD2AE881F9810284F385E02D02
:1037C00042E062E0CE01199513C06062CE015CDF79
:1037D00084E991E10E94DD2A6C816062CE0154DFB0
:1037E00086E990E00E94DD2A6C816062CE014CDFA8
:1037F0006C816062CE0148DF84E08D83CE0192DF70
:10380000CE014BDF82E08E8366E0CE013DDFCE014C
:1038100032DFDF91CF91089521E001C0220F6A9538
:10382000EAF7DC011B962C931B9719964C9319977A
:10383000ED91FC910084F185E02D60E019950895EB
:10384000FC018385882389F09185911103C0611162
:1038500005C006C0913021F4611102C0848701C007
:1038600014866485CF010D96CDCE08956F927F9218
:103870008F92AF92CF92DF92EF92FF920F931F93AE
:10388000CF93DF93CDB7DEB73C01D62EF42E122FA7
:10389000EADE8CEF93E0F30191838083C3010D9600
:1038A00084DEF301D28613861486118681E0982F78
:1038B00001C0990FFA94EAF7918B982F01C0990FE4
:1038C0001A95EAF7928B982F01C0990F0A95EAF79B
:1038D000938B982F01C0990FEA94EAF7948B982F55
:1038E00001C0990FCA94EAF7958B982F01C0990FE0
:1038F000AA94EAF7968B01C0880F8A94EAF7878B1F
:10390000DF91CF911F910F91FF90EF90DF90CF90BB
:10391000AF908F907F906F9008950F931F93CF93E8
:10392000DF93EC018C01035F1F4F6A85C80150DEF5
:10393000019751F461E0C8013FDE1C8260E0C801DC
:1039400061DE81E090E002C080E090E0DF91CF9105
:103950001F910F910895FF920F931F93CF93DF93C1
:10396000EC01F62E8C01035F1F4F9989692BC8016A
:1039700049DE998990956F2D6923C80143DEDF9157
:10398000CF911F910F91FF900895DC01FC01749677
:103990009C01285E3F4F90E060FF02C08081982B21
:1039A00066953196E217F307B9F7413019F453964B
:1039B0004C9153971C966C911C97692B642BCD01ED
:1039C000CACF08950F931F93CF93DF938C01C62F17
:1039D000D42F423021F46F7040E0D7DF0FC070E089
:1039E00075956795759567957595679575956795BF
:1039F000CCDF6C2F6F704D2FC801C7DFDF91CF91E7
:103A00001F910F910895FF920F931F93CF93DF9310
:103A1000EC01162F042FF22E80DF2F2D402F612F67
:103A2000CE0188DEDF91CF911F910F91FF90089515
:103A3000E091010DF091020D309769F080E090E087
:103A4000029620813181820F931F0280F381E02D45
:103A50003097B1F7089580E090E008950F931F9399
:103A6000CF93DF931F921F92CDB7DEB78091FF0CEB
:103A70009091000D009731F4CE0182509D409A83C1
:103A800089830CC08E010F5F1F4F081B190B1A830F
:103A90000983CEDF800F911F9A83898389819A8160
:103AA0000F900F90DF91CF911F910F9108951F926A
:103AB0000F920FB60F9211240BB60F922F933F93D4
:103AC0004F935F936F937F938F939F93AF93BF9326
:103AD000EF93FF93E0918E09F0918F091995FF9173
:103AE000EF91BF91AF919F918F917F916F915F9176
:103AF0004F913F912F910F900BBE0F900FBE0F90E3
:103B00001F9018951092000A81E08093FE09109290
:103B1000FD0961E084E10E94152C61E085E10E94CD
:103B2000152CE9EBF0E080818E7F808380818D7F92
:103B3000808388E48093B80085E48093BC00089576
:103B4000413208F046C09091000A9111FCCF31E05B
:103B50003093000A2093FE092FEF209393091092CF
:103B6000D809240F2093D7093093FF092091FF092A
:103B7000880F822B8093FF098091FD09813051F4D9
:103B80001092FD098091FF098093BB0085EC809322
:103B9000BC0003C085EE8093BC008091000A813098
:103BA000E1F38091D809841710F44091D809442397
:103BB00089F0A9EDB9E0FB018FEF840F90E0019649
:103BC000680F791F8D918193E617F707D9F7942F26
:103BD00001C090E0892F08950F93413208F051C041
:103BE0003091000A3111FCCF92E09093000A0093CB
:103BF000FE099FEF909393091092D8094093D7093B
:103C0000442371F0FB01A9EDB9E0415050E04F5F52
:103C10005F4F640F751F91919D93E617F707D9F7D2
:103C20001092FF099091FF09880F892B8093FF095B
:103C30008091FD09813051F41092FD098091FF09B6
:103C40008093BB0085EC8093BC0003C085EE80931D
:103C5000BC00222341F08091000A823021F480913F
:103C6000000A8230E1F3809193098F3F79F08091CF
:103C70009309803241F080919309803331F034E030
:103C800005C031E003C032E001C033E0832F0F9163
:103C900008956132C8F42091000A2430B9F4609389
:103CA000B5096623A9F0FC01A7EBB9E06150262F06
:103CB00030E02F5F3F4F280F391F91919D93E217FE
:103CC000F307D9F780E0089581E0089582E0089530
:103CD00080E0089585ED8093BC00ECEBF0E08081FE
:103CE00084FDFDCF1092000A089585EC8093BC00FE
:103CF0001092000A08951F920F920FB60F9211248E
:103D00000BB60F922F933F934F935F936F937F93D5
:103D10008F939F93AF93BF93EF93FF938091B900DD
:103D2000887F90E0893C910508F0F0C0FC0188276D
:103D3000EE57FF4F8F4F0C947A308091FF0980939C
:103D4000BB0085EC8093BC00E1C09091D8098091C4
:103D5000D709981780F4E091D80981E08E0F8093FD
:103D6000D809F0E0E752F64F80818093BB0085ECE4
:103D70008093BC00CBC08091FE09882311F0AADF9C
:103D8000C5C081E08093FD0984EA8093BC00109255
:103D9000000ABCC080E2809393099CDFB7C080E337
:103DA0008093930997DFB2C088E3809393099DDFE6
:103DB000ADC0E091D80981E08E0F8093D809809141
:103DC000BB00F0E0E752F64F80839091D8098091D4
:103DD000D709981720F485EC8093BC0097C085E83C
:103DE0008093BC0093C0E091D80981E08E0F80934E
:103DF000D8098091BB00F0E0E752F64F80838091B4
:103E0000FE09882311F066DF81C081E08093FD09FF
:103E100084EA8093BC001092000A78C05BDF76C011
:103E200083E08093000A1092940985EC8093BC0093
:103E30006DC080919409803280F4E091940981E012
:103E40008E0F809394098091BB00F0E0EB56F64F03
:103E5000808385EC8093BC0059C085E88093BC00CA
:103E600055C080919409803230F4E0919409F0E0DB
:103E7000EB56F64F10822EDF6091940970E0E091CE
:103E8000F909F091FA0985E999E0199510929409D8
:103E90002CDF3CC085E88093BC0038C084E0809370
:103EA000000A1092B6091092B509E091FB09F09151
:103EB000FC0919958091B509811105C081E08093B5
:103EC000B5091092B709E091B60981E08E0F809391
:103ED000B609F0E0E954F64F80818093BB009091E1
:103EE000B6098091B509981720F485EC8093BC0041
:103EF0000DC085E88093BC0009C085EC8093BC00B0
:103F00001092000A03C010929309E4DEFF91EF9132
:103F1000BF91AF919F918F917F916F915F914F91E1
:103F20003F912F910F900BBE0F900FBE0F901F90DF
:103F300018958091310A90E02091320A821B9109F4
:103F400008959091320A8091310A981750F4E92F20
:103F5000F0E0ED5CF54F208130E09F5F9093320AF6
:103F600002C02FEF3FEFC9010895E091320A80911E
:103F7000310AE81730F4F0E0ED5CF54F808190E015
:103F800008958FEF9FEF08950895CF92DF92EF92FB
:103F9000FF920F931F93CF93DF938C01CB016A01A4
:103FA00020910D0A2223A1F04115510599F0EB0152
:103FB0007B01E40EF51E6991D801ED91FC91019011
:103FC000F081E02DC8011995CE15DF05A1F702C0DB
:103FD000642F5FDEC601DF91CF911F910F91FF909B
:103FE000EF90DF90CF900895CF93DF931F92CDB7DE
:103FF000DEB7FC01698390910D0A9923D9F0909165
:104000000E0A903238F081E090E09383828380E062
:1040100090E016C080910F0AE82FF0E0E05FF54FC6
:10402000998190838F5F80930F0A80930E0A81E0BD
:1040300090E006C061E0CE0101962BDE81E090E0C9
:104040000F90DF91CF910895FC011382128288EEC8
:1040500093E0A0E0B0E084839583A683B7838CE0EF
:1040600094E09183808308951092320A1092310A6D
:1040700010920F0A10920E0A45CD0895862F4132F4
:1040800008F040E263E37AE05BDD1092320A80934D
:10409000310A089521E0F2CF089581E080930D0A5E
:1040A0006093300A10920F0A10920E0A08950F932F
:1040B000062F21E040910E0A60E17AE08091300AFB
:1040C0008BDD10920F0A10920E0A10920D0A0F91BA
:1040D000089561E0ECCF089581E09AE0B5CF0895AE
:1040E0000F931F9380910A02882361F068E174E0C6
:1040F00085E69AE09BD5B2DC4AE050E0BC0185E65B
:104100009AE04FD610920A0206C064EF71E080E098
:1041100090E00E94B42A0E94822A0091610A1091C4
:10412000620A2091630A3091640ADC01CB01801B92
:10413000910BA20BB30B883B9B40A105B10528F363
:1041400083E59AE01DD81F910F910895E3E5FAE009
:1041500010821182128213821682178210861186B3
:104160001286138614861586089526E040E052ECE8
:1041700061E070E085E69AE0C2D167E274E085E62E
:104180009AE054D56DE474E085E69AE04FD567E295
:1041900074E085E69AE04AD563E774E085E69AE044
:1041A0001BD522E030E04DEC5CEC6CEC7DE385E669
:1041B0009AE018D767E175E085E69AE037D56FE7B2
:1041C00074E085E69AE032D56EE874E085E69AE020
:1041D00003D544DC4AE050E0BC0185E69AE0E1D535
:1041E00085E69AE01DD16BE974E085E69AE01ED57C
:1041F00085E69AE015D10E94DA0D6CEA74E085E656
:104200009AE014D585E69AE00BD10E940B1062EB80
:1042100074E085E69AE00AD585E69AE001D10E942D
:10422000290F0E94DD110E94EE0E0E94822A6093E7
:10423000610A7093620A8093630A9093640A41E072
:1042400063E088E497E030DA68EB74E088E497E0B4
:10425000C3D422E030E04DEC5CEC6CEC7DE388E410
:1042600097E0BED642E062E088E497E01DDA62ECB7
:1042700074E088E497E0B0D441E062E084E097E045
:1042800013DA63ED74E084E097E0A6D441E062E0E5
:104290008CE596E009DA63EE74E08CE596E09CD458
:1042A00041E062E084EB95E0FFD963EF74E084EBDA
:1042B00095E092D468EB7BE080E090E00E94B42A25
:1042C00080918309909184090E944D1780912B0958
:1042D00090912C090E944D17809185099091860933
:1042E0000E944D178091B1089091B2080E944D171D
:1042F0006EE874E085E69AE06FD4B0DB4AE050E007
:10430000BC0185E69AE04DC508950E94C632FC01C5
:10431000918D228D892F90E0805C9F4F821B9109A7
:104320008F7399270895FC01918D828D981731F034
:10433000828DE80FF11D858D90E008958FEF9FEF3E
:104340000895FC01918D828D981761F0828DDF01B7
:10435000A80FB11D5D968C91928D9F5F9F73928F78
:1043600090E008958FEF9FEF08958DE493E2892BFD
:1043700041F080E090E0892B21F08FD181110E94E3
:10438000000088EE93E2892B41F080E090E0892BD9
:1043900021F01ED281110E94000083E894E2892B53
:1043A00041F080E090E0892B21F0ADD281110E9494
:1043B00000008EE195E2892B41F080E090E0892BAE
:1043C00021F03CD381110E9400000895FC01848DEE
:1043D000DF01A80FB11DA35ABF4F8C91248D30E08F
:1043E0002F5F3F4F2F733078332334F4215031093E
:1043F000206C3F6F2F5F3F4F248FA689B7898C9326
:10440000A089B1898C9180648C93938D848D98134D
:1044100006C00288F389E02D80818F7D8083089516
:10442000CF93DF93EC01888D81110EC017C00FB6BA
:1044300007FC0CC0908195FF09C0A889B9898C91AF
:1044400085FF04C0CE01C2DFEA89FB89908195FD1A
:10445000EECFA889B9898C9186FFE9CFDF91CF9102
:1044600008950F931F93CF93DF93FC0181E0808F1A
:10447000938D848D981321C0A089B1898C9185FD7D
:104480002EC01BC00FB607FC07C0E889F9898081E0
:1044900085FF02C0CE019ADF9C8D091799F38B8DA1
:1044A000FE01E80FF11DE35AFF4F10830B8FEA89DD
:1044B000FB898081806280831BC0238D30E02F5F69
:1044C0003F4F2F733078332334F421503109206C5F
:1044D0003F6F2F5F3F4F162FEF01022FDDCFA689D1
:1044E000B7896C930088F189E02D80818064808396
:1044F00081E090E0DF91CF911F910F910895BF92DD
:10450000CF92DF92EF92FF920F931F93CF93DF939F
:10451000EC016A017B01B22EE889F98982E080838F
:104520004115514E61057105B1F060E079E08DE310
:1045300090E0A70196010E94583089019A0101502C
:104540001109210931093695279517950795011508
:1045500080E11807A8F0E889F989108260E874E81A
:104560008EE190E0A70196010E945830DA01C9015E
:104570000197A109B109B695A795979587958C01E3
:10458000EC85FD851083EE85FF850083188EEC8910
:10459000FD89B082EA89FB89808180618083EA8914
:1045A000FB89808188608083EA89FB8980818068BB
:1045B0008083EA89FB8980818F7D8083DF91CF9121
:1045C0001F910F91FF90EF90DF90CF90BF900895D3
:1045D0001F920F920FB60F9211240BB60F922F93CA
:1045E0008F939F93AF93BF93EF93FF93E091750ADF
:1045F000F091760A808182FD14C0E5E6FAE0A68992
:10460000B7892C91818D8F5F8F73928D891771F08F
:10461000DF01E18DF0E0EB59F54F258F59968C9332
:1046200005C0E0917B0AF0917C0A8081FF91EF91B7
:10463000BF91AF919F918F912F910F900BBE0F90D3
:104640000FBE0F901F9018951F920F920FB60F92EA
:1046500011240BB60F922F933F934F935F936F9359
:104660007F938F939F93AF93BF93EF93FF9385E6D1
:104670009AE0ACDEFF91EF91BF91AF919F918F9146
:104680007F916F915F914F913F912F910F900BBE52
:104690000F900FBE0F901F90189585E69AE037DEB9
:1046A00021E0892B09F420E0822F0895E5E6FAE065
:1046B0001382128288EE93E0A0E0B0E084839583B9
:1046C000A683B78383E095E09183808385EC90E0B7
:1046D0009587848784EC90E09787868780EC90E0CC
:1046E000918B808B81EC90E0938B828B82EC90E0BD
:1046F000958B848B86EC90E0978B868B118E128E37
:10470000138E148E08951F920F920FB60F921124DC
:104710000BB60F922F938F939F93AF93BF93EF930B
:10472000FF93E091120BF091130B808182FD14C076
:10473000E2E0FBE0A689B7892C91818D8F5F8F73B2
:10474000928D891771F0DF01E18DF0E0EE5FF44F9B
:10475000258F59968C9305C0E091180BF091190B99
:104760008081FF91EF91BF91AF919F918F912F9198
:104770000F900BBE0F900FBE0F901F9018951F92B9
:104780000F920FB60F9211240BB60F922F933F93F7
:104790004F935F936F937F938F939F93AF93BF9349
:1047A000EF93FF9382E09BE011DEFF91EF91BF91C9
:1047B000AF919F918F917F916F915F914F913F91B9
:1047C0002F910F900BBE0F900FBE0F901F9018955A
:1047D00082E09BE09CDD21E0892B09F420E0822F20
:1047E0000895E2E0FBE01382128288EE93E0A0E0FD
:1047F000B0E084839583A683B78383E095E09183BB
:1048000080838DEC90E0958784878CEC90E097878F
:10481000868788EC90E0918B808B89EC90E0938B7D
:10482000828B8AEC90E0958B848B8EEC90E0978B5A
:10483000868B118E128E138E148E08951F920F92F6
:104840000FB60F9211240BB60F922F938F939F9355
:10485000AF93BF93EF93FF93E091AF0BF091B00B49
:10486000808182FD14C0EFE9FBE0A689B7892C9115
:10487000818D8F5F8F73928D891771F0DF01E18DCC
:10488000F0E0E156F44F258F59968C9305C0E091E6
:10489000B50BF091B60B8081FF91EF91BF91AF9175
:1048A0009F918F912F910F900BBE0F900FBE0F9085
:1048B0001F9018951F920F920FB60F9211240BB6EE
:1048C0000F922F933F934F935F936F937F938F93A9
:1048D0009F93AF93BF93EF93FF938FE99BE076DDB8
:1048E000FF91EF91BF91AF919F918F917F916F91C8
:1048F0005F914F913F912F910F900BBE0F900FBE84
:104900000F901F9018958FE99BE001DD21E0892B26
:1049100009F420E0822F0895EFE9FBE01382128270
:1049200088EE93E0A0E0B0E084839583A683B7830C
:1049300083E095E09183808385ED90E0958784877F
:1049400084ED90E09787868780ED90E0918B808B57
:1049500081ED90E0938B828B82ED90E0958B848B40
:1049600086ED90E0978B868B118E128E138E148EAF
:1049700008951F920F920FB60F9211240BB60F924B
:104980002F938F939F93AF93BF93EF93FF93E091F8
:104990004C0CF0914D0C808182FD14C0ECE3FCE0E6
:1049A000A689B7892C91818D8F5F8F73928D89171E
:1049B00071F0DF01E18DF0E0E45CF34F258F599653
:1049C0008C9305C0E091520CF091530C8081FF91C3
:1049D000EF91BF91AF919F918F912F910F900BBE4F
:1049E0000F900FBE0F901F9018951F920F920FB649
:1049F0000F9211240BB60F922F933F934F935F9317
:104A00006F937F938F939F93AF93BF93EF93FF9396
:104A10008CE39CE0DBDCFF91EF91BF91AF919F9124
:104A20008F917F916F915F914F913F912F910F9057
:104A30000BBE0F900FBE0F901F9018958CE39CE05B
:104A400066DC21E0892B09F420E0822F0895ECE355
:104A5000FCE01382128288EE93E0A0E0B0E0848351
:104A60009583A683B78383E095E09183808385E374
:104A700091E09587848784E391E09787868780E338
:104A800091E0918B808B81E391E0938B828B82E329
:104A900091E0958B848B86E391E0978B868B118ECA
:104AA000128E138E148E089508958F929F92AF9256
:104AB000BF92CF92DF92EF92FF920F931F93CF930B
:104AC000DF935C017B014C0182E0880E911C650143
:104AD000E5E0CE0ED11C00E010E0F40161914F0141
:104AE0004AE050E0C70180D1EC016EE2C7018AD0F4
:104AF0008C0F9D1F080F191F8C149D0471F74AE03D
:104B000050E0F5016581C7016FD1800F911FDF91E2
:104B1000CF911F910F91FF90EF90DF90CF90BF90BA
:104B2000AF909F908F900895E9EDFCE083E195E0D0
:104B300091838083128213821482158208950895CE
:104B400047D5FDDF12DBC5EBD1E2CADA2097E9F3E6
:104B50000CDCFBCF0C94B53008950C944A310895C9
:104B6000CF92DF92EF92FF920F931F93CF93DF9339
:104B700041155105B1F08C01E62EF72EEA01C12C4A
:104B8000D12CD7016D917D01D801ED91FC9101905F
:104B9000F081E02DC8011995C80ED91E219789F71B
:104BA00002C0C12CD12CC601DF91CF911F910F9172
:104BB000FF90EF90DF90CF900895DC01ED91FC9194
:104BC000DB0114964D915C9115976D917C9102805B
:104BD000F381E02D199508956115710581F0FB01B0
:104BE00001900020E9F73197AF01461B570BDC011C
:104BF000ED91FC910280F381E02D1995089580E0FC
:104C000090E00895DC01ED91FC910190F081E02DA0
:104C100019950895DC01ED91FC910280F381E02D5E
:104C200042E050E065E175E0199508950F931F93F8
:104C3000CF93DF93EC01D0DF8C01CE01EBDF800F4F
:104C4000911FDF91CF911F910F9108954F925F9225
:104C50006F927F929F92AF92BF92CF92DF92EF922C
:104C6000FF920F931F93CF93DF93CDB7DEB7A1973A
:104C70000FB6F894DEBF0FBECDBF5C016A017B01A9
:104C8000922E19A281E0821720F00F2EFAE09F2EBB
:104C9000F02D8E010F5D1F4F492C512C612C712C72
:104CA000C701B601A30192010E9458308C2D929E3B
:104CB00080191124015011098A3010F4805D01C05F
:104CC000895CD8018C93C22ED32EE42EF52EC1140C
:104CD000D104E104F10421F70115110591F0F80167
:104CE00001900020E9F73197AF01401B510BD5012E
:104CF000ED91FC910280F381E02DB801C501199579
:104D000002C080E090E0A1960FB6F894DEBF0FBE1F
:104D1000CDBFDF91CF911F910F91FF90EF90DF906A
:104D2000CF90BF90AF909F907F906F905F904F908B
:104D30000895CF92DF92EF92FF920F931F93CF933C
:104D4000DF93EC016A017B012115310541F4E88113
:104D5000F9810190F081E02D642F199519C02A3056
:104D60003105A9F4772384F46DE24CDF8C014427EC
:104D70005527BA014C195D096E097F092AE0CE0159
:104D800065DF800F911F04C02AE060DF01C05EDF95
:104D9000DF91CF911F910F91FF90EF90DF90CF9017
:104DA00008950F931F93CF93DF93EC019A01AB010A
:104DB000770F660B770BBDDF8C01CE012BDF800FE9
:104DC000911FDF91CF911F910F910895211531050A
:104DD00049F4DC01ED91FC910190F081E02D642F0C
:104DE0001995089533CF08959A01462F50E060E059
:104DF00070E0ECCF08954F925F927F928F929F92D6
:104E0000AF92BF92CF92DF92EF92FF920F931F93D8
:104E1000CF93DF9300D01F92CDB7DEB78C014A014C
:104E20005B01722E9A01AB01C501B4010E944130B1
:104E3000882329F068E175E0C801CEDEBDC07501A8
:104E40006401E894F7F82FEF3FEF4FE75FE7C70102
:104E5000B6010E94413081110EC02FEF3FEF4FE7A6
:104E60005FE7C701B60157D718162CF46CE175E05F
:104E7000C801B2DEA1C02FEF3FEF4FE75FE4C501ED
:104E8000B4010E94DA2F18162CF460E275E0C80114
:104E9000A3DE92C02FEF3FEF4FE75FECC501B401F7
:104EA0003AD788232CF460E275E0C80195DE84C00F
:104EB00020E030E0A901C501B4012DD788234CF4CE
:104EC0006DE2C8019FDE7C01B7FAB094B7F8B094E8
:104ED00002C0E12CF12C772009F45CC0D12C60E0F9
:104EE00070E080E09FE320E030E040E251E417D73B
:104EF000D394D710F8CF27C020E030E040E251E44F
:104F0000C501B4010E94DE2F4B015C0170D76B011B
:104F1000770FEE08FF082AE030E0B701A601C801CC
:104F200008DF480E591EC701B60194D79B01AC019A
:104F3000C501B4018BD64B015C017A947110DCCFB2
:104F4000842D952D39C09B01AC01C501B4017FD6DC
:104F50004B015C0151D769837A838B839C8378D71B
:104F60009B01AC01C501B40171D64B015C012AE083
:104F700030E049815A816B817C81C80127DF6C0157
:104F80006EEB72E0C80128DE8C0D9D1D2C014E0CCD
:104F90005F1CB2CF20E030E040E05FE3C501B40128
:104FA00056D62AD7AB01BC012AE030E0C8010EDF9B
:104FB0002C014E0C5F1CC4CF0F900F900F900F90E0
:104FC000DF91CF911F910F91FF90EF90DF90CF90E5
:104FD000BF90AF909F908F907F905F904F9008957B
:104FE0000ACF08950F931F93CF93DF93EC0103DF54
:104FF0008C01CE010FDE800F911FDF91CF911F91A9
:105000000F9108958230A9F028F4882349F0813067
:1050100051F00895843021F1E8F0853039F1089598
:1050200010926E000895EFE6F0E080818D7F80831E
:105030000895E0E7F0E080818D7F808381E08093B8
:10504000B000E1EBF0E08081887F84608083109283
:10505000B3000895E1E7F0E080818D7F80830895BB
:10506000E2E7F0E080818D7F80830895E3E7F0E060
:1050700080818D7F80830895CF93C82F80910B020C
:105080008C1308C0E0E7F5E0E4918E2F9FEF90933A
:105090000B0201C08FEFB6DF60E08C2FC6D3CF913B
:1050A00008951F920F920FB60F9211240BB60F9214
:1050B0002F933F934F935F936F937F938F939F9320
:1050C000AF93BF93EF93FF938091E20C9091E30C29
:1050D000A091E40CB091E50C892B8A2B8B2B51F11C
:1050E0008091DF0CE091E00CF091E10C9081892738
:1050F00080838091E20C9091E30CA091E40CB0913C
:10510000E50C181619061A061B06BCF48091E20C71
:105110009091E30CA091E40CB091E50C0197A109EA
:10512000B1098093E20C9093E30CA093E40CB0934C
:10513000E50C03C080910B029FDFFF91EF91BF91BF
:10514000AF919F918F917F916F915F914F913F911F
:105150002F910F900BBE0F900FBE0F901F901895C0
:105160001F920F920FB60F9211240BB60F922F932E
:105170003F934F935F936F937F938F939F93AF93DF
:10518000BF93EF93FF938091EA0C9091EB0C892BE6
:1051900029F0E091EA0CF091EB0C1995FF91EF9159
:1051A000BF91AF919F918F917F916F915F914F913F
:1051B0003F912F910F900BBE0F900FBE0F901F903D
:1051C00018951F920F920FB60F9211240BB60F92E3
:1051D0002F933F934F935F936F937F938F939F93FF
:1051E000AF93BF93EF93FF938091EC0C9091ED0CF4
:1051F000892B29F0E091EC0CF091ED0C1995FF91C1
:10520000EF91BF91AF919F918F917F916F915F913E
:105210004F913F912F910F900BBE0F900FBE0F90AB
:105220001F9018951F920F920FB60F9211240BB674
:105230000F922F933F934F935F936F937F938F932F
:105240009F93AF93BF93EF93FF938091EE0C909158
:10525000EF0C892B29F0E091EE0CF091EF0C1995F1
:10526000FF91EF91BF91AF919F918F917F916F913E
:105270005F914F913F912F910F900BBE0F900FBEFA
:105280000F901F9018951F920F920FB60F92112436
:105290000BB60F922F933F934F935F936F937F9330
:1052A0008F939F93AF93BF93EF93FF938091F00CF5
:1052B0009091F10C892B29F0E091F00CF091F10C18
:1052C0001995FF91EF91BF91AF919F918F917F9130
:1052D0006F915F914F913F912F910F900BBE0F9067
:1052E0000FBE0F901F9018951F920F920FB60F923E
:1052F00011240BB60F922F933F934F935F936F93AD
:105300007F938F939F93AF93BF93EF93FF9380917E
:10531000E60C9091E70C892B29F0E091E60CF091D6
:10532000E70C1995FF91EF91BF91AF919F918F91EC
:105330007F916F915F914F913F912F910F900BBE95
:105340000F900FBE0F901F9018951F920F920FB6DF
:105350000F9211240BB60F922F933F934F935F93AD
:105360006F937F938F939F93AF93BF93EF93FF932D
:105370008091E80C9091E90C892B29F0E091E80CE0
:10538000F091E90C1995FF91EF91BF91AF919F9129
:105390008F917F916F915F914F913F912F910F90DE
:1053A0000BBE0F900FBE0F901F9018951F920F927B
:1053B0000FB60F9211240BB60F922F933F934F937A
:1053C0005F936F937F938F939F93AF93BF93EF936D
:1053D000FF938091F20C9091F30C892B29F0E091CE
:1053E000F20CF091F30C1995FF91EF91BF91AF91F1
:1053F0009F918F917F916F915F914F913F912F91ED
:105400000F900BBE0F900FBE0F901F9018951F921C
:105410000F920FB60F9211240BB60F922F933F935A
:105420004F935F936F937F938F939F93AF93BF93AC
:10543000EF93FF938091F40C9091F50C892B29F058
:10544000E091F40CF091F50C1995FF91EF91BF915B
:10545000AF919F918F917F916F915F914F913F910C
:105460002F910F900BBE0F900FBE0F901F901895AD
:105470001F920F920FB60F9211242F933F938F9389
:105480009F93AF93BF938091F70C9091F80CA091EC
:10549000F90CB091FA0C3091F60C23E0230F2D3764
:1054A00020F40196A11DB11D05C026E8230F029628
:1054B000A11DB11D2093F60C8093F70C9093F80C6E
:1054C000A093F90CB093FA0C8091FB0C9091FC0C1A
:1054D000A091FD0CB091FE0C0196A11DB11D809311
:1054E000FB0C9093FC0CA093FD0CB093FE0CBF91B1
:1054F000AF919F918F913F912F910F900FBE0F9081
:105500001F9018952FB7F8946091F70C7091F80CD4
:105510008091F90C9091FA0C2FBF08953FB7F89441
:105520008091FB0C9091FC0CA091FD0CB091FE0CB5
:1055300026B5A89B05C02F3F19F00196A11DB11DEE
:105540003FBFBA2FA92F982F8827820F911DA11D29
:10555000B11DBC01CD01660F771F881F991F660F13
:10556000771F881F991F0895CF92DF92EF92FF92C5
:10557000CF93DF936B017C01D1DFEB01C114D10428
:10558000E104F10499F090DAC9DF6C1B7D0B683EF1
:10559000734038F081E0C81AD108E108F108C85119
:1055A000DC4FC114D104E104F10469F7DF91CF911C
:1055B000FF90EF90DF90CF9008958230910538F002
:1055C000880F991F880F991F05970197F1F7089584
:1055D000789484B5826084BD84B5816084BD85B5CE
:1055E000826085BD85B5816085BDEEE6F0E0808195
:1055F00081608083E1E8F0E01082808182608083B6
:10560000808181608083E0E8F0E080818160808338
:10561000E1EBF0E0808184608083E0EBF0E080816A
:1056200081608083E1E9F0E0808182608083808115
:1056300081608083E0E9F0E0808181608083E1EA3D
:10564000F0E0808182608083808181608083E0EAF5
:10565000F0E0808181608083E1E2F1E0808182601E
:105660008083808181608083E0E2F1E080818160DD
:105670008083EAE7F0E080818460808380818260BB
:1056800080838081816080838081806880831092A4
:10569000C1000895863308F08653EBE7F0E090816F
:1056A000282F2870977F922B9083877020910C026F
:1056B00090E4299F90011124822B80937C00EAE7DB
:1056C000F0E0808180648083808186FDFDCF8091C1
:1056D00078002091790090E0922B089590E0FC01F1
:1056E0003197E231F10508F060C08827E55BFE4F95
:1056F0008F4F00C5E0E8F0E080818F7780830895C8
:10570000E0E8F0E080818F7D80830895E0E8F0E0BC
:105710008081877F8083089584B58F7784BD0895C5
:1057200084B58F7D84BD0895E0EBF0E080818F77B4
:1057300080830895E0EBF0E080818F7D8083089581
:10574000E0E9F0E080818F7780830895E0E9F0E080
:1057500080818F7D80830895E0E9F0E08081877FFC
:1057600080830895E0EAF0E080818F778083089558
:10577000E0EAF0E080818F7D80830895E0EAF0E048
:105780008081877F80830895E0E2F1E080818F77D8
:1057900080830895E0E2F1E080818F7D8083089529
:1057A000E0E2F1E08081877F80830895CF93DF93EB
:1057B00090E0FC01E954FA4F2491FC01E350FA4FC8
:1057C0008491882379F190E0880F991FFC01E958B2
:1057D000F94FA591B491FC01E35AF94FC591D491C9
:1057E00061110CC09FB7F8948C91E22FE0958E2345
:1057F0008C932881E223E8839FBF14C0623061F458
:105800009FB7F8943C91822F809583238C93E881F5
:10581000E22BE8839FBF06C08FB7F894EC91E22B90
:10582000EC938FBFDF91CF9108951F93CF93DF93B8
:10583000282F30E0F901EF58FA4F8491F901E9542B
:10584000FA4F1491F901E350FA4FC491CC23C9F0F7
:10585000D62F811143DFEC2FF0E0EE0FFF1FE35A4C
:10586000F94FA591B4918FB7F894D11106C09C91CE
:10587000E12FE095E923EC9303C0EC91E12BEC934D
:105880008FBFDF91CF911F910895CF93DF93282F82
:1058900030E0F901EF58FA4F8491F901E954FA4FD9
:1058A000D491F901E350FA4FC491CC2389F08111CE
:1058B00015DFEC2FF0E0EE0FFF1FED5BF94FA59128
:1058C000B491EC91ED2381E090E021F480E002C0FE
:1058D00080E090E0DF91CF910895FC01808191817B
:1058E000D9C40895CF93DF93EC0188819981009703
:1058F00009F0D0D4198218821D821C821B821A8260
:10590000DF91CF9108950F931F93CF93DF93EC0115
:105910008B016F5F7F4F8881998154D5009731F05B
:10592000998388831B830A8381E001C080E0DF9133
:10593000CF911F910F910895CF93DF93FC012081A8
:105940003181232B29F0228133812617370768F410
:10595000EC01D9DF882361F08C819D81892B39F49A
:10596000E881F981108281E003C081E001C081E01B
:10597000DF91CF910895EF92FF920F931F93CF93F2
:10598000DF93EC017B018A01BA01D6DF811103C0EC
:10599000CE01A8DF06C01D830C83B70188819981E1
:1059A00002D6CE01DF91CF911F910F91FF90EF9022
:1059B0000895FC01118210821382128215821482D2
:1059C0006115710549F0FB0101900020E9F731975D
:1059D000AF01461B570BCFCF0895CF93DF93EC0158
:1059E000FB018617970751F0608171816115710580
:1059F00021F044815581BFDF01C074DFCE01DF910A
:105A0000CF910895FC0111821082138212821582B7
:105A10001482E3CF0895CF93DF93EC0161157105F4
:105A200051F0FB0101900020E9F73197AF01461BCF
:105A3000570BA1DF01C056DFCE01DF91CF91089552
:105A40000F931F93CF93DF93CDB7DEB762970FB657
:105A5000F894DEBF0FBECDBF8C01CB01F8011182DF
:105A60001082138212821582148250E0BE016F5F91
:105A70007F4FA0D5BE016F5F7F4FC801CCDF62961C
:105A80000FB6F894DEBF0FBECDBFDF91CF911F914F
:105A90000F9108950F931F93CF93DF93CDB7DEB788
:105AA00061970FB6F894DEBF0FBECDBF8C01CB015E
:105AB000F80111821082138212821582148250E042
:105AC000BE016F5F7F4FCDD5BE016F5F7F4FC801B5
:105AD000A2DF61960FB6F894DEBF0FBECDBFDF9197
