S016000050726F6A6563744E61727768616C2E737265636A
S113000006C200000C94283D0C94593D0C948A3D82
S11300100C94BB3D0C94EC3D0C941D3E0C944E3E54
S11300200C947F3E25C2000023C2000021C20000C0
S11300301FC200000C94C93C1BC2000019C200007E
S113004017C2000015C2000013C2000011C2000054
S11300500C9409320DC200000BC200000C94B03E97
S113006007C200000C9449370C94853701C2000084
S1130070FFC10000FDC10000FBC10000F9C1000088
S1130080F7C10000F5C10000F3C10000F1C1000098
S11300900C94E4370C942038EBC100000C942D33FD
S11300A0E7C10000E5C10000E3C10000E1C10000B8
S11300B0DFC10000DDC10000DBC10000D9C10000C8
S11300C0D7C10000D5C10000D3C100000C947F3813
S11300D00C94BB38CDC100000C941A390C945639D9
S11300E0C7C10000BA26862693265E266926722694
S11300F07D269E26A826BE273B276027C126DB2611
S1130100F526182785279B27D927F5273534383432
S11301103834383438343834383438344F33383465
S11301203834383438343834383438344F33383455
S1130130383438343834383438343834573338343D
S11301403834383438343834383438347C33383408
S1130150383438343834383438343834573338341D
S113016038343834383438343834383481333834E3
S113017038343834383438343834383486333834CE
S113018038343834383438343834383497333834AD
S1130190383438343834383438343834C033383474
S11301A03834383438343834383438348B33383499
S11301B0383438343834383438343834A53338346F
S11301C0383438343834383438343834C233383442
S11301D0383438343834383438343834C233383432
S11301E0383438343834383438343834C233383422
S11301F0383438343834383438343834C233383412
S1130200383438343834383438343834CB333834F8
S1130210383438343834383438343834FC333834B7
S1130220383438343834383438343834CB333834D8
S1130230383438343834383438343834FC33383497
S1130240383438343834383438343834E3333834A0
S11302503834383438343834383438340034383472
S11302603834383438343834383438340034383462
S1130270383438343834383438343834153438343D
S11302803834383438343834383438342F34383413
S11302903834383438343834383438342F3404402B
S11302A00840F23FF83FFE3F4D400C4012401840DA
S11302B01E4024402A40304036404D403C4042409D
S11302C048404261636B00416C61726D20546573F8
S11302D074000200000A0B02090C0D0E0807030447
S11302E00100000000000000000000000000000009
S11302F000000000000000000000000000000012E8
S113030011100000000000000000000000000000C8
S11303100000000000000000000102102020080876
S11303201020401020408002010201080402010153
S1130330020408102040808040201008040201803C
S11303400402018040201008040201080402010193
S11303500204081020408001020408102040800597
S1130360050505070508080808020202020A0A082A
S11303700804040404010101010101010103030350
S11303800303030303040707070C0C0C0C0C0C0CED
S11303900C0202020206060606060606060B0B0BF4
S11303A00B0B0B0B0B000020002300260029002C54
S11303B0002F0032000001000003010601090100C2
S11303C0002200250028002B002E003100340002FA
S11303D0010000050108010B010000210024002791
S11303E0002A002D00300033000101000004010741
S11303F0010A0100130328054B0A4E0D530E1E3546
S1130400D935B7375238ED388839F5393D081124D4
S11304101FBECFEFD1E2DEBFCDBF00E00CBF15E0C1
S1130420A0E0B2E0E6E3FEE800E00BBF02C0079004
S11304300D92AE3EB107D9F72BE0AEEEB5E001C0A8
S11304401D92A032B207E1F711E0C6E0D2E000E06D
S113045006C021970109802FFE010E94B044CA3FC3
S1130460D10780E00807A9F70E94013A0C940A47D3
S1130470C7CDAF92BF92CF92DF92EF92FF920F93CC
S11304801F93CF93DF93CDB7DEB7A4970FB6F8943D
S1130490DEBF0FBECDBF0091EE051091EF050C5FDE
S11304A01F4F69E972E0CE014F960E945141B80195
S11304B0CE014F960E94EE4168E674E00E94FF412F
S11304C0BC0182E898E00E943E3ACE014F960E9419
S11304D0E5406091F0057091F1058091EE059091F1
S11304E0EF050E949E2862EF75E08091EE059091E1
S11304F0EF050E94D4286CEA72E0CE0149960E946E
S113050051418DE190E00E940B3A8C01BE01675E7F
S11305107F4F0E946410CE0149960E94E54069EB2A
S113052072E0CE0143960E9451418EE290E00E9417
S11305300B3A7C01BE016D5E7F4F0E94211ACE01F1
S113054043960E94E54062EC72E0CE010D960E9453
S113055051418AE090E00E940B3A5C01A801BE017F
S1130560635F7F4F0ED18EE390E00E940B3A6C01E3
S1130570950143E060E00E94DB25B601C7010E94BB
S11305806D1ACE010D960E94E54069EB72E0CE0132
S113059007960E9451418AE090E00E940B3A6C0158
S11305A0A701BE01695F7F4F0CD1B601C8010E944B
S11305B09210CE0107960E94E54067EC72E0CE01EE
S11305C001960E9451418AE090E00E940B3A7C011E
S11305D0A801BE016F5F7F4FD4D0B701C8010E944C
S11305E09210CE0101960E94E540B8018091EE057B
S11305F09091EF050E9428296DEC72E082E898E062
S11306000E94873AA4960FB6F894DEBF0FBECDBF02
S1130610DF91CF911F910F91FF90EF90DF90CF90DA
S1130620BF90AF9008950F931F93CF93DF9300D0A3
S113063000D0CDB7DEB763ED72E0CE0101960E9423
S1130640514186E190E00E940B3A8C01BE016F5F3C
S11306507F4F0E947B281093EF050093EE05CE0197
S113066001960E94E54026960FB6F894DEBF0FBEB1
S1130670CDBFDF91CF911F910F910895CF93DF9359
S1130680EC0109960E94E540CE0103960E94E540E4
S1130690DF91CF910895CF93DF93EC018A81882372
S11306A019F0823039F00BC088810E94BD40988BCC
S11306B08F8705C088810E94BD40988B8F878F8566
S11306C09889DF91CF9108950F931F93CF93DF9370
S11306D0EC018B018A81813021F061E088810E94E4
S11306E04E40188B0F8761E088810E944E406F85D1
S11306F088810E948D40DF91CF911F910F910895C1
S11307007F928F929F92AF92BF92CF92DF92EF929D
S1130710FF920F931F93CF93DF93EC015B01742E31
S1130720690148018FEF9FEF998388831A827E01C4
S113073083E0E80EF11C66ED72E0C7010E945141AE
S11307408E01075F1F4F6BED72E0C8010E9451419B
S1130750B982A8827A82B601C7010E948341B4019A
S1130760C8010E948341DF91CF911F910F91FF90A7
S1130770EF90DF90CF90BF90AF909F908F907F903D
S11307800895EF92FF920F931F93CF93DF93EC01A1
S11307907B018A0160EE75E00E9451411F821E8236
S11307A019861886B701CE010E94834119861886DE
S11307B01F830E83DF91CF911F910F91FF90EF90D4
S11307C00895EF92FF920F931F93CF93DF93EC0161
S11307D07B018A0160EE75E00E9451411F821E82F6
S11307E019861886B701CE010E94834119870887AC
S11307F01F821E82DF91CF911F910F91FF90EF9086
S11308000895FC01CB01608571856115710519F0AE
S11308100C942E290895668177816115710511F074
S11308200C9428290895CF93DF93EC010D960E9430
S1130830E540CE0107960E94E540CE010E94E540C6
S1130840DF91CF910895CF93DF93EC01FB01868173
S1130850813069F018F0823081F015C0FB0166899F
S113086077896D5F7F4FCE010E9498410CC0695F0C
S11308707F4FCE010E94984106C0695F7F4FCE0131
S11308800E94984100C0CE01DF91CF910895CF938B
S1130890DF93EC01FB018681813069F018F082302E
S11308A081F015C0FB0166897789675F7F4FCE01B0
S11308B00E9498410CC0635F7F4FCE010E94984113
S11308C006C0635F7F4FCE010E94984100C0CE01F5
S11308D0DF91CF910895DC0116962C91213051F0CF
S11308E018F0223059F014C0FC0186899789D3DEB0
S11308F09C010FC0FC01238930E00BC0DC0154963D
S1130900ED91FC915597208153962C9330E001C0D2
S11309100895822F932F0895CF93DF93FC0186814E
S11309208130A1F018F08230B1F01FC0C689D78998
S1130930CE01B1DE892B29F060E070E0CE01C4DE87
S113094014C061E070E0CE01BFDE0FC0938981E086
S11309508927838B0AC0A489B589938981E0892773
S11309608C93A489B5898C91838BDF91CF91089561
S1130970EF92FF920F931F93CF93DF93EC017B01D0
S11309808A0160EE75E00E94514181E08E8366ED3C
S113099072E0CE0107960E9451416BED72E0CE01E8
S11309A00D960E9451411B8A1D8A1C8A1F8A1E8A29
S11309B0B701CE010E9483411E821F8B0E8BDF91F3
S11309C0CF911F910F91FF90EF9008958091400671
S11309D0909141060E94BA2E809126069091270696
S11309E00E94BA2E80910A0690910B060E94BA2E9C
S11309F08091F0059091F1050C94BA2E0895EF9230
S1130A000F93CF93DF93EC01E12C0E94742E198A8B
S1130A10188A1B8A1A8A1D8A1C8A1F8A1E8A198EA2
S1130A20188E1B8E1A8E1D8E1C8E1F8E1E8E18A263
S1130A3019A21AA21BA21CA21DA21EA21FA219A6C1
S1130A4018A61BA61AA6DF91CF910F91EF900895D7
S1130A506F927F928F929F92AF92BF92CF92DF92CA
S1130A60EF92FF920F931F93CF93DF93CDB7DEB72F
S1130A70CC5CD1090FB6F894DEBF0FBECDBF61EEDA
S1130A8072E0CE0101960E94514164EE72E0CE0103
S1130A9007960E9451418E010F5F1F4F9E01295FEF
S1130AA03F4F41E061E370E089E597E029DECE0144
S1130AB007960E94E540C8010E94E54061EE72E09D
S1130AC0CE010D960E94514164EE72E0CE01439630
S1130AD00E945141045F1F4F9E012D5E3F4F41E034
S1130AE060E370E088E497E00BDECE0143960E9459
S1130AF0E540C8010E94E54061EE72E0CE014996EE
S1130B000E94514164EE72E0CE014F960E94514121
S1130B10045F1F4F9E01215E3F4F41E06FE270E092
S1130B2087E397E0EDDDCE014F960E94E540C801D2
S1130B300E94E54061EE72E0CE0185960E9451412B
S1130B4064EE72E0CE018B960E945141045F1F4F08
S1130B509E01255D3F4F41E06EE270E086E297E042
S1130B60CFDDCE018B960E94E540C8010E94E5408E
S1130B7061EE72E0CE01C1960E94514164EE72E0D2
S1130B80CE01C7960E945141045F1F4F9E01295C0C
S1130B903F4F41E06DE270E085E197E0B1DDCE01C9
S1130BA0C7960E94E540C8010E94E54061EE72E0EC
S1130BB0CE01CD960E94514164EE72E0CE018D5B70
S1130BC09F4F0E945141045F1F4F9E012D5B3F4F79
S1130BD041E06CE270E084E097E092DDCE018D5B51
S1130BE09F4F0E94E540C8010E94E54061EE72E01B
S1130BF0CE01875B9F4F0E94514164EE72E0CE01AB
S1130C00815B9F4F0E945141045F1F4F9E01215BF6
S1130C103F4F41E06BE270E083EF96E071DDCE017F
S1130C20815B9F4F0E94E540C8010E94E54061EE50
S1130C3072E0CE018B5A9F4F0E94514164EE72E0E4
S1130C40CE01855A9F4F0E945141045F1F4F9E0160
S1130C50255A3F4F41E06AE270E082EE96E050DDB3
S1130C60CE01855A9F4F0E94E540C8010E94E5408D
S1130C7061EE72E0CE018F599F4F0E94514164EEA4
S1130C8072E0CE0189599F4F0E945141045F1F4F6A
S1130C909E0129593F4F41E069E270E081ED96E001
S1130CA02FDDCE0189599F4F0E94E540C8010E9463
S1130CB0E54061EE72E0CE0183599F4F0E9451419D
S1130CC064EE72E0CE018D589F4F0E945141045F43
S1130CD01F4F9E012D583F4F41E068E270E080ECC9
S1130CE096E00EDDCE018D589F4F0E94E540C8016D
S1130CF00E94E54061EE72E0CE0187589F4F0E944A
S1130D00514164EE72E0CE0181589F4F0E945141DF
S1130D10045F1F4F9E0121583F4F41E067E270E09E
S1130D208FEA96E0EDDCCE0181589F4F0E94E540AA
S1130D30C8010E94E54061EE72E0CE018B579F4FDF
S1130D400E94514164EE72E0CE0185579F4F0E948C
S1130D505141045F1F4F9E0125573F4F41E066E21A
S1130D6070E08EE996E0CCDCCE0185579F4F0E945F
S1130D70E540C8010E94E54061EE72E0CE018F5665
S1130D809F4F0E94514164EE72E0CE0189569F4FFD
S1130D900E945141045F1F4F9E0129563F4F41E07D
S1130DA065E270E08DE896E0ABDCCE0189569F4F9A
S1130DB00E94E540C8010E94E54061EE72E0CE0168
S1130DC083569F4F0E94514164EE72E0CE018D55CF
S1130DD09F4F0E945141045F1F4F9E012D553F4F6D
S1130DE041E064E270E08CE796E08ADCCE018D5548
S1130DF09F4F0E94E540C8010E94E54061EE72E009
S1130E00CE0187559F4F0E94514164EE72E0CE019E
S1130E1081559F4F0E945141045F1F4F9E012155F0
S1130E203F4F41E063E270E08BE696E069DCCE017F
S1130E3081559F4F0E94E540C8010E94E54061EE44
S1130E4072E0CE018B549F4F0E94514164EE72E0D8
S1130E50CE0185549F4F0E945141045F1F4F9E0154
S1130E6025543F4F41E063E270E08AE596E048DCB8
S1130E70CE0185549F4F0E94E540C8010E94E54081
S1130E800F2EF7E08F2EF02D0F2EF6E0AF2EF02D63
S1130E900F2EF5E0CF2EF02D6894EE24E2F800E05A
S1130EA021E042E067E282E496E00E9427318CE28E
S1130EB090E00E940B3A7C0104E028E146E167E1FE
S1130EC09EDDF0924106E09240066894EE24E2F83A
S1130ED000E021E042E066E288E296E00E942731E9
S1130EE08CE290E00E940B3A7C0104E02BE149E1A2
S1130EF06AE185DDF0922706E092260668EE72E04C
S1130F00CE018F539F4F0E94514126E032E0A90148
S1130F1064E270E0CE0189539F4F0E94E02B88E386
S1130F2090E00E940B3A3C0180E48F9380EA8F9317
S1130F301F921F9282E48F939CE49F931F921F92AF
S1130F408F9388EC8F931F921F9284E48F938AEF80
S1130F508F931F921F920F2E812C912CFAEFAF2E9C
S1130F60F4E4BF2EF02DC953DF4FC880C75CD040D6
S1130F70C853DF4FD880C85CD040C753DF4FE880E8
S1130F80C95CD040C653DF4FF880CA5CD040C5531B
S1130F90DF4F0881CB5CD040C453DF4F1881CC5C59
S1130FA0D0402AE330E046E350E0BE016F537F4F68
S1130FB0C3010E94D52C7092250660922406CE01AE
S1130FC08F539F4F0E94E5400F2EF7E08F2EF02D98
S1130FD00F2EF6E0AF2EF02D0F2EF5E0CF2EF02DD4
S1130FE06894EE24E2F800E021E042E065E28CE05F
S1130FF096E00E9427318CE290E00E940B3A7C013B
S113100004E02EE14CE16DE1FADCF0920B06E09293
S11310100A066894EE24E2F800E021E042E063E28C
S113102082EF95E00E9427318CE290E00E940B3A17
S11310307C0104E021E24FE160E2E1DCF092F105A1
S1131040E092F0050FB6F894DEBF0FBECDBFC453D7
S1131050DF4F0FB6F894DEBF0FBECDBFDF91CF9147
S11310601F910F91FF90EF90DF90CF90BF90AF90C2
S11310709F908F907F906F9008958AE596E0FEDAB6
S11310808BE696E0FBDA8CE796E0F8DA8DE896E0FA
S1131090F5DA8EE996E0F2DA8FEA96E0EFDA80ECA0
S11310A096E0ECDA81ED96E0E9DA82EE96E0E6DAB3
S11310B083EF96E0E3DA84E097E0E0DA85E197E015
S11310C0DDDA86E297E0DADA87E397E0D7DA88E4D4
S11310D097E0D4DA89E597E0D1CA089563EF72E026
S11310E082E898E00E944D3A40E063E082E496E0B2
S11310F00E94FD3061E082E496E00E94113120E01C
S113110044E064E182E496E00E94F43140E063E06C
S113111088E296E00E94FD3061E088E296E00E9459
S1131120113120E044E064E188E296E00E94F43169
S113113040E063E08CE096E00E94FD3061E08CE0EA
S113114096E00E94113120E044E064E18CE096E0F6
S11311500E94F43140E063E082EF95E00E94FD30AC
S113116061E082EF95E00E94113120E044E064E107
S113117082EF95E00E94F4316DEC72E082E898E031
S11311800E94873A68E073E082E898E00E944D3A52
S1131190E1E8F0E080E180831092800091E0909398
S11311A0B90720E43FE13093BB072093BA0730939B
S11311B08700209386008091B9078061808326EEA2
S11311C034E03093B8072093B70790936F00609191
S11311D02606709127068091AA079091AB070E947A
S11311E09E2868E276E08091AA079091AB070E945E
S11311F0D42860910A0670910B068091AE079091F5
S1131200AF070E949E286CE076E08091AE07909133
S1131210AF070E94D4286091F0057091F105809188
S1131220EE059091EF050E949E2862EF75E0809193
S1131230EE059091EF050E94D42861E070E089E505
S113124097E042DA61E070E088E497E03DDA61E03B
S113125070E087E397E038DA61E070E086E297E0D7
S113126033DA61E070E085E197E02EDA61E070E066
S113127084E097E029DA61E070E083EF96E024DA15
S113128061E070E082EE96E01FDA61E070E081EDEB
S113129096E01ADA61E070E080EC96E015DA61E03D
S11312A070E08FEA96E010DA61E070E08EE996E093
S11312B00BDA61E070E08DE896E006DA61E070E058
S11312C08CE796E001DA61E070E08BE696E0FCD909
S11312D061E070E08AE596E0F7D96DEC72E082E8AF
S11312E098E00C94873A0895AF92BF92CF92DF9220
S11312F0EF92FF920F931F93CF93DF93CDB7DEB797
S1131300A4970FB6F894DEBF0FBECDBF0091AA0715
S11313101091AB070C5F1F4F69E972E0CE014F9645
S11313200E945141B801CE014F960E94EE4168E6F9
S113133074E00E94FF41BC0182E898E00E943E3ABA
S1131340CE014F960E94E5406091260670912706D3
S11313508091AA079091AB070E949E2868E276E0EC
S11313608091AA079091AB070E94D42861E273E0B0
S1131370CE0149960E9451418DE190E00E940B3AC2
S11313808C01BE01675E7F4F9FD6CE0149960E94B5
S1131390E54069EB72E0CE0143960E9451418EE232
S11313A090E00E940B3A7C01BE016D5E7F4F0E946B
S11313B0211ACE0143960E94E54062EC72E0CE0110
S11313C00D960E9451418AE090E00E940B3A5C0124
S11313D0A801BE01635F7F4FD4D98EE390E00E94E1
S11313E00B3A6C01950143E060E00E94DB25B601F5
S11313F0C7010E946D1ACE010D960E94E54069EB6B
S113140072E0CE0107960E9451418AE090E00E946A
S11314100B3A6C01A701BE01695F7F4FD2D9B601B7
S1131420C80180D6CE0107960E94E54067EC72E0C1
S1131430CE0101960E9451418AE090E00E940B3A4D
S11314407C01A801BE016F5F7F4F9BD9B701C80122
S113145069D6CE0101960E94E540B8018091AA07A1
S11314609091AB070E9428296DEC72E082E898E025
S11314700E94873AA4960FB6F894DEBF0FBECDBF84
S1131480DF91CF911F910F91FF90EF90DF90CF905C
S1131490BF90AF9008950F931F93CF93DF9300D025
S11314A000D0CDB7DEB76FE273E0CE0101960E94A3
S11314B0514186E190E00E940B3A8C01BE016F5FBE
S11314C07F4F0E947B281093AB070093AA07CE019D
S11314D001960E94E54026960FB6F894DEBF0FBE33
S11314E0CDBFDF91CF911F910F9108954F925F92DD
S11314F06F927F928F929F92AF92BF92CF92DF9220
S1131500EF92FF920F931F93CF93DF93CDB7DEB784
S1131510C059D1090FB6F894DEBF0FBECDBF0091FC
S1131520AC071091AD070C5F1F4F69E972E0CE0163
S113153085579F4F0E945141B801CE0185579F4F57
S11315400E94EE4168E674E00E94FF41BC0182E81B
S113155098E00E943E3ACE0185579F4F0E94E54095
S113156063E373E0CE018B579F4F0E9451418DE19D
S113157090E00E940B3A8C01BE016B577F4FA4D5BB
S1131580CE018B579F4F0E94E540609140067091B9
S113159041068091AC079091AD070E949E2862E4B9
S11315A076E08091AC079091AD070E94D428B801F1
S11315B08091AC079091AD070E94282967EC72E0F6
S11315C0CE0181589F4F0E94B7418DE190E00E9467
S11315D00B3A7C01BE0161587F4F76D5CE0181580C
S11315E09F4F0E94E54062EC72E0CE0187589F4F06
S11315F00E94B7418AE090E00E940B3A6C01A80176
S1131600BE0167587F4FBDD8B601C7018BD5CE0147
S113161087589F4F0E94E54068E373E0CE018D58E0
S11316209F4F0E9451418EE290E00E940B3A7C0150
S1131630BE016D587F4F0E94211ACE018D589F4FD5
S11316400E94E54064E473E0CE0183599F4F0E94F9
S113165051418EE390E00E940B3A6C019E012359A4
S11316603F4F40E060E00E941D25B601C7010E9483
S11316706D1ACE0183599F4F0E94E5408EE390E09E
S11316800E940B3A6C0126EA37E040E064E00E94D5
S11316907C25B601C7010E946D1A69E473E0CE018E
S11316A089599F4F0E9451418EE390E00E940B3A6A
S11316B06C019E0129593F4F41E060E00E941D25C5
S11316C0B601C7010E946D1ACE0189599F4F0E942D
S11316D0E5408EE390E00E940B3A6C0122EA37E089
S11316E041E064E00E947C25B601C7010E946D1AA6
S11316F06EE473E0CE018F599F4F0E9451418EE3F7
S113170090E00E940B3A6C019E012F593F4F42E03A
S113171060E00E941D25B601C7010E946D1ACE012A
S11317208F599F4F0E94E5408EE390E00E940B3A50
S11317306C012EE937E042E064E00E947C25B601AA
S1131740C7010E946D1A63E573E0CE01855A9F4F6D
S11317500E9451418DE190E00E940B3A6C01BE0160
S1131760655A7F4FB1D4CE01855A9F4F0E94E54000
S113177066E573E0CE018B5A9F4F0E94514188E188
S113178090E00E940B3A5C0146E257E0BE016B5ABE
S11317907F4FEED8B501C601F5D4CE018B5A9F4FC9
S11317A00E94E5406FE573E0CE01815B9F4F0E948C
S11317B0514188E190E00E940B3A5C0145E157E019
S11317C0BE01615B7F4FD4D8B501C601DBD4CE0125
S11317D0815B9F4F0E94E54068E673E0CE01875B22
S11317E09F4F0E94514188E190E00E940B3A5C01B6
S11317F044E057E0BE01675B7F4FBAD8B501C6012C
S1131800C1D4CE01875B9F4F0E94E54061E773E03E
S1131810CE018D5B9F4F0E9451418DE190E00E946B
S11318200B3A5C01BE016D5B7F4F4ED4CE018D5BE4
S11318309F4F0E94E54062EC72E0CE01CD960E947B
S113184051418AE090E00E940B3A4C01A801BE018C
S1131850635C7F4F0E94C1038EE390E00E940B3AC9
S11318603C01940143E060E00E94DB25B301C70121
S11318700E946D1ACE01CD960E94E54064E873E0A3
S1131880CE01C7960E9451418AE090E00E940B3A33
S11318904C01A701BE01695C7F4F0E94E103B401C2
S11318A0C50140D4CE01C7960E94E54062EC72E0C7
S11318B0CE01C1960E9451418AE090E00E940B3A09
S11318C07C01A801BE016F5C7F4F0E94C103B70178
S11318D0C50128D4CE01C1960E94E54063E973E0B6
S11318E0CE018B960E9451418EE290E00E940B3A09
S11318F04C01BE01655D7F4F0E94211ACE018B967B
S11319000E94E5406AE973E0CE0185960E94514148
S11319108DE190E00E940B3A7C01BE016B5D7F4F2C
S1131920D3D3CE0185960E94E54062EC72E0CE01ED
S11319304F960E9451418AE090E00E940B3A3C018C
S1131940A701BE01615E7F4F0E94C1038EE390E058
S11319500E940B3A2C01930143E060E00E94DB25D6
S1131960B201C4010E946D1ACE014F960E94E54057
S113197063E973E0CE0149960E9451418AE090E008
S11319800E940B3A3C01A401BE01675E7F4F0E9496
S1131990E103B301C701C6D3CE0149960E94E540D5
S11319A062EC72E0CE0143960E9451418AE090E0DD
S11319B00E940B3A4C01A801BE016D5E7F4F0E944C
S11319C0C103B401C701AED3CE0143960E94E540E2
S11319D06AEA73E0CE010D960E9451418AE090E0DC
S11319E00E940B3A4C01A501BE01635F7F4F0E9428
S11319F0C103B401C80196D3CE010D960E94E540FF
S1131A006AE973E0CE0107960E9451418AE090E0B2
S1131A100E940B3A5C01A701BE01695F7F4F0E94DF
S1131A20C103B501C8017ED3CE0107960E94E540EB
S1131A306AEB73E0CE0101960E9451418AE090E086
S1131A400E940B3A7C01A601BE016F5F7F4F0E948A
S1131A50C103B701C80166D3CE0101960E94E540D7
S1131A606DEC72E082E898E00E94873AC057DF4F3D
S1131A700FB6F894DEBF0FBECDBFDF91CF911F919B
S1131A800F91FF90EF90DF90CF90BF90AF909F9019
S1131A908F907F906F905F904F9008950F931F9356
S1131AA0CF93DF9300D000D0CDB7DEB769EC73E0FD
S1131AB0CE0101960E94514186E190E00E940B3ACA
S1131AC08C01BE016F5F7F4F0E947B281093AD078E
S1131AD00093AC07CE0101960E94E54026960FB60E
S1131AE0F894DEBF0FBECDBFDF91CF911F910F9150
S1131AF00895AF92BF92CF92DF92EF92FF920F932D
S1131B001F93CF93DF93CDB7DEB7A4970FB6F894A6
S1131B10DEBF0FBECDBF0091AE071091AF070C5FC3
S1131B201F4F69E972E0CE014F960E945141B801FE
S1131B30CE014F960E94EE4168E674E00E94FF4198
S1131B40BC0182E898E00E943E3ACE014F960E9482
S1131B50E54060910A0670910B068091AE07909162
S1131B60AF070E949E286CE076E08091AE079091CA
S1131B70AF070E94D4286EEC73E0CE0149960E9410
S1131B8051418DE190E00E940B3A8C01BE01675EE9
S1131B907F4F9AD2CE0149960E94E54069EB72E0EC
S1131BA0CE0143960E9451418EE290E00E940B3A8E
S1131BB07C01BE016D5E7F4F0E94211ACE014396C7
S1131BC00E94E54062EC72E0CE010D960E94514104
S1131BD08AE090E00E940B3A5C01A801BE01635FB9
S1131BE07F4F0E94C1038EE390E00E940B3A6C0188
S1131BF0950143E060E00E94DB25B601C7010E9425
S1131C006D1ACE010D960E94E54069EB72E0CE019B
S1131C1007960E9451418AE090E00E940B3A6C01C1
S1131C20A701BE01695F7F4F0E94E103B601C801AD
S1131C3079D2CE0107960E94E54067EC72E0CE01AE
S1131C4001960E9451418AE090E00E940B3A7C0187
S1131C50A801BE016F5F7F4F0E94C103B701C80195
S1131C6061D2CE0101960E94E540B8018091AE0791
S1131C709091AF070E9428296DEC72E082E898E009
S1131C800E94873AA4960FB6F894DEBF0FBECDBF6C
S1131C90DF91CF911F910F91FF90EF90DF90CF9044
S1131CA0BF90AF9008950F931F93CF93DF9300D00D
S1131CB000D0CDB7DEB76CED73E0CE0101960E9483
S1131CC0514186E190E00E940B3A8C01BE016F5FA6
S1131CD07F4F0E947B281093AF070093AE07CE017D
S1131CE001960E94E54026960FB6F894DEBF0FBE1B
S1131CF0CDBFDF91CF911F910F910895CF93DF93C3
S1131D00EC010E94842F2AA53BA5820F931F9BA759
S1131D108AA728A539A5281739071CF5E88DF98D58
S1131D20309719F42A8D20FF41C099A788A78A8D7E
S1131D309B8D80FF0EC0AE85BF859C013595279590
S1131D40A20FB31F2D913C91E20FF31F0190F0817C
S1131D50E02D959587952E853F85820F931F1995C4
S1131D6025C08217930714F5EC8DFD8D309719F477
S1131D702E8D20FF1BC099A788A78E8D9F8D80FF75
S1131D800EC0AE85BF859C0135952795A20FB31F64
S1131D902D913C91E20FF31F0190F081E02D959578
S1131DA087952E853F85820F931F1995CE010E943A
S1131DB0BF2F882309F454C0853019F0863071F19F
S1131DC04FC088899989892B19F48A8980FF48C072
S1131DD060EE73E082E898E00E94873A8A899B89E2
S1131DE080FD03C0E889F98911C0EE85FF859C0157
S1131DF035952795E20FF31F0190F081E02D288996
S1131E003989E20FF31F0190F081E02D95958795B4
S1131E102E853F85820F931F199522C0EC89FD8979
S1131E20309729F48E899F8980FD05C019C08E8959
S1131E309F8980FF0EC0AE85BF859C01359527958F
S1131E40A20FB31F2D913C91E20FF31F0190F0817B
S1131E50E02D959587952E853F85820F931F1995C3
S1131E60DF91CF910895FC018281938108950F93AE
S1131E701F93CF93DF9300D01F921F92CDB7DEB78D
S1131E808C010DC0D801ED91FC910684F785E02DFD
S1131E90B801CE0101961995CE010196FCD4D80162
S1131EA0ED91FC910190F081E02DC801199518166F
S1131EB0190644F30F900F900F900F900F90DF913D
S1131EC0CF911F910F910895AF92BF92CF92DF925D
S1131ED0EF92FF920F931F93CF93DF9300D01F9243
S1131EE01F92CDB7DEB76C018B01DB0112968D9189
S1131EF09C911397181619061CF0C601C5D438C056
S1131F00029774F1FB01E480F580D7011596AD903A
S1131F10BC90169785E0F701DE01119601900D92B1
S1131F208A95E1F7E114F10429F0C701B4D4C7019B
S1131F300E940E3AF801B582A48222813381215095
S1131F40310933832283148685E0FE013196D6015C
S1131F5001900D928A95E1F7CE0101969CD408C0B8
S1131F60DB01ED91FC910484F585E02DC601199502
S1131F70C6010F900F900F900F900F90DF91CF91AB
S1131F801F910F91FF90EF90DF90CF90BF90AF9093
S1131F900895CF92DF92EF92FF920F931F93CF9306
S1131FA0DF9300D01F921F92CDB7DEB78C016B0177
S1131FB0DC0112968D919C911397892BB9F4ED91C4
S1131FC0FC912481358195E0FB01DE01119601909D
S1131FD00D929A95E1F7BE016F5F7F4FC801F90139
S1131FE01995182FCE01019656D424C087E090E0AD
S1131FF00E940B3A7C0187E0D7011D928A95E9F78C
S1132000C70142D4F80184819581D70116969C9327
S11320108E93159785E0F60101900D928A95E1F76C
S1132020F801F582E482828193810196938382830D
S1132030148611E0812F0F900F900F900F900F9046
S1132040DF91CF911F910F91FF90EF90DF90CF9090
S11320500895EF92FF920F931F93CF93DF93EC01B8
S11320607B0187E090E00E940B3A8C0187E0F80145
S113207011928A95E9F7C80107D485E0F701D801E0
S113208001900D928A95E1F7F801168215828C81F0
S11320909D81892B39F0EE81FF81168305831F838F
S11320A00E8304C01D830C831F830E838A819B814E
S11320B001969B838A831C8681E0DF91CF911F91D7
S11320C00F91FF90EF9008950F931F93CF93DF9399
S11320D0EC018B0160EE75E00E9451418AE094E0CE
S11320E09F838E831B861A861D861C8619861886F6
S11320F01F861E86198A188A1A8A1C8A1B8A1E8AB7
S11321001D8A188E1F8A1A8E198E81E090E09C8F8A
S11321108B8FB801CE010E948341DF91CF911F9133
S11321200F9108950F931F93CF93DF93CDB7DEB72D
S11321302A970FB6F894DEBF0FBECDBF8C01CE0137
S1132140069692D395E0FE013696DE011196019033
S11321500D929A95E1F7BE016F5F7F4FC801069615
S113216078DFCE01019697D3CE01069694D32A96B2
S11321700FB6F894DEBF0FBECDBFDF91CF911F9194
S11321800F9108950F931F93CF93DF93CDB7DEB7CD
S11321902A970FB6F894DEBF0FBECDBF8C01CE01D7
S11321A006966AD395E0FE013696DE0111960190FB
S11321B00D929A95E1F7BE016F5F7F4FC8010696B5
S11321C048DFCE01019667D3CE01069664D32A96E2
S11321D00FB6F894DEBF0FBECDBFDF91CF911F9134
S11321E00F910895CF93DF93EC01898D9A8D019718
S11321F01AF09A8F898F02C01A8E198EBE0182E856
S113220098E00E943E3A60EF73E082E898E00E9412
S11322104D3A698D7A8D4AE050E082E898E00E9458
S1132220493B81E090E09C8F8B8FDF91CF910895A3
S1132230CF93DF93EC01898D9A8D01969A8F898FC4
S1132240288539858217930724F0215031093A8F64
S1132250298FBE0182E898E00E943E3A60EF73E065
S113226082E898E00E944D3A698D7A8D4AE050E008
S113227082E898E00E94493B81E090E09C8F8B8F3C
S1132280DF91CF910895DC011496ED91FC9115979F
S11322901C968C911C97882361F01A962D913C9181
S11322A01B976217730744F01896ED91FC911997E8
S11322B005C020E030E002C020E030E026173707F8
S11322C064F4309751F00580F681E02D2F5F3F4F85
S11322D02617370714F43097B1F72617370779F420
S11322E081E01C968C931C971B963C932E931A9713
S11322F01996FC93EE9318978E2F9F2F089580E0E4
S113230090E00895CF93DF93EC01CB01BA01BBDFDA
S1132310009741F025E0FC01DE0101900D922A9521
S1132320E1F702C0CE01B0D2CE01DF91CF91089582
S11323302F923F924F925F926F927F928F929F92D1
S1132340AF92BF92CF92DF92EF92FF920F931F93BF
S1132350CF93DF9300D01F921F92CDB7DEB7FB015E
S113236006851785FC01238D348D2130310509F054
S113237093C03B017C01502E412E802F912F0E944F
S11323803E3040E060E0802F912F0E94453062E0B3
S113239074E0802F912F0E944D3AB701802F912F26
S11323A00E943E3AF701848195814397C1F000E091
S11323B010E00F2EF3E1CF2ED12CF02D62E074E06B
S11323C0852D942D0E944D3A0F5F1F4FF701848194
S11323D095819601281B390B0217130778F3F7012F
S11323E0818D928D63E070E00E947B448B014701F4
S11323F0F6E08F0E911C5B0123E0A20EB11CF701E5
S113240020853185C5012A153B050CF4C90108173F
S113241019070CF03EC0CC24C394D12C2A2C3B2C9D
S11324204C2D60E0852D942D0E944530F701818D5F
S1132430928D8017910739F464E074E0852D942D12
S11324400E944D3A06C065E575E0852D942D0E94E5
S11324504D3AA801B401CE01019654DF9301A601BF
S113246061E070E0CE01019617D2CE01019613D23D
S1132470FFEFCF1ADF0A0F5F1F4FF7012085318569
S1132480822D932D2A153B050CF4C9010817190751
S11324903CF2F701148E138E0F900F900F900F9053
S11324A00F90DF91CF911F910F91FF90EF90DF90EC
S11324B0CF90BF90AF909F908F907F906F905F90E0
S11324C04F903F902F900895EF92FF920F931F9398
S11324D0CF93DF9300D01F921F92CDB7DEB78C014C
S11324E07B01FC01418D528DBC016A5F7F4FCE019F
S11324F0019608DFB701CE010196BFD2CE01019645
S1132500CAD181E090E0F801948F838F0F900F90EF
S11325100F900F900F90DF91CF911F910F91FF902B
S1132520EF900895AF92BF92CF92DF92EF92FF9215
S11325300F931F93CF93DF9300D01F921F92CDB7B9
S1132540DEB77C018B01FB016281738116161706CD
S113255014F09AD159C0F8011486623071057CF1E7
S113256062507109C8018FDE5C01FC01C580D68010
S113257085E0F601DE01119601900D928A95E1F74E
S1132580C114D10429F0C60186D1C6010E940E3AB5
S1132590F50116821582F801B782A68282819381A1
S11325A001979383828385E0FE013196D7010190E0
S11325B00D928A95E1F7CE0101966DD125C0F801FF
S11325C0C480D58085E0F601DE01119601900D925C
S11325D08A95E1F7C114D10429F0C6015CD1C60182
S11325E00E940E3AF8011582148217821682138211
S11325F0128285E0FE013196D70101900D928A95F1
S1132600E1F7CE01019647D1C7010F900F900F90CB
S11326100F900F90DF91CF911F910F91FF90EF904A
S1132620DF90CF90BF90AF900895CF92DF92EF925A
S1132630FF920F931F93CF93DF9300D01F921F92AB
S1132640CDB7DEB77C018B01552344F0DB01129634
S11326502D913C911397421753071CF0C70114D1D5
S11326604FC04115510541F4DB01ED91FC91068405
S1132670F785E02D199544C02150310924173507F9
S113268041F4DB01ED91FC910484F585E02D19956D
S113269037C0BA0161507109C801F5DDFC01C5807C
S11326A0D68025E0F601DE01119601900D922A955F
S11326B0E1F7D60115962D913C911697FC013683CE
S11326C02583C114D10429F0C601E5D0C6010E94B6
S11326D00E3AD80112968D919C91139701971396F7
S11326E09C938E9312971C961C9285E0FE01319662
S11326F0D70101900D928A95E1F7CE010196CBD0D6
S1132700C7010F900F900F900F900F90DF91CF9112
S11327101F910F91FF90EF90DF90CF900895CF938A
S1132720DF9377238CF0FC012281338162177307D6
S11327306CF4EA01A8DDDC0195E0FE0101900D9244
S11327409A95E1F781E003C080E001C080E0DF9169
S1132750CF910895AF92BF92CF92DF92EF92FF9202
S11327600F931F93CF93DF93CDB7DEB72A970FB69E
S1132770F894DEBF0FBECDBF8C017B015A01DC0192
S113278012968D919C91139768177907BCF0ED917F
S1132790FC912481358195E0FA01DE0116960190C1
S11327A00D929A95E1F7BE016A5F7F4FC801F90166
S11327B01995182FCE0106966ED044C0672BC1F42C
S11327C0D801ED91FC912681378195E0FA01DE0173
S11327D0119601900D929A95E1F7BE016F5F7F4FBC
S11327E0C801F9011995182FCE01019654D02AC0B9
S11327F087E090E00E940B3A6C0187E0D6011D92BD
S11328008A95E9F7C60140D0B70161507109C80142
S11328103ADD25E0F501D60101900D922A95E1F704
S1132820FC0125813681D60116963C932E9315978B
S1132830D682C582F8018281938101969383828333
S1132840148611E0812F2A960FB6F894DEBF0FBECE
S1132850CDBFDF91CF911F910F91FF90EF90DF904B
S1132860CF90BF90AF900895FC01148213827283BD
S1132870618381E080830895FC0112821182748354
S1132880638382E080830895FC01108212821182A6
S113289014821382089508958F929F92AF92BF92EB
S11328A0CF92DF92EF92FF920F931F93CF93DF9318
S11328B0CDB7DEB7A4970FB6F894DEBF0FBECDBF79
S11328C08C01A62EC42EF901E684F784FC018081D4
S11328D0813009F4AFC0823009F0BCC00381148197
S11328E00115110509F4B6C0B801CE0101960E9484
S11328F09841F80186818F83B801695F7F4FCE01CB
S113290008960E949841B801635F7F4FCE010E96EE
S11329100E949841F80183898C8B848995899E8BC8
S11329208D8B86899789988F8F8BDE2CBF2C4C2DAD
S11329306A2D8E2D9F2D0E944530BE016F5F7F4F03
S11329408E2D9F2D0E943E3ABE016F5F7F4FCE01B8
S11329504F960E9423048BA09CA0BE016F5F7F4F03
S1132960CE0149960E9447048D8D9E8D8815990548
S113297004F503E110E008191909A02E4C2D602F6D
S11329808E2D9F2D0E944530053111055CF465E5BF
S113299075E08D2D9B2D0E944D3A0F5F1F4F053121
S11329A01105A9F74C2D6A2D8E2D9F2D0E944530BF
S11329B01FC003E110E0081B190BA02E4C2D602F43
S11329C08E2D9F2D0E944530053111055CF465E57F
S11329D075E08D2D9B2D0E944D3A0F5F1F4F0531E1
S11329E01105A9F74C2D6A2D8E2D9F2D0E9445307F
S11329F0CE0101960E946B04019741F4BE01615E11
S1132A007F4F8E2D9F2D0E943E3A07C0BE01675E08
S1132A107F4F8E2D9F2D0E943E3ACE0149960E94F3
S1132A20E540CE014F960E94E540CE0101960E94FA
S1132A30130410C0F80181819281892B59F08E2DE5
S1132A409F2D0E944530F801618172818E2D9F2D4A
S1132A500E943E3AA4960FB6F894DEBF0FBECDBFD7
S1132A60DF91CF911F910F91FF90EF90DF90CF9066
S1132A70BF90AF909F908F900895CF93DF93EB0119
S1132A80FC012081213019F0223019F12BC0FC0106
S1132A90818192810097D1F48E859F850E943E307A
S1132AA06EE174E08E859F850E94873A65E274E04A
S1132AB08E859F850E94873A68EB7BE080E090E0FA
S1132AC00E942C3FCE010E94D82825C00E940104F8
S1132AD022C0FC01838194810E948C04CE010E9457
S1132AE0D82819C08E859F850E943E306DE374E01E
S1132AF08E859F850E94873A65E474E08E859F8564
S1132B000E94873A68EB7BE080E090E00E942C3FD3
S1132B10CE010E94D828DF91CF910895FC018281D3
S1132B2093810895FC01828193810895CF93DF936B
S1132B30EC0107C0E881F9810684F785E02DCE0118
S1132B401995E881F9810190F081E02DCE01199564
S1132B50181619067CF3DF91CF9108950F931F93F4
S1132B60CF93DF93CDB7DEB7EE970FB6F894DEBF01
S1132B700FBECDBF8C010EC0D801ED91FC9106842F
S1132B80F785E02DB801CE0101961995CE01019685
S1132B900E940C25D801ED91FC910190F081E02D6B
S1132BA0C8011995181619063CF3EE960FB6F89459
S1132BB0DEBF0FBECDBFDF91CF911F910F9108955E
S1132BC0EF92FF920F931F93CF93DF93FC01228127
S1132BD03381121613060CF5EC0122303105ACF0EA
S1132BE00480F581E02DE280F38000811181CF0122
S1132BF00E940E3AFD82EC828A819B8101979B831D
S1132C008A831C86802F912F0AC00190F081E02DC9
S1132C100484F585E02D199502C080E090E0DF91F1
S1132C20CF911F910F91FF90EF9008950F931F93F1
S1132C30CF93DF93EC018B018A819B81892B41F433
S1132C40E881F9810480F581E02DCE01199518C041
S1132C5084E090E00E940B3AFC01118210821382FE
S1132C6012828C819D819383828311830083FD83EF
S1132C70EC838A819B8101969B838A831C8681E0F5
S1132C80DF91CF911F910F9108950F931F93CF93CD
S1132C90DF93EC018B0184E090E00E940B3AFC018D
S1132CA013821282118300832C813D81232B39F0FE
S1132CB0EE81FF81938382839F838E8304C09D83EF
S1132CC08C839F838E838A819B8101969B838A83D5
S1132CD01C8681E0DF91CF911F910F910895EF92AF
S1132CE0FF920F931F93CF93DF937C018B0180E4BA
S1132CF090E00E940B3AEC0180E4DE011D928A957B
S1132D00E9F7CE010E94C524F8018081888381817E
S1132D10898382818A83B8016D5F7F4FCE010396D8
S1132D200E948341F80181859285A385B4858987B2
S1132D309A87AB87BC8785859685A785B0898D875B
S1132D409E87AF87B88B8189898B828993899B8B76
S1132D508A8B848995899D8B8C8B868997899F8B97
S1132D608E8B808D918D998F888F828D938D9B8F83
S1132D708A8FB801645E7F4FCE014C960E948341D6
S1132D80B8016E5D7F4FCE0182960E948341D801C7
S1132D9098968D919C91999799A788A79A968D91C9
S1132DA09C919B979BA78AA79C968D919C919D979C
S1132DB09DA78CA79E968D919C919F979FA78EA768
S1132DC0D0968D919C91D19799AB88ABD2968D91E9
S1132DD09C91D3979BAB8AABD4968D919C91D597BC
S1132DE09DAB8CABD6968D919C91D7979FAB8EABB8
S1132DF0D8968D919C91D99799AF88AFDA968D9199
S1132E009C91DB979BAF8AAFDC968D919C91DD976B
S1132E109DAF8CAF1FAE1EAEF70184819581892BC7
S1132E2059F00680F781E02DD7AFC6AFD7011796CA
S1132E30DC93CE93169705C0F701D583C483D7835B
S1132E40C683D70112968D919C9113970196139680
S1132E509C938E9312971C961C9281E0DF91CF91E4
S1132E601F910F91FF90EF900895AF92BF92CF9270
S1132E70DF92EF92FF920F931F93CF93DF93CDB71F
S1132E80DEB7EE970FB6F894DEBF0FBECDBF8C0150
S1132E906B01DB0112968D919C91139718161906FC
S1132EA024F0C8010E94C52442C102970CF437C122
S1132EB0FB01E480F580D701DE96AD90BC90DF97EE
S1132EC08C91898311968C9111978A8312968C9197
S1132ED08B83B7016D5F7F4FCE0104960E949841AA
S1132EE0F70181859285A385B4858A879B87AC8702
S1132EF0BD8785859685A785B0898E879F87A88B92
S1132F00B98B81898A8B828993899C8B8B8B8489E9
S1132F1095899E8B8D8B86899789988F8F8B808DD1
S1132F20918D9A8F898F828D938D9C8F8B8FB70112
S1132F30645E7F4FCE014D960E949841B7016E5D4D
S1132F407F4FCE0183960E949841D70198968D9128
S1132F509C9199979AA789A79A968D919C919B97F2
S1132F609CA78BA79C968D919C919D979EA78DA7BE
S1132F709E968D919C919F9798AB8FA7D0968D919B
S1132F809C91D1979AAB89ABD2968D919C91D39712
S1132F909CAB8BABD4968D919C91D5979EAB8DAB0E
S1132FA0D6968D919C91D79798AF8FABD8968D91EB
S1132FB09C91D9979AAF89AFDA968D919C91DB97C2
S1132FC09CAF8BAFDC968D919C91DD979EAF8DAFBE
S1132FD0F601E480F580E114F10431F0C7010E94A8
S1132FE00C25C7010E940E3AD6011596BC92AE92EA
S1132FF0149712968D919C911397019713969C9315
S11330008E9312971C961C928981F80180838A8181
S113301081838B818283BE016C5F7F4FC8010396DD
S11330200E9498418A859B85AC85BD85F80181877E
S11330309287A387B4878E859F85A889B989858758
S11330409687A787B08B8A89818B8B899C89938B80
S1133050828B8D899E89958B848B8F89988D978B94
S1133060868B898D9A8D918F808F8B8D9C8D938F7C
S1133070828FBE01635E7F4FC8014C960E949841C7
S1133080BE016D5D7F4FC80182960E94984189A55B
S11330909AA5D80199969C938E9398978BA59CA5F5
S11330A09B969C938E939A978DA59EA59D969C9393
S11330B08E939C978FA598A99F969C938E939E9789
S11330C089A99AA9D1969C938E93D0978BA99CA9F0
S11330D0D3969C938E93D2978DA99EA9D5969C93B3
S11330E08E93D4978FA998ADD7969C938E93D697A9
S11330F089AD9AADD9969C938E93D8978BAD9CADA0
S1133100DB969C938E93DA978DAD9EADDD969C9362
S11331108E93DC97CE0101960E940C2508C0DB013A
S1133120ED91FC910484F585E02DC8011995C80141
S1133130EE960FB6F894DEBF0FBECDBFDF91CF91F0
S11331401F910F91FF90EF90DF90CF90BF90AF90C1
S11331500895CF92DF92EF92FF920F931F93CF9334
S1133160DF93CDB7DEB7EE970FB6F894DEBF0FBE90
S1133170CDBF6C018B01DC0112968D919C9113974C
S1133180892B09F095C0ED91FC91E480F580FB0159
S11331908081898381818A8382818B836D5F7F4F64
S11331A0CE0104960E949841F80181859285A385F9
S11331B0B4858A879B87AC87BD8785859685A785D7
S11331C0B0898E879F87A88BB98B81898A8B8289E6
S11331D093899C8B8B8B848995899E8B8D8B868917
S11331E09789988F8F8B808D918D9A8F898F828DFF
S11331F0938D9C8F8B8FB801645E7F4FCE014D966B
S11332000E949841B8016E5D7F4FCE0183960E9463
S11332109841D80198968D919C9199979AA789A7DE
S11332209A968D919C919B979CA78BA79C968D9128
S11332309C919D979EA78DA79E968D919C919F97FB
S113324098AB8FA7D0968D919C91D1979AAB89AB6F
S1133250D2968D919C91D3979CAB8BABD4968D9148
S11332609C91D5979EAB8DABD6968D919C91D7971B
S113327098AF8FABD8968D919C91D9979AAF89AF1F
S1133280DA968D919C91DB979CAF8BAFDC968D91F8
S11332909C91DD979EAF8DAFBE016F5F7F4FC601DE
S11332A0F7011995182FCE0101960E940C25B9C07B
S11332B080E490E00E940B3A7C0180E4D7011D92E7
S11332C08A95E9F7C7010E94C524F6018481958196
S11332D0D701DF969C938E93DE97F80180818C93BF
S11332E0818111968C931197828112968C93B801E7
S11332F06D5F7F4FC70103960E948341F80181856A
S11333009285A385B485F70181879287A387B487C3
S1133310F80185859685A785B089F7018587968705
S1133320A787B08BD80151968C915197818B529677
S11333308D919C915397938B828B54968D919C91F4
S11333405597958B848B56968D919C915797978B17
S1133350868B58968D919C915997918F808F5A9610
S11333608D919C915B97938F828FB801645E7F4FA0
S1133370C7014C960E948341B8016E5D7F4FC7011F
S113338082960E948341F80180A591A5D701999660
S11333909C938E93989782A593A59B969C938E93CA
S11333A09A9784A595A59D969C938E939C9786A5A4
S11333B097A59F969C938E939E9780A991A9D19649
S11333C09C938E93D09782A993A9D3969C938E9322
S11333D0D29784A995A9D5969C938E93D49786A9C0
S11333E097A9D7969C938E93D69780AD91ADD99695
S11333F09C938E93D89782AD93ADDB969C938E93DA
S1133400DA9784AD95ADDD969C938E93DC97F601A7
S1133410F582E48282819381019693838283148668
S113342011E0812FEE960FB6F894DEBF0FBECDBF2C
S1133430DF91CF911F910F91FF90EF90DF90CF908C
S11334400895EF92FF920F931F93CF93DF93EC01B4
S11334507B0188EE93E0FE01819391938F0160EEEE
S113346075E0CF010E94514180E794E099878887F5
S11334701D861C861F861E861B861A86198A188A34
S11334801B8A1A8A1C8A88E894E09E8B8D8B1A8E7C
S1133490198E1C8E1B8E188E1F8A1E8E1D8E18A2CE
S11334A01F8E19A21BA21AA21DA21CA21EA21FA239
S11334B018A619A68FEF9FEF9BA78AA781E090E03B
S11334C09DA78CA7B701C8010E948341DF91CF91CA
S11334D01F910F91FF90EF900895EF92FF920F9339
S11334E01F93CF93DF93CDB7DEB7EE970FB6F89463
S11334F0DEBF0FBECDBF7C018B01FB0180818983C0
S113350081818A8382818B836D5F7F4FCE01049694
S11335100E949841F80181859285A385B4858A87A4
S11335209B87AC87BD8785859685A785B0898E875F
S11335309F87A88BB98B81898A8B828993899C8B7D
S11335408B8B848995899E8B8D8B86899789988F9F
S11335508F8B808D918D9A8F898F828D938D9C8F87
S11335608B8FB801645E7F4FCE014D960E949841C7
S1133570B8016E5D7F4FCE0183960E949841F80199
S113358080A591A59AA789A782A593A59CA78BA797
S113359084A595A59EA78DA786A597A598AB8FA76B
S11335A080A991A99AAB89AB82A993A99CAB8BAB57
S11335B084A995A99EAB8DAB86A997A998AF8FAB2B
S11335C080AD91AD9AAF89AF82AD93AD9CAF8BAF17
S11335D084AD95AD9EAF8DAFBE016F5F7F4FC701C8
S11335E008967DDBCE0101960E940C25F80192819C
S11335F09251923088F461E070E0C701459645DB52
S1133600F70182A593A5019661F4F7018789908D4E
S1133610019793A782A705C060E070E0C7014596B3
S113362034DBEE960FB6F894DEBF0FBECDBFDF914C
S1133630CF911F910F91FF90EF900895DC011496A4
S1133640ED91FC9115971C968C911C97882361F041
S11336501A962D913C911B976217730744F01896A4
S1133660ED91FC91199705C020E030E002C020E004
S113367030E02617370764F4309751F006ACF7AD05
S1133680E02D2F5F3F4F2617370714F43097B1F71B
S11336902617370779F481E01C968C931C971B96A8
S11336A03C932E931A971996FC93EE9318978E2FAA
S11336B09F2F089580E090E008950F931F93CF9378
S11336C0DF93EC01CB01BA01B9DF8C01009709F457
S11336D071C0FC01808188838181898382818A838E
S11336E0B8016D5F7F4FCE0103960E949841F801A7
S11336F081859285A385B48589879A87AB87BC87A2
S113370085859685A785B0898D879E87AF87B88B79
S11337108189898B828993899B8B8A8B84899589FA
S11337209D8B8C8B868997899F8B8E8B808D918DB9
S1133730998F888F828D938D9B8F8A8FB801645E59
S11337407F4FCE014C960E949841B8016E5D7F4F29
S1133750CE0182960E949841F80180A591A599A76F
S113376088A782A593A59BA78AA784A595A59DA7AD
S11337708CA786A597A59FA78EA780A991A999AB89
S113378088AB82A993A99BAB8AAB84A995A99DAB6D
S11337908CAB86A997A99FAB8EAB80AD91AD99AF49
S11337A088AF82AD93AD9BAF8AAF84AD95AD9DAF2D
S11337B08CAF03C0CE010E94C524CE01DF91CF910E
S11337C01F910F9108955F926F927F928F929F92B3
S11337D0AF92BF92CF92DF92EF92FF920F931F931B
S11337E0CF93DF93CDB7DEB7CC57D1090FB6F8949A
S11337F0DEBF0FBECDBF7C018B010E94FA3EF701F4
S113380086A097A0A0A4B1A4AB01BC014819590992
S11338106A097B0980819181092E000CAA0BBB0BDC
S113382084179507A607B70708F066C00E94FA3EFA
S1133830F70166A377A380A791A7F80196848784EC
S1133840792C682C892D982D0E943E306701F8E070
S1133850CF0ED11CF70182859385181619060CF03A
S11338604BC000E010E0A801B601CE01019625DFAF
S113387041E0692D782DCE0101960E943126CE01BA
S113388001960E940C2561E674E082E898E00E94AB
S11338904D3AF7012789308D1216130624F5A2A498
S11338A0B3A4A016B106F9F4A501B601CE010196A0
S11338B004DF5A80A501B601CE01CF96FEDE452D68
S11338C06FAD872D962D0E944530CE01CF960E9474
S11338D00C25CE0101960E940C2564E074E0872D2E
S11338E0962D0E944D3A0F5F1F4FF70122853385B5
S11338F0021713070CF4B7CFC458DF4F0FB6F89470
S1133900DEBF0FBECDBFDF91CF911F910F91FF900E
S1133910EF90DF90CF90BF90AF909F908F907F906B
S11339206F905F900895EF92FF920F931F93CF9340
S1133930DF93CDB7DEB7EE970FB6F894DEBF0FBEB8
S1133940CDBF8C017B01FC0142A553A5BC01685F7E
S11339507F4FCE010196B1DEB701CE0101960E94E0
S11339601D28CE0101960E940C2581E090E0F8010B
S113397095A784A7EE960FB6F894DEBF0FBECDBF11
S1133980DF91CF911F910F91FF90EF900895AF9227
S1133990BF92CF92DF92EF92FF920F931F93CF9338
S11339A0DF93CDB7DEB7EE970FB6F894DEBF0FBE48
S11339B0CDBF8C016B01FB01628173811616170662
S11339C014F0E3D700C2F6011486623071050CF4DA
S11339D002C162507109C60131DE5C01FC01E6AC32
S11339E0F7ACF7018081898381818A8382818B830B
S11339F0B7016D5F7F4FCE0104960E949841F70195
S1133A0081859285A385B4858A879B87AC87BD878A
S1133A1085859685A785B0898E879F87A88BB98B66
S1133A2081898A8B828993899C8B8B8B84899589E4
S1133A309E8B8D8B86899789988F8F8B808D918DA6
S1133A409A8F898F828D938D9C8F8B8FB701645E43
S1133A507F4FCE014D960E949841B7016E5D7F4F16
S1133A60CE0183960E949841F70180A591A59AA75B
S1133A7089A782A593A59CA78BA784A595A59EA796
S1133A808DA786A597A598AB8FA780A991A99AAB76
S1133A9089AB82A993A99CAB8BAB84A995A99EAB56
S1133AA08DAB86A997A998AF8FAB80AD91AD9AAF36
S1133AB089AF82AD93AD9CAF8BAF84AD95AD9EAF16
S1133AC08DAFF501E6ACF7ACE114F10429F0C701C0
S1133AD0A3D7C7010E940E3AF50117AE16AEF60140
S1133AE0B782A6828281938101979383828389819D
S1133AF0F80180838A8181838B818283BE016C5F1C
S1133B007F4FC80103960E9498418A859B85AC85A6
S1133B10BD85F80181879287A387B4878E859F85A9
S1133B20A889B98985879687A787B08B8A89818B6D
S1133B308B899C89938B828B8D899E89958B848BB1
S1133B408F89988D978B868B898D9A8D918F808F95
S1133B508B8D9C8D938F828FBE01635E7F4FC801D6
S1133B604C960E949841BE016D5D7F4FC8018296BC
S1133B700E94984189A59AA5F80191A780A78BA5D1
S1133B809CA593A782A78DA59EA595A784A78FA57D
S1133B9098A997A786A789A99AA991AB80AB8BA965
S1133BA09CA993AB82AB8DA99EA995AB84AB8FA93D
S1133BB098AD97AB86AB89AD9AAD91AF80AF8BAD25
S1133BC09CAD93AF82AF8DAD9EAD95AF84AFCE016A
S1133BD0019622D7F8C0F601E480F580F7018081D0
S1133BE0898381818A8382818B83B7016D5F7F4F53
S1133BF0CE0104960E949841F70181859285A385A0
S1133C00B4858A879B87AC87BD8785859685A7857C
S1133C10B0898E879F87A88BB98B81898A8B82898B
S1133C2093899C8B8B8B848995899E8B8D8B8689BC
S1133C309789988F8F8B808D918D9A8F898F828DA4
S1133C40938D9C8F8B8FB701645E7F4FCE014D9611
S1133C500E949841B7016E5D7F4FCE0183960E940A
S1133C609841F70180A591A59AA789A782A593A554
S1133C709CA78BA784A595A59EA78DA786A597A588
S1133C8098AB8FA780A991A99AAB89AB82A993A974
S1133C909CAB8BAB84A995A99EAB8DAB86A997A948
S1133CA098AF8FAB80AD91AD9AAF89AF82AD93AD34
S1133CB09CAF8BAF84AD95AD9EAF8DAFF601E48024
S1133CC0F580E114F10429F0C701A6D6C7010E94CA
S1133CD00E3AF6011582148217821682138212821A
S1133CE08981F80180838A8181838B818283BE01EB
S1133CF06C5F7F4FC80103960E9498418A859B851B
S1133D00AC85BD85F80181879287A387B4878E85AA
S1133D109F85A889B98985879687A787B08B8A8963
S1133D20818B8B899C89938B828B8D899E89958BC2
S1133D30848B8F89988D978B868B898D9A8D918FA3
S1133D40808F8B8D9C8D938F828FBE01635E7F4F9E
S1133D50C8014C960E949841BE016D5D7F4FC80119
S1133D6082960E94984189A59AA5F80191A780A7F7
S1133D708BA59CA593A782A78DA59EA595A784A78F
S1133D808FA598A997A786A789A99AA991AB80AB73
S1133D908BA99CA993AB82AB8DA99EA995AB84AB4F
S1133DA08FA998AD97AB86AB89AD9AAD91AF80AF33
S1133DB08BAD9CAD93AF82AF8DAD9EAD95AF84AF0F
S1133DC0CE01019629D6C801EE960FB6F894DEBF4F
S1133DD00FBECDBFDF91CF911F910F91FF90EF9058
S1133DE0DF90CF90BF90AF900895AF92BF92CF92E3
S1133DF0DF92EF92FF920F931F93CF93DF93CDB790
S1133E00DEB7EE970FB6F894DEBF0FBECDBF8C01C0
S1133E106B01552344F0DB0112968D919C9113970D
S1133E20481759071CF0C801B0D551C141155105B7
S1133E3049F4DB01ED91FC910684F785E02DC8017E
S1133E40199545C101978417950749F4DB01ED9154
S1133E50FC910484F585E02DC801199538C1BA0197
S1133E6061507109C601EADB5C01FC01E6ACF7AC08
S1133E70D7018C91898311968C9111978A8312961C
S1133E808C918B83B7016D5F7F4FCE0104960E94A6
S1133E909841F70181859285A385B4858A879B879C
S1133EA0AC87BD8785859685A785B0898E879F87D2
S1133EB0A88BB98B81898A8B828993899C8B8B8B04
S1133EC0848995899E8B8D8B86899789988F8F8B12
S1133ED0808D918D9A8F898F828D938D9C8F8B8FFE
S1133EE0B701645E7F4FCE014D960E949841B701A1
S1133EF06E5D7F4FCE0183960E949841D7019896BC
S1133F008D919C9199979AA789A79A968D919C9146
S1133F109B979CA78BA79C968D919C919D979EA700
S1133F208DA79E968D919C919F9798AB8FA7D096C5
S1133F308D919C91D1979AAB89ABD2968D919C919E
S1133F40D3979CAB8BABD4968D919C91D5979EAB1C
S1133F508DABD6968D919C91D79798AF8FABD89611
S1133F608D919C91D9979AAF89AFDA968D919C9156
S1133F70DB979CAF8BAFDC968D919C91DD979EAFC8
S1133F808DAFD501DE96ED91FC91DF9786AD97ADAF
S1133F90DF969C938E93DE97E114F10429F0C70118
S1133FA03BD5C7010E940E3AF601828193810197A5
S1133FB09383828314868981D8018C938A81119694
S1133FC08C9311978B8112968C93BE016C5F7F4FFB
S1133FD0C80103960E9498418A859B85AC85BD855E
S1133FE0F80181879287A387B4878E859F85A889E6
S1133FF0B98985879687A787B08B8A89818B8B89B6
S11340009C89938B828B8D899E89958B848B8F89D8
S1134010988D978B868B898D9A8D918F808F8B8DC0
S11340209C8D938F828FBE01635E7F4FC8014C9637
S11340300E949841BE016D5D7F4FC80182960E9427
S1134040984189A59AA5D80199969C938E9398979F
S11340508BA59CA59B969C938E939A978DA59EA5C4
S11340609D969C938E939C978FA598A99F969C93BD
S11340708E939E9789A99AA9D1969C938E93D09753
S11340808BA99CA9D3969C938E93D2978DA99EA914
S1134090D5969C938E93D4978FA998ADD7969C93DD
S11340A08E93D69789AD9AADD9969C938E93D897D3
S11340B08BAD9CADDB969C938E93DA978DAD9EADC4
S11340C0DD969C938E93DC97CE010196A5D4C8010E
S11340D0EE960FB6F894DEBF0FBECDBFDF91CF9141
S11340E01F910F91FF90EF90DF90CF90BF90AF9012
S11340F008950F931F93CF93DF9377230CF47CC021
S1134100FC0122813381621773070CF077C0EA0146
S113411095DA8C018881F8018083898181838A8181
S11341208283BE016D5F7F4FC80103960E94834165
S113413089859A85AB85BC85F80181879287A38799
S1134140B4878D859E85AF85B88985879687A7872F
S1134150B08B8989818B8A899B89938B828B8C898B
S11341609D89958B848B8E899F89978B868B888D6F
S1134170998D918F808F8A8D9B8D938F828FBE01B5
S1134180645E7F4FC8014C960E948341BE016E5D00
S11341907F4FC80182960E94834188A599A5F801A2
S11341A091A780A78AA59BA593A782A78CA59DA567
S11341B095A784A78EA59FA597A786A788A999A93F
S11341C091AB80AB8AA99BA993AB82AB8CA99DA927
S11341D095AB84AB8EA99FA997AB86AB88AD99ADFF
S11341E091AF80AF8AAD9BAD93AF82AF8CAD9DADE7
S11341F095AF84AF81E003C080E001C080E0DF912F
S1134200CF911F910F910895AF92BF92CF92DF92F9
S1134210EF92FF920F931F93CF93DF93CDB7DEB747
S1134220EE970FB6F894DEBF0FBECDBF6C015B01F5
S11342308A01DC0112968D919C9113976817790776
S11342400CF495C0ED91FC91E480F580FA01808135
S1134250898381818A8382818B83BA016D5F7F4FD9
S1134260CE0104960E949841F80181859285A38528
S1134270B4858A879B87AC87BD8785859685A78506
S1134280B0898E879F87A88BB98B81898A8B828915
S113429093899C8B8B8B848995899E8B8D8B868946
S11342A09789988F8F8B808D918D9A8F898F828D2E
S11342B0938D9C8F8B8FB801645E7F4FCE014D969A
S11342C00E949841B8016E5D7F4FCE0183960E9493
S11342D09841D80198968D919C9199979AA789A70E
S11342E09A968D919C919B979CA78BA79C968D9158
S11342F09C919D979EA78DA79E968D919C919F972B
S113430098AB8FA7D0968D919C91D1979AAB89AB9E
S1134310D2968D919C91D3979CAB8BABD4968D9177
S11343209C91D5979EAB8DABD6968D919C91D7974A
S113433098AF8FABD8968D919C91D9979AAF89AF4E
S1134340DA968D919C91DB979CAF8BAFDC968D9127
S11343509C91DD979EAF8DAFBE016F5F7F4FC6010D
S1134360F7011995182FCE01019656D35CC1672B1E
S113437009F096C0D601ED91FC91E680F780FA0130
S11343808081898381818A8382818B83BA016D5F75
S11343907F4FCE0104960E949841F8018185928551
S11343A0A385B4858A879B87AC87BD8785859685D9
S11343B0A785B0898E879F87A88BB98B81898A8BC3
S11343C0828993899C8B8B8B848995899E8B8D8B19
S11343D086899789988F8F8B808D918D9A8F898FFD
S11343E0828D938D9C8F8B8FB801645E7F4FCE013D
S11343F04D960E949841B8016E5D7F4FCE01839621
S11344000E949841D80198968D919C9199979AA76A
S113441089A79A968D919C919B979CA78BA79C9614
S11344208D919C919D979EA78DA79E968D919C9111
S11344309F9798AB8FA7D0968D919C91D1979AAB6B
S113444089ABD2968D919C91D3979CAB8BABD49630
S11344508D919C91D5979EAB8DABD6968D919C9169
S1134460D79798AF8FABD8968D919C91D9979AAFE7
S113447089AFDA968D919C91DB979CAF8BAFDC96DC
S11344808D919C91DD979EAF8DAFBE016F5F7F4F85
S1134490C601F7011995182FCE010196BDD2C3C0EC
S11344A080E490E00E940B3A7C0180E4D7011D92E5
S11344B08A95E9F7C70169D2B50161507109C6014E
S11344C0BDD85C01F8018081D7018C93818111965C
S11344D08C931197828112968C93B8016D5F7F4FF4
S11344E0C70103960E948341F80181859285A385C3
S11344F0B485F70181879287A387B487F8018585FE
S11345009685A785B089F70185879687A787B08B9D
S1134510D80151968C915197818B52968D919C9193
S11345205397938B828B54968D919C915597958B31
S1134530848B56968D919C915797978B868B589622
S11345408D919C915997918F808F5A968D919C91C2
S11345505B97938F828FB801645E7F4FC7014C963F
S11345600E948341B8016E5D7F4FC70182960E940D
S11345708341F80180A591A5D70199969C938E93C8
S1134580989782A593A59B969C938E939A9784A5BE
S113459095A59D969C938E939C9786A597A59F968B
S11345A09C938E939E9780A991A9D1969C938E9368
S11345B0D09782A993A9D3969C938E93D29784A9DA
S11345C095A9D5969C938E93D49786A997A9D796A7
S11345D09C938E93D69780AD91ADD9969C938E93F0
S11345E0D89782AD93ADDB969C938E93DA9784AD86
S11345F095ADDD969C938E93DC97F50186AD97ADD2
S1134600DF969C938E93DE97F7AEE6AED6011296B4
S11346108D919C911397019613969C938E93129768
S11346201C961C9211E0812FEE960FB6F894DEBF13
S11346300FBECDBFDF91CF911F910F91FF90EF90EF
S1134640DF90CF90BF90AF900895DC011496ED9168
S1134650FC9115971C968C911C97882361F01A96EF
S11346602D913C911B976217730744F01896ED91B6
S1134670FC91199705C020E030E002C020E030E052
S11346802617370764F4309751F00280F381E02D48
S11346902F5F3F4F2617370714F43097B1F72617CB
S11346A0370779F481E01C968C931C971B963C93F6
S11346B02E931A971996FC93EE9318978E2F9F2F8B
S11346C0089580E090E00895C0DF009721F0FC0198
S11346D080819181089580E090E00895CF92DF92E7
S11346E0EF92FF920F931F93CF93DF9300D000D0EC
S11346F0CDB7DEB77C01FC0102A513A51123F4F0AC
S11347006C01F5E1CF0ED11CFC018789908D0197D6
S1134710081719079CF4B801C601D6DF019721F4E4
S1134720F70113A702A70AC00F5F1F4FF7012789DC
S1134730308D21503109021713076CF3B7016E5FF6
S11347407F4FCE0101960E94984160EF73E0CE0145
S113475001960E94FF41BC0182E898E00E94773AEA
S1134760CE0101960E94E540F70162A573A54AE0D7
S113477050E082E898E00E94493B81E090E0F70134
S113478095A784A726960FB6F894DEBF0FBECDBFBB
S1134790DF91CF911F910F91FF90EF90DF90CF9019
S11347A00895EF92FF920F931F93CF93DF93FC0131
S11347B0628173811616170674F5EC011486623053
S11347C07105CCF06250710940DF7C01FC018281EB
S11347D09381FC01008111810E940E3AF70113823A
S11347E01282FF82EE828A819B8101979B838A8356
S11347F0802F912F12C084819581FC010081118149
S11348000E940E3A1D821C821F821E821B821A8203
S1134810802F912F02C080E090E0DF91CF911F9113
S11348200F91FF90EF9008950F931F93CF93DF9311
S11348307723DCF1DC0112962D913C9113976217DA
S11348407307B4F5EC016115710539F4E881F98158
S11348500684F785E02D19952DC0215031092617BE
S1134860370739F4E881F9810484F585E02D199539
S113487021C061507109E9DEDC011296ED91FC91D1
S11348801397008111812281338113963C932E93D7
S11348901297CF010E940E3A8A819B8101979B83D4
S11348A08A831C86802F912F05C080E090E002C08F
S11348B080E090E0DF91CF911F910F910895CF9305
S11348C0DF9377236CF0FC01228133816217730735
S11348D04CF4EA01BADEFC01D183C08381E003C059
S11348E080E001C080E0DF91CF910895CF92DF9204
S11348F0EF92FF920F931F93CF93DF93EC018B0101
S11349006A018A819B81681779074CF0E881F981F3
S11349100480F581E02DBA01CE0119952DC0672BD5
S113492049F4E881F9810680F781E02DBA01CE01CE
S1134930199522C084E090E00E940B3A7C01FC01AE
S11349401182108213821282B80161507109CE0162
S11349507CDEF701D182C082FC0122813381F70120
S113496033832283FC01F382E2828A819B81019654
S11349709B838A831C8681E0DF91CF911F910F91E5
S1134980FF90EF90DF90CF900895CF93DF93EC01E9
S11349901882198284E18A8360EE75E0CE01039661
S11349A00E94514119861A861B861C861D861E8606
S11349B01F86188A198A1B8A1A8A1D8A1C8A1F8ACA
S11349C01E8A198E188E8FEF9FEF9B8F8A8F60EE51
S11349D075E0CE014C960E94514160EE75E0CE0127
S11349E082960E94514119A618A61BA61AA61DA6B6
S11349F01CA61FA61EA619AA18AA1BAA1AAA1DAA93
S1134A001CAA1FAA1EAA19AE18AE1BAE1AAE1DAE62
S1134A101CAEDF91CF910895CF93DF93EC01829682
S1134A200E94E540CE014C960E94E540CE010396DB
S1134A300E94E540DF91CF910895CF92DF92EF92EB
S1134A40FF920F931F93CF93DF93EC01C62ED42EC6
S1134A5079011882198284E18A838E010D5F1F4FC8
S1134A6060EE75E0C8010E94514119861A861B86C2
S1134A701C861D861E861F86188A198A1B8A1A8A16
S1134A801D8A1C8A1F8A1E8A198E188E8FEF9FEF2B
S1134A909B8F8A8F60EE75E0CE014C960E94514147
S1134AA060EE75E0CE0182960E94514119A618A6C7
S1134AB01BA61AA61DA61CA61FA61EA619AA18AADE
S1134AC01BAA1AAA1DAA1CAA1FAA1EAA19AE18AEAE
S1134AD01BAE1AAE1DAE1CAEC882D9821A82B701B3
S1134AE0C8010E948341DF91CF911F910F91FF90E4
S1134AF0EF90DF90CF900895EF92FF920F931F9362
S1134B00CF93DF93EC01E62EF42E890118821982EB
S1134B1084E18A8360EE75E0CE0103960E945141E0
S1134B2019861A861B861C861D861E861F86188A71
S1134B30198A1B8A1A8A1D8A1C8A1F8A1E8A198E40
S1134B40188E8FEF9FEF9B8F8A8F60EE75E0CE01FA
S1134B504C960E94514160EE75E0CE0182960E940F
S1134B60514119A618A61DA61CA61FA61EA619AA61
S1134B7018AA1BAA1AAA1DAA1CAA1FAA1EAA19AE01
S1134B8018AE1BAE1AAE1DAE1CAEE882F9828AE0E6
S1134B908A831BA70AA7F80180819181A281B3812E
S1134BA089879A87AB87BC87DF91CF911F910F913B
S1134BB0FF90EF900895EF92FF920F931F93CF937E
S1134BC0DF93EC01E62EF42E89011882198284E128
S1134BD08A8360EE75E0CE0103960E9451411986E6
S1134BE01A861B861C861D861E861F86188A198AAD
S1134BF01B8A1A8A1D8A1C8A1F8A1E8A198E188E7D
S1134C008FEF9FEF9B8F8A8F60EE75E0CE014C96FD
S1134C100E94514160EE75E0CE0182960E9451419E
S1134C2019A618A61BA61AA61DA61CA61FA61EA674
S1134C3019AA18AA1BAA1AAA1DAA1CAA1FAA1EAA44
S1134C4019AE18AE1BAE1AAEE882F98283E18A83EC
S1134C501DAF0CAFDF91CF911F910F91FF90EF909B
S1134C6008959F92AF92BF92CF92DF92EF92FF92FC
S1134C700F931F93CF93DF93CDB7DEB72C970FB667
S1134C80F894DEBF0FBECDBF8C015B01942EDC0116
S1134C9011964C9111976C91C5010E944530F80111
S1134CA0C280D12CF4E1CF16D10408F0B4C1F601CE
S1134CB08827EE58FF4F8F4F0C94B044D80152967A
S1134CC06D917C9153974AE050E0C5010E94423BAC
S1134CD0A2C1F801648975894AE050E0C5010E94C7
S1134CE0423B99C1D80156966D917C9157974AE001
S1134CF050E0C5010E94423B8EC1F801608D718D68
S1134D004AE050E0C5010E94423B85C1D801199692
S1134D104D915D916D917C911C9722E030E0C5012D
S1134D200E94683C78C1F80145855685678570897D
S1134D3022E030E0C5010E94683C6DC1D801519663
S1134D406C9170E04AE050E0C5010E94423B63C1AF
S1134D50F8018189882339F0B801645E7F4FC50169
S1134D600E943E3A58C1B8016E5D7F4FC5010E9452
S1134D703E3A51C1B8016D5F7F4FC5010E943E3A72
S1134D804AC1D801D096ED91FC91D197608171818F
S1134D9052968D919C9153978617970719F49920F1
S1134DA009F439C1F801738B628B4AE050E0C50104
S1134DB00E94423B30C1D801D296ED91FC91D39729
S1134DC06081718154968D919C91559786179707B0
S1134DD019F4992009F41FC1F801758B648B4AE01A
S1134DE050E0C5010E94423B16C1D801D496ED9112
S1134DF0FC91D597C080D180E280F38056968D9146
S1134E009C915797092E000CAA0BBB0B8C159D0582
S1134E10AE05BF0519F4992009F4FDC0F801D78A3D
S1134E20C68A4AE050E0B601C5010E94423BF3C085
S1134E30D801D696ED91FC91D797C080D180E280BD
S1134E40F38058968D919C915997092E000CAA0BCA
S1134E50BB0B8C159D05AE05BF0519F4992009F40B
S1134E60DAC0F801D18EC08E4AE050E0B601C50127
S1134E700E94423BD0C0D8019A96ED91FC919B9739
S1134E80C080D180E280F380A701960119966D91CC
S1134E907D918D919C911C970E94C142811103C008
S1134EA0992009F4B8C0F801C186D286E386F48655
S1134EB022E030E0B701A601C5010E94683CABC006
S1134EC0D8019C96ED91FC919D97C080D180E280A1
S1134ED0F380A70196011D966D917D918D919C9112
S1134EE050970E94C142811103C0992009F493C0D4
S1134EF0F801C586D686E786F08A22E030E0B7015D
S1134F00A601C5010E94683C86C0D8019E96ED9119
S1134F10FC919F97608151968C91861303C09920D0
S1134F2009F479C0F801618B70E04AE050E0C501F2
S1134F300E94423B70C0D8019E96ED91FC919F97D0
S1134F4051969C918081981303C0992009F463C001
S1134F5081E0EF2B09F480E0F801818B882339F09C
S1134F60B801645E7F4FC5010E943E3A54C0B80147
S1134F706E5D7F4FC5010E943E3A4DC07801F3E05B
S1134F80EF0EF11CD80198966D917C919997C70109
S1134F900E944A42882311F09920E9F1F80160A5A2
S1134FA071A5C7010E948341B701C5010E943E3A21
S1134FB032C0D801DA96ED90FC90DB9765E575E098
S1134FC0CE0107960E945141B701CE0107960E9477
S1134FD0EE4163E474E00E94FF41BC01C5010E94FC
S1134FE03E3ACE0107960E94E540F80104AD15ADA6
S1134FF065E575E0CE0101960E945141B801CE01EC
S113500001960E94EE41BC01C5010E943E3ACE01C8
S113501001960E94E5402C960FB6F894DEBF0FBEB1
S1135020CDBFDF91CF911F910F91FF90EF90DF9053
S1135030CF90BF90AF909F900895CF93DF93EB01F3
S1135040FC012281223119F0233149F00EC0FC0108
S113505082AD93AD0E948C04CE01AAD01EC0FC0187
S113506084AD95AD0E94010418C08E859F850E9471
S11350703E306DE374E08E859F850E94873A65E437
S113508074E08E859F850E94873A68EB7BE080E020
S113509090E00E942C3FCE018BD0DF91CF910895F8
S11350A00895BC01FC0180819181009719F00C9452
S11350B064120895FB0182819381009711F00C948E
S11350C0931C0895CF93DF93EC0188819981009715
S11350D011F00E9418118A819B81009709F0FEDA71
S11350E0DF91CF910895FC0180819181009711F0A7
S11350F00C94F2100895EF92FF920F931F93CF93A5
S1135100DF93EC017B01198218821B821A828C01C5
S11351100C5F1F4F60EE75E0C8010E9451411B8671
S11351201A861D861C86B701C8010E948341DF913F
S1135130CF911F910F91FF90EF900895FC01718B17
S1135140608BDB011F969C938E931E97A089B18977
S113515081E598E251969C938E93509753961C92B6
S11351601E925297A089B18980E598E255969C9346
S11351708E93549757961C921E925697A089B18984
S113518082E698E259969C938E9358975B961C926C
S11351901E925A970088F189E02D83E798E2958F53
S11351A0848F178E168E0895FC017787668708957D
S11351B00F931F93CF93DF93EC018A819B81892BFB
S11351C061F00E94FA3E6A8B7B8B8C8B9D8BBE01B7
S11351D08A819B810E94E31B36C088819981892B37
S11351E061F00E94FA3E6A8B7B8B8C8B9D8BBE0197
S11351F0888199810E94981126C00E94FA3E0A89EA
S11352001B892C893D89DC01CB01801B910BA20BEE
S1135210B30B893B9B40A105B105A8F00E94FA3E5F
S11352206A8B7B8B8C8B9D8B8E859F8527D76CE9B6
S113523074E08E859F850E94873A63EA74E08E85C8
S11352409F850E94873ADF91CF911F910F91089516
S1135250FC0171836083138212820895FC01118220
S11352601082738362830895809140069091410671
S11352700E947E0E80910A0690910B060E947E0E7B
S113528080912606909127060E947E0E8091F0055B
S11352909091F1050E947E0E80912406909125063E
S11352A001D486E30E94C23FBC01990F880B990B7D
S11352B00E94604320E030E040EA50E40E9414443D
S11352C020E030EC4FE754E40E94C5426093A60707
S11352D07093A7078093A8079093A90787E30E9478
S11352E0C23FBC01990F880B990B0E94604320E0D8
S11352F030E040EA50E40E94144420E030EC4FE7F0
S113530054E40E94C5426093A2077093A30780935C
S1135310A4079093A50788E30E94C23FBC01990F9C
S1135320880B990B0E94604320E030E040EA50E48F
S11353300E94144420E030EC4FE754E40E94C5423C
S113534060939E0770939F078093A0079093A10793
S113535089E30E94C23FBC01990F880B990B0E94FC
S1135360604320E030E040EA50E40E94144420E02E
S113537030EC4FE754E40E94C54260939A0770935F
S11353809B0780939C0790939D078AE30E94C23FEA
S1135390BC01990F880B990B0E94604320E030E018
S11353A040EA50E40E94144420E030EC4FE754E417
S11353B00E94C5426093960770939707809398075D
S11353C0909399078BE30E94C23FBC01990F880B0D
S11353D0990B0E94604320E030E040EA50E40E94D0
S11353E0144420E030EC4FE754E40E94C54260933B
S11353F092077093930780939407909395078CE397
S11354000E94C23FBC01990F880B990B0E94604314
S113541020E030E040EA50E40E94144420E030EC04
S11354204FE754E40E94C54260938E0770938F0740
S113543080939007909391078DE30E94C23FBC0133
S1135440990F880B990B0E94604320E030E040EAFA
S113545050E40E94144420E030EC4FE754E40E94EE
S1135460C54260938A0770938B0780938C0790934F
S11354708D078EE30E94C23FBC01990F880B990BE4
S11354800E94604320E030E040EA50E40E9414446B
S113549020E030EC4FE754E40E94C5426093860755
S11354A07093870780938807909389078FE30E94FE
S11354B0C23FBC01990F880B990B0E94604320E006
S11354C030E040EA50E40E94144420E030EC4FE71E
S11354D054E40E94C54260938207709383078093CB
S11354E084079093850780E40E94C23FBC01990F12
S11354F0880B990B0E94604320E030E040EA50E4BE
S11355000E94144420E030EC4FE754E40E94C5426A
S113551060937E0770937F07809380079093810741
S113552081E40E94C23FBC01990F880B990B0E9431
S1135530604320E030E040EA50E40E94144420E05C
S113554030EC4FE754E40E94C54260937A077093AD
S11355507B0780937C0790937D0782E40E94C23F7F
S1135560BC01990F880B990B0E94604320E030E046
S113557040EA50E40E94144420E030EC4FE754E445
S11355800E94C542609376077093770780937807EB
S11355909093790783E40E94C23FBC01990F880B62
S11355A0990B0E94604320E030E040EA50E40E94FE
S11355B0144420E030EC4FE754E40E94C542609369
S11355C0720770937307809374079093750784E44C
S11355D00E94C23FBC01990F880B990B0E94604343
S11355E020E030E040EA50E40E94144420E030EC33
S11355F04FE754E40E94C54260936E0770936F07AF
S1135600809370079093710785E40E94C23FBC01A8
S1135610990F880B990B0E94604320E030E040EA28
S113562050E40E94144420E030EC4FE754E40E941C
S1135630C54260936A0770936B0780936C079093DD
S11356406D0708958091AC079091AD07B1DD80910D
S1135650AE079091AF07ACDD8091AA079091AB079C
S1135660A7DD8091EE059091EF05A2CD08958F926C
S11356709F92AF92BF92CF92DF92EF92FF920F93DD
S11356801F93CF93DF93EC018C819D8101969D83C1
S11356908C830E94FA3E688379838A839B83CE013C
S11356A0E3DDCE01CFDF8E819F81A885B985BC0162
S11356B0CD016F5F7F4F8F4F9F4F6E837F838887AE
S11356C09987C880D980EA80FB800A851B852C8550
S11356D03D85C01AD10AE20AF30A29EBC2162BE06F
S11356E0D206E104F10408F45EC00E9460434B0159
S11356F05C01C701B6010E945E4320E030E04AE746
S113570054E40E94C5429B01AC01C501B4010E944E
S1135710C5426B017C0165EB74E082E898E00E946D
S11357204D3A22E030E0B701A60182E898E00E94F9
S1135730683C61EC74E082E898E00E944D3A4E8146
S11357405F81688579852AE030E082E898E00E94EC
S11357500A3B6AEC74E082E898E00E944D3A488182
S113576059816A817B818A859B85AC85BD85481B6F
S1135770590B6A0B7B0B2AE030E082E898E00E9428
S11357805E3B65ED74E082E898E00E94873A888188
S11357909981AA81BB818A879B87AC87BD871E823A
S11357A01F8218861986DF91CF911F910F91FF9068
S11357B0EF90DF90CF90BF90AF909F908F9008951F
S11357C0FC0175836483518340833383228308956A
S11357D02F923F924F925F926F927F928F929F92FD
S11357E0AF92BF92CF92DF92EF92FF920F931F93EB
S11357F0CF93DF9300D01F92CDB7DEB73C014A01AF
S11358005B01DC010D911C919A01AB01F8016081EF
S11358107181828193810E941044882354F0D301C2
S11358201296ED91FC91139760817181828193812D
S1135830A5C0F301C480D5807601F1E0EF1AF0EC45
S1135840FF0AEE0CFF1CEE0CFF1CF801EE0DFF1D11
S11358502081318142815381C501B4010E941044E9
S113586088234CF421E0C21AD1081C141D0484F0CE
S1135870E12CF12C2DC0D30112968D919C9113979C
S11358808E0D9F1DFC01608171818281938176C0A0
S11358902801E12CF12CD2012D913D914D915D9186
S11358A02D01C501B4010E94104488235CF0F2016B
S11358B02081318142815381C501B4010E94C142DA
S11358C0882334F0FFEFEF1AFF0AEC14FD041CF3F5
S11358D0C701880F991F880F991FF801E80FF91F56
S11358E0C080D180E280F380D30112960D90BC91E8
S11358F0A02DBA83A9831C01B4E02B0E311CE981CD
S1135900FA81E80FF91F4080518062807380A701FB
S11359109601C501B4010E945C424B015C01E9811E
S1135920FA81E20DF31DA3019201608171818281EC
S113593093810E945C4269837A838B839C83F80100
S1135940E20DF31DA701960160817181828193812B
S11359500E945C429B01AC0169817A818B819C81AC
S11359600E94C5429B01AC01C501B4010E941444CC
S11359709B01AC01C301B2010E945D420F900F90E4
S11359800F900F90DF91CF911F910F91FF90EF90A7
S1135990DF90CF90BF90AF909F908F907F906F904B
S11359A05F904F903F902F9008952F923F924F9287
S11359B05F926F927F928F929F92AF92BF92CF929B
S11359C0DF92EF92FF920F931F93CF93DF93CDB7A4
S11359D0DEB728970FB6F894DEBF0FBECDBF3C01EB
S11359E078876F831A012901C982DA82EB82FC82EB
S11359F00D831E83FC0114821582168217828C018A
S1135A00085F1F4F60EE75E0C8010E9451416F812D
S1135A107885C8010E948341CE010196F30193A7C2
S1135A2082A7868E978EA0A2B1A28E8D9F8DA8A1EB
S1135A30B9A182A393A3A4A3B5A38AA19BA1ACA15A
S1135A40BDA186A397A3A0A7B1A78AA59BA5ACA532
S1135A50BDA5828F938FA48FB58F8EA19FA1A8A57A
S1135A60B9A5868B978BA08FB18F33822282518206
S1135A70408228960FB6F894DEBF0FBECDBFDF91EB
S1135A80CF911F910F91FF90EF90DF90CF90BF9037
S1135A90AF909F908F907F906F905F904F903F90CA
S1135AA02F9008954F925F926F927F928F929F9260
S1135AB0AF92BF92CF92DF92EF92FF920F931F9318
S1135AC0CF93DF93CDB7DEB728970FB6F894DEBF38
S1135AD00FBECDBF8C01FC0182810E94C23FBC017C
S1135AE0990F880B990B0E94604320E030E040EA54
S1135AF050E40E94144420E030EC4FE754E40E9448
S1135B00C542F801628B738B848B958B80810E94D4
S1135B10C23FBC01990F880B990B0E94604320E09F
S1135B2030E040EA50E40E94144420E030EC4FE7B7
S1135B3054E40E94C5424B015C01F80166877787F3
S1135B40808B918BC688D788E08CF18C2FE632E16C
S1135B5043E85AE36C2D7D2D8E2D9F2D0E94104419
S1135B6018162CF47C2D6D2D9E2D8F2D04C07FE6F0
S1135B7062E193E88AE3272F362F492F582FC50176
S1135B80B4010E94C542F8012289338944895589A8
S1135B900E94C54269837A838B839C83F801868C37
S1135BA0978CA0A0B1A046A057A060A471A4C2A0E5
S1135BB0D3A0E4A0F5A0A7019601C301B2010E94FD
S1135BC05D426D837E838F839887A3019201C50113
S1135BD0B4010E9414442B013C012D813E814F816C
S1135BE05885C501B4010E94144429813A814B812E
S1135BF05C810E9414449B01AC01C301B2010E9468
S1135C005D424B015C012D813E814F815885698144
S1135C107A818B819C810E9414449B01AC01C70151
S1135C20B6010E945C42F801228D338D448D558D5E
S1135C300E945C42C62ED72EE82EF92E2AE037EDBC
S1135C4043E25CE30E94104418162CF47C2D6D2D65
S1135C509E2D8F2D04C07AE067ED93E28CE3272F0D
S1135C60362F492F582FC501B4010E94C542AB01FC
S1135C70BC01F80144A755A766A777A782A593A5F9
S1135C80A7DDF80160AB71AB82AB93AB20E030E0F1
S1135C9040E151E40E94144420E030E040EA50E442
S1135CA00E94C54220E030E040E052E40E945D42A0
S1135CB0F80164AB75AB86AB97AB28960FB6F89436
S1135CC0DEBF0FBECDBFDF91CF911F910F91FF902B
S1135CD0EF90DF90CF90BF90AF909F908F907F9088
S1135CE06F905F904F900895EF920F931F93CF930F
