S016000050726F6A6563744E61727768616C2E737265636A
S1130000F8C100000C9441340C9472340C94A33461
S11300100C94D4340C9405350C9436350C94673513
S11300200C94983517C2000015C2000013C20000DA
S113003011C200000C94E2330DC200000BC2000098
S113004009C2000007C2000005C2000003C200008C
S11300500C943629FFC10000FDC100000C94C93581
S1130060F9C100000C94742E0C94B02EF3C100005E
S1130070F1C10000EFC10000EDC10000EBC10000C0
S1130080E9C10000E7C10000E5C10000E3C10000D0
S11300900C940F2F0C944B2FDDC100000C945A2AA2
S11300A0D9C10000D7C10000D5C10000D3C10000F0
S11300B0D1C10000CFC10000CDC10000CBC1000000
S11300C0C9C10000C7C10000C5C100000C94AA2F1B
S11300D00C94E62FBFC100000C9445300C94813081
S11300E0B9C10000F921D021A821B321BC21C72125
S11300F0DD21E621E122882214222D2246226722D4
S1130100AB22C022622B652B652B652B652B652BDF
S1130110652B652B7C2A652B652B652B652B652B45
S1130120652B652B7C2A652B652B652B652B652B35
S1130130652B652B842A652B652B652B652B652B1D
S1130140652B652BA92A652B652B652B652B652BE8
S1130150652B652B842A652B652B652B652B652BFD
S1130160652B652BAE2A652B652B652B652B652BC3
S1130170652B652BB32A652B652B652B652B652BAE
S1130180652B652BC42A652B652B652B652B652B8D
S1130190652B652BED2A652B652B652B652B652B54
S11301A0652B652BB82A652B652B652B652B652B79
S11301B0652B652BD22A652B652B652B652B652B4F
S11301C0652B652BEF2A652B652B652B652B652B22
S11301D0652B652BEF2A652B652B652B652B652B12
S11301E0652B652BEF2A652B652B652B652B652B02
S11301F0652B652BEF2A652B652B652B652B652BF2
S1130200652B652BF82A652B652B652B652B652BD8
S1130210652B652B292B652B652B652B652B652B96
S1130220652B652BF82A652B652B652B652B652BB8
S1130230652B652B292B652B652B652B652B652B76
S1130240652B652B102B652B652B652B652B652B7F
S1130250652B652B2D2B652B652B652B652B652B52
S1130260652B652B2D2B652B652B652B652B652B42
S1130270652B652B422B652B652B652B652B652B1D
S1130280652B652B5C2B652B652B652B652B652BF3
S1130290652B652B5C2BF936FD36E736ED36F336E8
S11302A04237013707370D37133719371F372537CB
S11302B02B374237313737373D370200000A0B02FC
S11302C0090C0D0E080703040100000000000000E3
S11302D0000000000000000000000000000000001A
S11302E000000000000000121110000000000000D7
S11302F000000000000000000000000000000000FA
S11303000001021020200808102040102040800224
S11303100102010804020101020408102040808047
S113032040201008040201800402018040201008CB
S113033004020108040201010204081020408001A3
S11303400204081020408005050505070508080873
S113035008020202020A0A08080404040401010152
S1130360010101010103030303030303030407075A
S1130370070C0C0C0C0C0C0C0C02020202060606F8
S113038006060606060B0B0B0B0B0B0B0B000020D3
S1130390002300260029002C002F00320000010059
S11303A00003010601090100002200250028002B9A
S11303B0002E003100340002010000050108010B89
S11303C00100002100240027002A002D0030003302
S11303D00001010000040107010A0100E002EB052D
S11303E0790CAD0D4B2C042DE22E7D2F1830B3303B
S11303F0203111241FBECFEFD1E2DEBFCDBF00E01C
S11304000CBF14E0A0E0B2E0E8E6FBE700E00BBFBD
S113041002C007900D92AC3FB107D9F728E0ACEFCA
S1130420B4E001C01D92A03EB207E1F711E0C9EFAC
S1130430D1E000E006C021970109802FFE010E944F
S1130440683BCE3ED10780E00807A9F70E942C3113
S11304500C94B23DD5CDCF93DF93EC018A818823F0
S113046019F0823039F00BC088810E94B237988B22
S11304708F8705C088810E94B237988B8F878F85BC
S11304809889DF91CF9108950F931F93CF93DF93B2
S1130490EC01162F072F8A81813021F061E08881D9
S11304A00E9443371F87088B612F88810E948237FF
S11304B0DF91CF911F910F9108957F928F929F9218
S11304C0AF92BF92CF92DF92EF92FF920F931F935E
S11304D0CF93DF93EC015B01742E690148018FEF28
S11304E09FEF998388831A827E0183E0E80EF11CD2
S11304F068E072E0C7010E9446388E01075F1F4F13
S11305006DE072E0C8010E944638B982A8827A82FE
S1130510B601C7010E945A38B401C8010E945A3872
S1130520DF91CF911F910F91FF90EF90DF90CF90CB
S1130530BF90AF909F908F907F90089580914C05CD
S113054090914D050E94E7258091320590913305E5
S11305500E94E72580911805909119050E94E725CE
S11305608091FE049091FF040C94E7250895EF9286
S11305700F93CF93DF93EC01E12C0E94A125198AFC
S1130580188A1B8A1A8A1D8A1C8A1F8A1E8A198E37
S1130590188E1B8E1A8E1D8E1C8E1F8E1E8E18A2F8
S11305A019A21AA21BA21CA21DA21EA21FA219A656
S11305B018A61BA61AA6DF91CF910F91EF9008956C
S11305C08F92AF92CF92EF92FF920F931F93CF939C
S11305D0DF93CDB7DEB76E970FB6F894DEBF0FBECC
S11305E0CDBF63E172E0CE0101960E94463866E118
S11305F072E0CE0107960E94463881E190E00E94A5
S113060036317C018E01095F1F4F9E012F5F3F4FE2
S113061041E061E370E051DFF0926905E092680522
S1130620C8010E94DA37CE0101960E94DA3763E1ED
S113063072E0CE010D960E94463866E172E0CE016A
S113064043960E94463881E190E00E9436317C0155
S1130650045F1F4F9E01235F3F4F41E060E370E062
S11306602CDFF0926705E0926605C8010E94DA3734
S1130670CE010D960E94DA370F2EF7E08F2EF02D63
S11306800F2EF6E0AF2EF02D0F2EF5E0CF2EF02D2D
S11306906894EE24E2F800E021E042E067E28EE4B0
S11306A095E00E9454288CE290E00E9436317C014F
S11306B004E028E147E166E15ADFF0924D05E0925B
S11306C04C056894EE24E2F800E021E042E066E2A2
S11306D084E395E00E9454288CE290E00E94363135
S11306E07C0104E021E240E26FE141DFF092330556
S11306F0E09232056894EE24E2F800E021E042E062
S113070065E28AE195E00E9454288CE290E00E9420
S113071036317C0104E02BE14AE169E128DFF09203
S11307201905E09218056894EE24E2F800E021E04F
S113073042E063E280E095E00E9454288CE290E07D
S11307400E9436317C0104E02EE14DE16CE10FDFC3
S1130750F092FF04E092FE046AE172E0CE01499651
S11307600E94463886E190E00E9436318C01BE0139
S1130770675E7F4F0E9411241093FD040093FC04D4
S1130780CE0149960E94DA376E960FB6F894DEBF12
S11307900FBECDBFDF91CF911F910F91FF90EF90CE
S11307A0CF90AF908F9008956DE172E082E496E06F
S11307B00E94783140E063E08EE495E00E942A28AC
S11307C061E08EE495E00E943E2820E044E064E18C
S11307D08EE495E00E94212940E063E084E395E003
S11307E00E942A2861E084E395E00E943E2820E0EC
S11307F044E064E184E395E00E94212940E063E061
S11308008AE195E00E942A2861E08AE195E00E944D
S11308103E2820E044E064E18AE195E00E94212939
S113082040E063E080E095E00E942A2861E080E0F7
S113083095E00E943E2820E044E064E180E095E0F9
S11308400E94212962E372E082E496E00E94A231D0
S113085068E372E082E496E00E947831E1E8F0E037
S113086080E180831092800091E09093790520E4E8
S11308703FE130937B0520937A05309387002093E2
S1130880860080917905806180832EE932E030937F
S113089078052093770590936F00609132057091ED
S11308A0330580916A0590916B050E94342464E3BA
S11308B075E080916A0590916B050E946A246091AD
S11308C018057091190580916E0590916F050E942D
S11308D034246AE175E080916E0590916F050E9461
S11308E06A2460911805709119058091FC04909117
S11308F0FD040E9434246AE175E08091FC04909127
S1130900FD040E946A2462E372E082E496E00C949F
S1130910A2310895EF92FF920F931F93CF93DF9329
S11309208C017B018FE090E00E943631EC018FE076
S1130930DE011D928A95E9F7CE010E942015B701C8
S1130940CE010E945A38F70186818E838781908573
S113095098878F83818592859A87898783859485F3
S11309609C878B871E861D86D80114968D919C9139
S11309701597892B59F01696ED91FC911797D68708
S1130980C5871796DC93CE93169705C0F801D583D7
S1130990C483D783C683D80112968D919C911397F3
S11309A0019613969C938E9312971C961C9281E049
S11309B0DF91CF911F910F91FF90EF900895CF9207
S11309C0DF92EF92FF920F931F93CF93DF93CDB7F4
S11309D0DEB7C554D1090FB6F894DEBF0FBECDBF44
S11309E000916A0510916B050C5F1F4F61E572E081
S11309F0CE01805C9F4F0E944638B801CE01805CD6
S1130A009F4F0E94A6386EE272E00E94B738BC0184
S1130A1082E496E00E946931CE01805C9F4F0E947F
S1130A20DA37609132057091330580916A059091AF
S1130A306B050E94342464E375E080916A0590910B
S1130A406B050E946A2464E672E0CE01CA960E9495
S1130A5046388DE190E00E9436317C01BE01665C2F
S1130A607F4F0E94CC0FCE01CA960E94DA376EE601
S1130A7072E0CE01C4960E9446388DE090E00E9458
S1130A8036318C01BE016C5C7F4F0E949714CE01FD
S1130A90C4960E94DA37B801CE0187960E946F3857
S1130AA0F80186818DA7878190859FA78EA7818570
S1130AB0928599AB88AB838594859BAB8AAB6701A0
S1130AC0F6E0CF0ED11CBE01695D7F4FC60122DF67
S1130AD0CE0187960E94321567E772E0CE018196B7
S1130AE00E9446388DE090E00E9436318C01BE01B0
S1130AF06F5D7F4F0E949714CE0181960E94DA3772
S1130B00B801CE0144960E946F38F80186818A8F1D
S1130B10878190859C8F8B8F818592859E8F8D8F09
S1130B208385948598A38F8FBE016C5E7F4FC60129
S1130B30F1DECE0144960E94321560E872E0CE01E7
S1130B400E960E9446388DE090E00E9436318C016A
S1130B50BE01625F7F4F0E949714CE010E960E94E1
S1130B60DA37B801CE0101960E946F38F801868108
S1130B708F838781908599878887818592859B87D4
S1130B808A87838594859D878C87BE016F5F7F4F9D
S1130B90C601C0DECE0101960E943215B7018091D4
S1130BA06A0590916B050E94BE2462E372E082E4C0
S1130BB096E00E94A231CB5BDF4F0FB6F894DEBF04
S1130BC00FBECDBFDF91CF911F910F91FF90EF909A
S1130BD0DF90CF9008950F931F93CF93DF9300D0AE
S1130BE000D0CDB7DEB769E872E0CE0101960E946D
S1130BF0463886E190E00E9436318C01BE016F5F79
S1130C007F4F0E94112410936B0500936A05CE0157
S1130C1001960E94DA3726960FB6F894DEBF0FBE0F
S1130C20CDBFDF91CF911F910F910895EF92FF9265
S1130C300F931F93CF93DF937C018B018EE390E09E
S1130C400E943631EC018EE3DE011D928A95E9F7AC
S1130C50CE010E946320F801808188838181898389
S1130C6082818A83B8016D5F7F4FCE0103960E9413
S1130C705A38F80181859285A385B48589879A8736
S1130C80AB87BC8785858D87868597859F878E876B
S1130C9080899189998B888B828993899B8B8A8B94
S1130CA0848995899D8B8C8B868997899F8B8E8B64
S1130CB0B801685E7F4FCE0148960E945A38B80149
S1130CC0625E7F4FCE014E960E945A38D8019496A8
S1130CD08D919C9195979DA38CA396968D919C91B3
S1130CE097979FA38EA398968D919C91999799A776
S1130CF088A79A968D919C919B979BA78AA79C966F
S1130D008D919C919D979DA78CA79E968D919C916A
S1130D109F979FA78EA7D0968D919C91D19799ABC1
S1130D2088ABB8016E5C7F4FCE01C2960E945A38E0
S1130D30F80180AD91AD99AF88AF82AD93AD9BAF13
S1130D408AAF1DAE1CAED70114968D919C91159758
S1130D50892B59F01696ED91FC911797D5AFC4AF36
S1130D601796DC93CE93169705C0F701D583C483F9
S1130D70D783C683D70112968D919C9113970196C0
S1130D8013969C938E9312971C961C9281E0DF918C
S1130D90CF911F910F91FF90EF9008952F923F9262
S1130DA04F925F926F927F928F929F92AF92BF9277
S1130DB0CF92DF92EF92FF920F931F93CF93DF9323
S1130DC0CDB7DEB7C55CD1090FB6F894DEBF0FBE50
S1130DD0CDBF00916C0510916D050C5F1F4F61E54F
S1130DE072E0CE0182589F4F0E944638B801CE016E
S1130DF082589F4F0E94A6386EE272E00E94B73874
S1130E00BC0182E496E00E946931CE0182589F4F72
S1130E100E94DA3760914C0570914D0580916C0504
S1130E2090916D050E9434246EE475E080916C0508
S1130E3090916D050E946A246DE872E0CE01885895
S1130E409F4F0E9446388DE190E00E9436313C016C
S1130E50BE0168587F4F0E94CC0FCE0188589F4F27
S1130E600E94DA3762E972E0CE018E589F4F0E94E9
S1130E7046388DE190E00E943631CE53DF4F99839E
S1130E808883C25CD040A301BE016E587F4F0E948C
S1130E902E10CE018E589F4F0E94DA376DE972E012
S1130EA0CE0184599F4F0E94463888E190E00E9409
S1130EB036318C014091680550916905BE01645931
S1130EC07F4F0E94C923CE0184599F4F0E94DA3775
S1130ED06DE972E0CE018A599F4F0E9446388DE039
S1130EE090E00E9436316C01A801BE016A597F4F1F
S1130EF00E94FC14CE018A599F4F0E94DA3769EA96
S1130F0072E0CE01805A9F4F0E94463888E190E0FB
S1130F100E9436318C014091660550916705BE01EF
S1130F20605A7F4F0E94C923CE01805A9F4F0E946E
S1130F30DA3769EA72E0CE01865A9F4F0E9446383A
S1130F408DE090E00E9436317C01A801BE01665A12
S1130F507F4F0E94FC14CE01865A9F4F0E94DA37BD
S1130F6064EB72E0CE018C5A9F4F0E9446388DE0AC
S1130F7090E00E9436318C01A301BE016C5A7F4F70
S1130F800E94B514CE018C5A9F4F0E94DA37B601E5
S1130F90CE01895B9F4F0E946F38F60186812E96A1
S1130FA08FAF2E978781908560969FAF8EAF6097A5
S1130FB08185928562969FAF8EAF62978385948573
S1130FC064969FAF8EAF6497CE53DF4FC880D980AD
S1130FD0C25CD040F6E0CF0ED11CBE01695B7F4FEE
S1130FE0C60198DCCE01895B9F4F0E943215B70180
S1130FF0CE01CA960E946F38F701868121968FAF81
S113100021978781908523969FAF8EAF2397818503
S1131010928525969FAF8EAF2597838594852796D5
S11310209FAF8EAF2797BE01665C7F4FC60172DC0F
S1131030CE01CA960E943215B801CE018D960E9447
S11310406F38F80186818BAB878190859DAB8CAB23
S1131050818592859FAB8EAB8385948599AF88AF4C
S1131060BE01635D7F4FC60155DCCE018D960E94A3
S1131070321569EB72E0CE0187960E94463889E109
S113108090E00E943631CC53DF4F99838883C45C4F
S1131090D040BE01695D7F4F0E941F19CE01879623
S11310A00E94DA3786E090E00E9436318C0165ECCC
S11310B072E00E9446388CE390E00E9436314C0185
S11310C0980140E060E00E941E2186E090E00E94CA
S11310D036318C0166E172E00E9446388CE390E080
S11310E00E9436315C01980147E060E00E941E21B5
S11310F086E090E00E9436318C016CEC72E00E9434
S113110046388CE390E00E9436316C01980140E04F
S113111061E00E941E2186E090E00E9436318C013D
S113112066E172E00E9446388CE390E00E9436311A
S11311307C01980147E061E00E941E2186E090E076
S11311400E9436318C0163ED72E00E9446388CE3D4
S113115090E00E943631980140E063E00E941E2135
S11311608CE390E00E94363106EB13EF2DE93FE368
S113117046E063E00E94BD20F4018081CC57DF4F3C
S11311808883C458D0408181CB57DF4F8883C558AA
S1131190D0408281CA57DF4F8883C658D040B401FB
S11311A06D5F7F4F04E810E00C0F1D1F0D5F1F4F94
S11311B0C8010E946F38F40181859285A385B485A6
S11311C0C357DF4F88839983AA83BB83CD58D0400C
S11311D08585CF56DF4F8883C159D0408685978552
S11311E0CE56DF4F99838883C259D0408089918934
S11311F0CC56DF4F99838883C459D0408289938920
S1131200CA56DF4F99838883C659D040848995890B
S1131210C856DF4F99838883C859D04086899789F7
S1131220C656DF4F99838883CA59D040B401685E9B
S11312307F4F84E890E08C0F9D1F4896C054DF4F89
S113124099838883C05CD0400E946F38B401625E89
S11312507F4F0F2EF4E84F2E512CF02D4C0E5D1EB7
S11312609EE1490E511CC2010E946F38F40184A111
S113127095A1C855DF4F99838883C85AD04086A169
S113128097A1C655DF4F99838883CA5AD04080A559
S113129091A5C455DF4F99838883CC5AD04082A549
S11312A093A5C255DF4F99838883CE5AD04084A535
S11312B095A5C055DF4F99838883C05BD04086A530
S11312C097A5CE54DF4F99838883C25BD04080A911
S11312D091A9CC54DF4F99838883C45BD040B40177
S11312E06E5C7F4F0F2EF4E82F2E312CF02D2C0E38
S11312F03D1EF2E32F0E311CC1010E946F38F40130
S113130080AD91ADC454DF4F99838883CC5BD040CA
S113131082AD93ADC254DF4F99838883CE5BD040B6
S1131320CC53DF4F88809980C45CD040F8E08F0EA6
S1131330911CBE016C577F4FC40178DCCE018C57E1
S11313409F4F0E94A820F5018081CC57DF4F8883EE
S1131350C458D0408181CB57DF4F8883C558D040D3
S11313608281CA57DF4F8883C658D040B5016D5F6C
S11313707F4FC8010E946F38F50181859285A3854E
S1131380B485C357DF4F88839983AA83BB83CD5821
S1131390D0408585CF56DF4F8883C159D04086859C
S11313A09785CE56DF4F99838883C259D040808970
S11313B09189CC56DF4F99838883C459D040828960
S11313C09389CA56DF4F99838883C659D04084894C
S11313D09589C856DF4F99838883C859D040868938
S11313E09789C656DF4F99838883CA59D040B5017F
S11313F0685E7F4FC054DF4F88819981C05CD040C4
S11314000E946F38B501625E7F4FC2010E946F383F
S1131410F50184A195A1C855DF4F99838883C85AE3
S1131420D04086A197A1C655DF4F99838883CA5AB5
S1131430D04080A591A5C455DF4F99838883CC5AA9
S1131440D04082A593A5C255DF4F99838883CE5A95
S1131450D04084A595A5C055DF4F99838883C05B90
S1131460D04086A597A5CE54DF4F99838883C25B6D
S1131470D04080A991A9CC54DF4F99838883C45B61
S1131480D040B5016E5C7F4FC1010E946F38F501F9
S113149080AD91ADC454DF4F99838883CC5BD04039
S11314A082AD93ADC254DF4F99838883CE5BD04025
S11314B0BE016C577F4FC401B9DBCE018C579F4FDF
S11314C00E94A820F6018081CC57DF4F8883C4583E
S11314D0D0408181CB57DF4F8883C558D04082816B
S11314E0CA57DF4F8883C658D040B6016D5F7F4F1F
S11314F0C8010E946F38F60181859285A385B48561
S1131500C357DF4F88839983AA83BB83CD58D040C8
S11315108585CF56DF4F8883C159D040868597850E
S1131520CE56DF4F99838883C259D04080899189F0
S1131530CC56DF4F99838883C459D04082899389DC
S1131540CA56DF4F99838883C659D04084899589C8
S1131550C856DF4F99838883C859D04086899789B4
S1131560C656DF4F99838883CA59D040B601685E56
S11315707F4FC054DF4F88819981C05CD0400E9466
S11315806F38B601625E7F4FC2010E946F38F60168
S113159084A195A1C855DF4F99838883C85AD04048
S11315A086A197A1C655DF4F99838883CA5AD04034
S11315B080A591A5C455DF4F99838883CC5AD04028
S11315C082A593A5C255DF4F99838883CE5AD04014
S11315D084A595A5C055DF4F99838883C05BD0400F
S11315E086A597A5CE54DF4F99838883C25BD040EC
S11315F080A991A9CC54DF4F99838883C45BD040E0
S1131600B6016E5C7F4FC1010E946F38F60180AD58
S113161091ADC454DF4F99838883CC5BD04082ADB5
S113162093ADC254DF4F99838883CE5BD040BE0113
S11316306C577F4FC401FADACE018C579F4F0E943A
S1131640A820F7018081CC57DF4F8883C458D0404D
S11316508181CB57DF4F8883C558D0408281CA57D8
S1131660DF4F8883C658D040B7016D5F7F4FC801F4
S11316700E946F38F70181859285A385B485C3578D
S1131680DF4F88839983AA83BB83CD58D040858557
S1131690CF56DF4F8883C159D04086859785CE5673
S11316A0DF4F99838883C259D04080899189CC5671
S11316B0DF4F99838883C459D04082899389CA565D
S11316C0DF4F99838883C659D04084899589C85649
S11316D0DF4F99838883C859D04086899789C65635
S11316E0DF4F99838883CA59D040B701685E7F4F22
S11316F0C054DF4F88819981C05CD0400E946F380C
S1131700B701625E7F4FC2010E946F38F70184A166
S113171095A1C855DF4F99838883C85AD04086A1C4
S113172097A1C655DF4F99838883CA5AD04080A5B4
S113173091A5C455DF4F99838883CC5AD04082A5A4
S113174093A5C255DF4F99838883CE5AD04084A590
S113175095A5C055DF4F99838883C05BD04086A58B
S113176097A5CE54DF4F99838883C25BD04080A96C
S113177091A9CC54DF4F99838883C45BD040B701CF
S11317806E5C7F4FC1010E946F38F70180AD91AD4F
S1131790C454DF4F99838883CC5BD04082AD93AD32
S11317A0C254DF4F99838883CE5BD040BE016C570F
S11317B07F4FC4013BDACE018C579F4F0E94A82073
S11317C062E972E0CE0181960E9446388DE090E095
S11317D00E9436318C01CE53DF4F48815981C25C5F
S11317E0D040BE016F5D7F4F0E94B514CE0181963B
S11317F00E94DA37B801CE0144960E946F38F8018E
S113180086818A8F878190859C8F8B8F8185928535
S11318109E8F8D8F8385948598A38F8F7301F6E0B7
S1131820EF0EF11CBE016C5E7F4FC70173D8CE0171
S113183044960E94321569ED72E0CE010E960E9424
S113184046388DE090E00E9436318C01CC53DF4F56
S113185048815981C45CD040BE01625F7F4F0E94C1
S1131860D914CE010E960E94DA37B801CE01019642
S11318700E946F38F80186818F83878190859987CC
S11318808887818592859B878A87838594859D87B0
S11318908C87BE016F5F7F4FC7013CD8CE01019694
S11318A00E943215B30180916C0590916D050E94E0
S11318B0BE2462E372E082E496E00E94A231CB533C
S11318C0DF4F0FB6F894DEBF0FBECDBFDF91CF91CF
S11318D01F910F91FF90EF90DF90CF90BF90AF904A
S11318E09F908F907F906F905F904F903F902F903C
S11318F008950F931F93CF93DF9300D000D0CDB7FB
S1131900DEB766EE72E0CE0101960E94463886E1AB
S113191090E00E9436318C01BE016F5F7F4F0E94C0
S1131920112410936D0500936C05CE0101960E945D
S1131930DA3726960FB6F894DEBF0FBECDBFDF911F
S1131940CF911F910F910895CF92DF92EF92FF9262
S11319500F931F93CF93DF93CDB7DEB7C554D1094F
S11319600FB6F894DEBF0FBECDBF00916E05109187
S11319706F050C5F1F4F61E572E0CE01805C9F4FE5
S11319800E944638B801CE01805C9F4F0E94A63861
S11319906EE272E00E94B738BC0182E496E00E94D5
S11319A06931CE01805C9F4F0E94DA37609118053F
S11319B07091190580916E0590916F050E943424F1
S11319C06AE175E080916E0590916F050E946A242A
S11319D064E672E0CE01CA960E9446388DE190E03A
S11319E00E9436317C01BE01665C7F4FD5D2CE01A8
S11319F0CA960E94DA376EE672E0CE01C4960E945F
S1131A0046388DE090E00E9436318C01BE016C5C5A
S1131A107F4F8DD7CE01C4960E94DA37B801CE012C
S1131A2087960E946F38F80186818DA787819085FB
S1131A309FA78EA78185928599AB88AB8385948572
S1131A409BAB8AAB6701F6E0CF0ED11CBE01695D8A
S1131A507F4FC6010E948A04CE0187960E943215E8
S1131A6067E772E0CE0181960E9446388DE090E0EF
S1131A700E9436318C01BE016F5D7F4F58D7CE0175
S1131A8081960E94DA37B801CE0144960E946F38DD
S1131A90F80186818A8F878190859C8F8B8F8185C1
S1131AA092859E8F8D8F8385948598A38F8FBE0199
S1131AB06C5E7F4FC6010E948A04CE014496D2D741
S1131AC060E872E0CE010E960E9446388DE090E008
S1131AD00E9436318C01BE01625F7F4F28D7CE0150
S1131AE00E960E94DA37B801CE0101960E946F3833
S1131AF0F80186818F83878190859987888781857E
S1131B0092859B878A87838594859D878C87BE0170
S1131B106F5F7F4FC6010E948A04CE010196A2D74F
S1131B20B70180916E0590916F050E94BE2462E317
S1131B3072E082E496E00E94A231CB5BDF4F0FB6E5
S1131B40F894DEBF0FBECDBFDF91CF911F910F91EF
S1131B50FF90EF90DF90CF9008950F931F93CF9352
S1131B60DF9300D000D0CDB7DEB76BEE72E0CE01CC
S1131B7001960E94463886E190E00E9436318C013D
S1131B80BE016F5F7F4F0E94112410936F05009375
S1131B906E05CE0101960E94DA3726960FB6F894A8
S1131BA0DEBF0FBECDBFDF91CF911F910F9108957E
S1131BB0CF93DF93EC010E94B1262AA53BA5820FA7
S1131BC0931F9BA78AA728A539A5281739071CF5B1
S1131BD0E88DF98D309719F42A8D20FF41C099A71B
S1131BE088A78A8D9B8D80FF0EC0AE85BF859C0122
S1131BF035952795A20FB31F2D913C91E20FF31F4A
S1131C000190F081E02D959587952E853F85820F73
S1131C10931F199525C08217930714F5EC8DFD8D3C
S1131C20309719F42E8D20FF1BC099A788A78E8D9D
S1131C309F8D80FF0EC0AE85BF859C01359527958D
S1131C40A20FB31F2D913C91E20FF31F0190F0817D
S1131C50E02D959587952E853F85820F931F1995C5
S1131C60CE010E94EC26882309F44AC0853019F07D
S1131C70863021F145C0E889F989309729F48A89A9
S1131C809B8980FD05C03CC08A899B8980FF0EC06A
S1131C90AE85BF859C0135952795A20FB31F2D9165
S1131CA03C91E20FF31F0190F081E02D959587950B
S1131CB02E853F85820F931F199522C0EC89FD89DB
S1131CC0309729F48E899F8980FD05C019C08E89BB
S1131CD09F8980FF0EC0AE85BF859C0135952795F1
S1131CE0A20FB31F2D913C91E20FF31F0190F081DD
S1131CF0E02D959587952E853F85820F931F199525
S1131D00DF91CF910895FC018281938108950F930F
S1131D101F93CF93DF93CDB7DEB72D970FB6F8940B
S1131D20DEBF0FBECDBF8C010DC0D801ED91FC917B
S1131D300684F785E02DB801CE0101961995CE01F0
S1131D40019690D6D801ED91FC910190F081E02D9F
S1131D50C80119951816190644F32D960FB6F89470
S1131D60DEBF0FBECDBFDF91CF911F910F910895BC
S1131D70CF92DF92EF92FF920F931F93CF93DF9353
S1131D80CDB7DEB72D970FB6F894DEBF0FBECDBF2B
S1131D906C017B01DC0112968D919C911397892B28
S1131DA011F5ED91FC9104811581CE0101960E94FB
S1131DB06F38F70186818F8387819085998788871B
S1131DC0818592859B878A87838594859D878C8767
S1131DD0BE016F5F7F4FC601F8011995182FCE0120
S1131DE0019640D63AC08FE090E00E9436318C01D3
S1131DF08FE0D8011D928A95E9F7C80121D6F60132
S1131E0084819581D8011E969C938E931D97B7016A
S1131E10C8010E945A38F7018681D80116968C931E
S1131E2016978781908518969C938E931797818532
S1131E3092851A969C938E931997838594851C9604
S1131E409C938E931B97F60115830483828193815F
S1131E50019693838283148611E0812F2D960FB609
S1131E60F894DEBF0FBECDBFDF91CF911F910F91CC
S1131E70FF90EF90DF90CF900895AF92BF92CF92F2
S1131E80DF92EF92FF920F931F93CF93DF93CDB71F
S1131E90DEB72D970FB6F894DEBF0FBECDBF7C0121
S1131EA08B01DB0112968D919C91139718161906DC
S1131EB01CF0C701C5D55EC002970CF453C0FB01EA
S1131EC0C480D580D6011D96AD90BC901E97B601F6
S1131ED0CE0101960E946F38F60186818F83878137
S1131EE0908599878887818592859B878A87838552
S1131EF094859D878C87D8011496CD90DC90159796
S1131F00C114D10429F0C601ADD5C6010E943931EE
S1131F10F801B582A482828193810197938382839D
S1131F201486BE016F5F7F4FC7010E946F388F8197
S1131F30D70116968C9316978885998518969C9345
S1131F408E9317978A859B851A969C938E931997DF
S1131F508C859D851C969C938E931B97CE01019630
S1131F6081D508C0DB01ED91FC910484F585E02D59
S1131F70C7011995C7012D960FB6F894DEBF0FBEA1
S1131F80CDBFDF91CF911F910F91FF90EF90DF9024
S1131F90CF90BF90AF900895EF92FF920F931F934D
S1131FA0CF93DF93CDB7DEB72C970FB6F894DEBF8F
S1131FB00FBECDBF8C017B016EEE74E00E944638EB
S1131FC08BE093E0F8019783868313861286158647
S1131FD014861186108617861686118A108A128A2C
S1131FE0148A138A168A158A108E178A128E118EF5
S1131FF081E090E0948F838FB701C8010E945A3822
S11320006FEE72E0CE0107960E944638BE01695F0A
S11320107F4FCE0101960E946F388DE090E00E94C0
S113202036317C01BE016F5F7F4F81D4F801F08EA1
S1132030E78ACE0101960E94DA37CE0107960E9404
S1132040DA372C960FB6F894DEBF0FBECDBFDF9102
S1132050CF911F910F91FF90EF900895CF92DF924F
S1132060EF92FF920F931F93CF93DF93CDB7DEB719
S11320702C970FB6F894DEBF0FBECDBF8C016B0159
S11320807A016EEE74E00E9446388BE093E0F8012A
S11320909783868313861286158614861186108686
S11320A017861686118A108A128A148A138A168A47
S11320B0158A108E178A128E118E81E090E0948F0B
S11320C0838FB601C8010E945A38F801F48AE38A62
S11320D064EB72E0CE0107960E944638BE01695F48
S11320E07F4FCE0101960E946F388DE090E00E94F0
S11320F036317C01BE016F5F7F4F19D4F801F08E39
S1132100E78ACE0101960E94DA37CE0107960E9433
S1132110DA372C960FB6F894DEBF0FBECDBFDF9131
S1132120CF911F910F91FF90EF90DF90CF90089582
S1132130CF93DF93EC01898D9A8D01971AF09A8FD2
S1132140898F02C01A8E198E64EF72E082E496E0E1
S11321500E947831698D7A8D4AE050E082E496E0FD
S11321600E94643281E090E09C8F8B8FDF91CF914D
S11321700895CF93DF93EC01898D9A8D01969A8F00
S1132180898F288539852817390714F43A8F298FC0
S113219064EF72E082E496E00E947831698D7A8D72
S11321A04AE050E082E496E00E94643281E090E0EC
S11321B09C8F8B8FDF91CF910895DC011496ED9164
S11321C0FC9115971C968C911C97882361F01A96A4
S11321D02D913C911B976217730744F01896ED916B
S11321E0FC91199705C020E030E002C020E030E007
S11321F02617370764F4309751F00584F685E02DEF
S11322002F5F3F4F2617370714F43097B1F726177F
S1132210370779F481E01C968C931C971B963C93AA
S11322202E931A971996FC93EE9318978E2F9F2F3F
S1132230089580E090E008950F931F93CF93DF9368
S1132240EC01CB01BA01B9DF8C010097A1F0BC010C
S1132250CE010E946F38F80186818E838781908534
S113226098878F83818592859A87898783859485CA
S11322709C878B8702C0CE01E3D3CE01DF91CF913F
S11322801F910F9108952F923F924F925F926F92F8
S11322907F928F929F92AF92BF92CF92DF92EF92F2
S11322A0FF920F931F93CF93DF93CDB7DEB72D9794
S11322B00FB6F894DEBF0FBECDBFFB0106851785B0
S11322C0FC01238D348D2130310509F093C03B018D
S11322D07C01502E412E802F912F0E946B2740E0CD
S11322E060E0802F912F0E94722763E073E0802FBB
S11322F0912F0E947831B701802F912F0E9469316C
S1132300F701848195814397C1F000E010E00F2E1E
S1132310F3E1CF2ED12CF02D63E073E0852D942DC5
S11323200E9478310F5F1F4FF701848195819601D8
S1132330281B390B0217130778F3F701818D928D4F
S113234063E070E00E94333B8B014701F6E08F0E9F
S1132350911C5B0123E0A20EB11CF701208531859D
S1132360C5012A153B050CF4C901081719070CF01F
S11323703EC0CC24C394D12C2A2C3B2C4C2D60E0A1
S1132380852D942D0E947227F701818D928D8017DF
S1132390910739F465E073E0852D942D0E9478311E
S11323A006C063E674E0852D942D0E947831A8015F
S11323B0B401CE01019640DF9301A60161E070E013
S11323C0CE01019652D3CE0101964CD3FFEFCF1A22
S11323D0DF0A0F5F1F4FF70120853185822D932D72
S11323E02A153B050CF4C901081719073CF2F7013B
S11323F0148E138E2D960FB6F894DEBF0FBECDBF8C
S1132400DF91CF911F910F91FF90EF90DF90CF90CC
S1132410BF90AF909F908F907F906F905F904F9000
S11324203F902F900895EF92FF920F931F93CF93B5
S1132430DF93CDB7DEB72D970FB6F894DEBF0FBE8E
S1132440CDBF8C017B01FC01418D528DBC016A5FC3
S11324507F4FCE010196F0DEB701CE01019697D3EE
S1132460CE010196FFD281E090E0F801948F838F32
S11324702D960FB6F894DEBF0FBECDBFDF91CF917E
S11324801F910F91FF90EF900895AF92BF92CF925A
S1132490DF92EF92FF920F931F93CF93DF93CDB709
S11324A0DEB72D970FB6F894DEBF0FBECDBF7C010B
S11324B08B01FB01628173811616170614F0C0D2DA
S11324C092C0F8011486623071050CF44BC062505E
S11324D07109C80172DE5C01FC01C584D684B601B1
S11324E0CE0101960E946F38F60186818F83878121
S11324F0908599878887818592859B878A8783853C
S113250094859D878C87F501C584D684C114D10434
S113251029F0C601A7D2C6010E943931F5011686F9
S11325201586F801B782A6828281938101979383ED
S11325308283BE016F5F7F4FC7010E946F388F8116
S1132540F701868388859985908787838A859B850B
S1132550928781878C859D8594878387CE01019698
S113256081D241C0F801C480D580B601CE01019664
S11325700E946F38F60186818F83878190859987C1
S11325808887818592859B878A87838594859D87A3
S11325908C87F801C480D580C114D10429F0C60108
S11325A061D2C6010E943931F80115821482178262
S11325B0168213821282BE016F5F7F4FC7010E9491
S11325C06F388F81F7018683888599859087878303
S11325D08A859B85928781878C859D85948783874F
S11325E0CE0101963FD2C7012D960FB6F894DEBFF7
S11325F00FBECDBFDF91CF911F910F91FF90EF9050
S1132600DF90CF90BF90AF900895AF92BF92CF92DA
S1132610DF92EF92FF920F931F93CF93DF93CDB787
S1132620DEB72D970FB6F894DEBF0FBECDBF8C0179
S11326307B01552344F0DB0112968D919C911397F5
S1132640481759071CF0C801FBD178C04115510542
S113265049F4DB01ED91FC910684F785E02DC80176
S113266019956CC001978417950749F4DB01ED9126
S1132670FC910484F585E02DC80119955FC0BA0169
S113268061507109C70199DD5C01FC01C584D684E0
S1132690B601CE0101960E946F38D60116968C9130
S11326A016978F8317968D919C9118979987888791
S11326B019968D919C911A979B878A871B968D9169
S11326C09C911C979D878C87D5011D96ED91FC915B
S11326D01E97858596851E969C938E931D97C1148F
S11326E0D10429F0C601BED1C6010E943931F701D7
S11326F0828193810197938382831486BE016F5FE5
S11327007F4FC8010E946F388F81D80116968C9331
S113271016978885998518969C938E9317978A8522
S11327209B851A969C938E9319978C859D851C96F0
S11327309C938E931B97CE01019694D1C8012D963C
S11327400FB6F894DEBF0FBECDBFDF91CF911F91BE
S11327500F91FF90EF90DF90CF90BF90AF900895CE
S11327600F931F93CF93DF937723ECF0FC01228127
S1132770338162177307CCF4EA011FDD8C01BE01BB
S11327800E945A388E81F80186838F8198859087BC
S1132790878389859A85928781878B859C85948791
S11327A0838781E003C080E001C080E0DF91CF91A6
S11327B01F910F910895AF92BF92CF92DF92EF9243
S11327C0FF920F931F93CF93DF93CDB7DEB76A9732
S11327D00FB6F894DEBF0FBECDBF7C015B018A014A
S11327E0DC0112968D919C911397681779071CF15F
S11327F0ED91FC91C480D580BA01CE010E960E9461
S11328006F38F80186818C8B878190859E8B8D8BA8
S113281081859285988F8F8B838594859A8F898FF4
S1132820BE01625F7F4FC701F6011995182FCE01D3
S11328300E9618D16AC0672B21F5D701ED91FC9152
S1132840C680D780BA01CE0101960E946F38F80184
S113285086818F83878190859987888781859285F2
S11328609B878A87838594859D878C87BE016F5F4C
S11328707F4FC701F6011995182FCE010196F2D0AA
S113288044C08FE090E00E9436316C018FE0D601A5
S11328901D928A95E9F7C601D3D0B501615071093B
S11328A0C7018BDC5C01B801C6010E945A38F801EB
S11328B08681D60116968C931697878190851896F3
S11328C09C938E931797818592851A969C938E93E9
S11328D01997838594851C969C938E931B97F50179
S11328E0858596851E969C938E931D97D686C58660
S11328F0D70112968D919C911397019613969C93F0
S11329008E9312971C961C9211E0812F6A960FB633
S1132910F894DEBF0FBECDBFDF91CF911F910F9111
S1132920FF90EF90DF90CF90BF90AF900895EF921B
S1132930FF921F93CF93DF93EC017B016EEE74E063
S11329400E94463813E01E8318861F821A86198651
S11329501C861B86B701CE010E945A381E83DF9164
S1132960CF911F91FF90EF900895EF92FF920F93F4
S11329701F93CF93DF93EC017B018A016EEE74E029
S11329800E94463883E08E8318861F821A86198631
S11329901C861B86B701CE010E945A381A87098704
S11329A081E08E83DF91CF911F910F91FF90EF9083
S11329B00895EF92FF920F931F93CF93DF93EC014F
S11329C07B018A016EEE74E00E94463883E08E83B8
S11329D018861F821A8619861C861B86B701CE01AB
S11329E00E945A3818870F831E82DF91CF911F915E
S11329F00F91FF90EF900895EF92FF920F931F9322
S1132A00CF93DF93EC017B018A016EEE74E00E94A8
S1132A10463883E08E8318861F821A8619861C86A0
S1132A201B86B701CE010E945A381C870B8782E0AF
S1132A308E83DF91CF911F910F91FF90EF900895B6
S1132A40CF93DF93EC016EEE74E00E94463883E08E
S1132A508E8318861F821A8619861C861B86DF9130
S1132A60CF9108950C94DA370895DF92EF92FF9294
S1132A700F931F93CF93DF93CDB7DEB7A4970FB611
S1132A80F894DEBF0FBECDBF7C01D42EF9010685BC
S1132A901785C8010E947227B701C8010E946931D5
S1132AA0F7018681823009F064C0E384F484B701BD
S1132AB0CE0101960E946F38F70186818F83B7019A
S1132AC0695F7F4FCE0108960E946F38B701635F3C
S1132AD07F4FCE010E960E946F38F70183898C8B4D
S1132AE0848995899E8B8D8B86899789988F8F8B06
S1132AF0BE016F5F7F4FCE014F960E943023EBA043
S1132B00FCA0BE016F5F7F4FCE0149960E94542303
S1132B108D8D9E8D8E159F053CF463E16E194D2DB0
S1132B20C8010E94722706C063E1681B4D2DC801CD
S1132B300E947227CE0101960E947823019739F4EE
S1132B40BE01615E7F4FC8010E94693106C0BE01AB
S1132B50675E7F4FC8010E946931CE0149960E9489
S1132B60DA37CE014F960E94DA37CE0101960E94E1
S1132B702023A4960FB6F894DEBF0FBECDBFDF911D
S1132B80CF911F910F91FF90EF90DF900895CF9315
S1132B90DF93FC01EB019681913029F038F19230FA
S1132BA009F447C04EC06185728561157105D1F481
S1132BB08E859F850E946B276FE173E08E859F85CC
S1132BC00E94A23166E273E08E859F850E94A23145
S1132BD068EB7BE080E090E00E944536CE010E94E5
S1132BE06E2448C0CE010E94BE2444C06781708513
S1132BF061157105D1F48E859F850E946B276FE165
S1132C0073E08E859F850E94A23166E273E08E8513
S1132C109F850E94A23168EB7BE080E090E00E94F7
S1132C204536CE010E946E2425C0CE010E94C424E4
S1132C3021C0838594850E949A23CE010E946E242C
S1132C4019C08E859F850E946B276EE373E08E8585
S1132C509F850E94A23166E473E08E859F850E9461
S1132C60A23168EB7BE080E090E00E944536CE0123
S1132C700E946E24DF91CF910895FC01828193819B
S1132C8008950F931F93CF93DF93CDB7DEB7EC97DF
S1132C900FB6F894DEBF0FBECDBF8C010EC0D801B5
S1132CA0ED91FC910684F785E02DB801CE010196E3
S1132CB01995CE0101960E94A820D801ED91FC91AE
S1132CC00190F081E02DC8011995181619063CF3FE
S1132CD0EC960FB6F894DEBF0FBECDBFDF91CF9157
S1132CE01F910F910895AF92BF92CF92DF92EF920E
S1132CF0FF920F931F93CF93DF93CDB7DEB7EC977B
S1132D000FB6F894DEBF0FBECDBF8C016B01DB01A3
S1132D1012968D919C9113971816190624F0C801E8
S1132D200E94632020C102970CF415C1FB01E480CA
S1132D30F580D701DC96AD90BC90DD978C918983AA
S1132D4011968C9111978A8312968C918B83B7017B
S1132D506D5F7F4FCE0104960E946F38F701818525
S1132D609285A385B4858A879B87AC87BD87858533
S1132D708E8786859785988B8F87808991899A8B92
S1132D80898B828993899C8B8B8B848995899E8B73
S1132D908D8B86899789988F8F8BB701685E7F4F5B
S1132DA0CE0149960E946F38B701625E7F4FCE0113
S1132DB04F960E946F38D70194968D919C91959768
S1132DC09EA38DA396968D919C91979798A78FA378
S1132DD098968D919C9199979AA789A79A968D9187
S1132DE09C919B979CA78BA79C968D919C919D975A
S1132DF09EA78DA79E968D919C919F9798AB8FA728
S1132E00D0968D919C91D1979AAB89ABB7016E5CAA
S1132E107F4FCE01C3960E946F38F70180AD91AD0C
S1132E209AAF89AF82AD93AD9CAF8BAFD6011496A8
S1132E30ED90FC901597E114F10431F0C7010E9464
S1132E40A820C7010E943931F601B582A48282818B
S1132E50938101979383828314868981D8018C930B
S1132E608A8111968C9311978B8112968C93BE0153
S1132E706C5F7F4FC80103960E946F388A859B85DB
S1132E80AC85BD85F80181879287A387B4878E8539
S1132E9085878F8598899787868789899A89918B71
S1132EA0808B8B899C89938B828B8D899E89958B52
S1132EB0848B8F89988D978B868BBE01675E7F4F3D
S1132EC0C80148960E946F38BE01615E7F4FC801F9
S1132ED04E960E946F388DA19EA1D80195969C9321
S1132EE08E9394978FA198A597969C938E9396977B
S1132EF089A59AA599969C938E9398978BA59CA542
S1132F009B969C938E939A978DA59EA59D969C9334
S1132F108E939C978FA598A99F969C938E939E972A
S1132F2089A99AA9D1969C938E93D097BE016D5C82
S1132F307F4FC801C2960E946F3889AD9AADF801DF
S1132F4091AF80AF8BAD9CAD93AF82AFCE010196B4
S1132F500E94A82008C0DB01ED91FC910484F58552
S1132F60E02DC8011995C801EC960FB6F894DEBFA0
S1132F700FBECDBFDF91CF911F910F91FF90EF90C6
S1132F80DF90CF90BF90AF900895CF92DF92EF92F1
S1132F90FF920F931F93CF93DF93CDB7DEB7EC97D8
S1132FA00FB6F894DEBF0FBECDBF6C018B01DC0100
S1132FB012968D919C911397892B09F085C0ED9100
S1132FC0FC91E480F580FB018081898381818A837F
S1132FD082818B836D5F7F4FCE0104960E946F3890
S1132FE0F80181859285A385B4858A879B87AC8700
S1132FF0BD8785858E8786859785988B8F87808901
S113300091899A8B898B828993899C8B8B8B8489F8
S113301095899E8B8D8B86899789988F8F8BB80124
S1133020685E7F4FCE0149960E946F38B801625E98
S11330307F4FCE014F960E946F38D80194968D91A0
S11330409C9195979EA38DA396968D919C9197970D
S113305098A78FA398968D919C9199979AA789A7E1
S11330609A968D919C919B979CA78BA79C968D91EA
S11330709C919D979EA78DA79E968D919C919F97BD
S113308098AB8FA7D0968D919C91D1979AAB89AB31
S1133090B8016E5C7F4FCE01C3960E946F38F80171
S11330A080AD91AD9AAF89AF82AD93AD9CAF8BAF3C
S11330B0BE016F5F7F4FC601F7011995182FCE012E
S11330C001960E94A820ABC08EE390E00E943631A6
S11330D07C018EE3D7011D928A95E9F7C701F3D7E6
S11330E0F60184819581D701DD969C938E93DC97BC
S11330F0F80180818C93818111968C931197828140
S113310012968C93B8016D5F7F4FC70103960E949E
S11331105A38F80181859285A385B485F7018187A2
S11331209287A387B487D8011D968C911D978587B4
S11331301E968D919C911F979787868750968D91A7
S11331409C915197918B808B52968D919C91539722
S1133150938B828B54968D919C915597958B848BF0
S113316056968D919C915797978B868BB801685E84
S11331707F4FC70148960E945A38B801625E7F4F5C
S1133180C7014E960E945A38F80184A195A1D7012F
S113319095969C938E93949786A197A197969C93CA
S11331A08E93969780A591A599969C938E939897C4
S11331B082A593A59B969C938E939A9784A595A597
S11331C09D969C938E939C9786A597A59F969C937A
S11331D08E939E9780A991A9D1969C938E93D09714
S11331E0B8016E5C7F4FC701C2960E945A38F8013D
S11331F080AD91ADD701D9969C938E93D89782AD2B
S113320093ADDB969C938E93DA97F601F582E48274
S113321082819381019693838283148611E0812FA6
S1133220EC960FB6F894DEBF0FBECDBFDF91CF9101
S11332301F910F91FF90EF90DF90CF900895EF9240
S1133240FF920F931F93CF93DF93EC017B0188EEE2
S113325093E0FE01819391938F016EEE74E0CF01B0
S11332600E94463888E693E0998788871D861C86E5
S11332701F861E861B861A86198A188A1B8A1A8A32
S11332801C8A1D8A1E8A1F8A188EB701C8010E94D3
S11332905A38DF91CF911F910F91FF90EF900895CD
S11332A0DC011496ED91FC9115971C968C911C975A
S11332B0882361F01A962D913C911B97621773072E
S11332C044F01896ED91FC91199705C020E030E088
S11332D002C020E030E02617370764F4309751F03D
S11332E004ACF5ADE02D2F5F3F4F2617370714F4DC
S11332F03097B1F72617370779F481E01C968C9341
S11333001C971B963C932E931A971996FC93EE9355
S113331018978E2F9F2F089580E090E008950F93C3
S11333201F93CF93DF93EC01CB01BA01B9DF8C017A
S1133330009709F469C0FC018081888381818983B5
S113334082818A83B8016D5F7F4FCE0103960E940C
S11333506F38F80181859285A385B48589879A871A
S1133360AB87BC8785858D87868597859F878E8764
S113337080899189998B888B828993899B8B8A8B8D
S1133380848995899D8B8C8B868997899F8B8E8B5D
S1133390B801685E7F4FCE0148960E946F38B8012D
S11333A0625E7F4FCE014E960E946F38F80184A171
S11333B095A19DA38CA386A197A19FA38EA380A56D
S11333C091A599A788A782A593A59BA78AA784A559
S11333D095A59DA78CA786A597A59FA78EA780A92D
S11333E091A999AB88ABB8016E5C7F4FCE01C296B0
S11333F00E946F38F80180AD91AD99AF88AF82AD6E
S113340093AD9BAF8AAF02C0CE015DD6CE01DF91F2
S1133410CF911F910F9108958F929F92AF92BF9277
S1133420CF92DF92EF92FF920F931F93CF93DF938C
S1133430CDB7DEB7EC970FB6F894DEBF0FBECDBFA5
S11334407C018B010E941336F70185889688A78832
S1133450B08CAB01BC01481959096A097B09808108
S11334609181092E000CAA0BBB0B84179507A607A4
S1133470B70768F50E941336F701658B768B878B47
S1133480908FF801C684D784C6010E946B27570128
S1133490F8E0AF0EB11CF701828593851816190662
S11334A0B4F400E010E0A801B501CE01019637DFC5
S11334B0B601CE01019622D7CE01019649D60F5FFF
S11334C01F4FF701228533850217130764F3EC9627
S11334D00FB6F894DEBF0FBECDBFDF91CF911F9121
S11334E00F91FF90EF90DF90CF90BF90AF909F909F
S11334F08F900895AF92BF92CF92DF92EF92FF9296
S11335000F931F93CF93DF93CDB7DEB7EC970FB62E
S1133510F894DEBF0FBECDBF8C016B01FB0162814D
S113352073811616170614F0CED5E0C1F601148681
S1133530623071050CF4F2C062507109C601B0DE4C
S11335405C01FC01E4ACF5ACF701808189838181E5
S11335508A8382818B83B7016D5F7F4FCE0104968E
S11335600E946F38F70181859285A385B4858A8787
S11335709B87AC87BD8785858E8786859785988B45
S11335808F87808991899A8B898B828993899C8B77
S11335908B8B848995899E8B8D8B86899789988F4F
S11335A08F8BB701685E7F4FCE0149960E946F38BA
S11335B0B701625E7F4FCE014F960E946F38F701CC
S11335C084A195A19EA38DA386A197A198A78FA35B
S11335D080A591A59AA789A782A593A59CA78BA747
S11335E084A595A59EA78DA786A597A598AB8FA71B
S11335F080A991A99AAB89ABB7016E5C7F4FCE01CC
S1133600C3960E946F38F70180AD91AD9AAF89AF30
S113361082AD93AD9CAF8BAFF501E4ACF5ACE11496
S1133620F10429F0C70194D5C7010E943931F5018D
S113363015AE14AEF601B782A682828193810197FA
S1133640938382838981F80180838A8181838B813A
S11336508283BE016C5F7F4FC80103960E946F385E
S11336608A859B85AC85BD85F80181879287A38770
S1133670B4878E8585878F8598899787868789897A
S11336809A89918B808B8B899C89938B828B8D8972
S11336909E89958B848B8F89988D978B868BBE01A1
S11336A0675E7F4FC80148960E946F38BE01615E15
S11336B07F4FC8014E960E946F388DA19EA1F801DC
S11336C095A384A38FA198A597A386A389A59AA55A
S11336D091A780A78BA59CA593A782A78DA59EA53E
S11336E095A784A78FA598A997A786A789A99AA91A
S11336F091AB80ABBE016D5C7F4FC801C2960E9446
S11337006F3889AD9AADF80191AF80AF8BAD9CADA8
S113371093AF82AFCE0101961BD5E8C0F601E480D9
S1133720F580F7018081898381818A8382818B83FB
S1133730B7016D5F7F4FCE0104960E946F38F70189
S113374081859285A385B4858A879B87AC87BD874D
S113375085858E8786859785988B8F8780899189C3
S11337609A8B898B828993899C8B8B8B848995898D
S11337709E8B8D8B86899789988F8F8BB701685E16
S11337807F4FCE0149960E946F38B701625E7F4F2A
S1133790CE014F960E946F38F70184A195A19EA394
S11337A08DA386A197A198A78FA380A591A59AA779
S11337B089A782A593A59CA78BA784A595A59EA759
S11337C08DA786A597A598AB8FA780A991A99AAB39
S11337D089ABB7016E5C7F4FCE01C3960E946F38F0
S11337E0F70180AD91AD9AAF89AF82AD93AD9CAF37
S11337F08BAFF601E480F580E114F10429F0C701F0
S1133800A7D4C7010E943931F601158214821782A8
S11338101682138212828981F80180838A818183CE
S11338208B818283BE016C5F7F4FC80103960E9427
S11338306F388A859B85AC85BD85F8018187928721
S1133840A387B4878E8585878F8598899787868790
S113385089899A89918B808B8B899C89938B828BA4
S11338608D899E89958B848B8F89988D978B868B78
S1133870BE01675E7F4FC80148960E946F38BE0143
S1133880615E7F4FC8014E960E946F388DA19EA144
S1133890F80195A384A38FA198A597A386A389A5CE
S11338A09AA591A780A78BA59CA593A782A78DA570
S11338B09EA595A784A78FA598A997A786A789A948
S11338C09AA991AB80ABBE016D5C7F4FC801C296D3
S11338D00E946F3889AD9AADF80191AF80AF8BAD7E
S11338E09CAD93AF82AFCE01019632D4C801EC9661
S11338F00FB6F894DEBF0FBECDBFDF91CF911F91FD
S11339000F91FF90EF90DF90CF90BF90AF9008950C
S1133910AF92BF92CF92DF92EF92FF920F931F93D9
S1133920CF93DF93CDB7DEB7EC970FB6F894DEBF35
S11339300FBECDBF8C016B01552344F0DB01129601
S11339408D919C911397481759071CF0C801BBD35C
S113395031C14115510549F4DB01ED91FC91068417
S1133960F785E02DC801199525C10197841795079E
S113397049F4DB01ED91FC910484F585E02DC80147
S1133980199518C1BA0161507109C60189DC5C013D
S1133990FC01E4ACF5ACD7018C91898311968C9130
S11339A011978A8312968C918B83B7016D5F7F4F39
S11339B0CE0104960E946F38F70181859285A38514
S11339C0B4858A879B87AC87BD8785858E878685E6
S11339D09785988B8F87808991899A8B898B828927
S11339E093899C8B8B8B848995899E8B8D8B8689FF
S11339F09789988F8F8BB701685E7F4FCE01499668
S1133A000E946F38B701625E7F4FCE014F960E94CD
S1133A106F38D70194968D919C9195979EA38DA311
S1133A2096968D919C91979798A78FA398968D9130
S1133A309C9199979AA789A79A968D919C919B9707
S1133A409CA78BA79C968D919C919D979EA78DA7D3
S1133A509E968D919C919F9798AB8FA7D0968D91B0
S1133A609C91D1979AAB89ABB7016E5C7F4FCE0125
S1133A70C3960E946F38F70180AD91AD9AAF89AFBC
S1133A8082AD93AD9CAF8BAFD501DC96ED91FC91EB
S1133A90DD9784AD95ADDD969C938E93DC97E11410
S1133AA0F10429F0C70154D3C7010E943931F6014A
S1133AB08281938101979383828314868981D801BB
S1133AC08C938A8111968C9311978B8112968C9387
S1133AD0BE016C5F7F4FC80103960E946F388A85D0
S1133AE09B85AC85BD85F80181879287A387B487C0
S1133AF08E8585878F8598899787868789899A890E
S1133B00918B808B8B899C89938B828B8D899E89E9
S1133B10958B848B8F89988D978B868BBE01675E7E
S1133B207F4FC80148960E946F38BE01615E7F4F87
S1133B30C8014E960E946F388DA19EA1D80195961A
S1133B409C938E9394978FA198A597969C938E930C
S1133B50969789A59AA599969C938E9398978BA5E9
S1133B609CA59B969C938E939A978DA59EA59D96B6
S1133B709C938E939C978FA598A99F969C938E93C4
S1133B809E9789A99AA9D1969C938E93D097BE01AA
S1133B906D5C7F4FC801C2960E946F3889AD9AADA3
S1133BA0F80191AF80AF8BAD9CAD93AF82AFCE01E6
S1133BB00196CED2C801EC960FB6F894DEBF0FBEC4
S1133BC0CDBFDF91CF911F910F91FF90EF90DF90C8
S1133BD0CF90BF90AF9008950F931F93CF93DF932F
S1133BE077230CF474C0FC012281338162177307BC
S1133BF00CF06FC0EA0154DB8C018881F8018083EA
S1133C00898181838A818283BE016D5F7F4FC80170
S1133C1003960E945A3889859A85AB85BC85F8013C
S1133C2081879287A387B4878D8585878E859F85B5
S1133C309787868788899989918B808B8A899B89C4
S1133C40938B828B8C899D89958B848B8E899F899C
S1133C50978B868BBE01685E7F4FC80148960E9491
S1133C605A38BE01625E7F4FC8014E960E945A3890
S1133C708CA19DA1F80195A384A38EA19FA197A3D4
S1133C8086A388A599A591A780A78AA59BA593A794
S1133C9082A78CA59DA595A784A78EA59FA597A768
S1133CA086A788A999A991AB80ABBE016E5C7F4FB2
S1133CB0C801C2960E945A3888AD99ADF80191AFF7
S1133CC080AF8AAD9BAD93AF82AF81E003C080E04B
S1133CD001C080E0DF91CF911F910F910895AF92C1
S1133CE0BF92CF92DF92EF92FF920F931F93CF93E5
S1133CF0DF93CDB7DEB7EC970FB6F894DEBF0FBEF7
S1133D00CDBF6C015B018A01DC0112968D919C91FF
S1133D101397681779070CF485C0ED91FC91E48042
S1133D20F580FA018081898381818A8382818B83F2
S1133D30BA016D5F7F4FCE0104960E946F38F8017F
S1133D4081859285A385B4858A879B87AC87BD8747
S1133D5085858E8786859785988B8F8780899189BD
S1133D609A8B898B828993899C8B8B8B8489958987
S1133D709E8B8D8B86899789988F8F8BB801685E0F
S1133D807F4FCE0149960E946F38B801625E7F4F23
S1133D90CE014F960E946F38D80194968D919C91D4
S1133DA095979EA38DA396968D919C91979798A78E
S1133DB08FA398968D919C9199979AA789A79A9683
S1133DC08D919C919B979CA78BA79C968D919C9180
S1133DD09D979EA78DA79E968D919C919F9798AB3A
S1133DE08FA7D0968D919C91D1979AAB89ABB8014E
S1133DF06E5C7F4FCE01C3960E946F38F80180AD90
S1133E0091AD9AAF89AF82AD93AD9CAF8BAFBE013C
S1133E106F5F7F4FC601F7011995182FCE010196E8
S1133E2097D13FC1672B09F086C0D601ED91FC9173
S1133E30E680F780FA018081898381818A83828187
S1133E408B83BA016D5F7F4FCE0104960E946F3859
S1133E50F80181859285A385B4858A879B87AC8781
S1133E60BD8785858E8786859785988B8F87808982
S1133E7091899A8B898B828993899C8B8B8B84897A
S1133E8095899E8B8D8B86899789988F8F8BB801A6
S1133E90685E7F4FCE0149960E946F38B801625E1A
S1133EA07F4FCE014F960E946F38D80194968D9122
S1133EB09C9195979EA38DA396968D919C9197978F
S1133EC098A78FA398968D919C9199979AA789A763
S1133ED09A968D919C919B979CA78BA79C968D916C
S1133EE09C919D979EA78DA79E968D919C919F973F
S1133EF098AB8FA7D0968D919C91D1979AAB89ABB3
S1133F00B8016E5C7F4FCE01C3960E946F38F801F2
S1133F1080AD91AD9AAF89AF82AD93AD9CAF8BAFBD
S1133F20BE016F5F7F4FC601F7011995182FCE01AF
S1133F3001960ED1B6C08EE390E00E9436317C012A
S1133F408EE3D7011D928A95E9F7C701BCD0B5016C
S1133F5061507109C601A4D95C01F8018081D701BF
S1133F608C93818111968C931197828112968C93F4
S1133F70B8016D5F7F4FC70103960E945A38F8015C
S1133F8081859285A385B485F70181879287A3876C
S1133F90B487D8011D968C911D9785871E968D91A7
S1133FA09C911F979787868750968D919C915197E6
S1133FB0918B808B52968D919C915397938B828B8E
S1133FC054968D919C915597958B848B56968D9193
S1133FD09C915797978B868BB801685E7F4FC7017A
S1133FE048960E945A38B801625E7F4FC7014E96C8
S1133FF00E945A38F80184A195A1D70195969C9303
S11340008E93949786A197A197969C938E93969757
S113401080A591A599969C938E93989782A593A534
S11340209B969C938E939A9784A595A59D969C9315
S11340308E939C9786A597A59F969C938E939E9707
S113404080A991A9D1969C938E93D097B8016E5C68
S11340507F4FC701C2960E945A38F80180AD91ADD6
S1134060D701D9969C938E93D89782AD93ADDB9666
S11340709C938E93DA97F50184AD95ADDD969C9370
S11340808E93DC97F5AEE4AED60112968D919C9199
S11340901397019613969C938E9312971C961C92D9
S11340A011E0812FEC960FB6F894DEBF0FBECDBFA2
S11340B0DF91CF911F910F91FF90EF90DF90CF9000
S11340C0BF90AF900895CF93DF93EC0118821982CB
S11340D081E18A836EEE74E0CE0103960E94463835
S11340E019861A861B861C861D861F861E86198ABB
S11340F0188A1B8A1A8A1D8A1C8A8FEF9FEF9F8B4E
S11341008E8B6EEE74E0CE0148960E9446386EEEB9
S113411074E0CE014E960E9446381DA21CA21FA236
S11341201EA219A618A61BA61AA61DA61CA61FA683
S11341301EA619AA18AA6EEE74E0CE01C2960E94B9
S1134140463819AE18AE1BAE1AAEDF91CF91089562
S1134150CF93DF93EC01C2960E94DA37CE014E96DC
S11341600E94DA37CE0148960E94DA37CE010396D0
S11341700E94DA37DF91CF910895AF92BF92CF9228
S1134180DF92EF92FF920F931F93CF93DF93EC0193
S1134190A62EB42E680179011882198281E18A83DE
S11341A06EEE74E0CE0103960E94463819861A8694
S11341B01B861C861D861F861E86198A188A1B8AE2
S11341C01A8A1D8A1C8A8FEF9FEF9F8B8E8B6EEE4F
S11341D074E0CE0148960E9446386EEE74E0CE013B
S11341E04E960E9446381DA21CA21FA21EA219A60A
S11341F018A61BA61AA61DA61CA61FA61EA619AAAB
S113420018AA6EEE74E0CE01C2960E94463819AE2A
S113421018AE1BAE1AAEA882B98281E08A83C98621
S1134220DA86EB86FC86DF91CF911F910F91FF9088
S1134230EF90DF90CF90BF90AF900895CF92DF9230
S1134240EF92FF920F931F93CF93DF93EC01C62E4F
S1134250D42E79011882198281E18A838E010D5F3F
S11342601F4F6EEE74E0C8010E94463819861A8604
S11342701B861C861D861F861E86198A188A1B8A21
S11342801A8A1D8A1C8A8FEF9FEF9F8B8E8B6EEE8E
S113429074E0CE0148960E9446386EEE74E0CE017A
S11342A04E960E9446381DA21CA21FA21EA219A649
S11342B018A61BA61AA61DA61CA61FA61EA619AAEA
S11342C018AA6EEE74E0CE01C2960E94463819AE6A
S11342D018AE1BAE1AAEC882D98288E08A83FDA2CA
S11342E0ECA2B701C8010E945A38DF91CF911F9107
S11342F00F91FF90EF90DF90CF9008958F929F924F
S1134300AF92BF92CF92DF92EF92FF920F931F93DF
S1134310CF93DF93CDB7DEB72C970FB6F894DEBFFB
S11343200FBECDBF8C017B01DC014C9111966C91C9
S1134330C701D8D5F801428150E04031510508F059
S11343406CC1FA018827EE58FF4F8F4F0C94683BDD
S1134350D8011E966D917C911F974AE050E0C701E9
S11343600E945D325AC1F801608971894AE050E0C7
S1134370C7010E945D3251C1D80152966D917C9162
S113438053974AE050E0C7010E945D3246C1F801EC
S1134390648975894AE050E0C7010E945D323DC1DD
S11343A0D80119964D915D916D917C911C9722E0F5
S11343B030E0C7010E94813330C1F801658570E0A7
S11343C04AE050E0C7010E945D3227C1D8011D9622
S11343D08C91882339F0B801685E7F4FC7010E9431
S11343E069311BC1B801625E7F4FC7010E94693108
S11343F014C10D5F1F4F6CE773E0CE0107960E9456
S11344004638B801CE0107960E94A638BC0182E462
S113441096E00E946931CE0107960E94DA37B8010E
S1134420C7010E946931F9C0D8019A96ED91FC91B7
S11344309B97608171811E968D919C911F97861721
S1134440970709F4EAC01F967C936E931E974AE07F
S113445050E0C7010E945D32E0C0D8019C96ED9106
S1134460FC919D976081718150968D919C9151979B
S11344708617970709F4D1C051967C936E93509791
S11344804AE050E0C7010E945D32C7C0D8019E9641
S1134490ED91FC919F9780809180A280B380529689
S11344A08D919C915397092E000CAA0BBB0B881578
S11344B09905AA05BB0509F4B0C0F801938A828A5C
S11344C04AE050E0B401C7010E945D32A6C0D801A1
S11344D0D096ED91FC91D19780809180A280B38099
S11344E054968D919C915597092E000CAA0BBB0BE9
S11344F088159905AA05BB0509F48FC0F801958AAA
S1134500848A4AE050E0B401C7010E945D3285C04C
S1134510D8019696ED91FC91979780809180A28026
S1134520B380A501940119966D917D918D919C9113
S11345301C970E947939882309F46FC0F801818699
S11345409286A386B48622E030E0B501A401C701B7
S11345500E94813362C0D8019896ED91FC9199979D
S113456060811D968C911D97861709F456C01D967F
S11345706C9370E04AE050E0C7010E945D324DC088
S1134580D8019896ED91FC9199971D969C91808104
S1134590981709F442C081E0EF2B09F480E0F80198
S11345A08587882339F0B801685E7F4FC7010E9470
S11345B0693133C0B801625E7F4FC7010E9469311F
S11345C02CC06801F3E0CF0ED11CD80194966D91F4
S11345D07C919597C6010E94023981111EC0F80191
S11345E064A175A1C6010E945A3864E973E0CE0142
S11345F001960E944638B601CE0101960E94A63863
S1134600BC0182E496E00E946931CE0101960E94C9
S1134610DA37B601C7010E9469312C960FB6F894B7
S1134620DEBF0FBECDBFDF91CF911F910F91FF90E1
S1134630EF90DF90CF90BF90AF909F908F900895B0
S1134640CF93DF93EC010D960E94DA37CE010796E3
S11346500E94DA37CE010E94DA37DF91CF910895B4
S1134660CF93DF93EC01FB018681813069F018F070
S1134670823081F015C0FB01668977896D5F7F4FB9
S1134680CE010E946F380CC0695F7F4FCE010E943B
S11346906F3806C0695F7F4FCE010E946F3800C03B
S11346A0CE01DF91CF910895CF93DF93EC01FB010D
S11346B08681813069F018F0823081F015C0FB01E9
S11346C066897789675F7F4FCE010E946F380CC07F
S11346D0635F7F4FCE010E946F3806C0635F7F4FD8
S11346E0CE010E946F3800C0CE01DF91CF910895B2
S11346F0DC0116962C91213059F018F0223061F02B
S113470015C0FC01868997890E942B029C010FC069
S1134710FC01238930E00BC0DC015496ED91FC913F
S11347205597208153962C9330E001C00895822F31
S1134730932F0895CF93DF93FC0186818130B9F0E4
S113474018F08230C9F022C0C689D789CE010E94F0
S11347502B02892B31F060E070E0CE010E9444020C
S113476015C061E070E0CE010E9444020FC093893D
S113477081E08927838B0AC0A489B589938981E064
S113478089278C93A489B5898C91838BDF91CF91F0
S11347900895EF92FF920F931F93CF93DF93EC0151
S11347A07B018A016EEE74E00E94463881E08E83BC
S11347B068E072E0CE0107960E9446386DE072E030
S11347C0CE010D960E9446381B8A1D8A1C8A1F8AB8
S11347D01E8AB701CE010E945A381E821F8B0E8B8F
S11347E0DF91CF911F910F91FF90EF90089508955D
S11347F0FC0180819181009719F0BF010C94131280
S11348000895FC0180819181009711F00C94B910F6
S11348100895FC0180819181009711F00C94981007
S11348200895EF92FF920F931F93CF93DF93EC01C0
S11348307B01198218821B821A828C010C5F1F4F24
S11348406EEE74E0C8010E9446381B861A861D86E7
S11348501C86B701C8010E945A38DF91CF911F917D
S11348600F91FF90EF900895FC01718B608BDB0139
S11348701F969C938E931E97A089B18988EF93E22B
S113488051969C938E93509753961C921E925297D6
S1134890A089B18987EF93E255969C938E935497A0
S11348A057961C921E925697A089B18981E094E292
S11348B059969C938E9358975B961C921E925A9786
S11348C00088F189E02D89E094E2958F848F178E1A
S11348D0168E0895FC017787668708950F931F93BA
S11348E0CF93DF93EC018A819B81892B61F00E9435
S11348F013366A8B7B8B8C8B9D8BBE018A819B814B
S11349000E940C1A36C088819981892B61F00E941B
S113491013366A8B7B8B8C8B9D8BBE01888199812E
S11349200E94431126C00E9413360A891B892C89D0
S11349303D89DC01CB01801B910BA20BB30B893B9E
S11349409B40A105B105A8F00E9413366A8B7B8BAE
S11349508C8B9D8B8E859F85BED26AEA73E08E8593
S11349609F850E94A23161EB73E08E859F850E9432
S1134970A231DF91CF911F910F910895FC017183B2
S11349806083138212820895FC0111821082738362
S11349906283089580914C0590914D050E94D80D35
S11349A080911805909119050E94D80D80913205C7
S11349B0909133050E94D80D8091FE049091FF04DC
S11349C00C94D80D089580916C0590916D0586DF47
S11349D080916E0590916F0581DF80916A059091B9
S11349E06B057CDF8091FC049091FD0477CF0895E2
S11349F08F929F92AF92BF92CF92DF92EF92FF92EB
S1134A000F931F93CF93DF93EC018C819D810196CB
S1134A109D838C830E941336688379838A839B8366
S1134A20CE01B8DFCE01CFDF8E819F81A885B98505
S1134A30BC01CD016F5F7F4F8F4F9F4F6E837F838C
S1134A4088879987C880D980EA80FB800A851B857E
S1134A502C853D85C01AD10AE20AF30A29EBC21655
S1134A602BE0D206E104F10408F45EC00E94183A77
S1134A704B015C01C701B6010E94163A20E030E008
S1134A804AE754E40E947D399B01AC01C501B4019D
S1134A900E947D396B017C0163EC73E082E496E053
S1134AA00E94783122E030E0B701A60182E496E06A
S1134AB00E9481336FEC73E082E496E00E947831C7
S1134AC04E815F81688579852AE030E082E496E052
S1134AD00E94253268ED73E082E496E00E9478310A
S1134AE0488159816A817B818A859B85AC85BD8596
S1134AF0481B590B6A0B7B0B2AE030E082E496E0FA
S1134B000E94793263EE73E082E496E00E94A2315F
S1134B1088819981AA81BB818A879B87AC87BD875D
S1134B201E821F8218861986DF91CF911F910F91E3
S1134B30FF90EF90DF90CF90BF90AF909F908F90B9
S1134B400895EF920F931F93CF93DF93EC01862F79
S1134B50688349832A83EB821D821C821F821E8202
S1134B6008871A8619861B8691E09C879D87EE200C
S1134B7011F010E001C012E0612F0E944337612F51
S1134B8089810E944337612F8A810E94433788813B
S1134B900E94B2372B8130E08217930721F483E01F
S1134BA090E09F838E8389810E94B2372B8130E00D
S1134BB08217930731F48E819F8121E082279F839E
S1134BC08E83DF91CF911F910F91EF900895CF9233
S1134BD0DF92EF92FF920F931F93CF93DF93EC0139
S1134BE00E9413366B017C018D85882359F08985D9
S1134BF09A8502979A87898789859A85992314F4D7
S1134C001A86198688810E94B2372B8130E0821778
S1134C10930711F413E001C010E089810E94B237B8
S1134C202B8130E08217930711F481E018278E81DD
S1134C309F81811B80FF1DC0212F110F330B3F83E8
S1134C402E832C813D818270082E000C990B0197D4
S1134C50820F931F9D838C838D85882351F08985D2
S1134C609A85883E9B4028F489859A8549969A8737
S1134C7089878A81882309F46BC040917305509118
S1134C807405609175057091760597018601041B82
S1134C90150B260B370B0A3011052105310508F4D5
S1134CA057C0C0927305D0927405E0927505F092D6
S1134CB076050E94B2372B8130E08217930771F496
S1134CC0809171059091720501969093720580937D
S1134CD071058937910510F083E08B878A810E94E2
S1134CE0B2373B8121E0232730E08217930729F56F
S1134CF08091710590917205892BD9F08B85833051
S1134D0029F484E08B871092700513C0809170059C
S1134D10823038F08C3368F486E08B87109270050B
S1134D2008C08C85811102C081E001C08CE38093AE
S1134D307005109272051092710580917005882398
S1134D4039F0825080937005811102C085E08B8711
S1134D50DF91CF911F910F91FF90EF90DF90CF9053
S1134D600895FC01F894248135818085823031F4E2
S1134D70C90181709927958384830AC0843031F4F2
S1134D80C901837099279583848302C01582148294
S1134D9078948085843029F4359527953595279521
S1134DA004C0823011F4359527958585882329F030
S1134DB081859285892F992702C080E090E0332372
S1134DC01CF48095909508951216130614F4019618
S1134DD0089580E090E00895FC01838593859330E5
S1134DE009F013860895FC0112828FEF81831082EB
S1134DF013820895FC012381222339F0611103C039
S1134E002FEF21830895FC0111820895CF93DF933E
S1134E10EC016A838AEE95E006D541E06A818AEE68
S1134E2095E017D591E0811101C090E09B838AEE53
S1134E3095E066D488838B8190E0DF91CF910895CB
S1134E40CF93DF93FC012381222399F0EC0181812C
S1134E5080956823608362818AEE95E0FDD4688141
S1134E608AEE95E0A0D48AEE95E012D5282F30E0A2
S1134E7002C020E030E081E090E0232B11F080E0DC
S1134E8090E0DF91CF91089508950895DC01ED91AC
S1134E90FC910284F385E02D41E0199581E090E0D6
S1134EA00895FC01138212822DEE33E031832083B6
S1134EB00895DC01ED91FC910084F185E02D6FEF04
S1134EC019950895DC01ED91FC910284F385E02DA0
S1134ED040E01995089561E0F5DF80ED97E00C94CA
S1134EE06E360895CF93DF93CDB7DEB728970FB60C
S1134EF0F894DEBF0FBECDBFFC011D8280E48E831B
S1134F0094E19F8394E5988719828A8380E18B8357
S1134F1080E58C838781481710F04FEF480F908508
S1134F20903161F4843051F4DE01A40FB11D119667
S1134F308C91680F6068CF01C5DF09C0DE01A40F42
S1134F40B11D15969C91690F6068CF01BBDF28964F
S1134F500FB6F894DEBF0FBECDBFDF91CF91089599
S1134F60FC016581262F246025836C60ABCF0895F6
S1134F70CF93DF93EC01423018F08C8188608C83EE
S1134F804F836887222329F0413019F48C8184608F
S1134F908C8364E670E080E090E00E9445366C818A
S1134FA064FD31C0E881F9810284F385E02D42E09B
S1134FB063E0CE01199584E991E10E946E36E8819F
S1134FC0F9810284F385E02D42E063E0CE01199576
S1134FD084E991E10E946E36E881F9810284F385C7
S1134FE0E02D42E063E0CE01199586E990E00E944D
S1134FF06E36E881F9810284F385E02D42E062E0B7
S1135000CE01199513C06062CE015CDF84E991E1A1
S11350100E946E366C816062CE0154DF86E990E0B6
S11350200E946E366C816062CE014CDF6C816062DE
S1135030CE0148DF84E08D83CE0192DFCE014BDFC9
S113504082E08E8366E0CE013DDFCE0132DFDF9168
S1135050CF91089521E001C0220F6A95EAF7DC019F
S11350601B962C931B9719964C931997ED91FC91D1
S11350700084F185E02D60E019950895FC01838595
S1135080882389F09185911103C0611105C006C080
S1135090913021F4611102C0848701C014866485B3
S11350A0CF010D96CDCE08956F927F928F92AF92DD
S11350B0CF92DF92EF92FF920F931F93CF93DF93E0
S11350C0CDB7DEB73C01D62EF42E122FEADE8DEFDB
S11350D093E0F30191838083C3010D9684DEF30191
S11350E0D28613861486118681E0982F01C0990F09
S11350F0FA94EAF7918B982F01C0990F1A95EAF761
S1135100928B982F01C0990F0A95EAF7938B982FE9
S113511001C0990FEA94EAF7948B982F01C0990F74
S1135120CA94EAF7958B982F01C0990FAA94EAF7CD
S1135130968B01C0880F8A94EAF7878BDF91CF9111
S11351401F910F91FF90EF90DF90CF90AF908F90D1
S11351507F906F9008950F931F93CF93DF93EC018B
S11351608C01035F1F4F6A85C80150DE019751F41B
S113517061E0C8013FDE1C8260E0C80161DE81E0BD
S113518090E002C080E090E0DF91CF911F910F91F9
S11351900895FF920F931F93CF93DF93EC01F62EA4
S11351A08C01035F1F4F9989692BC80149DE9989D6
S11351B090956F2D6923C80143DEDF91CF911F9134
S11351C00F91FF900895DC01FC0174969C01285E08
S11351D03F4F90E060FF02C08081982B6695319626
S11351E0E217F307B9F7413019F453964C915397EA
S11351F01C966C911C97692B642BCD01CACF089522
S11352000F931F93CF93DF938C01C62FD42F42307B
S113521021F46F7040E0D7DF0FC070E0759567959B
S1135220759567957595679575956795CCDF6C2F22
S11352306F704D2FC801C7DFDF91CF911F910F9180
S11352400895FF920F931F93CF93DF93EC01162FD2
S1135250042FF22E80DF2F2D402F612FCE0188DE08
S1135260DF91CF911F910F91FF9008951F920F929C
S11352700FB60F9211240BB60F922F933F934F93B7
S11352805F936F937F938F939F93AF93BF93EF93AA
S1135290FF93E0917705F09178051995FF91EF91CF
S11352A0BF91AF919F918F917F916F915F914F913A
S11352B03F912F910F900BBE0F900FBE0F901F9038
S11352C018951092E90581E08093E7051092E605B0
S11352D061E084E10E94823761E085E10E948237C7
S11352E0E9EBF0E080818E7F808380818D7F8083F5
S11352F088E48093B80085E48093BC00089541322B
S113530008F046C09091E9059111FCCF31E030934B
S1135310E9052093E7052FEF20937C051092C10542
S1135320240F2093C0053093E8052091E805880FE9
S1135330822B8093E8058091E605813051F4109228
S1135340E6058091E8058093BB0085EC8093BC0062
S113535003C085EE8093BC008091E9058130E1F3C0
S11353608091C105841710F44091C105442389F04C
S1135370A2ECB5E0FB018FEF840F90E00196680F7B
S1135380791F8D918193E617F707D9F7942F01C000
S113539090E0892F08950F93413208F051C0309165
S11353A0E9053111FCCF92E09093E9050093E705FC
S11353B09FEF90937C051092C1054093C005442350
S11353C071F0FB01A2ECB5E0415050E04F5F5F4F3C
S11353D0640F751F91919D93E617F707D9F7109203
S11353E0E8059091E805880F892B8093E805809162
S11353F0E605813051F41092E6058091E80580932A
S1135400BB0085EC8093BC0003C085EE8093BC0098
S1135410222341F08091E905823021F48091E9054D
S11354208230E1F380917C058F3F79F080917C0597
S1135430803241F080917C05803331F034E005C046
S113544031E003C032E001C033E0832F0F910895AF
S11354506132C8F42091E9052430B9F460939E05C3
S11354606623A9F0FC01A0EAB5E06150262F30E0E4
S11354702F5F3F4F280F391F91919D93E217F30738
S1135480D9F780E0089581E0089582E0089580E0EE
S1135490089585ED8093BC00ECEBF0E0808184FD01
S11354A0FDCF1092E905089585EC8093BC0010921D
S11354B0E90508951F920F920FB60F9211240BB6AF
S11354C00F922F933F934F935F936F937F938F9399
S11354D09F93AF93BF93EF93FF938091B900887F1D
S11354E090E0893C910508F0F0C0FC018827EE5754
S11354F0FF4F8F4F0C94683B8091E8058093BB006D
S113550085EC8093BC00E1C09091C1058091C005F9
S1135510981780F4E091C10581E08E0F8093C10556
S1135520F0E0EE53FA4F80818093BB0085EC8093CA
S1135530BC00CBC08091E705882311F0AADFC5C069
S113554081E08093E60584EA8093BC001092E9052B
S1135550BCC080E280937C059CDFB7C080E380936D
S11355607C0597DFB2C088E380937C059DDFADC0E6
S1135570E091C10581E08E0F8093C1058091BB004D
S1135580F0E0EE53FA4F80839091C1058091C005FD
S1135590981720F485EC8093BC0097C085E880932D
S11355A0BC0093C0E091C10581E08E0F8093C105DA
S11355B08091BB00F0E0EE53FA4F80838091E705C1
S11355C0882311F066DF81C081E08093E60584EAD8
S11355D08093BC001092E90578C05BDF76C083E05D
S11355E08093E90510927D0585EC8093BC006DC025
S11355F080917D05803280F4E0917D0581E08E0FFD
S113560080937D058091BB00F0E0E258FA4F8083DF
S113561085EC8093BC0059C085E88093BC0055C0DC
S113562080917D05803230F4E0917D05F0E0E25810
S1135630FA4F10822EDF60917D0570E0E091E20563
S1135640F091E3058EE795E0199510927D052CDF26
S11356503CC085E88093BC0038C084E08093E905B1
S113566010929F0510929E05E091E405F091E505E6
S1135670199580919E05811105C081E080939E0556
S11356801092A005E0919F0581E08E0F80939F0505
S1135690F0E0E056FA4F80818093BB0090919F0523
S11356A080919E05981720F485EC8093BC000DC072
S11356B085E88093BC0009C085EC8093BC001092FF
S11356C0E90503C010927C05E4DEFF91EF91BF91E0
S11356D0AF919F918F917F916F915F914F913F9186
S11356E02F910F900BBE0F900FBE0F901F90189527
S11356F080911A0690E020911B06821B910908955F
S113570090911B0680911A06981750F4E92FF0E047
S1135710E45EF94F208130E09F5F90931B0602C046
S11357202FEF3FEFC9010895E0911B0680911A06FF
S1135730E81730F4F0E0E45EF94F808190E00895DA
S11357408FEF9FEF08950895CF92DF92EF92FF922B
S11357500F931F93CF93DF938C01CB016A012091A8
S1135760F6052223A1F04115510599F0EB017B01C7
S1135770E40EF51E6991D801ED91FC910190F08140
S1135780E02DC8011995CE15DF05A1F702C0642FDD
S11357905FDEC601DF91CF911F910F91FF90EF90D3
S11357A0DF90CF900895CF93DF931F92CDB7DEB7EC
S11357B0FC0169839091F6059923D9F09091F7053E
S11357C0903238F081E090E09383828380E090E02F
S11357D016C08091F805E82FF0E0E750FA4F998160
S11357E090838F5F8093F8058093F70581E090E0C4
S11357F006C061E0CE0101962BDE81E090E00F90BF
S1135800DF91CF910895FC011382128288EE93E018
S1135810A0E0B0E084839583A683B7838DE094E011
S113582091838083089510921B0610921A06109299
S1135830F8051092F70545CD0895862F413208F0FA
S113584040E26CE176E05BDD10921B0680931A0661
S1135850089521E0F2CF089581E08093F6056093E6
S113586019061092F8051092F70508950F93062F64
S113587021E04091F70569EF75E0809119068BDD11
S11358801092F8051092F7051092F6050F910895FD
S113589061E0ECCF08958AEE95E0B5CF089526E057
S11358A040E855E260E070E082E496E0B4D169E15A
S11358B074E082E496E046D56FE374E082E496E017
S11358C041D569E174E082E496E03CD565E674E094
S11358D082E496E00DD522E030E04DEC5CEC6CEC1B
S11358E07DE382E496E00FD76EEE74E082E496E006
S11358F029D561E774E082E496E024D50E94D403BC
S11359000E94133660933E0670933F0680934006D0
S11359109093410641E063E08EE495E0E3DA60E8C9
S113592074E08EE495E0E4D422E030E04DEC5CECED
S11359306CEC7DE38EE495E0E4D642E062E08EE434
S113594095E0D0DA6AE874E08EE495E0D1D441E0E1
S113595062E084E395E0C6DA6BE974E084E395E001
S1135960C7D441E062E08AE195E0BCDA6BEA74E016
S11359708AE195E0BDD441E062E080E095E0B2DAEE
S11359806BEB74E080E095E0B3D40E94CE060E94F5
S1135990DF040E94A40C68EB7BE080E090E00C94B0
S11359A0453608950F931F9380910602882329F0AA
S11359B067EC74E082E496E0C5D41092060206C057
S11359C064EF71E080E090E00E9445360E94133657
S11359D000913E0610913F06209140063091410609
S11359E0DC01CB01801B910BA20BB30B883B9B40CA
S11359F0A105B10528F380913C0690913D060E94D3
S1135A00F8241F910F9108958EE090E02FD42EE09A
S1135A10FC0111922A95E9F790933D0680933C0688
S1135A2008950E94953DFC01918D228D892F90E06F
S1135A30805C9F4F821B91098F7399270895FC0105
S1135A40918D828D981731F0828DE80FF11D858D2F
S1135A5090E008958FEF9FEF0895FC01918D828D62
S1135A60981761F0828DDF01A80FB11D5D968C91AE
S1135A70928D9F5F9F73928F90E008958FEF9FEFB9
S1135A80089589ED9EE2892B41F080E090E0892B16
S1135A9021F08FD181110E94000084E79FE2892BBD
S1135AA041F080E090E0892B21F01ED281110E9408
S1135AB000008FE090E3892B41F080E090E0892B97
S1135AC021F0ADD281110E9400008AEA90E3892B73
S1135AD041F080E090E0892B21F03CD381110E94B9
S1135AE000000895FC01848DDF01A80FB11DA35AA5
S1135AF0BF4F8C91248D30E02F5F3F4F2F73307850
S1135B00332334F421503109206C3F6F2F5F3F4F12
S1135B10248FA689B7898C93A089B1898C918064DC
S1135B208C93938D848D981306C00288F389E02D9D
S1135B3080818F7D80830895CF93DF93EC01888DDE
S1135B4081110EC017C00FB607FC0CC0908195FFE1
S1135B5009C0A889B9898C9185FF04C0CE01C2DF30
S1135B60EA89FB89908195FDEECFA889B9898C914A
S1135B7086FFE9CFDF91CF9108950F931F93CF93C1
S1135B80DF93FC0181E0808F938D848D981321C075
S1135B90A089B1898C9185FD2EC01BC00FB607FC6E
S1135BA007C0E889F989808185FF02C0CE019ADFA8
S1135BB09C8D091799F38B8DFE01E80FF11DE35AB3
S1135BC0FF4F10830B8FEA89FB8980818062808379
S1135BD01BC0238D30E02F5F3F4F2F73307833236A
S1135BE034F421503109206C3F6F2F5F3F4F162F43
S1135BF0EF01022FDDCFA689B7896C930088F18964
S1135C00E02D80818064808381E090E0DF91CF91FA
S1135C101F910F910895BF92CF92DF92EF92FF925E
S1135C200F931F93CF93DF93EC016A017B01B22E94
S1135C30E889F98982E080834115514E6105710537
S1135C40B1F060E079E08DE390E0A70196010E9455
S1135C50463B89019A010150110921093109369500
S1135C60279517950795011580E11807A8F0E8898D
S1135C70F989108260E874E88EE190E0A70196014A
S1135C800E94463BDA01C9010197A109B109B69501
S1135C90A795979587958C01EC85FD851083EE85F6
S1135CA0FF850083188EEC89FD89B082EA89FB891F
S1135CB0808180618083EA89FB8980818860808318
S1135CC0EA89FB89808180688083EA89FB898081F5
S1135CD08F7D8083DF91CF911F910F91FF90EF9083
S1135CE0DF90CF90BF9008951F920F920FB60F923E
