:100000000C9403010C9430010C9430010C943001D9
:100010000C9430010C9430010C9430010C9430019C
:100020000C9430010C9430010C9430010C9430018C
:100030000C9430010C9430010C9430010C9430017C
:100040000C9430010C9430010C9430010C9430016C
:100050000C9430010C9430010C9430010C94CF07B7
:100060000C9430010C9430010C9430010C9430014C
:100070000C9430010C9430010C9430010C9430013C
:100080000C9430010C9430010C9430010C9430012C
:100090000C9430010C9430010C9430010C94370511
:1000A0000C9430010C9430010C9430010C9430010C
:1000B0000C9430010C9430010C9430010C943001FC
:1000C0000C9430010C9430010C9430010C943001EC
:1000D0000C9430010C9430010C9430010C943001DC
:1000E0000C94300100002100240027002A002D007C
:1000F0003000330001010000040107010A01000083
:100100002200250028002B002E00310034000201BF
:100110000000050108010B0100002000230026005B
:1001200029002C002F00320000010000030106010D
:10013000090105050505070508080808020202026D
:100140000A0A080804040404010101010101010173
:100150000303030303030303040707070C0C0C0C3E
:100160000C0C0C0C02020202060606060606060627
:100170000B0B0B0B0B0B0B0B0102102020080810B4
:100180002040102040800201020108040201010207
:1001900004081020408080402010080402018004E0
:1001A000020180402010080402010804020101023B
:1001B0000408102040800102040810204080000044
:1001C000090A02080B0C0D070603040100000000D9
:1001D000000000000000000000000000000000001F
:1001E0000000000000000000000011100F000000DF
:1001F00000000000000000000000000000000000FF
:1002000000000000240711241FBECFEFD1E2DEBFA3
:10021000CDBF00E00CBF12E0A0E0B2E0E0E9F3E106
:1002200000E00BBF02C007900D92A633B107D9F7CB
:100230001BBE13E0A6E3B2E001C01D92A730B107D8
:10024000E1F712E0C6E0D2E004C02297FE010E946E
:10025000C209C430D107C9F70E9483090C94C609AA
:100260000C940000CF93DF93BC018230910510F411
:1002700062E070E0A0910503B0910603ED01E0E0BB
:10028000F0E040E050E021C088819981861797070F
:1002900069F48A819B81309719F09383828304C02B
:1002A0009093060380930503FE0134C06817790715
:1002B00038F44115510519F08417950708F4AC017D
:1002C000FE018A819B819C01E9012097E9F6411595
:1002D0005105A9F1CA01861B970B049708F4BA01CE
:1002E000E0E0F0E02AC08D919C911197841795076A
:1002F000F9F46417750781F412968D919C91139708
:10030000309719F09383828304C0909306038093FF
:100310000503FD0132964CC0CA01861B970BFD01F7
:10032000E80FF91F6193719302978D939C9340C0DE
:10033000FD01828193819C01D9011097A1F68091E2
:10034000030390910403892B41F480910202909160
:10035000030290930403809303034091040250919D
:1003600005024115510541F44DB75EB78091000279
:1003700090910102481B590B209103033091040313
:10038000CA01821B930B8617970780F0AB014E5F63
:100390005F4F8417950750F0420F531F509304038B
:1003A00040930303F9016193719302C0E0E0F0E030
:1003B000CF01DF91CF910895CF93DF93009709F498
:1003C00050C0EC0122971B821A82A0910503B091C4
:1003D0000603109709F140E050E0AC17BD0708F1A3
:1003E000BB83AA83FE0121913191E20FF31FAE1767
:1003F000BF0779F48D919C911197280F391F2E5FBB
:100400003F4F3983288312968D919C9113979B833C
:100410008A834115510571F4D0930603C0930503F7
:1004200020C012968D919C911397AD01009711F009
:10043000DC01D3CFFA01D383C28321913191E20F42
:10044000F31FCE17DF0769F488819981280F391FC0
:100450002E5F3F4FFA01318320838A819B819383F2
:100460008283DF91CF910895809136029091370277
:100470000E947C0208958CE190E00E9493092CE197
:10048000DC011D922A95E9F7809338029093390296
:100490000E94560282E090E00E949309FC011182C2
:1004A000108290933702809336020895EF92FF9264
:1004B0000F931F93DF93CF93CDB7DEB769970FB636
:1004C000F894DEBF0FBECDBF7C018E010F5F1F4FC2
:1004D000C80167E20E945604F70111830083699600
:1004E0000FB6F894DEBF0FBECDBFCF91DF911F9145
:1004F0000F91FF90EF900895FC018081918101960A
:10050000918380830895FC0112828FEF8183108292
:1005100013820895FC018381882331F0662319F446
:100520008FEF8183089511820895CF93DF93EC01BB
:100530008B81882319F480E090E013C08981809535
:10054000862388838EEE92E06A810E94EA068EEE10
:1005500092E068810E946C078EEE92E00E94AF07E5
:1005600090E020E030E0892B11F421E030E0C90177
:10057000DF91CF910895CF93DF93EC016A838EEEE4
:1005800092E00E94C4078EEE92E06A8141E00E94F0
:10059000C0071B82882311F081E08B838EEE92E0EE
:1005A0000E94FD0688838B8190E0DF91CF910895B2
:1005B00008950895FC01138212828AE092E09183EB
:1005C00080830895FC01A081B18118962D913C9102
:1005D00019976FEFF90119950895DC01ED91FC91E0
:1005E0000284F385E02D40E019950895FC016581B2
:1005F000862F846085836C60CF010E94ED02089590
:10060000DC01ED91FC910284F385E02D41E0199528
:1006100081E090E0089561E00E94ED0280ED97E0B6
:100620000E9470080895CF93DF93EC01423018F0D8
:100630008C8188608C834F836887222329F0413026
:1006400019F48C8184608C8364E670E080E090E033
:100650000E9417086C8164FD31C0E881F981028431
:10066000F385E02DCE0163E042E0199584E991E144
:100670000E947008E881F9810284F385E02DCE01A3
:1006800063E042E0199584E991E10E947008E881F5
:10069000F9810284F385E02DCE0163E042E01995F3
:1006A00086E990E00E947008E881F9810284F38570
:1006B000E02DCE0162E042E0199516C06062CE01E5
:1006C0000E94ED0284E991E10E9470086C816062F1
:1006D000CE010E94ED0286E990E00E9470086C81D4
:1006E0006062CE010E94ED026C816062CE010E94C8
:1006F000ED0284E08D83CE010E94F602CE010E94BD
:100700000B0382E08E83CE0166E00E94ED02CE01F3
:100710000E94E202DF91CF910895DC0181E090E038
:1007200002C0880F991F6A95E2F71C968C931C975C
:100730001A965C934E931997ED91FC911197008452
:10074000F185E02DCD0160E019950895DF92EF92DB
:10075000FF920F931F938C01D62E8EE0E82EF12C82
:10076000E00EF11EF80162896D29C7010E94950211
:10077000F801628960956D21C7010E9495021F9161
:100780000F91FF90EF90DF900895DC01FC0120E0D5
:1007900090E070E060FF02C08589282B9F5F319652
:1007A000943019F075956795F4CF413019F454964B
:1007B0004C9154971D968C911D97842B282BCD011D
:1007C000622F0E94A60308950F931F93CF93DF9388
:1007D000EC01142F062F0F70423019F4602F40E007
:1007E0000CC070E044E0759567954A95E1F7412F9C
:1007F0000E94C503CE01602F412F0E94C503DF91E7
:10080000CF911F910F910895FC012485222399F027
:1008100081859285009719F4662329F406C0019713
:1008200021F4662311F4258701C01586CF010E96A9
:1008300065850E94950208950F931F93CF93DF93D0
:100840008C01EC012E96CE01F80163850E94BB025B
:10085000019719F020E030E00CC0CE0161E00E9469
:100860008A02F8011482CE0160E00E94950221E024
:1008700030E0C901DF91CF911F910F910895DF9270
:10088000EF92FF920F931F938C01F62EE42ED22E3F
:100890000E941C04C8016F2D4E2D2D2D0E941303A4
:1008A0001F910F91FF90EF90DF900895FF920F93AB
:1008B0001F938C01F62E0E94DA028AE192E0F80181
:1008C00091838083C8010E960E948302F801F3860B
:1008D000148615861286118680E4828B80E2838BD3
:1008E00080E1848B81E0858B82E0868B84E0878B3E
:1008F00088E0808F1F910F91FF900895382F41322B
:1009000010F040E042C080913A028823E1F791E084
:1009100090933A0220933C028FEF8093A7021092AB
:1009200062024150409363024F5F90933B0280917B
:100930003B02330F832B80933B0280913D02813039
:1009400041F410923D0280913B028093BB0085EC04
:1009500001C085EE8093BC0080913A028130E1F3C2
:1009600080916202841710F44091620220E030E02E
:100970000AC0FB01E20FF31FD901AE5BBD4F8C91A2
:1009800080832F5F3F4F2417A0F3842F08950F9388
:100990001F93582F122F413210F081E04AC08091EE
:1009A0003A028823E1F782E080933A0200933C0206
:1009B0008FEF8093A7021092620240936302A2E439
:1009C000B2E0FB0102C081918D938E2F861B8417AC
:1009D000D0F310923B0280913B02550F852B809300
:1009E0003B0280913D02813041F410923D028091A2
:1009F0003B028093BB0085EC01C085EE8093BC0078
:100A0000112321F080913A028230E1F38091A70214
:100A10008F3F11F480E00DC08091A702803211F465
:100A200082E007C08091A702803311F084E001C00A
:100A300083E01F910F910895482F613210F081E0FB
:100A4000089580913A02843011F082E00895609315
:100A50008502A4E6B2E0842F9C01F90102C08191D5
:100A60008D938E2F841B8617D0F380E008951F92FC
:100A70000F920FB60F920BB60F9211242F933F9344
:100A80004F935F936F937F938F939F93AF93BF9396
:100A9000EF93FF938091B90090E0887F907080364B
:100AA000910509F4F2C081369105CCF588329105A3
:100AB00009F47BC089329105B4F48031910509F4C1
:100AC0006FC0813191053CF4009709F447C1089744
:100AD00009F04FC165C08831910509F466C080975F
:100AE00009F047C182C08034910509F4A4C0813463
:100AF000910544F48033910509F482C0C89709F048
:100B000038C189C08035910509F489C088359105BF
:100B100009F496C08834910509F02BC1AEC088391C
:100B2000910509F413C189399105ECF488379105D1
:100B300009F4ABC0893791054CF48836910509F466
:100B4000A4C08037910509F014C19FC08838910571
:100B500009F4FCC08039910509F49DC080389105E5
:100B600009F007C198C0803B910509F4C6C0813BDC
:100B700091054CF4803A910509F49FC0883A91059B
:100B800009F0F7C0BAC0803C910509F4E3C0883C85
:100B9000910509F4DFC0883B910509F0EAC0C2C0A5
:100BA00080913B028093BB00CFC090916202809104
:100BB0006302981768F490916202E92FF0E0EE5B0F
:100BC000FD4F80818093BB009F5F90936202BCC009
:100BD00080913C02882309F44BC085ED8093BC00D2
:100BE0008091BC0084FDFCCFC2C080E28093A7024C
:100BF00085ED8093BC008091BC0084FDFCCFB7C024
:100C000080E38093A70285ED8093BC008091BC00B7
:100C100084FDFCCFACC088E38093A7029BC0809189
:100C200062029091BB00E82FF0E0EE5BFD4F9083F5
:100C30008F5F80936202909162028091630282C012
:100C4000809162029091BB00E82FF0E0EE5BFD4FD7
:100C500090838F5F8093620280913C02882341F0F1
:100C600085ED8093BC008091BC0084FDFCCF7FC0EB
:100C700081E080933D0284EA6EC085ED8093BC00E4
:100C80008091BC0084FDFCCF72C083E080933A0267
:100C90001092A60259C08091A602803208F056C078
:100CA0008091A6029091BB00E82FF0E0EA57FD4F3B
:100CB00090838F5F8093A60247C08091A602803206
:100CC00030F4E091A602F0E0EA57FD4F108285ED86
:100CD0008093BC008091BC0084FDFCCF10923A024E
:100CE0006091A602E0914002F091410286E892E014
:100CF00070E019951092A6022DC084E080933A020C
:100D00001092840210928502E0913E02F0913F021F
:100D1000199580918502882329F481E080938502CA
:100D20001092640290918402E92FF0E0EC59FD4F9B
:100D300080818093BB009F5F909384029091840296
:100D400080918502981710F485EC01C085E88093A6
:100D5000BC000FC085EC8093BC0009C01092A702B4
:100D600085ED8093BC008091BC0084FDFCCF109287
:100D70003A02FF91EF91BF91AF919F918F917F9137
:100D80006F915F914F913F912F910F900BBE0F90FC
:100D90000FBE0F901F90189510923A0281E0809339
:100DA0003C0210923D0284E161E00E94500985E11D
:100DB00061E00E945009E9EBF0E080818E7F808342
:100DC00080818D7F808388E48093B80085E4809360
:100DD000BC00089581E08093ED026093CA021092F6
:100DE000EB021092EC0208952091C90230E080914C
:100DF000C802281B3109C90108954091C802809199
:100E0000C902481718F02FEF3FEF0AC0E42FF0E0B7
:100E1000E855FD4F8081282F30E04F5F4093C80296
:100E2000C9010895E091C8028091C902E81718F03D
:100E3000EFEFFFEF06C0F0E0E855FD4F8081E82FAF
:100E4000F0E0CF01089508951092F1021092F0029F
:100E500088EE93E0A0E0B0E08093F2029093F3027A
:100E6000A093F402B093F5028AE292E09093EF022D
:100E70008093EE020895CF92DF92EF92FF920F934C
:100E80001F93CF93DF937C016B018A018091ED0268
:100E90008823A1F0C0E0D0E00DC0D701ED91FC9116
:100EA000D601AC0FBD1F0190F081E02DC7016C9100
:100EB00019952196C017D10780F304C0CB01642F88
:100EC0000E941C05C801DF91CF911F910F91FF90E7
:100ED000EF90DF90CF900895DF93CF930F92CDB72F
:100EE000DEB7FC0169838091ED028823C9F080910F
:100EF000EC02803238F081E090E09383828320E03E
:100F000030E015C08091EB02E82FF0E0E553FD4F93
:100F1000998190838F5F8093EB028093EC0205C0F0
:100F2000CE01019661E00E941C0521E030E0C9017C
:100F30000F90CF91DF9108950F93062F8091CA02F1
:100F40006BEC72E04091EC0221E00E94C704109229
:100F5000EB021092EC021092ED020F91089561E005
:100F60000E949C070895413208F040E2862F68EA0B
:100F700072E00E947E041092C8028093C902089514
:100F800021E00E94B30708951092C8021092C9028E
:100F90001092EB021092EC020E94CC0608951F9270
:100FA0000F920FB60F9211242F933F938F939F931D
:100FB000AF93BF938091FE029091FF02A091000336
:100FC000B0910103309102030196A11DB11D232FA1
:100FD0002D5F2D3720F02D570196A11DB11D2093B7
:100FE00002038093FE029093FF02A0930003B0934C
:100FF00001038091FA029091FB02A091FC02B09152
:10100000FD020196A11DB11D8093FA029093FB028F
:10101000A093FC02B093FD02BF91AF919F918F917D
:101020003F912F910F900FBE0F901F9018959B012D
:10103000AC017FB7F8948091FA029091FB02A091E5
:10104000FC02B091FD0266B5A89B05C06F3F19F088
:101050000196A11DB11D7FBFBA2FA92F982F8827F8
:10106000860F911DA11DB11D62E0880F991FAA1F57
:10107000BB1F6A95D1F7BC012DC0FFB7F8948091D2
:10108000FA029091FB02A091FC02B091FD02E6B53C
:10109000A89B05C0EF3F19F00196A11DB11DFFBF30
:1010A000BA2FA92F982F88278E0F911DA11DB11D32
:1010B000E2E0880F991FAA1FBB1FEA95D1F7861B94
:1010C000970B885E9340C8F221503040404050401A
:1010D00068517C4F211531054105510571F6089580
:1010E000019739F0880F991F880F991F0297019770
:1010F000F1F70895789484B5826084BD84B58160E9
:1011000084BD85B5826085BD85B5816085BDEEE60F
:10111000F0E0808181608083E1E8F0E010828081EE
:1011200082608083808181608083E0E8F0E080815C
:1011300081608083E1EBF0E0808184608083E0EB7C
:10114000F0E0808181608083E1E9F0E0808182606D
:101150008083808181608083E0E9F0E0808181602C
:101160008083E1EAF0E08081826080838081816019
:101170008083E0EAF0E0808181608083E1E2F1E059
:10118000808182608083808181608083E0E2F1E001
:10119000808181608083EAE7F0E0808184608083E1
:1011A000808182608083808181608083808180688B
:1011B00080831092C1000895893009F449C08A30B3
:1011C000A0F4843051F1853040F4823079F18330DD
:1011D00000F5813009F063C026C0873079F188308E
:1011E00098F5863009F05BC025C08D3009F442C007
:1011F0008E3028F48B30B1F18C30C0F52DC08031A9
:1012000009F442C0813109F445C08F3009F047C06C
:1012100037C0809180008F7703C0809180008F7DE0
:1012200080938000089584B58F7702C084B58F7D48
:1012300084BD08958091B0008F7703C08091B00085
:101240008F7D8093B0000895809190008F7707C0C4
:10125000809190008F7D03C080919000877F809364
:10126000900008958091A0008F7707C08091A00022
:101270008F7D03C08091A000877F8093A000089598
:10128000809120018F7703C0809120018F7D809312
:101290002001089580912001877F80932001089587
:1012A000FF920F931F93F62E482F50E0CA018254ED
:1012B0009E4FFC012491CA0188589E4FFC01149155
:1012C0004E5C5E4FFA0104910023C9F0222319F00D
:1012D000822F0E94DC08E02FF0E0EE0FFF1FE250AB
:1012E000FF4FA591B4919FB7F894FF2021F48C9102
:1012F0001095812302C08C91812B8C939FBF1F91ED
:101300000F91FF900895CF93DF930E947A080E9477
:101310003B02C0E0D0E00E9434022097E1F30E943B
:101320000000F9CF08950E9432010895CF92DF9214
:10133000EF92FF920F931F93CF93DF937C016B018A
:101340008A01C0E0D0E00FC0D6016D916D01D701D8
:10135000ED91FC910190F081E02DC7011995C80F26
:10136000D91F015010400115110571F7CE01DF9111
:10137000CF911F910F91FF90EF90DF90CF90089544
:10138000EE0FFF1F0590F491E02D1994F894FFCF14
:10139000200007030000000000000003960913036B
:1013A000D802D902920900000000000396093F0408
:1013B0008D030404E403000000006C073B07F406FF
:0613C000FD0612072307E1
:00000001FF
